{
  "_format": "hh-sol-artifact-1",
  "contractName": "TaskContract",
  "sourceName": "contracts/TaskContract.sol",
  "abi": [
    {
      "anonymous": false,
      "inputs": [
        {
          "indexed": false,
          "internalType": "address",
          "name": "recipient",
          "type": "address"
        },
        {
          "indexed": false,
          "internalType": "uint256",
          "name": "taskId",
          "type": "uint256"
        }
      ],
      "name": "AddTask",
      "type": "event"
    },
    {
      "anonymous": false,
      "inputs": [
        {
          "indexed": false,
          "internalType": "uint256",
          "name": "taskId",
          "type": "uint256"
        }
      ],
      "name": "DeleteTask",
      "type": "event"
    },
    {
      "anonymous": false,
      "inputs": [],
      "name": "GetMyTasks",
      "type": "event"
    },
    {
      "anonymous": false,
      "inputs": [
        {
          "indexed": false,
          "internalType": "uint256",
          "name": "taskId",
          "type": "uint256"
        },
        {
          "indexed": false,
          "internalType": "bool",
          "name": "isImportant",
          "type": "bool"
        }
      ],
      "name": "MakeImportant",
      "type": "event"
    },
    {
      "anonymous": false,
      "inputs": [
        {
          "indexed": false,
          "internalType": "uint256",
          "name": "taskId",
          "type": "uint256"
        },
        {
          "indexed": false,
          "internalType": "bool",
          "name": "isImportant",
          "type": "bool"
        }
      ],
      "name": "MakeUnImportant",
      "type": "event"
    },
    {
      "anonymous": false,
      "inputs": [
        {
          "indexed": false,
          "internalType": "uint256",
          "name": "taskId",
          "type": "uint256"
        },
        {
          "indexed": false,
          "internalType": "bool",
          "name": "isDone",
          "type": "bool"
        }
      ],
      "name": "ToggleDone",
      "type": "event"
    },
    {
      "inputs": [
        {
          "internalType": "string",
          "name": "taskText",
          "type": "string"
        }
      ],
      "name": "addTask",
      "outputs": [],
      "stateMutability": "nonpayable",
      "type": "function"
    },
    {
      "inputs": [],
      "name": "clearTasks",
      "outputs": [],
      "stateMutability": "nonpayable",
      "type": "function"
    },
    {
      "inputs": [
        {
          "internalType": "uint256",
          "name": "taskId",
          "type": "uint256"
        }
      ],
      "name": "deleteTask",
      "outputs": [],
      "stateMutability": "nonpayable",
      "type": "function"
    },
    {
      "inputs": [],
      "name": "getMyTasks",
      "outputs": [
        {
          "components": [
            {
              "internalType": "uint256",
              "name": "id",
              "type": "uint256"
            },
            {
              "internalType": "string",
              "name": "taskText",
              "type": "string"
            },
            {
              "internalType": "bool",
              "name": "isImportant",
              "type": "bool"
            },
            {
              "internalType": "bool",
              "name": "isDone",
              "type": "bool"
            },
            {
              "internalType": "bool",
              "name": "isDeleted",
              "type": "bool"
            }
          ],
          "internalType": "struct TaskContract.Task[]",
          "name": "",
          "type": "tuple[]"
        }
      ],
      "stateMutability": "view",
      "type": "function"
    },
    {
      "inputs": [
        {
          "internalType": "uint256",
          "name": "taskId",
          "type": "uint256"
        },
        {
          "internalType": "bool",
          "name": "isImportant",
          "type": "bool"
        }
      ],
      "name": "makeImportant",
      "outputs": [],
      "stateMutability": "nonpayable",
      "type": "function"
    },
    {
      "inputs": [
        {
          "internalType": "uint256",
          "name": "taskId",
          "type": "uint256"
        },
        {
          "internalType": "bool",
          "name": "isImportant",
          "type": "bool"
        }
      ],
      "name": "makeUnImportant",
      "outputs": [],
      "stateMutability": "nonpayable",
      "type": "function"
    },
    {
      "inputs": [
        {
          "internalType": "uint256",
          "name": "taskId",
          "type": "uint256"
        },
        {
          "internalType": "bool",
          "name": "isDone",
          "type": "bool"
        }
      ],
      "name": "toggleDone",
      "outputs": [],
      "stateMutability": "nonpayable",
      "type": "function"
    }
  ],
  "bytecode": "0x608060405234801561001057600080fd5b50611503806100206000396000f3fe608060405234801561001057600080fd5b506004361061007d5760003560e01c80636e13f8181161005b5780636e13f818146100d6578063943a1a0a146100f4578063db59166414610110578063f2b981ae1461011a5761007d565b8063560f31921461008257806364a21d2b1461009e57806367238562146100ba575b600080fd5b61009c60048036038101906100979190610bd8565b610136565b005b6100b860048036038101906100b39190610c3d565b610215565b005b6100d460048036038101906100cf9190610dc3565b6102f6565b005b6100de61046b565b6040516100eb9190610fe1565b60405180910390f35b61010e60048036038101906101099190610c3d565b6107d7565b005b6101186108b8565b005b610134600480360381019061012f9190610c3d565b6108c7565b005b3373ffffffffffffffffffffffffffffffffffffffff166001600083815260200190815260200160002060009054906101000a900473ffffffffffffffffffffffffffffffffffffffff1673ffffffffffffffffffffffffffffffffffffffff1603610212576001600082815481106101b2576101b1611003565b5b906000526020600020906003020160020160026101000a81548160ff0219169083151502179055507f8c2dccd1e8cc953301e21aa9acd0c9c15ed4464a558ed394b00c243d523eb538816040516102099190611041565b60405180910390a15b50565b3373ffffffffffffffffffffffffffffffffffffffff166001600084815260200190815260200160002060009054906101000a900473ffffffffffffffffffffffffffffffffffffffff1673ffffffffffffffffffffffffffffffffffffffff16036102f25780600083815481106102905761028f611003565b5b906000526020600020906003020160020160006101000a81548160ff0219169083151502179055507f4a5d97b9072b81f27f96084e8bfb8bd0b0e7971f81f640945bdcdf490ff3e51682826040516102e992919061106b565b60405180910390a15b5050565b60008080549050905060006040518060a0016040528083815260200184815260200160001515815260200160001515815260200160001515815250908060018154018082558091505060019003906000526020600020906003020160009091909190915060008201518160000155602082015181600101908161037991906112a0565b5060408201518160020160006101000a81548160ff02191690831515021790555060608201518160020160016101000a81548160ff02191690831515021790555060808201518160020160026101000a81548160ff0219169083151502179055505050336001600083815260200190815260200160002060006101000a81548173ffffffffffffffffffffffffffffffffffffffff021916908373ffffffffffffffffffffffffffffffffffffffff1602179055507f1f54e1ba1832d428fbd7e7792beaf62b1fc5a382c207ffd614209c1413e94fda338260405161045f9291906113b3565b60405180910390a15050565b60606000808054905067ffffffffffffffff81111561048d5761048c610c98565b5b6040519080825280602002602001820160405280156104c657816020015b6104b3610a6d565b8152602001906001900390816104ab5790505b5090506000805b6000805490508110156106dd573373ffffffffffffffffffffffffffffffffffffffff166001600083815260200190815260200160002060009054906101000a900473ffffffffffffffffffffffffffffffffffffffff1673ffffffffffffffffffffffffffffffffffffffff1614801561057e5750600015156000828154811061055b5761055a611003565b5b906000526020600020906003020160020160019054906101000a900460ff161515145b156106ca576000818154811061059757610596611003565b5b90600052602060002090600302016040518060a0016040529081600082015481526020016001820180546105ca906110c3565b80601f01602080910402602001604051908101604052809291908181526020018280546105f6906110c3565b80156106435780601f1061061857610100808354040283529160200191610643565b820191906000526020600020905b81548152906001019060200180831161062657829003601f168201915b505050505081526020016002820160009054906101000a900460ff161515151581526020016002820160019054906101000a900460ff161515151581526020016002820160029054906101000a900460ff1615151515815250508383815181106106b0576106af611003565b5b602002602001018190525081806106c69061140b565b9250505b80806106d59061140b565b9150506104cd565b5060008167ffffffffffffffff8111156106fa576106f9610c98565b5b60405190808252806020026020018201604052801561073357816020015b610720610a6d565b8152602001906001900390816107185790505b50905060005b8281101561078d5783818151811061075457610753611003565b5b602002602001015182828151811061076f5761076e611003565b5b602002602001018190525080806107859061140b565b915050610739565b506107ce6040518060400160405280601281526020017f4172726179206c656e677468206973202573000000000000000000000000000081525082516109a8565b80935050505090565b3373ffffffffffffffffffffffffffffffffffffffff166001600084815260200190815260200160002060009054906101000a900473ffffffffffffffffffffffffffffffffffffffff1673ffffffffffffffffffffffffffffffffffffffff16036108b457806000838154811061085257610851611003565b5b906000526020600020906003020160020160016101000a81548160ff0219169083151502179055507fba663e32a8d8a276cf7b5bd80c06bfc2d343d4a4a4310f7c686e98fff148c42f82826040516108ab92919061106b565b60405180910390a15b5050565b6000806108c59190610aa2565b565b3373ffffffffffffffffffffffffffffffffffffffff166001600084815260200190815260200160002060009054906101000a900473ffffffffffffffffffffffffffffffffffffffff1673ffffffffffffffffffffffffffffffffffffffff16036109a457806000838154811061094257610941611003565b5b906000526020600020906003020160020160006101000a81548160ff0219169083151502179055507fb7a3668ff1dfd487a0d11a50eada7badfe98291c0d8c991ce7113fd25d1a6095828260405161099b92919061106b565b60405180910390a15b5050565b610a4082826040516024016109be92919061149d565b6040516020818303038152906040527fb60e72cc000000000000000000000000000000000000000000000000000000007bffffffffffffffffffffffffffffffffffffffffffffffffffffffff19166020820180517bffffffffffffffffffffffffffffffffffffffffffffffffffffffff8381831617835250505050610a44565b5050565b60008151905060006a636f6e736f6c652e6c6f679050602083016000808483855afa5050505050565b6040518060a0016040528060008152602001606081526020016000151581526020016000151581526020016000151581525090565b5080546000825560030290600052602060002090810190610ac39190610ac6565b50565b5b80821115610b2d57600080820160009055600182016000610ae89190610b31565b6002820160006101000a81549060ff02191690556002820160016101000a81549060ff02191690556002820160026101000a81549060ff021916905550600301610ac7565b5090565b508054610b3d906110c3565b6000825580601f10610b4f5750610b6e565b601f016020900490600052602060002090810190610b6d9190610b71565b5b50565b5b80821115610b8a576000816000905550600101610b72565b5090565b6000604051905090565b600080fd5b600080fd5b6000819050919050565b610bb581610ba2565b8114610bc057600080fd5b50565b600081359050610bd281610bac565b92915050565b600060208284031215610bee57610bed610b98565b5b6000610bfc84828501610bc3565b91505092915050565b60008115159050919050565b610c1a81610c05565b8114610c2557600080fd5b50565b600081359050610c3781610c11565b92915050565b60008060408385031215610c5457610c53610b98565b5b6000610c6285828601610bc3565b9250506020610c7385828601610c28565b9150509250929050565b600080fd5b600080fd5b6000601f19601f8301169050919050565b7f4e487b7100000000000000000000000000000000000000000000000000000000600052604160045260246000fd5b610cd082610c87565b810181811067ffffffffffffffff82111715610cef57610cee610c98565b5b80604052505050565b6000610d02610b8e565b9050610d0e8282610cc7565b919050565b600067ffffffffffffffff821115610d2e57610d2d610c98565b5b610d3782610c87565b9050602081019050919050565b82818337600083830152505050565b6000610d66610d6184610d13565b610cf8565b905082815260208101848484011115610d8257610d81610c82565b5b610d8d848285610d44565b509392505050565b600082601f830112610daa57610da9610c7d565b5b8135610dba848260208601610d53565b91505092915050565b600060208284031215610dd957610dd8610b98565b5b600082013567ffffffffffffffff811115610df757610df6610b9d565b5b610e0384828501610d95565b91505092915050565b600081519050919050565b600082825260208201905092915050565b6000819050602082019050919050565b610e4181610ba2565b82525050565b600081519050919050565b600082825260208201905092915050565b60005b83811015610e81578082015181840152602081019050610e66565b60008484015250505050565b6000610e9882610e47565b610ea28185610e52565b9350610eb2818560208601610e63565b610ebb81610c87565b840191505092915050565b610ecf81610c05565b82525050565b600060a083016000830151610eed6000860182610e38565b5060208301518482036020860152610f058282610e8d565b9150506040830151610f1a6040860182610ec6565b506060830151610f2d6060860182610ec6565b506080830151610f406080860182610ec6565b508091505092915050565b6000610f578383610ed5565b905092915050565b6000602082019050919050565b6000610f7782610e0c565b610f818185610e17565b935083602082028501610f9385610e28565b8060005b85811015610fcf5784840389528151610fb08582610f4b565b9450610fbb83610f5f565b925060208a01995050600181019050610f97565b50829750879550505050505092915050565b60006020820190508181036000830152610ffb8184610f6c565b905092915050565b7f4e487b7100000000000000000000000000000000000000000000000000000000600052603260045260246000fd5b61103b81610ba2565b82525050565b60006020820190506110566000830184611032565b92915050565b61106581610c05565b82525050565b60006040820190506110806000830185611032565b61108d602083018461105c565b9392505050565b7f4e487b7100000000000000000000000000000000000000000000000000000000600052602260045260246000fd5b600060028204905060018216806110db57607f821691505b6020821081036110ee576110ed611094565b5b50919050565b60008190508160005260206000209050919050565b60006020601f8301049050919050565b600082821b905092915050565b6000600883026111567fffffffffffffffffffffffffffffffffffffffffffffffffffffffffffffffff82611119565b6111608683611119565b95508019841693508086168417925050509392505050565b6000819050919050565b600061119d61119861119384610ba2565b611178565b610ba2565b9050919050565b6000819050919050565b6111b783611182565b6111cb6111c3826111a4565b848454611126565b825550505050565b600090565b6111e06111d3565b6111eb8184846111ae565b505050565b5b8181101561120f576112046000826111d8565b6001810190506111f1565b5050565b601f82111561125457611225816110f4565b61122e84611109565b8101602085101561123d578190505b61125161124985611109565b8301826111f0565b50505b505050565b600082821c905092915050565b600061127760001984600802611259565b1980831691505092915050565b60006112908383611266565b9150826002028217905092915050565b6112a982610e47565b67ffffffffffffffff8111156112c2576112c1610c98565b5b6112cc82546110c3565b6112d7828285611213565b600060209050601f83116001811461130a57600084156112f8578287015190505b6113028582611284565b86555061136a565b601f198416611318866110f4565b60005b828110156113405784890151825560018201915060208501945060208101905061131b565b8683101561135d5784890151611359601f891682611266565b8355505b6001600288020188555050505b505050505050565b600073ffffffffffffffffffffffffffffffffffffffff82169050919050565b600061139d82611372565b9050919050565b6113ad81611392565b82525050565b60006040820190506113c860008301856113a4565b6113d56020830184611032565b9392505050565b7f4e487b7100000000000000000000000000000000000000000000000000000000600052601160045260246000fd5b600061141682610ba2565b91507fffffffffffffffffffffffffffffffffffffffffffffffffffffffffffffffff8203611448576114476113dc565b5b600182019050919050565b600082825260208201905092915050565b600061146f82610e47565b6114798185611453565b9350611489818560208601610e63565b61149281610c87565b840191505092915050565b600060408201905081810360008301526114b78185611464565b90506114c66020830184611032565b939250505056fea2646970667358221220be957b1b60d641f922548a2c7524b62b0d2a55551444fec525e36b667131266f64736f6c63430008110033",
  "linkReferences": {},
  "deployedLinkReferences": {}
}