{"contracts/TaskContract.sol":{"TaskContract":{"abi":[{"anonymous":false,"inputs":[{"indexed":false,"internalType":"address","name":"recipient","type":"address"},{"indexed":false,"internalType":"uint256","name":"taskId","type":"uint256"}],"name":"AddTask","type":"event"},{"anonymous":false,"inputs":[{"indexed":false,"internalType":"uint256","name":"taskId","type":"uint256"}],"name":"DeleteTask","type":"event"},{"anonymous":false,"inputs":[{"indexed":false,"internalType":"uint256","name":"taskId","type":"uint256"},{"indexed":false,"internalType":"bool","name":"isImportant","type":"bool"}],"name":"MakeImportant","type":"event"},{"anonymous":false,"inputs":[{"indexed":false,"internalType":"uint256","name":"taskId","type":"uint256"},{"indexed":false,"internalType":"bool","name":"isImportant","type":"bool"}],"name":"MakeUnImportant","type":"event"},{"anonymous":false,"inputs":[{"indexed":false,"internalType":"uint256","name":"taskId","type":"uint256"},{"indexed":false,"internalType":"bool","name":"isDone","type":"bool"}],"name":"ToggleDone","type":"event"},{"inputs":[{"internalType":"string","name":"taskText","type":"string"}],"name":"addTask","outputs":[],"stateMutability":"nonpayable","type":"function"},{"inputs":[],"name":"clearTasks","outputs":[],"stateMutability":"nonpayable","type":"function"},{"inputs":[{"internalType":"uint256","name":"taskId","type":"uint256"}],"name":"deleteTask","outputs":[],"stateMutability":"nonpayable","type":"function"},{"inputs":[],"name":"getMyTasks","outputs":[{"components":[{"internalType":"uint256","name":"id","type":"uint256"},{"internalType":"string","name":"taskText","type":"string"},{"internalType":"bool","name":"isImportant","type":"bool"},{"internalType":"bool","name":"isDone","type":"bool"},{"internalType":"bool","name":"isDeleted","type":"bool"}],"internalType":"struct TaskContract.Task[]","name":"","type":"tuple[]"}],"stateMutability":"view","type":"function"},{"inputs":[{"internalType":"uint256","name":"taskId","type":"uint256"},{"internalType":"bool","name":"isImportant","type":"bool"}],"name":"makeImportant","outputs":[],"stateMutability":"nonpayable","type":"function"},{"inputs":[{"internalType":"uint256","name":"taskId","type":"uint256"},{"internalType":"bool","name":"isImportant","type":"bool"}],"name":"makeUnImportant","outputs":[],"stateMutability":"nonpayable","type":"function"},{"inputs":[{"internalType":"uint256","name":"taskId","type":"uint256"},{"internalType":"bool","name":"isDone","type":"bool"}],"name":"toggleDone","outputs":[],"stateMutability":"nonpayable","type":"function"}],"evm":{"bytecode":{"linkReferences":{},"object":"608060405234801561001057600080fd5b50611503806100206000396000f3fe608060405234801561001057600080fd5b506004361061007d5760003560e01c80636e13f8181161005b5780636e13f818146100d6578063943a1a0a146100f4578063db59166414610110578063f2b981ae1461011a5761007d565b8063560f31921461008257806364a21d2b1461009e57806367238562146100ba575b600080fd5b61009c60048036038101906100979190610bd8565b610136565b005b6100b860048036038101906100b39190610c3d565b610215565b005b6100d460048036038101906100cf9190610dc3565b6102f6565b005b6100de61046b565b6040516100eb9190610fe1565b60405180910390f35b61010e60048036038101906101099190610c3d565b6107d7565b005b6101186108b8565b005b610134600480360381019061012f9190610c3d565b6108c7565b005b3373ffffffffffffffffffffffffffffffffffffffff166001600083815260200190815260200160002060009054906101000a900473ffffffffffffffffffffffffffffffffffffffff1673ffffffffffffffffffffffffffffffffffffffff1603610212576001600082815481106101b2576101b1611003565b5b906000526020600020906003020160020160026101000a81548160ff0219169083151502179055507f8c2dccd1e8cc953301e21aa9acd0c9c15ed4464a558ed394b00c243d523eb538816040516102099190611041565b60405180910390a15b50565b3373ffffffffffffffffffffffffffffffffffffffff166001600084815260200190815260200160002060009054906101000a900473ffffffffffffffffffffffffffffffffffffffff1673ffffffffffffffffffffffffffffffffffffffff16036102f25780600083815481106102905761028f611003565b5b906000526020600020906003020160020160006101000a81548160ff0219169083151502179055507f4a5d97b9072b81f27f96084e8bfb8bd0b0e7971f81f640945bdcdf490ff3e51682826040516102e992919061106b565b60405180910390a15b5050565b60008080549050905060006040518060a0016040528083815260200184815260200160001515815260200160001515815260200160001515815250908060018154018082558091505060019003906000526020600020906003020160009091909190915060008201518160000155602082015181600101908161037991906112a0565b5060408201518160020160006101000a81548160ff02191690831515021790555060608201518160020160016101000a81548160ff02191690831515021790555060808201518160020160026101000a81548160ff0219169083151502179055505050336001600083815260200190815260200160002060006101000a81548173ffffffffffffffffffffffffffffffffffffffff021916908373ffffffffffffffffffffffffffffffffffffffff1602179055507f1f54e1ba1832d428fbd7e7792beaf62b1fc5a382c207ffd614209c1413e94fda338260405161045f9291906113b3565b60405180910390a15050565b60606000808054905067ffffffffffffffff81111561048d5761048c610c98565b5b6040519080825280602002602001820160405280156104c657816020015b6104b3610a6d565b8152602001906001900390816104ab5790505b5090506000805b6000805490508110156106dd573373ffffffffffffffffffffffffffffffffffffffff166001600083815260200190815260200160002060009054906101000a900473ffffffffffffffffffffffffffffffffffffffff1673ffffffffffffffffffffffffffffffffffffffff1614801561057e5750600015156000828154811061055b5761055a611003565b5b906000526020600020906003020160020160019054906101000a900460ff161515145b156106ca576000818154811061059757610596611003565b5b90600052602060002090600302016040518060a0016040529081600082015481526020016001820180546105ca906110c3565b80601f01602080910402602001604051908101604052809291908181526020018280546105f6906110c3565b80156106435780601f1061061857610100808354040283529160200191610643565b820191906000526020600020905b81548152906001019060200180831161062657829003601f168201915b505050505081526020016002820160009054906101000a900460ff161515151581526020016002820160019054906101000a900460ff161515151581526020016002820160029054906101000a900460ff1615151515815250508383815181106106b0576106af611003565b5b602002602001018190525081806106c69061140b565b9250505b80806106d59061140b565b9150506104cd565b5060008167ffffffffffffffff8111156106fa576106f9610c98565b5b60405190808252806020026020018201604052801561073357816020015b610720610a6d565b8152602001906001900390816107185790505b50905060005b8281101561078d5783818151811061075457610753611003565b5b602002602001015182828151811061076f5761076e611003565b5b602002602001018190525080806107859061140b565b915050610739565b506107ce6040518060400160405280601281526020017f4172726179206c656e677468206973202573000000000000000000000000000081525082516109a8565b80935050505090565b3373ffffffffffffffffffffffffffffffffffffffff166001600084815260200190815260200160002060009054906101000a900473ffffffffffffffffffffffffffffffffffffffff1673ffffffffffffffffffffffffffffffffffffffff16036108b457806000838154811061085257610851611003565b5b906000526020600020906003020160020160016101000a81548160ff0219169083151502179055507fba663e32a8d8a276cf7b5bd80c06bfc2d343d4a4a4310f7c686e98fff148c42f82826040516108ab92919061106b565b60405180910390a15b5050565b6000806108c59190610aa2565b565b3373ffffffffffffffffffffffffffffffffffffffff166001600084815260200190815260200160002060009054906101000a900473ffffffffffffffffffffffffffffffffffffffff1673ffffffffffffffffffffffffffffffffffffffff16036109a457806000838154811061094257610941611003565b5b906000526020600020906003020160020160006101000a81548160ff0219169083151502179055507fb7a3668ff1dfd487a0d11a50eada7badfe98291c0d8c991ce7113fd25d1a6095828260405161099b92919061106b565b60405180910390a15b5050565b610a4082826040516024016109be92919061149d565b6040516020818303038152906040527fb60e72cc000000000000000000000000000000000000000000000000000000007bffffffffffffffffffffffffffffffffffffffffffffffffffffffff19166020820180517bffffffffffffffffffffffffffffffffffffffffffffffffffffffff8381831617835250505050610a44565b5050565b60008151905060006a636f6e736f6c652e6c6f679050602083016000808483855afa5050505050565b6040518060a0016040528060008152602001606081526020016000151581526020016000151581526020016000151581525090565b5080546000825560030290600052602060002090810190610ac39190610ac6565b50565b5b80821115610b2d57600080820160009055600182016000610ae89190610b31565b6002820160006101000a81549060ff02191690556002820160016101000a81549060ff02191690556002820160026101000a81549060ff021916905550600301610ac7565b5090565b508054610b3d906110c3565b6000825580601f10610b4f5750610b6e565b601f016020900490600052602060002090810190610b6d9190610b71565b5b50565b5b80821115610b8a576000816000905550600101610b72565b5090565b6000604051905090565b600080fd5b600080fd5b6000819050919050565b610bb581610ba2565b8114610bc057600080fd5b50565b600081359050610bd281610bac565b92915050565b600060208284031215610bee57610bed610b98565b5b6000610bfc84828501610bc3565b91505092915050565b60008115159050919050565b610c1a81610c05565b8114610c2557600080fd5b50565b600081359050610c3781610c11565b92915050565b60008060408385031215610c5457610c53610b98565b5b6000610c6285828601610bc3565b9250506020610c7385828601610c28565b9150509250929050565b600080fd5b600080fd5b6000601f19601f8301169050919050565b7f4e487b7100000000000000000000000000000000000000000000000000000000600052604160045260246000fd5b610cd082610c87565b810181811067ffffffffffffffff82111715610cef57610cee610c98565b5b80604052505050565b6000610d02610b8e565b9050610d0e8282610cc7565b919050565b600067ffffffffffffffff821115610d2e57610d2d610c98565b5b610d3782610c87565b9050602081019050919050565b82818337600083830152505050565b6000610d66610d6184610d13565b610cf8565b905082815260208101848484011115610d8257610d81610c82565b5b610d8d848285610d44565b509392505050565b600082601f830112610daa57610da9610c7d565b5b8135610dba848260208601610d53565b91505092915050565b600060208284031215610dd957610dd8610b98565b5b600082013567ffffffffffffffff811115610df757610df6610b9d565b5b610e0384828501610d95565b91505092915050565b600081519050919050565b600082825260208201905092915050565b6000819050602082019050919050565b610e4181610ba2565b82525050565b600081519050919050565b600082825260208201905092915050565b60005b83811015610e81578082015181840152602081019050610e66565b60008484015250505050565b6000610e9882610e47565b610ea28185610e52565b9350610eb2818560208601610e63565b610ebb81610c87565b840191505092915050565b610ecf81610c05565b82525050565b600060a083016000830151610eed6000860182610e38565b5060208301518482036020860152610f058282610e8d565b9150506040830151610f1a6040860182610ec6565b506060830151610f2d6060860182610ec6565b506080830151610f406080860182610ec6565b508091505092915050565b6000610f578383610ed5565b905092915050565b6000602082019050919050565b6000610f7782610e0c565b610f818185610e17565b935083602082028501610f9385610e28565b8060005b85811015610fcf5784840389528151610fb08582610f4b565b9450610fbb83610f5f565b925060208a01995050600181019050610f97565b50829750879550505050505092915050565b60006020820190508181036000830152610ffb8184610f6c565b905092915050565b7f4e487b7100000000000000000000000000000000000000000000000000000000600052603260045260246000fd5b61103b81610ba2565b82525050565b60006020820190506110566000830184611032565b92915050565b61106581610c05565b82525050565b60006040820190506110806000830185611032565b61108d602083018461105c565b9392505050565b7f4e487b7100000000000000000000000000000000000000000000000000000000600052602260045260246000fd5b600060028204905060018216806110db57607f821691505b6020821081036110ee576110ed611094565b5b50919050565b60008190508160005260206000209050919050565b60006020601f8301049050919050565b600082821b905092915050565b6000600883026111567fffffffffffffffffffffffffffffffffffffffffffffffffffffffffffffffff82611119565b6111608683611119565b95508019841693508086168417925050509392505050565b6000819050919050565b600061119d61119861119384610ba2565b611178565b610ba2565b9050919050565b6000819050919050565b6111b783611182565b6111cb6111c3826111a4565b848454611126565b825550505050565b600090565b6111e06111d3565b6111eb8184846111ae565b505050565b5b8181101561120f576112046000826111d8565b6001810190506111f1565b5050565b601f82111561125457611225816110f4565b61122e84611109565b8101602085101561123d578190505b61125161124985611109565b8301826111f0565b50505b505050565b600082821c905092915050565b600061127760001984600802611259565b1980831691505092915050565b60006112908383611266565b9150826002028217905092915050565b6112a982610e47565b67ffffffffffffffff8111156112c2576112c1610c98565b5b6112cc82546110c3565b6112d7828285611213565b600060209050601f83116001811461130a57600084156112f8578287015190505b6113028582611284565b86555061136a565b601f198416611318866110f4565b60005b828110156113405784890151825560018201915060208501945060208101905061131b565b8683101561135d5784890151611359601f891682611266565b8355505b6001600288020188555050505b505050505050565b600073ffffffffffffffffffffffffffffffffffffffff82169050919050565b600061139d82611372565b9050919050565b6113ad81611392565b82525050565b60006040820190506113c860008301856113a4565b6113d56020830184611032565b9392505050565b7f4e487b7100000000000000000000000000000000000000000000000000000000600052601160045260246000fd5b600061141682610ba2565b91507fffffffffffffffffffffffffffffffffffffffffffffffffffffffffffffffff8203611448576114476113dc565b5b600182019050919050565b600082825260208201905092915050565b600061146f82610e47565b6114798185611453565b9350611489818560208601610e63565b61149281610c87565b840191505092915050565b600060408201905081810360008301526114b78185611464565b90506114c66020830184611032565b939250505056fea264697066735822122041fe948998dcbd388facab2ee24bd6253b3aab16655c19d2060a7195299ee68764736f6c63430008110033","opcodes":"PUSH1 0x80 PUSH1 0x40 MSTORE CALLVALUE DUP1 ISZERO PUSH2 0x10 JUMPI PUSH1 0x0 DUP1 REVERT JUMPDEST POP PUSH2 0x1503 DUP1 PUSH2 0x20 PUSH1 0x0 CODECOPY PUSH1 0x0 RETURN INVALID PUSH1 0x80 PUSH1 0x40 MSTORE CALLVALUE DUP1 ISZERO PUSH2 0x10 JUMPI PUSH1 0x0 DUP1 REVERT JUMPDEST POP PUSH1 0x4 CALLDATASIZE LT PUSH2 0x7D JUMPI PUSH1 0x0 CALLDATALOAD PUSH1 0xE0 SHR DUP1 PUSH4 0x6E13F818 GT PUSH2 0x5B JUMPI DUP1 PUSH4 0x6E13F818 EQ PUSH2 0xD6 JUMPI DUP1 PUSH4 0x943A1A0A EQ PUSH2 0xF4 JUMPI DUP1 PUSH4 0xDB591664 EQ PUSH2 0x110 JUMPI DUP1 PUSH4 0xF2B981AE EQ PUSH2 0x11A JUMPI PUSH2 0x7D JUMP JUMPDEST DUP1 PUSH4 0x560F3192 EQ PUSH2 0x82 JUMPI DUP1 PUSH4 0x64A21D2B EQ PUSH2 0x9E JUMPI DUP1 PUSH4 0x67238562 EQ PUSH2 0xBA JUMPI JUMPDEST PUSH1 0x0 DUP1 REVERT JUMPDEST PUSH2 0x9C PUSH1 0x4 DUP1 CALLDATASIZE SUB DUP2 ADD SWAP1 PUSH2 0x97 SWAP2 SWAP1 PUSH2 0xBD8 JUMP JUMPDEST PUSH2 0x136 JUMP JUMPDEST STOP JUMPDEST PUSH2 0xB8 PUSH1 0x4 DUP1 CALLDATASIZE SUB DUP2 ADD SWAP1 PUSH2 0xB3 SWAP2 SWAP1 PUSH2 0xC3D JUMP JUMPDEST PUSH2 0x215 JUMP JUMPDEST STOP JUMPDEST PUSH2 0xD4 PUSH1 0x4 DUP1 CALLDATASIZE SUB DUP2 ADD SWAP1 PUSH2 0xCF SWAP2 SWAP1 PUSH2 0xDC3 JUMP JUMPDEST PUSH2 0x2F6 JUMP JUMPDEST STOP JUMPDEST PUSH2 0xDE PUSH2 0x46B JUMP JUMPDEST PUSH1 0x40 MLOAD PUSH2 0xEB SWAP2 SWAP1 PUSH2 0xFE1 JUMP JUMPDEST PUSH1 0x40 MLOAD DUP1 SWAP2 SUB SWAP1 RETURN JUMPDEST PUSH2 0x10E PUSH1 0x4 DUP1 CALLDATASIZE SUB DUP2 ADD SWAP1 PUSH2 0x109 SWAP2 SWAP1 PUSH2 0xC3D JUMP JUMPDEST PUSH2 0x7D7 JUMP JUMPDEST STOP JUMPDEST PUSH2 0x118 PUSH2 0x8B8 JUMP JUMPDEST STOP JUMPDEST PUSH2 0x134 PUSH1 0x4 DUP1 CALLDATASIZE SUB DUP2 ADD SWAP1 PUSH2 0x12F SWAP2 SWAP1 PUSH2 0xC3D JUMP JUMPDEST PUSH2 0x8C7 JUMP JUMPDEST STOP JUMPDEST CALLER PUSH20 0xFFFFFFFFFFFFFFFFFFFFFFFFFFFFFFFFFFFFFFFF AND PUSH1 0x1 PUSH1 0x0 DUP4 DUP2 MSTORE PUSH1 0x20 ADD SWAP1 DUP2 MSTORE PUSH1 0x20 ADD PUSH1 0x0 KECCAK256 PUSH1 0x0 SWAP1 SLOAD SWAP1 PUSH2 0x100 EXP SWAP1 DIV PUSH20 0xFFFFFFFFFFFFFFFFFFFFFFFFFFFFFFFFFFFFFFFF AND PUSH20 0xFFFFFFFFFFFFFFFFFFFFFFFFFFFFFFFFFFFFFFFF AND SUB PUSH2 0x212 JUMPI PUSH1 0x1 PUSH1 0x0 DUP3 DUP2 SLOAD DUP2 LT PUSH2 0x1B2 JUMPI PUSH2 0x1B1 PUSH2 0x1003 JUMP JUMPDEST JUMPDEST SWAP1 PUSH1 0x0 MSTORE PUSH1 0x20 PUSH1 0x0 KECCAK256 SWAP1 PUSH1 0x3 MUL ADD PUSH1 0x2 ADD PUSH1 0x2 PUSH2 0x100 EXP DUP2 SLOAD DUP2 PUSH1 0xFF MUL NOT AND SWAP1 DUP4 ISZERO ISZERO MUL OR SWAP1 SSTORE POP PUSH32 0x8C2DCCD1E8CC953301E21AA9ACD0C9C15ED4464A558ED394B00C243D523EB538 DUP2 PUSH1 0x40 MLOAD PUSH2 0x209 SWAP2 SWAP1 PUSH2 0x1041 JUMP JUMPDEST PUSH1 0x40 MLOAD DUP1 SWAP2 SUB SWAP1 LOG1 JUMPDEST POP JUMP JUMPDEST CALLER PUSH20 0xFFFFFFFFFFFFFFFFFFFFFFFFFFFFFFFFFFFFFFFF AND PUSH1 0x1 PUSH1 0x0 DUP5 DUP2 MSTORE PUSH1 0x20 ADD SWAP1 DUP2 MSTORE PUSH1 0x20 ADD PUSH1 0x0 KECCAK256 PUSH1 0x0 SWAP1 SLOAD SWAP1 PUSH2 0x100 EXP SWAP1 DIV PUSH20 0xFFFFFFFFFFFFFFFFFFFFFFFFFFFFFFFFFFFFFFFF AND PUSH20 0xFFFFFFFFFFFFFFFFFFFFFFFFFFFFFFFFFFFFFFFF AND SUB PUSH2 0x2F2 JUMPI DUP1 PUSH1 0x0 DUP4 DUP2 SLOAD DUP2 LT PUSH2 0x290 JUMPI PUSH2 0x28F PUSH2 0x1003 JUMP JUMPDEST JUMPDEST SWAP1 PUSH1 0x0 MSTORE PUSH1 0x20 PUSH1 0x0 KECCAK256 SWAP1 PUSH1 0x3 MUL ADD PUSH1 0x2 ADD PUSH1 0x0 PUSH2 0x100 EXP DUP2 SLOAD DUP2 PUSH1 0xFF MUL NOT AND SWAP1 DUP4 ISZERO ISZERO MUL OR SWAP1 SSTORE POP PUSH32 0x4A5D97B9072B81F27F96084E8BFB8BD0B0E7971F81F640945BDCDF490FF3E516 DUP3 DUP3 PUSH1 0x40 MLOAD PUSH2 0x2E9 SWAP3 SWAP2 SWAP1 PUSH2 0x106B JUMP JUMPDEST PUSH1 0x40 MLOAD DUP1 SWAP2 SUB SWAP1 LOG1 JUMPDEST POP POP JUMP JUMPDEST PUSH1 0x0 DUP1 DUP1 SLOAD SWAP1 POP SWAP1 POP PUSH1 0x0 PUSH1 0x40 MLOAD DUP1 PUSH1 0xA0 ADD PUSH1 0x40 MSTORE DUP1 DUP4 DUP2 MSTORE PUSH1 0x20 ADD DUP5 DUP2 MSTORE PUSH1 0x20 ADD PUSH1 0x0 ISZERO ISZERO DUP2 MSTORE PUSH1 0x20 ADD PUSH1 0x0 ISZERO ISZERO DUP2 MSTORE PUSH1 0x20 ADD PUSH1 0x0 ISZERO ISZERO DUP2 MSTORE POP SWAP1 DUP1 PUSH1 0x1 DUP2 SLOAD ADD DUP1 DUP3 SSTORE DUP1 SWAP2 POP POP PUSH1 0x1 SWAP1 SUB SWAP1 PUSH1 0x0 MSTORE PUSH1 0x20 PUSH1 0x0 KECCAK256 SWAP1 PUSH1 0x3 MUL ADD PUSH1 0x0 SWAP1 SWAP2 SWAP1 SWAP2 SWAP1 SWAP2 POP PUSH1 0x0 DUP3 ADD MLOAD DUP2 PUSH1 0x0 ADD SSTORE PUSH1 0x20 DUP3 ADD MLOAD DUP2 PUSH1 0x1 ADD SWAP1 DUP2 PUSH2 0x379 SWAP2 SWAP1 PUSH2 0x12A0 JUMP JUMPDEST POP PUSH1 0x40 DUP3 ADD MLOAD DUP2 PUSH1 0x2 ADD PUSH1 0x0 PUSH2 0x100 EXP DUP2 SLOAD DUP2 PUSH1 0xFF MUL NOT AND SWAP1 DUP4 ISZERO ISZERO MUL OR SWAP1 SSTORE POP PUSH1 0x60 DUP3 ADD MLOAD DUP2 PUSH1 0x2 ADD PUSH1 0x1 PUSH2 0x100 EXP DUP2 SLOAD DUP2 PUSH1 0xFF MUL NOT AND SWAP1 DUP4 ISZERO ISZERO MUL OR SWAP1 SSTORE POP PUSH1 0x80 DUP3 ADD MLOAD DUP2 PUSH1 0x2 ADD PUSH1 0x2 PUSH2 0x100 EXP DUP2 SLOAD DUP2 PUSH1 0xFF MUL NOT AND SWAP1 DUP4 ISZERO ISZERO MUL OR SWAP1 SSTORE POP POP POP CALLER PUSH1 0x1 PUSH1 0x0 DUP4 DUP2 MSTORE PUSH1 0x20 ADD SWAP1 DUP2 MSTORE PUSH1 0x20 ADD PUSH1 0x0 KECCAK256 PUSH1 0x0 PUSH2 0x100 EXP DUP2 SLOAD DUP2 PUSH20 0xFFFFFFFFFFFFFFFFFFFFFFFFFFFFFFFFFFFFFFFF MUL NOT AND SWAP1 DUP4 PUSH20 0xFFFFFFFFFFFFFFFFFFFFFFFFFFFFFFFFFFFFFFFF AND MUL OR SWAP1 SSTORE POP PUSH32 0x1F54E1BA1832D428FBD7E7792BEAF62B1FC5A382C207FFD614209C1413E94FDA CALLER DUP3 PUSH1 0x40 MLOAD PUSH2 0x45F SWAP3 SWAP2 SWAP1 PUSH2 0x13B3 JUMP JUMPDEST PUSH1 0x40 MLOAD DUP1 SWAP2 SUB SWAP1 LOG1 POP POP JUMP JUMPDEST PUSH1 0x60 PUSH1 0x0 DUP1 DUP1 SLOAD SWAP1 POP PUSH8 0xFFFFFFFFFFFFFFFF DUP2 GT ISZERO PUSH2 0x48D JUMPI PUSH2 0x48C PUSH2 0xC98 JUMP JUMPDEST JUMPDEST PUSH1 0x40 MLOAD SWAP1 DUP1 DUP3 MSTORE DUP1 PUSH1 0x20 MUL PUSH1 0x20 ADD DUP3 ADD PUSH1 0x40 MSTORE DUP1 ISZERO PUSH2 0x4C6 JUMPI DUP2 PUSH1 0x20 ADD JUMPDEST PUSH2 0x4B3 PUSH2 0xA6D JUMP JUMPDEST DUP2 MSTORE PUSH1 0x20 ADD SWAP1 PUSH1 0x1 SWAP1 SUB SWAP1 DUP2 PUSH2 0x4AB JUMPI SWAP1 POP JUMPDEST POP SWAP1 POP PUSH1 0x0 DUP1 JUMPDEST PUSH1 0x0 DUP1 SLOAD SWAP1 POP DUP2 LT ISZERO PUSH2 0x6DD JUMPI CALLER PUSH20 0xFFFFFFFFFFFFFFFFFFFFFFFFFFFFFFFFFFFFFFFF AND PUSH1 0x1 PUSH1 0x0 DUP4 DUP2 MSTORE PUSH1 0x20 ADD SWAP1 DUP2 MSTORE PUSH1 0x20 ADD PUSH1 0x0 KECCAK256 PUSH1 0x0 SWAP1 SLOAD SWAP1 PUSH2 0x100 EXP SWAP1 DIV PUSH20 0xFFFFFFFFFFFFFFFFFFFFFFFFFFFFFFFFFFFFFFFF AND PUSH20 0xFFFFFFFFFFFFFFFFFFFFFFFFFFFFFFFFFFFFFFFF AND EQ DUP1 ISZERO PUSH2 0x57E JUMPI POP PUSH1 0x0 ISZERO ISZERO PUSH1 0x0 DUP3 DUP2 SLOAD DUP2 LT PUSH2 0x55B JUMPI PUSH2 0x55A PUSH2 0x1003 JUMP JUMPDEST JUMPDEST SWAP1 PUSH1 0x0 MSTORE PUSH1 0x20 PUSH1 0x0 KECCAK256 SWAP1 PUSH1 0x3 MUL ADD PUSH1 0x2 ADD PUSH1 0x1 SWAP1 SLOAD SWAP1 PUSH2 0x100 EXP SWAP1 DIV PUSH1 0xFF AND ISZERO ISZERO EQ JUMPDEST ISZERO PUSH2 0x6CA JUMPI PUSH1 0x0 DUP2 DUP2 SLOAD DUP2 LT PUSH2 0x597 JUMPI PUSH2 0x596 PUSH2 0x1003 JUMP JUMPDEST JUMPDEST SWAP1 PUSH1 0x0 MSTORE PUSH1 0x20 PUSH1 0x0 KECCAK256 SWAP1 PUSH1 0x3 MUL ADD PUSH1 0x40 MLOAD DUP1 PUSH1 0xA0 ADD PUSH1 0x40 MSTORE SWAP1 DUP2 PUSH1 0x0 DUP3 ADD SLOAD DUP2 MSTORE PUSH1 0x20 ADD PUSH1 0x1 DUP3 ADD DUP1 SLOAD PUSH2 0x5CA SWAP1 PUSH2 0x10C3 JUMP JUMPDEST DUP1 PUSH1 0x1F ADD PUSH1 0x20 DUP1 SWAP2 DIV MUL PUSH1 0x20 ADD PUSH1 0x40 MLOAD SWAP1 DUP2 ADD PUSH1 0x40 MSTORE DUP1 SWAP3 SWAP2 SWAP1 DUP2 DUP2 MSTORE PUSH1 0x20 ADD DUP3 DUP1 SLOAD PUSH2 0x5F6 SWAP1 PUSH2 0x10C3 JUMP JUMPDEST DUP1 ISZERO PUSH2 0x643 JUMPI DUP1 PUSH1 0x1F LT PUSH2 0x618 JUMPI PUSH2 0x100 DUP1 DUP4 SLOAD DIV MUL DUP4 MSTORE SWAP2 PUSH1 0x20 ADD SWAP2 PUSH2 0x643 JUMP JUMPDEST DUP3 ADD SWAP2 SWAP1 PUSH1 0x0 MSTORE PUSH1 0x20 PUSH1 0x0 KECCAK256 SWAP1 JUMPDEST DUP2 SLOAD DUP2 MSTORE SWAP1 PUSH1 0x1 ADD SWAP1 PUSH1 0x20 ADD DUP1 DUP4 GT PUSH2 0x626 JUMPI DUP3 SWAP1 SUB PUSH1 0x1F AND DUP3 ADD SWAP2 JUMPDEST POP POP POP POP POP DUP2 MSTORE PUSH1 0x20 ADD PUSH1 0x2 DUP3 ADD PUSH1 0x0 SWAP1 SLOAD SWAP1 PUSH2 0x100 EXP SWAP1 DIV PUSH1 0xFF AND ISZERO ISZERO ISZERO ISZERO DUP2 MSTORE PUSH1 0x20 ADD PUSH1 0x2 DUP3 ADD PUSH1 0x1 SWAP1 SLOAD SWAP1 PUSH2 0x100 EXP SWAP1 DIV PUSH1 0xFF AND ISZERO ISZERO ISZERO ISZERO DUP2 MSTORE PUSH1 0x20 ADD PUSH1 0x2 DUP3 ADD PUSH1 0x2 SWAP1 SLOAD SWAP1 PUSH2 0x100 EXP SWAP1 DIV PUSH1 0xFF AND ISZERO ISZERO ISZERO ISZERO DUP2 MSTORE POP POP DUP4 DUP4 DUP2 MLOAD DUP2 LT PUSH2 0x6B0 JUMPI PUSH2 0x6AF PUSH2 0x1003 JUMP JUMPDEST JUMPDEST PUSH1 0x20 MUL PUSH1 0x20 ADD ADD DUP2 SWAP1 MSTORE POP DUP2 DUP1 PUSH2 0x6C6 SWAP1 PUSH2 0x140B JUMP JUMPDEST SWAP3 POP POP JUMPDEST DUP1 DUP1 PUSH2 0x6D5 SWAP1 PUSH2 0x140B JUMP JUMPDEST SWAP2 POP POP PUSH2 0x4CD JUMP JUMPDEST POP PUSH1 0x0 DUP2 PUSH8 0xFFFFFFFFFFFFFFFF DUP2 GT ISZERO PUSH2 0x6FA JUMPI PUSH2 0x6F9 PUSH2 0xC98 JUMP JUMPDEST JUMPDEST PUSH1 0x40 MLOAD SWAP1 DUP1 DUP3 MSTORE DUP1 PUSH1 0x20 MUL PUSH1 0x20 ADD DUP3 ADD PUSH1 0x40 MSTORE DUP1 ISZERO PUSH2 0x733 JUMPI DUP2 PUSH1 0x20 ADD JUMPDEST PUSH2 0x720 PUSH2 0xA6D JUMP JUMPDEST DUP2 MSTORE PUSH1 0x20 ADD SWAP1 PUSH1 0x1 SWAP1 SUB SWAP1 DUP2 PUSH2 0x718 JUMPI SWAP1 POP JUMPDEST POP SWAP1 POP PUSH1 0x0 JUMPDEST DUP3 DUP2 LT ISZERO PUSH2 0x78D JUMPI DUP4 DUP2 DUP2 MLOAD DUP2 LT PUSH2 0x754 JUMPI PUSH2 0x753 PUSH2 0x1003 JUMP JUMPDEST JUMPDEST PUSH1 0x20 MUL PUSH1 0x20 ADD ADD MLOAD DUP3 DUP3 DUP2 MLOAD DUP2 LT PUSH2 0x76F JUMPI PUSH2 0x76E PUSH2 0x1003 JUMP JUMPDEST JUMPDEST PUSH1 0x20 MUL PUSH1 0x20 ADD ADD DUP2 SWAP1 MSTORE POP DUP1 DUP1 PUSH2 0x785 SWAP1 PUSH2 0x140B JUMP JUMPDEST SWAP2 POP POP PUSH2 0x739 JUMP JUMPDEST POP PUSH2 0x7CE PUSH1 0x40 MLOAD DUP1 PUSH1 0x40 ADD PUSH1 0x40 MSTORE DUP1 PUSH1 0x12 DUP2 MSTORE PUSH1 0x20 ADD PUSH32 0x4172726179206C656E6774682069732025730000000000000000000000000000 DUP2 MSTORE POP DUP3 MLOAD PUSH2 0x9A8 JUMP JUMPDEST DUP1 SWAP4 POP POP POP POP SWAP1 JUMP JUMPDEST CALLER PUSH20 0xFFFFFFFFFFFFFFFFFFFFFFFFFFFFFFFFFFFFFFFF AND PUSH1 0x1 PUSH1 0x0 DUP5 DUP2 MSTORE PUSH1 0x20 ADD SWAP1 DUP2 MSTORE PUSH1 0x20 ADD PUSH1 0x0 KECCAK256 PUSH1 0x0 SWAP1 SLOAD SWAP1 PUSH2 0x100 EXP SWAP1 DIV PUSH20 0xFFFFFFFFFFFFFFFFFFFFFFFFFFFFFFFFFFFFFFFF AND PUSH20 0xFFFFFFFFFFFFFFFFFFFFFFFFFFFFFFFFFFFFFFFF AND SUB PUSH2 0x8B4 JUMPI DUP1 PUSH1 0x0 DUP4 DUP2 SLOAD DUP2 LT PUSH2 0x852 JUMPI PUSH2 0x851 PUSH2 0x1003 JUMP JUMPDEST JUMPDEST SWAP1 PUSH1 0x0 MSTORE PUSH1 0x20 PUSH1 0x0 KECCAK256 SWAP1 PUSH1 0x3 MUL ADD PUSH1 0x2 ADD PUSH1 0x1 PUSH2 0x100 EXP DUP2 SLOAD DUP2 PUSH1 0xFF MUL NOT AND SWAP1 DUP4 ISZERO ISZERO MUL OR SWAP1 SSTORE POP PUSH32 0xBA663E32A8D8A276CF7B5BD80C06BFC2D343D4A4A4310F7C686E98FFF148C42F DUP3 DUP3 PUSH1 0x40 MLOAD PUSH2 0x8AB SWAP3 SWAP2 SWAP1 PUSH2 0x106B JUMP JUMPDEST PUSH1 0x40 MLOAD DUP1 SWAP2 SUB SWAP1 LOG1 JUMPDEST POP POP JUMP JUMPDEST PUSH1 0x0 DUP1 PUSH2 0x8C5 SWAP2 SWAP1 PUSH2 0xAA2 JUMP JUMPDEST JUMP JUMPDEST CALLER PUSH20 0xFFFFFFFFFFFFFFFFFFFFFFFFFFFFFFFFFFFFFFFF AND PUSH1 0x1 PUSH1 0x0 DUP5 DUP2 MSTORE PUSH1 0x20 ADD SWAP1 DUP2 MSTORE PUSH1 0x20 ADD PUSH1 0x0 KECCAK256 PUSH1 0x0 SWAP1 SLOAD SWAP1 PUSH2 0x100 EXP SWAP1 DIV PUSH20 0xFFFFFFFFFFFFFFFFFFFFFFFFFFFFFFFFFFFFFFFF AND PUSH20 0xFFFFFFFFFFFFFFFFFFFFFFFFFFFFFFFFFFFFFFFF AND SUB PUSH2 0x9A4 JUMPI DUP1 PUSH1 0x0 DUP4 DUP2 SLOAD DUP2 LT PUSH2 0x942 JUMPI PUSH2 0x941 PUSH2 0x1003 JUMP JUMPDEST JUMPDEST SWAP1 PUSH1 0x0 MSTORE PUSH1 0x20 PUSH1 0x0 KECCAK256 SWAP1 PUSH1 0x3 MUL ADD PUSH1 0x2 ADD PUSH1 0x0 PUSH2 0x100 EXP DUP2 SLOAD DUP2 PUSH1 0xFF MUL NOT AND SWAP1 DUP4 ISZERO ISZERO MUL OR SWAP1 SSTORE POP PUSH32 0xB7A3668FF1DFD487A0D11A50EADA7BADFE98291C0D8C991CE7113FD25D1A6095 DUP3 DUP3 PUSH1 0x40 MLOAD PUSH2 0x99B SWAP3 SWAP2 SWAP1 PUSH2 0x106B JUMP JUMPDEST PUSH1 0x40 MLOAD DUP1 SWAP2 SUB SWAP1 LOG1 JUMPDEST POP POP JUMP JUMPDEST PUSH2 0xA40 DUP3 DUP3 PUSH1 0x40 MLOAD PUSH1 0x24 ADD PUSH2 0x9BE SWAP3 SWAP2 SWAP1 PUSH2 0x149D JUMP JUMPDEST PUSH1 0x40 MLOAD PUSH1 0x20 DUP2 DUP4 SUB SUB DUP2 MSTORE SWAP1 PUSH1 0x40 MSTORE PUSH32 0xB60E72CC00000000000000000000000000000000000000000000000000000000 PUSH28 0xFFFFFFFFFFFFFFFFFFFFFFFFFFFFFFFFFFFFFFFFFFFFFFFFFFFFFFFF NOT AND PUSH1 0x20 DUP3 ADD DUP1 MLOAD PUSH28 0xFFFFFFFFFFFFFFFFFFFFFFFFFFFFFFFFFFFFFFFFFFFFFFFFFFFFFFFF DUP4 DUP2 DUP4 AND OR DUP4 MSTORE POP POP POP POP PUSH2 0xA44 JUMP JUMPDEST POP POP JUMP JUMPDEST PUSH1 0x0 DUP2 MLOAD SWAP1 POP PUSH1 0x0 PUSH11 0x636F6E736F6C652E6C6F67 SWAP1 POP PUSH1 0x20 DUP4 ADD PUSH1 0x0 DUP1 DUP5 DUP4 DUP6 GAS STATICCALL POP POP POP POP POP JUMP JUMPDEST PUSH1 0x40 MLOAD DUP1 PUSH1 0xA0 ADD PUSH1 0x40 MSTORE DUP1 PUSH1 0x0 DUP2 MSTORE PUSH1 0x20 ADD PUSH1 0x60 DUP2 MSTORE PUSH1 0x20 ADD PUSH1 0x0 ISZERO ISZERO DUP2 MSTORE PUSH1 0x20 ADD PUSH1 0x0 ISZERO ISZERO DUP2 MSTORE PUSH1 0x20 ADD PUSH1 0x0 ISZERO ISZERO DUP2 MSTORE POP SWAP1 JUMP JUMPDEST POP DUP1 SLOAD PUSH1 0x0 DUP3 SSTORE PUSH1 0x3 MUL SWAP1 PUSH1 0x0 MSTORE PUSH1 0x20 PUSH1 0x0 KECCAK256 SWAP1 DUP2 ADD SWAP1 PUSH2 0xAC3 SWAP2 SWAP1 PUSH2 0xAC6 JUMP JUMPDEST POP JUMP JUMPDEST JUMPDEST DUP1 DUP3 GT ISZERO PUSH2 0xB2D JUMPI PUSH1 0x0 DUP1 DUP3 ADD PUSH1 0x0 SWAP1 SSTORE PUSH1 0x1 DUP3 ADD PUSH1 0x0 PUSH2 0xAE8 SWAP2 SWAP1 PUSH2 0xB31 JUMP JUMPDEST PUSH1 0x2 DUP3 ADD PUSH1 0x0 PUSH2 0x100 EXP DUP2 SLOAD SWAP1 PUSH1 0xFF MUL NOT AND SWAP1 SSTORE PUSH1 0x2 DUP3 ADD PUSH1 0x1 PUSH2 0x100 EXP DUP2 SLOAD SWAP1 PUSH1 0xFF MUL NOT AND SWAP1 SSTORE PUSH1 0x2 DUP3 ADD PUSH1 0x2 PUSH2 0x100 EXP DUP2 SLOAD SWAP1 PUSH1 0xFF MUL NOT AND SWAP1 SSTORE POP PUSH1 0x3 ADD PUSH2 0xAC7 JUMP JUMPDEST POP SWAP1 JUMP JUMPDEST POP DUP1 SLOAD PUSH2 0xB3D SWAP1 PUSH2 0x10C3 JUMP JUMPDEST PUSH1 0x0 DUP3 SSTORE DUP1 PUSH1 0x1F LT PUSH2 0xB4F JUMPI POP PUSH2 0xB6E JUMP JUMPDEST PUSH1 0x1F ADD PUSH1 0x20 SWAP1 DIV SWAP1 PUSH1 0x0 MSTORE PUSH1 0x20 PUSH1 0x0 KECCAK256 SWAP1 DUP2 ADD SWAP1 PUSH2 0xB6D SWAP2 SWAP1 PUSH2 0xB71 JUMP JUMPDEST JUMPDEST POP JUMP JUMPDEST JUMPDEST DUP1 DUP3 GT ISZERO PUSH2 0xB8A JUMPI PUSH1 0x0 DUP2 PUSH1 0x0 SWAP1 SSTORE POP PUSH1 0x1 ADD PUSH2 0xB72 JUMP JUMPDEST POP SWAP1 JUMP JUMPDEST PUSH1 0x0 PUSH1 0x40 MLOAD SWAP1 POP SWAP1 JUMP JUMPDEST PUSH1 0x0 DUP1 REVERT JUMPDEST PUSH1 0x0 DUP1 REVERT JUMPDEST PUSH1 0x0 DUP2 SWAP1 POP SWAP2 SWAP1 POP JUMP JUMPDEST PUSH2 0xBB5 DUP2 PUSH2 0xBA2 JUMP JUMPDEST DUP2 EQ PUSH2 0xBC0 JUMPI PUSH1 0x0 DUP1 REVERT JUMPDEST POP JUMP JUMPDEST PUSH1 0x0 DUP2 CALLDATALOAD SWAP1 POP PUSH2 0xBD2 DUP2 PUSH2 0xBAC JUMP JUMPDEST SWAP3 SWAP2 POP POP JUMP JUMPDEST PUSH1 0x0 PUSH1 0x20 DUP3 DUP5 SUB SLT ISZERO PUSH2 0xBEE JUMPI PUSH2 0xBED PUSH2 0xB98 JUMP JUMPDEST JUMPDEST PUSH1 0x0 PUSH2 0xBFC DUP5 DUP3 DUP6 ADD PUSH2 0xBC3 JUMP JUMPDEST SWAP2 POP POP SWAP3 SWAP2 POP POP JUMP JUMPDEST PUSH1 0x0 DUP2 ISZERO ISZERO SWAP1 POP SWAP2 SWAP1 POP JUMP JUMPDEST PUSH2 0xC1A DUP2 PUSH2 0xC05 JUMP JUMPDEST DUP2 EQ PUSH2 0xC25 JUMPI PUSH1 0x0 DUP1 REVERT JUMPDEST POP JUMP JUMPDEST PUSH1 0x0 DUP2 CALLDATALOAD SWAP1 POP PUSH2 0xC37 DUP2 PUSH2 0xC11 JUMP JUMPDEST SWAP3 SWAP2 POP POP JUMP JUMPDEST PUSH1 0x0 DUP1 PUSH1 0x40 DUP4 DUP6 SUB SLT ISZERO PUSH2 0xC54 JUMPI PUSH2 0xC53 PUSH2 0xB98 JUMP JUMPDEST JUMPDEST PUSH1 0x0 PUSH2 0xC62 DUP6 DUP3 DUP7 ADD PUSH2 0xBC3 JUMP JUMPDEST SWAP3 POP POP PUSH1 0x20 PUSH2 0xC73 DUP6 DUP3 DUP7 ADD PUSH2 0xC28 JUMP JUMPDEST SWAP2 POP POP SWAP3 POP SWAP3 SWAP1 POP JUMP JUMPDEST PUSH1 0x0 DUP1 REVERT JUMPDEST PUSH1 0x0 DUP1 REVERT JUMPDEST PUSH1 0x0 PUSH1 0x1F NOT PUSH1 0x1F DUP4 ADD AND SWAP1 POP SWAP2 SWAP1 POP JUMP JUMPDEST PUSH32 0x4E487B7100000000000000000000000000000000000000000000000000000000 PUSH1 0x0 MSTORE PUSH1 0x41 PUSH1 0x4 MSTORE PUSH1 0x24 PUSH1 0x0 REVERT JUMPDEST PUSH2 0xCD0 DUP3 PUSH2 0xC87 JUMP JUMPDEST DUP2 ADD DUP2 DUP2 LT PUSH8 0xFFFFFFFFFFFFFFFF DUP3 GT OR ISZERO PUSH2 0xCEF JUMPI PUSH2 0xCEE PUSH2 0xC98 JUMP JUMPDEST JUMPDEST DUP1 PUSH1 0x40 MSTORE POP POP POP JUMP JUMPDEST PUSH1 0x0 PUSH2 0xD02 PUSH2 0xB8E JUMP JUMPDEST SWAP1 POP PUSH2 0xD0E DUP3 DUP3 PUSH2 0xCC7 JUMP JUMPDEST SWAP2 SWAP1 POP JUMP JUMPDEST PUSH1 0x0 PUSH8 0xFFFFFFFFFFFFFFFF DUP3 GT ISZERO PUSH2 0xD2E JUMPI PUSH2 0xD2D PUSH2 0xC98 JUMP JUMPDEST JUMPDEST PUSH2 0xD37 DUP3 PUSH2 0xC87 JUMP JUMPDEST SWAP1 POP PUSH1 0x20 DUP2 ADD SWAP1 POP SWAP2 SWAP1 POP JUMP JUMPDEST DUP3 DUP2 DUP4 CALLDATACOPY PUSH1 0x0 DUP4 DUP4 ADD MSTORE POP POP POP JUMP JUMPDEST PUSH1 0x0 PUSH2 0xD66 PUSH2 0xD61 DUP5 PUSH2 0xD13 JUMP JUMPDEST PUSH2 0xCF8 JUMP JUMPDEST SWAP1 POP DUP3 DUP2 MSTORE PUSH1 0x20 DUP2 ADD DUP5 DUP5 DUP5 ADD GT ISZERO PUSH2 0xD82 JUMPI PUSH2 0xD81 PUSH2 0xC82 JUMP JUMPDEST JUMPDEST PUSH2 0xD8D DUP5 DUP3 DUP6 PUSH2 0xD44 JUMP JUMPDEST POP SWAP4 SWAP3 POP POP POP JUMP JUMPDEST PUSH1 0x0 DUP3 PUSH1 0x1F DUP4 ADD SLT PUSH2 0xDAA JUMPI PUSH2 0xDA9 PUSH2 0xC7D JUMP JUMPDEST JUMPDEST DUP2 CALLDATALOAD PUSH2 0xDBA DUP5 DUP3 PUSH1 0x20 DUP7 ADD PUSH2 0xD53 JUMP JUMPDEST SWAP2 POP POP SWAP3 SWAP2 POP POP JUMP JUMPDEST PUSH1 0x0 PUSH1 0x20 DUP3 DUP5 SUB SLT ISZERO PUSH2 0xDD9 JUMPI PUSH2 0xDD8 PUSH2 0xB98 JUMP JUMPDEST JUMPDEST PUSH1 0x0 DUP3 ADD CALLDATALOAD PUSH8 0xFFFFFFFFFFFFFFFF DUP2 GT ISZERO PUSH2 0xDF7 JUMPI PUSH2 0xDF6 PUSH2 0xB9D JUMP JUMPDEST JUMPDEST PUSH2 0xE03 DUP5 DUP3 DUP6 ADD PUSH2 0xD95 JUMP JUMPDEST SWAP2 POP POP SWAP3 SWAP2 POP POP JUMP JUMPDEST PUSH1 0x0 DUP2 MLOAD SWAP1 POP SWAP2 SWAP1 POP JUMP JUMPDEST PUSH1 0x0 DUP3 DUP3 MSTORE PUSH1 0x20 DUP3 ADD SWAP1 POP SWAP3 SWAP2 POP POP JUMP JUMPDEST PUSH1 0x0 DUP2 SWAP1 POP PUSH1 0x20 DUP3 ADD SWAP1 POP SWAP2 SWAP1 POP JUMP JUMPDEST PUSH2 0xE41 DUP2 PUSH2 0xBA2 JUMP JUMPDEST DUP3 MSTORE POP POP JUMP JUMPDEST PUSH1 0x0 DUP2 MLOAD SWAP1 POP SWAP2 SWAP1 POP JUMP JUMPDEST PUSH1 0x0 DUP3 DUP3 MSTORE PUSH1 0x20 DUP3 ADD SWAP1 POP SWAP3 SWAP2 POP POP JUMP JUMPDEST PUSH1 0x0 JUMPDEST DUP4 DUP2 LT ISZERO PUSH2 0xE81 JUMPI DUP1 DUP3 ADD MLOAD DUP2 DUP5 ADD MSTORE PUSH1 0x20 DUP2 ADD SWAP1 POP PUSH2 0xE66 JUMP JUMPDEST PUSH1 0x0 DUP5 DUP5 ADD MSTORE POP POP POP POP JUMP JUMPDEST PUSH1 0x0 PUSH2 0xE98 DUP3 PUSH2 0xE47 JUMP JUMPDEST PUSH2 0xEA2 DUP2 DUP6 PUSH2 0xE52 JUMP JUMPDEST SWAP4 POP PUSH2 0xEB2 DUP2 DUP6 PUSH1 0x20 DUP7 ADD PUSH2 0xE63 JUMP JUMPDEST PUSH2 0xEBB DUP2 PUSH2 0xC87 JUMP JUMPDEST DUP5 ADD SWAP2 POP POP SWAP3 SWAP2 POP POP JUMP JUMPDEST PUSH2 0xECF DUP2 PUSH2 0xC05 JUMP JUMPDEST DUP3 MSTORE POP POP JUMP JUMPDEST PUSH1 0x0 PUSH1 0xA0 DUP4 ADD PUSH1 0x0 DUP4 ADD MLOAD PUSH2 0xEED PUSH1 0x0 DUP7 ADD DUP3 PUSH2 0xE38 JUMP JUMPDEST POP PUSH1 0x20 DUP4 ADD MLOAD DUP5 DUP3 SUB PUSH1 0x20 DUP7 ADD MSTORE PUSH2 0xF05 DUP3 DUP3 PUSH2 0xE8D JUMP JUMPDEST SWAP2 POP POP PUSH1 0x40 DUP4 ADD MLOAD PUSH2 0xF1A PUSH1 0x40 DUP7 ADD DUP3 PUSH2 0xEC6 JUMP JUMPDEST POP PUSH1 0x60 DUP4 ADD MLOAD PUSH2 0xF2D PUSH1 0x60 DUP7 ADD DUP3 PUSH2 0xEC6 JUMP JUMPDEST POP PUSH1 0x80 DUP4 ADD MLOAD PUSH2 0xF40 PUSH1 0x80 DUP7 ADD DUP3 PUSH2 0xEC6 JUMP JUMPDEST POP DUP1 SWAP2 POP POP SWAP3 SWAP2 POP POP JUMP JUMPDEST PUSH1 0x0 PUSH2 0xF57 DUP4 DUP4 PUSH2 0xED5 JUMP JUMPDEST SWAP1 POP SWAP3 SWAP2 POP POP JUMP JUMPDEST PUSH1 0x0 PUSH1 0x20 DUP3 ADD SWAP1 POP SWAP2 SWAP1 POP JUMP JUMPDEST PUSH1 0x0 PUSH2 0xF77 DUP3 PUSH2 0xE0C JUMP JUMPDEST PUSH2 0xF81 DUP2 DUP6 PUSH2 0xE17 JUMP JUMPDEST SWAP4 POP DUP4 PUSH1 0x20 DUP3 MUL DUP6 ADD PUSH2 0xF93 DUP6 PUSH2 0xE28 JUMP JUMPDEST DUP1 PUSH1 0x0 JUMPDEST DUP6 DUP2 LT ISZERO PUSH2 0xFCF JUMPI DUP5 DUP5 SUB DUP10 MSTORE DUP2 MLOAD PUSH2 0xFB0 DUP6 DUP3 PUSH2 0xF4B JUMP JUMPDEST SWAP5 POP PUSH2 0xFBB DUP4 PUSH2 0xF5F JUMP JUMPDEST SWAP3 POP PUSH1 0x20 DUP11 ADD SWAP10 POP POP PUSH1 0x1 DUP2 ADD SWAP1 POP PUSH2 0xF97 JUMP JUMPDEST POP DUP3 SWAP8 POP DUP8 SWAP6 POP POP POP POP POP POP SWAP3 SWAP2 POP POP JUMP JUMPDEST PUSH1 0x0 PUSH1 0x20 DUP3 ADD SWAP1 POP DUP2 DUP2 SUB PUSH1 0x0 DUP4 ADD MSTORE PUSH2 0xFFB DUP2 DUP5 PUSH2 0xF6C JUMP JUMPDEST SWAP1 POP SWAP3 SWAP2 POP POP JUMP JUMPDEST PUSH32 0x4E487B7100000000000000000000000000000000000000000000000000000000 PUSH1 0x0 MSTORE PUSH1 0x32 PUSH1 0x4 MSTORE PUSH1 0x24 PUSH1 0x0 REVERT JUMPDEST PUSH2 0x103B DUP2 PUSH2 0xBA2 JUMP JUMPDEST DUP3 MSTORE POP POP JUMP JUMPDEST PUSH1 0x0 PUSH1 0x20 DUP3 ADD SWAP1 POP PUSH2 0x1056 PUSH1 0x0 DUP4 ADD DUP5 PUSH2 0x1032 JUMP JUMPDEST SWAP3 SWAP2 POP POP JUMP JUMPDEST PUSH2 0x1065 DUP2 PUSH2 0xC05 JUMP JUMPDEST DUP3 MSTORE POP POP JUMP JUMPDEST PUSH1 0x0 PUSH1 0x40 DUP3 ADD SWAP1 POP PUSH2 0x1080 PUSH1 0x0 DUP4 ADD DUP6 PUSH2 0x1032 JUMP JUMPDEST PUSH2 0x108D PUSH1 0x20 DUP4 ADD DUP5 PUSH2 0x105C JUMP JUMPDEST SWAP4 SWAP3 POP POP POP JUMP JUMPDEST PUSH32 0x4E487B7100000000000000000000000000000000000000000000000000000000 PUSH1 0x0 MSTORE PUSH1 0x22 PUSH1 0x4 MSTORE PUSH1 0x24 PUSH1 0x0 REVERT JUMPDEST PUSH1 0x0 PUSH1 0x2 DUP3 DIV SWAP1 POP PUSH1 0x1 DUP3 AND DUP1 PUSH2 0x10DB JUMPI PUSH1 0x7F DUP3 AND SWAP2 POP JUMPDEST PUSH1 0x20 DUP3 LT DUP2 SUB PUSH2 0x10EE JUMPI PUSH2 0x10ED PUSH2 0x1094 JUMP JUMPDEST JUMPDEST POP SWAP2 SWAP1 POP JUMP JUMPDEST PUSH1 0x0 DUP2 SWAP1 POP DUP2 PUSH1 0x0 MSTORE PUSH1 0x20 PUSH1 0x0 KECCAK256 SWAP1 POP SWAP2 SWAP1 POP JUMP JUMPDEST PUSH1 0x0 PUSH1 0x20 PUSH1 0x1F DUP4 ADD DIV SWAP1 POP SWAP2 SWAP1 POP JUMP JUMPDEST PUSH1 0x0 DUP3 DUP3 SHL SWAP1 POP SWAP3 SWAP2 POP POP JUMP JUMPDEST PUSH1 0x0 PUSH1 0x8 DUP4 MUL PUSH2 0x1156 PUSH32 0xFFFFFFFFFFFFFFFFFFFFFFFFFFFFFFFFFFFFFFFFFFFFFFFFFFFFFFFFFFFFFFFF DUP3 PUSH2 0x1119 JUMP JUMPDEST PUSH2 0x1160 DUP7 DUP4 PUSH2 0x1119 JUMP JUMPDEST SWAP6 POP DUP1 NOT DUP5 AND SWAP4 POP DUP1 DUP7 AND DUP5 OR SWAP3 POP POP POP SWAP4 SWAP3 POP POP POP JUMP JUMPDEST PUSH1 0x0 DUP2 SWAP1 POP SWAP2 SWAP1 POP JUMP JUMPDEST PUSH1 0x0 PUSH2 0x119D PUSH2 0x1198 PUSH2 0x1193 DUP5 PUSH2 0xBA2 JUMP JUMPDEST PUSH2 0x1178 JUMP JUMPDEST PUSH2 0xBA2 JUMP JUMPDEST SWAP1 POP SWAP2 SWAP1 POP JUMP JUMPDEST PUSH1 0x0 DUP2 SWAP1 POP SWAP2 SWAP1 POP JUMP JUMPDEST PUSH2 0x11B7 DUP4 PUSH2 0x1182 JUMP JUMPDEST PUSH2 0x11CB PUSH2 0x11C3 DUP3 PUSH2 0x11A4 JUMP JUMPDEST DUP5 DUP5 SLOAD PUSH2 0x1126 JUMP JUMPDEST DUP3 SSTORE POP POP POP POP JUMP JUMPDEST PUSH1 0x0 SWAP1 JUMP JUMPDEST PUSH2 0x11E0 PUSH2 0x11D3 JUMP JUMPDEST PUSH2 0x11EB DUP2 DUP5 DUP5 PUSH2 0x11AE JUMP JUMPDEST POP POP POP JUMP JUMPDEST JUMPDEST DUP2 DUP2 LT ISZERO PUSH2 0x120F JUMPI PUSH2 0x1204 PUSH1 0x0 DUP3 PUSH2 0x11D8 JUMP JUMPDEST PUSH1 0x1 DUP2 ADD SWAP1 POP PUSH2 0x11F1 JUMP JUMPDEST POP POP JUMP JUMPDEST PUSH1 0x1F DUP3 GT ISZERO PUSH2 0x1254 JUMPI PUSH2 0x1225 DUP2 PUSH2 0x10F4 JUMP JUMPDEST PUSH2 0x122E DUP5 PUSH2 0x1109 JUMP JUMPDEST DUP2 ADD PUSH1 0x20 DUP6 LT ISZERO PUSH2 0x123D JUMPI DUP2 SWAP1 POP JUMPDEST PUSH2 0x1251 PUSH2 0x1249 DUP6 PUSH2 0x1109 JUMP JUMPDEST DUP4 ADD DUP3 PUSH2 0x11F0 JUMP JUMPDEST POP POP JUMPDEST POP POP POP JUMP JUMPDEST PUSH1 0x0 DUP3 DUP3 SHR SWAP1 POP SWAP3 SWAP2 POP POP JUMP JUMPDEST PUSH1 0x0 PUSH2 0x1277 PUSH1 0x0 NOT DUP5 PUSH1 0x8 MUL PUSH2 0x1259 JUMP JUMPDEST NOT DUP1 DUP4 AND SWAP2 POP POP SWAP3 SWAP2 POP POP JUMP JUMPDEST PUSH1 0x0 PUSH2 0x1290 DUP4 DUP4 PUSH2 0x1266 JUMP JUMPDEST SWAP2 POP DUP3 PUSH1 0x2 MUL DUP3 OR SWAP1 POP SWAP3 SWAP2 POP POP JUMP JUMPDEST PUSH2 0x12A9 DUP3 PUSH2 0xE47 JUMP JUMPDEST PUSH8 0xFFFFFFFFFFFFFFFF DUP2 GT ISZERO PUSH2 0x12C2 JUMPI PUSH2 0x12C1 PUSH2 0xC98 JUMP JUMPDEST JUMPDEST PUSH2 0x12CC DUP3 SLOAD PUSH2 0x10C3 JUMP JUMPDEST PUSH2 0x12D7 DUP3 DUP3 DUP6 PUSH2 0x1213 JUMP JUMPDEST PUSH1 0x0 PUSH1 0x20 SWAP1 POP PUSH1 0x1F DUP4 GT PUSH1 0x1 DUP2 EQ PUSH2 0x130A JUMPI PUSH1 0x0 DUP5 ISZERO PUSH2 0x12F8 JUMPI DUP3 DUP8 ADD MLOAD SWAP1 POP JUMPDEST PUSH2 0x1302 DUP6 DUP3 PUSH2 0x1284 JUMP JUMPDEST DUP7 SSTORE POP PUSH2 0x136A JUMP JUMPDEST PUSH1 0x1F NOT DUP5 AND PUSH2 0x1318 DUP7 PUSH2 0x10F4 JUMP JUMPDEST PUSH1 0x0 JUMPDEST DUP3 DUP2 LT ISZERO PUSH2 0x1340 JUMPI DUP5 DUP10 ADD MLOAD DUP3 SSTORE PUSH1 0x1 DUP3 ADD SWAP2 POP PUSH1 0x20 DUP6 ADD SWAP5 POP PUSH1 0x20 DUP2 ADD SWAP1 POP PUSH2 0x131B JUMP JUMPDEST DUP7 DUP4 LT ISZERO PUSH2 0x135D JUMPI DUP5 DUP10 ADD MLOAD PUSH2 0x1359 PUSH1 0x1F DUP10 AND DUP3 PUSH2 0x1266 JUMP JUMPDEST DUP4 SSTORE POP JUMPDEST PUSH1 0x1 PUSH1 0x2 DUP9 MUL ADD DUP9 SSTORE POP POP POP JUMPDEST POP POP POP POP POP POP JUMP JUMPDEST PUSH1 0x0 PUSH20 0xFFFFFFFFFFFFFFFFFFFFFFFFFFFFFFFFFFFFFFFF DUP3 AND SWAP1 POP SWAP2 SWAP1 POP JUMP JUMPDEST PUSH1 0x0 PUSH2 0x139D DUP3 PUSH2 0x1372 JUMP JUMPDEST SWAP1 POP SWAP2 SWAP1 POP JUMP JUMPDEST PUSH2 0x13AD DUP2 PUSH2 0x1392 JUMP JUMPDEST DUP3 MSTORE POP POP JUMP JUMPDEST PUSH1 0x0 PUSH1 0x40 DUP3 ADD SWAP1 POP PUSH2 0x13C8 PUSH1 0x0 DUP4 ADD DUP6 PUSH2 0x13A4 JUMP JUMPDEST PUSH2 0x13D5 PUSH1 0x20 DUP4 ADD DUP5 PUSH2 0x1032 JUMP JUMPDEST SWAP4 SWAP3 POP POP POP JUMP JUMPDEST PUSH32 0x4E487B7100000000000000000000000000000000000000000000000000000000 PUSH1 0x0 MSTORE PUSH1 0x11 PUSH1 0x4 MSTORE PUSH1 0x24 PUSH1 0x0 REVERT JUMPDEST PUSH1 0x0 PUSH2 0x1416 DUP3 PUSH2 0xBA2 JUMP JUMPDEST SWAP2 POP PUSH32 0xFFFFFFFFFFFFFFFFFFFFFFFFFFFFFFFFFFFFFFFFFFFFFFFFFFFFFFFFFFFFFFFF DUP3 SUB PUSH2 0x1448 JUMPI PUSH2 0x1447 PUSH2 0x13DC JUMP JUMPDEST JUMPDEST PUSH1 0x1 DUP3 ADD SWAP1 POP SWAP2 SWAP1 POP JUMP JUMPDEST PUSH1 0x0 DUP3 DUP3 MSTORE PUSH1 0x20 DUP3 ADD SWAP1 POP SWAP3 SWAP2 POP POP JUMP JUMPDEST PUSH1 0x0 PUSH2 0x146F DUP3 PUSH2 0xE47 JUMP JUMPDEST PUSH2 0x1479 DUP2 DUP6 PUSH2 0x1453 JUMP JUMPDEST SWAP4 POP PUSH2 0x1489 DUP2 DUP6 PUSH1 0x20 DUP7 ADD PUSH2 0xE63 JUMP JUMPDEST PUSH2 0x1492 DUP2 PUSH2 0xC87 JUMP JUMPDEST DUP5 ADD SWAP2 POP POP SWAP3 SWAP2 POP POP JUMP JUMPDEST PUSH1 0x0 PUSH1 0x40 DUP3 ADD SWAP1 POP DUP2 DUP2 SUB PUSH1 0x0 DUP4 ADD MSTORE PUSH2 0x14B7 DUP2 DUP6 PUSH2 0x1464 JUMP JUMPDEST SWAP1 POP PUSH2 0x14C6 PUSH1 0x20 DUP4 ADD DUP5 PUSH2 0x1032 JUMP JUMPDEST SWAP4 SWAP3 POP POP POP JUMP INVALID LOG2 PUSH5 0x6970667358 0x22 SLT KECCAK256 COINBASE INVALID SWAP5 DUP10 SWAP9 0xDC 0xBD CODESIZE DUP16 0xAC 0xAB 0x2E 0xE2 0x4B 0xD6 0x25 EXTCODESIZE GASPRICE 0xAB AND PUSH6 0x5C19D2060A71 SWAP6 0x29 SWAP15 0xE6 DUP8 PUSH5 0x736F6C6343 STOP ADDMOD GT STOP CALLER "},"methodIdentifiers":{"addTask(string)":"67238562","clearTasks()":"db591664","deleteTask(uint256)":"560f3192","getMyTasks()":"6e13f818","makeImportant(uint256,bool)":"f2b981ae","makeUnImportant(uint256,bool)":"64a21d2b","toggleDone(uint256,bool)":"943a1a0a"}}}}}