{
	"Users/kacperkondracki/Desktop/PORTFOLIO/web3-todo/backend/contracts/TaskContract.sol": {
		"TaskContract": {
			"abi": [
				{
					"anonymous": false,
					"inputs": [
						{
							"indexed": false,
							"internalType": "address",
							"name": "recipient",
							"type": "address"
						},
						{
							"indexed": false,
							"internalType": "uint256",
							"name": "taskId",
							"type": "uint256"
						}
					],
					"name": "AddTask",
					"type": "event"
				},
				{
					"anonymous": false,
					"inputs": [
						{
							"indexed": false,
							"internalType": "uint256",
							"name": "taskId",
							"type": "uint256"
						},
						{
							"indexed": false,
							"internalType": "bool",
							"name": "isDone",
							"type": "bool"
						}
					],
					"name": "DeleteTask",
					"type": "event"
				},
				{
					"inputs": [
						{
							"internalType": "string",
							"name": "taskText",
							"type": "string"
						}
					],
					"name": "addTask",
					"outputs": [],
					"stateMutability": "nonpayable",
					"type": "function"
				}
			],
			"devdoc": {
				"kind": "dev",
				"methods": {},
				"version": 1
			},
			"evm": {
				"assembly": "    /* \"Users/kacperkondracki/Desktop/PORTFOLIO/web3-todo/backend/contracts/TaskContract.sol\":66:570  contract TaskContract {... */\n  mstore(0x40, 0x80)\n  callvalue\n  dup1\n  iszero\n  tag_1\n  jumpi\n  0x00\n  dup1\n  revert\ntag_1:\n  pop\n  dataSize(sub_0)\n  dup1\n  dataOffset(sub_0)\n  0x00\n  codecopy\n  0x00\n  return\nstop\n\nsub_0: assembly {\n        /* \"Users/kacperkondracki/Desktop/PORTFOLIO/web3-todo/backend/contracts/TaskContract.sol\":66:570  contract TaskContract {... */\n      mstore(0x40, 0x80)\n      callvalue\n      dup1\n      iszero\n      tag_1\n      jumpi\n      0x00\n      dup1\n      revert\n    tag_1:\n      pop\n      jumpi(tag_2, lt(calldatasize, 0x04))\n      shr(0xe0, calldataload(0x00))\n      dup1\n      0x67238562\n      eq\n      tag_3\n      jumpi\n    tag_2:\n      0x00\n      dup1\n      revert\n        /* \"Users/kacperkondracki/Desktop/PORTFOLIO/web3-todo/backend/contracts/TaskContract.sol\":351:568  function addTask(string memory taskText) external {... */\n    tag_3:\n      tag_4\n      0x04\n      dup1\n      calldatasize\n      sub\n      dup2\n      add\n      swap1\n      tag_5\n      swap2\n      swap1\n      tag_6\n      jump\t// in\n    tag_5:\n      tag_7\n      jump\t// in\n    tag_4:\n      stop\n    tag_7:\n        /* \"Users/kacperkondracki/Desktop/PORTFOLIO/web3-todo/backend/contracts/TaskContract.sol\":407:418  uint taskId */\n      0x00\n        /* \"Users/kacperkondracki/Desktop/PORTFOLIO/web3-todo/backend/contracts/TaskContract.sol\":421:426  tasks */\n      dup1\n        /* \"Users/kacperkondracki/Desktop/PORTFOLIO/web3-todo/backend/contracts/TaskContract.sol\":421:433  tasks.length */\n      dup1\n      sload\n      swap1\n      pop\n        /* \"Users/kacperkondracki/Desktop/PORTFOLIO/web3-todo/backend/contracts/TaskContract.sol\":407:433  uint taskId = tasks.length */\n      swap1\n      pop\n        /* \"Users/kacperkondracki/Desktop/PORTFOLIO/web3-todo/backend/contracts/TaskContract.sol\":439:444  tasks */\n      0x00\n        /* \"Users/kacperkondracki/Desktop/PORTFOLIO/web3-todo/backend/contracts/TaskContract.sol\":450:486  Task(taskId, taskText, false, false) */\n      mload(0x40)\n      dup1\n      0x80\n      add\n      0x40\n      mstore\n      dup1\n        /* \"Users/kacperkondracki/Desktop/PORTFOLIO/web3-todo/backend/contracts/TaskContract.sol\":455:461  taskId */\n      dup4\n        /* \"Users/kacperkondracki/Desktop/PORTFOLIO/web3-todo/backend/contracts/TaskContract.sol\":450:486  Task(taskId, taskText, false, false) */\n      dup2\n      mstore\n      0x20\n      add\n        /* \"Users/kacperkondracki/Desktop/PORTFOLIO/web3-todo/backend/contracts/TaskContract.sol\":463:471  taskText */\n      dup5\n        /* \"Users/kacperkondracki/Desktop/PORTFOLIO/web3-todo/backend/contracts/TaskContract.sol\":450:486  Task(taskId, taskText, false, false) */\n      dup2\n      mstore\n      0x20\n      add\n        /* \"Users/kacperkondracki/Desktop/PORTFOLIO/web3-todo/backend/contracts/TaskContract.sol\":473:478  false */\n      0x00\n        /* \"Users/kacperkondracki/Desktop/PORTFOLIO/web3-todo/backend/contracts/TaskContract.sol\":450:486  Task(taskId, taskText, false, false) */\n      iszero\n      iszero\n      dup2\n      mstore\n      0x20\n      add\n        /* \"Users/kacperkondracki/Desktop/PORTFOLIO/web3-todo/backend/contracts/TaskContract.sol\":480:485  false */\n      0x00\n        /* \"Users/kacperkondracki/Desktop/PORTFOLIO/web3-todo/backend/contracts/TaskContract.sol\":450:486  Task(taskId, taskText, false, false) */\n      iszero\n      iszero\n      dup2\n      mstore\n      pop\n        /* \"Users/kacperkondracki/Desktop/PORTFOLIO/web3-todo/backend/contracts/TaskContract.sol\":439:487  tasks.push(Task(taskId, taskText, false, false)) */\n      swap1\n      dup1\n      0x01\n      dup2\n      sload\n      add\n      dup1\n      dup3\n      sstore\n      dup1\n      swap2\n      pop\n      pop\n      0x01\n      swap1\n      sub\n      swap1\n      0x00\n      mstore\n      keccak256(0x00, 0x20)\n      swap1\n      0x03\n      mul\n      add\n      0x00\n      swap1\n      swap2\n      swap1\n      swap2\n      swap1\n      swap2\n      pop\n      0x00\n      dup3\n      add\n      mload\n      dup2\n      0x00\n      add\n      sstore\n      0x20\n      dup3\n      add\n      mload\n      dup2\n      0x01\n      add\n      swap1\n      dup1\n      mload\n      swap1\n      0x20\n      add\n      swap1\n      tag_10\n      swap3\n      swap2\n      swap1\n      tag_11\n      jump\t// in\n    tag_10:\n      pop\n      0x40\n      dup3\n      add\n      mload\n      dup2\n      0x02\n      add\n      exp(0x0100, 0x00)\n      dup2\n      sload\n      dup2\n      0xff\n      mul\n      not\n      and\n      swap1\n      dup4\n      iszero\n      iszero\n      mul\n      or\n      swap1\n      sstore\n      pop\n      0x60\n      dup3\n      add\n      mload\n      dup2\n      0x02\n      add\n      exp(0x0100, 0x01)\n      dup2\n      sload\n      dup2\n      0xff\n      mul\n      not\n      and\n      swap1\n      dup4\n      iszero\n      iszero\n      mul\n      or\n      swap1\n      sstore\n      pop\n      pop\n      pop\n        /* \"Users/kacperkondracki/Desktop/PORTFOLIO/web3-todo/backend/contracts/TaskContract.sol\":515:525  msg.sender */\n      caller\n        /* \"Users/kacperkondracki/Desktop/PORTFOLIO/web3-todo/backend/contracts/TaskContract.sol\":493:504  taskToOwner */\n      0x01\n        /* \"Users/kacperkondracki/Desktop/PORTFOLIO/web3-todo/backend/contracts/TaskContract.sol\":493:512  taskToOwner[taskId] */\n      0x00\n        /* \"Users/kacperkondracki/Desktop/PORTFOLIO/web3-todo/backend/contracts/TaskContract.sol\":505:511  taskId */\n      dup4\n        /* \"Users/kacperkondracki/Desktop/PORTFOLIO/web3-todo/backend/contracts/TaskContract.sol\":493:512  taskToOwner[taskId] */\n      dup2\n      mstore\n      0x20\n      add\n      swap1\n      dup2\n      mstore\n      0x20\n      add\n      0x00\n      keccak256\n      0x00\n        /* \"Users/kacperkondracki/Desktop/PORTFOLIO/web3-todo/backend/contracts/TaskContract.sol\":493:525  taskToOwner[taskId] = msg.sender */\n      0x0100\n      exp\n      dup2\n      sload\n      dup2\n      0xffffffffffffffffffffffffffffffffffffffff\n      mul\n      not\n      and\n      swap1\n      dup4\n      0xffffffffffffffffffffffffffffffffffffffff\n      and\n      mul\n      or\n      swap1\n      sstore\n      pop\n        /* \"Users/kacperkondracki/Desktop/PORTFOLIO/web3-todo/backend/contracts/TaskContract.sol\":536:563  AddTask(msg.sender, taskId) */\n      0x1f54e1ba1832d428fbd7e7792beaf62b1fc5a382c207ffd614209c1413e94fda\n        /* \"Users/kacperkondracki/Desktop/PORTFOLIO/web3-todo/backend/contracts/TaskContract.sol\":544:554  msg.sender */\n      caller\n        /* \"Users/kacperkondracki/Desktop/PORTFOLIO/web3-todo/backend/contracts/TaskContract.sol\":556:562  taskId */\n      dup3\n        /* \"Users/kacperkondracki/Desktop/PORTFOLIO/web3-todo/backend/contracts/TaskContract.sol\":536:563  AddTask(msg.sender, taskId) */\n      mload(0x40)\n      tag_12\n      swap3\n      swap2\n      swap1\n      tag_13\n      jump\t// in\n    tag_12:\n      mload(0x40)\n      dup1\n      swap2\n      sub\n      swap1\n      log1\n        /* \"Users/kacperkondracki/Desktop/PORTFOLIO/web3-todo/backend/contracts/TaskContract.sol\":401:568  {... */\n      pop\n        /* \"Users/kacperkondracki/Desktop/PORTFOLIO/web3-todo/backend/contracts/TaskContract.sol\":351:568  function addTask(string memory taskText) external {... */\n      pop\n      jump\t// out\n    tag_11:\n      dup3\n      dup1\n      sload\n      tag_14\n      swap1\n      tag_15\n      jump\t// in\n    tag_14:\n      swap1\n      0x00\n      mstore\n      keccak256(0x00, 0x20)\n      swap1\n      0x1f\n      add\n      0x20\n      swap1\n      div\n      dup2\n      add\n      swap3\n      dup3\n      tag_17\n      jumpi\n      0x00\n      dup6\n      sstore\n      jump(tag_16)\n    tag_17:\n      dup3\n      0x1f\n      lt\n      tag_18\n      jumpi\n      dup1\n      mload\n      not(0xff)\n      and\n      dup4\n      dup1\n      add\n      or\n      dup6\n      sstore\n      jump(tag_16)\n    tag_18:\n      dup3\n      dup1\n      add\n      0x01\n      add\n      dup6\n      sstore\n      dup3\n      iszero\n      tag_16\n      jumpi\n      swap2\n      dup3\n      add\n    tag_19:\n      dup3\n      dup2\n      gt\n      iszero\n      tag_20\n      jumpi\n      dup3\n      mload\n      dup3\n      sstore\n      swap2\n      0x20\n      add\n      swap2\n      swap1\n      0x01\n      add\n      swap1\n      jump(tag_19)\n    tag_20:\n    tag_16:\n      pop\n      swap1\n      pop\n      tag_21\n      swap2\n      swap1\n      tag_22\n      jump\t// in\n    tag_21:\n      pop\n      swap1\n      jump\t// out\n    tag_22:\n    tag_23:\n      dup1\n      dup3\n      gt\n      iszero\n      tag_24\n      jumpi\n      0x00\n      dup2\n      0x00\n      swap1\n      sstore\n      pop\n      0x01\n      add\n      jump(tag_23)\n    tag_24:\n      pop\n      swap1\n      jump\t// out\n        /* \"#utility.yul\":7:419   */\n    tag_26:\n        /* \"#utility.yul\":85:90   */\n      0x00\n        /* \"#utility.yul\":110:176   */\n      tag_28\n        /* \"#utility.yul\":126:175   */\n      tag_29\n        /* \"#utility.yul\":168:174   */\n      dup5\n        /* \"#utility.yul\":126:175   */\n      tag_30\n      jump\t// in\n    tag_29:\n        /* \"#utility.yul\":110:176   */\n      tag_31\n      jump\t// in\n    tag_28:\n        /* \"#utility.yul\":101:176   */\n      swap1\n      pop\n        /* \"#utility.yul\":199:205   */\n      dup3\n        /* \"#utility.yul\":192:197   */\n      dup2\n        /* \"#utility.yul\":185:206   */\n      mstore\n        /* \"#utility.yul\":237:241   */\n      0x20\n        /* \"#utility.yul\":230:235   */\n      dup2\n        /* \"#utility.yul\":226:242   */\n      add\n        /* \"#utility.yul\":275:278   */\n      dup5\n        /* \"#utility.yul\":266:272   */\n      dup5\n        /* \"#utility.yul\":261:264   */\n      dup5\n        /* \"#utility.yul\":257:273   */\n      add\n        /* \"#utility.yul\":254:279   */\n      gt\n        /* \"#utility.yul\":251:363   */\n      iszero\n      tag_32\n      jumpi\n        /* \"#utility.yul\":282:361   */\n      tag_33\n      tag_34\n      jump\t// in\n    tag_33:\n        /* \"#utility.yul\":251:363   */\n    tag_32:\n        /* \"#utility.yul\":372:413   */\n      tag_35\n        /* \"#utility.yul\":406:412   */\n      dup5\n        /* \"#utility.yul\":401:404   */\n      dup3\n        /* \"#utility.yul\":396:399   */\n      dup6\n        /* \"#utility.yul\":372:413   */\n      tag_36\n      jump\t// in\n    tag_35:\n        /* \"#utility.yul\":91:419   */\n      pop\n        /* \"#utility.yul\":7:419   */\n      swap4\n      swap3\n      pop\n      pop\n      pop\n      jump\t// out\n        /* \"#utility.yul\":439:779   */\n    tag_37:\n        /* \"#utility.yul\":495:500   */\n      0x00\n        /* \"#utility.yul\":544:547   */\n      dup3\n        /* \"#utility.yul\":537:541   */\n      0x1f\n        /* \"#utility.yul\":529:535   */\n      dup4\n        /* \"#utility.yul\":525:542   */\n      add\n        /* \"#utility.yul\":521:548   */\n      slt\n        /* \"#utility.yul\":511:633   */\n      tag_39\n      jumpi\n        /* \"#utility.yul\":552:631   */\n      tag_40\n      tag_41\n      jump\t// in\n    tag_40:\n        /* \"#utility.yul\":511:633   */\n    tag_39:\n        /* \"#utility.yul\":669:675   */\n      dup2\n        /* \"#utility.yul\":656:676   */\n      calldataload\n        /* \"#utility.yul\":694:773   */\n      tag_42\n        /* \"#utility.yul\":769:772   */\n      dup5\n        /* \"#utility.yul\":761:767   */\n      dup3\n        /* \"#utility.yul\":754:758   */\n      0x20\n        /* \"#utility.yul\":746:752   */\n      dup7\n        /* \"#utility.yul\":742:759   */\n      add\n        /* \"#utility.yul\":694:773   */\n      tag_26\n      jump\t// in\n    tag_42:\n        /* \"#utility.yul\":685:773   */\n      swap2\n      pop\n        /* \"#utility.yul\":501:779   */\n      pop\n        /* \"#utility.yul\":439:779   */\n      swap3\n      swap2\n      pop\n      pop\n      jump\t// out\n        /* \"#utility.yul\":785:1294   */\n    tag_6:\n        /* \"#utility.yul\":854:860   */\n      0x00\n        /* \"#utility.yul\":903:905   */\n      0x20\n        /* \"#utility.yul\":891:900   */\n      dup3\n        /* \"#utility.yul\":882:889   */\n      dup5\n        /* \"#utility.yul\":878:901   */\n      sub\n        /* \"#utility.yul\":874:906   */\n      slt\n        /* \"#utility.yul\":871:990   */\n      iszero\n      tag_44\n      jumpi\n        /* \"#utility.yul\":909:988   */\n      tag_45\n      tag_46\n      jump\t// in\n    tag_45:\n        /* \"#utility.yul\":871:990   */\n    tag_44:\n        /* \"#utility.yul\":1057:1058   */\n      0x00\n        /* \"#utility.yul\":1046:1055   */\n      dup3\n        /* \"#utility.yul\":1042:1059   */\n      add\n        /* \"#utility.yul\":1029:1060   */\n      calldataload\n        /* \"#utility.yul\":1087:1105   */\n      0xffffffffffffffff\n        /* \"#utility.yul\":1079:1085   */\n      dup2\n        /* \"#utility.yul\":1076:1106   */\n      gt\n        /* \"#utility.yul\":1073:1190   */\n      iszero\n      tag_47\n      jumpi\n        /* \"#utility.yul\":1109:1188   */\n      tag_48\n      tag_49\n      jump\t// in\n    tag_48:\n        /* \"#utility.yul\":1073:1190   */\n    tag_47:\n        /* \"#utility.yul\":1214:1277   */\n      tag_50\n        /* \"#utility.yul\":1269:1276   */\n      dup5\n        /* \"#utility.yul\":1260:1266   */\n      dup3\n        /* \"#utility.yul\":1249:1258   */\n      dup6\n        /* \"#utility.yul\":1245:1267   */\n      add\n        /* \"#utility.yul\":1214:1277   */\n      tag_37\n      jump\t// in\n    tag_50:\n        /* \"#utility.yul\":1204:1277   */\n      swap2\n      pop\n        /* \"#utility.yul\":1000:1287   */\n      pop\n        /* \"#utility.yul\":785:1294   */\n      swap3\n      swap2\n      pop\n      pop\n      jump\t// out\n        /* \"#utility.yul\":1300:1418   */\n    tag_51:\n        /* \"#utility.yul\":1387:1411   */\n      tag_53\n        /* \"#utility.yul\":1405:1410   */\n      dup2\n        /* \"#utility.yul\":1387:1411   */\n      tag_54\n      jump\t// in\n    tag_53:\n        /* \"#utility.yul\":1382:1385   */\n      dup3\n        /* \"#utility.yul\":1375:1412   */\n      mstore\n        /* \"#utility.yul\":1300:1418   */\n      pop\n      pop\n      jump\t// out\n        /* \"#utility.yul\":1424:1542   */\n    tag_55:\n        /* \"#utility.yul\":1511:1535   */\n      tag_57\n        /* \"#utility.yul\":1529:1534   */\n      dup2\n        /* \"#utility.yul\":1511:1535   */\n      tag_58\n      jump\t// in\n    tag_57:\n        /* \"#utility.yul\":1506:1509   */\n      dup3\n        /* \"#utility.yul\":1499:1536   */\n      mstore\n        /* \"#utility.yul\":1424:1542   */\n      pop\n      pop\n      jump\t// out\n        /* \"#utility.yul\":1548:1880   */\n    tag_13:\n        /* \"#utility.yul\":1669:1673   */\n      0x00\n        /* \"#utility.yul\":1707:1709   */\n      0x40\n        /* \"#utility.yul\":1696:1705   */\n      dup3\n        /* \"#utility.yul\":1692:1710   */\n      add\n        /* \"#utility.yul\":1684:1710   */\n      swap1\n      pop\n        /* \"#utility.yul\":1720:1791   */\n      tag_60\n        /* \"#utility.yul\":1788:1789   */\n      0x00\n        /* \"#utility.yul\":1777:1786   */\n      dup4\n        /* \"#utility.yul\":1773:1790   */\n      add\n        /* \"#utility.yul\":1764:1770   */\n      dup6\n        /* \"#utility.yul\":1720:1791   */\n      tag_51\n      jump\t// in\n    tag_60:\n        /* \"#utility.yul\":1801:1873   */\n      tag_61\n        /* \"#utility.yul\":1869:1871   */\n      0x20\n        /* \"#utility.yul\":1858:1867   */\n      dup4\n        /* \"#utility.yul\":1854:1872   */\n      add\n        /* \"#utility.yul\":1845:1851   */\n      dup5\n        /* \"#utility.yul\":1801:1873   */\n      tag_55\n      jump\t// in\n    tag_61:\n        /* \"#utility.yul\":1548:1880   */\n      swap4\n      swap3\n      pop\n      pop\n      pop\n      jump\t// out\n        /* \"#utility.yul\":1886:2015   */\n    tag_31:\n        /* \"#utility.yul\":1920:1926   */\n      0x00\n        /* \"#utility.yul\":1947:1967   */\n      tag_63\n      tag_64\n      jump\t// in\n    tag_63:\n        /* \"#utility.yul\":1937:1967   */\n      swap1\n      pop\n        /* \"#utility.yul\":1976:2009   */\n      tag_65\n        /* \"#utility.yul\":2004:2008   */\n      dup3\n        /* \"#utility.yul\":1996:2002   */\n      dup3\n        /* \"#utility.yul\":1976:2009   */\n      tag_66\n      jump\t// in\n    tag_65:\n        /* \"#utility.yul\":1886:2015   */\n      swap2\n      swap1\n      pop\n      jump\t// out\n        /* \"#utility.yul\":2021:2096   */\n    tag_64:\n        /* \"#utility.yul\":2054:2060   */\n      0x00\n        /* \"#utility.yul\":2087:2089   */\n      0x40\n        /* \"#utility.yul\":2081:2090   */\n      mload\n        /* \"#utility.yul\":2071:2090   */\n      swap1\n      pop\n        /* \"#utility.yul\":2021:2096   */\n      swap1\n      jump\t// out\n        /* \"#utility.yul\":2102:2410   */\n    tag_30:\n        /* \"#utility.yul\":2164:2168   */\n      0x00\n        /* \"#utility.yul\":2254:2272   */\n      0xffffffffffffffff\n        /* \"#utility.yul\":2246:2252   */\n      dup3\n        /* \"#utility.yul\":2243:2273   */\n      gt\n        /* \"#utility.yul\":2240:2296   */\n      iszero\n      tag_69\n      jumpi\n        /* \"#utility.yul\":2276:2294   */\n      tag_70\n      tag_71\n      jump\t// in\n    tag_70:\n        /* \"#utility.yul\":2240:2296   */\n    tag_69:\n        /* \"#utility.yul\":2314:2343   */\n      tag_72\n        /* \"#utility.yul\":2336:2342   */\n      dup3\n        /* \"#utility.yul\":2314:2343   */\n      tag_73\n      jump\t// in\n    tag_72:\n        /* \"#utility.yul\":2306:2343   */\n      swap1\n      pop\n        /* \"#utility.yul\":2398:2402   */\n      0x20\n        /* \"#utility.yul\":2392:2396   */\n      dup2\n        /* \"#utility.yul\":2388:2403   */\n      add\n        /* \"#utility.yul\":2380:2403   */\n      swap1\n      pop\n        /* \"#utility.yul\":2102:2410   */\n      swap2\n      swap1\n      pop\n      jump\t// out\n        /* \"#utility.yul\":2416:2512   */\n    tag_54:\n        /* \"#utility.yul\":2453:2460   */\n      0x00\n        /* \"#utility.yul\":2482:2506   */\n      tag_75\n        /* \"#utility.yul\":2500:2505   */\n      dup3\n        /* \"#utility.yul\":2482:2506   */\n      tag_76\n      jump\t// in\n    tag_75:\n        /* \"#utility.yul\":2471:2506   */\n      swap1\n      pop\n        /* \"#utility.yul\":2416:2512   */\n      swap2\n      swap1\n      pop\n      jump\t// out\n        /* \"#utility.yul\":2518:2644   */\n    tag_76:\n        /* \"#utility.yul\":2555:2562   */\n      0x00\n        /* \"#utility.yul\":2595:2637   */\n      0xffffffffffffffffffffffffffffffffffffffff\n        /* \"#utility.yul\":2588:2593   */\n      dup3\n        /* \"#utility.yul\":2584:2638   */\n      and\n        /* \"#utility.yul\":2573:2638   */\n      swap1\n      pop\n        /* \"#utility.yul\":2518:2644   */\n      swap2\n      swap1\n      pop\n      jump\t// out\n        /* \"#utility.yul\":2650:2727   */\n    tag_58:\n        /* \"#utility.yul\":2687:2694   */\n      0x00\n        /* \"#utility.yul\":2716:2721   */\n      dup2\n        /* \"#utility.yul\":2705:2721   */\n      swap1\n      pop\n        /* \"#utility.yul\":2650:2727   */\n      swap2\n      swap1\n      pop\n      jump\t// out\n        /* \"#utility.yul\":2733:2887   */\n    tag_36:\n        /* \"#utility.yul\":2817:2823   */\n      dup3\n        /* \"#utility.yul\":2812:2815   */\n      dup2\n        /* \"#utility.yul\":2807:2810   */\n      dup4\n        /* \"#utility.yul\":2794:2824   */\n      calldatacopy\n        /* \"#utility.yul\":2879:2880   */\n      0x00\n        /* \"#utility.yul\":2870:2876   */\n      dup4\n        /* \"#utility.yul\":2865:2868   */\n      dup4\n        /* \"#utility.yul\":2861:2877   */\n      add\n        /* \"#utility.yul\":2854:2881   */\n      mstore\n        /* \"#utility.yul\":2733:2887   */\n      pop\n      pop\n      pop\n      jump\t// out\n        /* \"#utility.yul\":2893:3213   */\n    tag_15:\n        /* \"#utility.yul\":2937:2943   */\n      0x00\n        /* \"#utility.yul\":2974:2975   */\n      0x02\n        /* \"#utility.yul\":2968:2972   */\n      dup3\n        /* \"#utility.yul\":2964:2976   */\n      div\n        /* \"#utility.yul\":2954:2976   */\n      swap1\n      pop\n        /* \"#utility.yul\":3021:3022   */\n      0x01\n        /* \"#utility.yul\":3015:3019   */\n      dup3\n        /* \"#utility.yul\":3011:3023   */\n      and\n        /* \"#utility.yul\":3042:3060   */\n      dup1\n        /* \"#utility.yul\":3032:3113   */\n      tag_81\n      jumpi\n        /* \"#utility.yul\":3098:3102   */\n      0x7f\n        /* \"#utility.yul\":3090:3096   */\n      dup3\n        /* \"#utility.yul\":3086:3103   */\n      and\n        /* \"#utility.yul\":3076:3103   */\n      swap2\n      pop\n        /* \"#utility.yul\":3032:3113   */\n    tag_81:\n        /* \"#utility.yul\":3160:3162   */\n      0x20\n        /* \"#utility.yul\":3152:3158   */\n      dup3\n        /* \"#utility.yul\":3149:3163   */\n      lt\n        /* \"#utility.yul\":3129:3147   */\n      dup2\n        /* \"#utility.yul\":3126:3164   */\n      eq\n        /* \"#utility.yul\":3123:3207   */\n      iszero\n      tag_82\n      jumpi\n        /* \"#utility.yul\":3179:3197   */\n      tag_83\n      tag_84\n      jump\t// in\n    tag_83:\n        /* \"#utility.yul\":3123:3207   */\n    tag_82:\n        /* \"#utility.yul\":2944:3213   */\n      pop\n        /* \"#utility.yul\":2893:3213   */\n      swap2\n      swap1\n      pop\n      jump\t// out\n        /* \"#utility.yul\":3219:3500   */\n    tag_66:\n        /* \"#utility.yul\":3302:3329   */\n      tag_86\n        /* \"#utility.yul\":3324:3328   */\n      dup3\n        /* \"#utility.yul\":3302:3329   */\n      tag_73\n      jump\t// in\n    tag_86:\n        /* \"#utility.yul\":3294:3300   */\n      dup2\n        /* \"#utility.yul\":3290:3330   */\n      add\n        /* \"#utility.yul\":3432:3438   */\n      dup2\n        /* \"#utility.yul\":3420:3430   */\n      dup2\n        /* \"#utility.yul\":3417:3439   */\n      lt\n        /* \"#utility.yul\":3396:3414   */\n      0xffffffffffffffff\n        /* \"#utility.yul\":3384:3394   */\n      dup3\n        /* \"#utility.yul\":3381:3415   */\n      gt\n        /* \"#utility.yul\":3378:3440   */\n      or\n        /* \"#utility.yul\":3375:3463   */\n      iszero\n      tag_87\n      jumpi\n        /* \"#utility.yul\":3443:3461   */\n      tag_88\n      tag_71\n      jump\t// in\n    tag_88:\n        /* \"#utility.yul\":3375:3463   */\n    tag_87:\n        /* \"#utility.yul\":3483:3493   */\n      dup1\n        /* \"#utility.yul\":3479:3481   */\n      0x40\n        /* \"#utility.yul\":3472:3494   */\n      mstore\n        /* \"#utility.yul\":3262:3500   */\n      pop\n        /* \"#utility.yul\":3219:3500   */\n      pop\n      pop\n      jump\t// out\n        /* \"#utility.yul\":3506:3686   */\n    tag_84:\n        /* \"#utility.yul\":3554:3631   */\n      0x4e487b7100000000000000000000000000000000000000000000000000000000\n        /* \"#utility.yul\":3551:3552   */\n      0x00\n        /* \"#utility.yul\":3544:3632   */\n      mstore\n        /* \"#utility.yul\":3651:3655   */\n      0x22\n        /* \"#utility.yul\":3648:3649   */\n      0x04\n        /* \"#utility.yul\":3641:3656   */\n      mstore\n        /* \"#utility.yul\":3675:3679   */\n      0x24\n        /* \"#utility.yul\":3672:3673   */\n      0x00\n        /* \"#utility.yul\":3665:3680   */\n      revert\n        /* \"#utility.yul\":3692:3872   */\n    tag_71:\n        /* \"#utility.yul\":3740:3817   */\n      0x4e487b7100000000000000000000000000000000000000000000000000000000\n        /* \"#utility.yul\":3737:3738   */\n      0x00\n        /* \"#utility.yul\":3730:3818   */\n      mstore\n        /* \"#utility.yul\":3837:3841   */\n      0x41\n        /* \"#utility.yul\":3834:3835   */\n      0x04\n        /* \"#utility.yul\":3827:3842   */\n      mstore\n        /* \"#utility.yul\":3861:3865   */\n      0x24\n        /* \"#utility.yul\":3858:3859   */\n      0x00\n        /* \"#utility.yul\":3851:3866   */\n      revert\n        /* \"#utility.yul\":3878:3995   */\n    tag_41:\n        /* \"#utility.yul\":3987:3988   */\n      0x00\n        /* \"#utility.yul\":3984:3985   */\n      dup1\n        /* \"#utility.yul\":3977:3989   */\n      revert\n        /* \"#utility.yul\":4001:4118   */\n    tag_34:\n        /* \"#utility.yul\":4110:4111   */\n      0x00\n        /* \"#utility.yul\":4107:4108   */\n      dup1\n        /* \"#utility.yul\":4100:4112   */\n      revert\n        /* \"#utility.yul\":4124:4241   */\n    tag_49:\n        /* \"#utility.yul\":4233:4234   */\n      0x00\n        /* \"#utility.yul\":4230:4231   */\n      dup1\n        /* \"#utility.yul\":4223:4235   */\n      revert\n        /* \"#utility.yul\":4247:4364   */\n    tag_46:\n        /* \"#utility.yul\":4356:4357   */\n      0x00\n        /* \"#utility.yul\":4353:4354   */\n      dup1\n        /* \"#utility.yul\":4346:4358   */\n      revert\n        /* \"#utility.yul\":4370:4472   */\n    tag_73:\n        /* \"#utility.yul\":4411:4417   */\n      0x00\n        /* \"#utility.yul\":4462:4464   */\n      0x1f\n        /* \"#utility.yul\":4458:4465   */\n      not\n        /* \"#utility.yul\":4453:4455   */\n      0x1f\n        /* \"#utility.yul\":4446:4451   */\n      dup4\n        /* \"#utility.yul\":4442:4456   */\n      add\n        /* \"#utility.yul\":4438:4466   */\n      and\n        /* \"#utility.yul\":4428:4466   */\n      swap1\n      pop\n        /* \"#utility.yul\":4370:4472   */\n      swap2\n      swap1\n      pop\n      jump\t// out\n\n    auxdata: 0xa2646970667358221220ab5ff6ef53292942ecf5b6eeb673373ef8a4bf0d5b55a975389ea6ffeac45b3364736f6c63430008070033\n}\n",
				"bytecode": {
					"linkReferences": {},
					"object": "608060405234801561001057600080fd5b506104ff806100206000396000f3fe608060405234801561001057600080fd5b506004361061002b5760003560e01c80636723856214610030575b600080fd5b61004a600480360381019061004591906102b2565b61004c565b005b600080805490509050600060405180608001604052808381526020018481526020016000151581526020016000151581525090806001815401808255809150506001900390600052602060002090600302016000909190919091506000820151816000015560208201518160010190805190602001906100cd92919061019f565b5060408201518160020160006101000a81548160ff02191690831515021790555060608201518160020160016101000a81548160ff0219169083151502179055505050336001600083815260200190815260200160002060006101000a81548173ffffffffffffffffffffffffffffffffffffffff021916908373ffffffffffffffffffffffffffffffffffffffff1602179055507f1f54e1ba1832d428fbd7e7792beaf62b1fc5a382c207ffd614209c1413e94fda3382604051610193929190610319565b60405180910390a15050565b8280546101ab906103e3565b90600052602060002090601f0160209004810192826101cd5760008555610214565b82601f106101e657805160ff1916838001178555610214565b82800160010185558215610214579182015b828111156102135782518255916020019190600101906101f8565b5b5090506102219190610225565b5090565b5b8082111561023e576000816000905550600101610226565b5090565b600061025561025084610367565b610342565b905082815260208101848484011115610271576102706104a9565b5b61027c8482856103d4565b509392505050565b600082601f830112610299576102986104a4565b5b81356102a9848260208601610242565b91505092915050565b6000602082840312156102c8576102c76104b3565b5b600082013567ffffffffffffffff8111156102e6576102e56104ae565b5b6102f284828501610284565b91505092915050565b61030481610398565b82525050565b610313816103ca565b82525050565b600060408201905061032e60008301856102fb565b61033b602083018461030a565b9392505050565b600061034c61035d565b90506103588282610415565b919050565b6000604051905090565b600067ffffffffffffffff82111561038257610381610475565b5b61038b826104b8565b9050602081019050919050565b60006103a3826103aa565b9050919050565b600073ffffffffffffffffffffffffffffffffffffffff82169050919050565b6000819050919050565b82818337600083830152505050565b600060028204905060018216806103fb57607f821691505b6020821081141561040f5761040e610446565b5b50919050565b61041e826104b8565b810181811067ffffffffffffffff8211171561043d5761043c610475565b5b80604052505050565b7f4e487b7100000000000000000000000000000000000000000000000000000000600052602260045260246000fd5b7f4e487b7100000000000000000000000000000000000000000000000000000000600052604160045260246000fd5b600080fd5b600080fd5b600080fd5b600080fd5b6000601f19601f830116905091905056fea2646970667358221220ab5ff6ef53292942ecf5b6eeb673373ef8a4bf0d5b55a975389ea6ffeac45b3364736f6c63430008070033",
					"opcodes": "PUSH1 0x80 PUSH1 0x40 MSTORE CALLVALUE DUP1 ISZERO PUSH2 0x10 JUMPI PUSH1 0x0 DUP1 REVERT JUMPDEST POP PUSH2 0x4FF DUP1 PUSH2 0x20 PUSH1 0x0 CODECOPY PUSH1 0x0 RETURN INVALID PUSH1 0x80 PUSH1 0x40 MSTORE CALLVALUE DUP1 ISZERO PUSH2 0x10 JUMPI PUSH1 0x0 DUP1 REVERT JUMPDEST POP PUSH1 0x4 CALLDATASIZE LT PUSH2 0x2B JUMPI PUSH1 0x0 CALLDATALOAD PUSH1 0xE0 SHR DUP1 PUSH4 0x67238562 EQ PUSH2 0x30 JUMPI JUMPDEST PUSH1 0x0 DUP1 REVERT JUMPDEST PUSH2 0x4A PUSH1 0x4 DUP1 CALLDATASIZE SUB DUP2 ADD SWAP1 PUSH2 0x45 SWAP2 SWAP1 PUSH2 0x2B2 JUMP JUMPDEST PUSH2 0x4C JUMP JUMPDEST STOP JUMPDEST PUSH1 0x0 DUP1 DUP1 SLOAD SWAP1 POP SWAP1 POP PUSH1 0x0 PUSH1 0x40 MLOAD DUP1 PUSH1 0x80 ADD PUSH1 0x40 MSTORE DUP1 DUP4 DUP2 MSTORE PUSH1 0x20 ADD DUP5 DUP2 MSTORE PUSH1 0x20 ADD PUSH1 0x0 ISZERO ISZERO DUP2 MSTORE PUSH1 0x20 ADD PUSH1 0x0 ISZERO ISZERO DUP2 MSTORE POP SWAP1 DUP1 PUSH1 0x1 DUP2 SLOAD ADD DUP1 DUP3 SSTORE DUP1 SWAP2 POP POP PUSH1 0x1 SWAP1 SUB SWAP1 PUSH1 0x0 MSTORE PUSH1 0x20 PUSH1 0x0 KECCAK256 SWAP1 PUSH1 0x3 MUL ADD PUSH1 0x0 SWAP1 SWAP2 SWAP1 SWAP2 SWAP1 SWAP2 POP PUSH1 0x0 DUP3 ADD MLOAD DUP2 PUSH1 0x0 ADD SSTORE PUSH1 0x20 DUP3 ADD MLOAD DUP2 PUSH1 0x1 ADD SWAP1 DUP1 MLOAD SWAP1 PUSH1 0x20 ADD SWAP1 PUSH2 0xCD SWAP3 SWAP2 SWAP1 PUSH2 0x19F JUMP JUMPDEST POP PUSH1 0x40 DUP3 ADD MLOAD DUP2 PUSH1 0x2 ADD PUSH1 0x0 PUSH2 0x100 EXP DUP2 SLOAD DUP2 PUSH1 0xFF MUL NOT AND SWAP1 DUP4 ISZERO ISZERO MUL OR SWAP1 SSTORE POP PUSH1 0x60 DUP3 ADD MLOAD DUP2 PUSH1 0x2 ADD PUSH1 0x1 PUSH2 0x100 EXP DUP2 SLOAD DUP2 PUSH1 0xFF MUL NOT AND SWAP1 DUP4 ISZERO ISZERO MUL OR SWAP1 SSTORE POP POP POP CALLER PUSH1 0x1 PUSH1 0x0 DUP4 DUP2 MSTORE PUSH1 0x20 ADD SWAP1 DUP2 MSTORE PUSH1 0x20 ADD PUSH1 0x0 KECCAK256 PUSH1 0x0 PUSH2 0x100 EXP DUP2 SLOAD DUP2 PUSH20 0xFFFFFFFFFFFFFFFFFFFFFFFFFFFFFFFFFFFFFFFF MUL NOT AND SWAP1 DUP4 PUSH20 0xFFFFFFFFFFFFFFFFFFFFFFFFFFFFFFFFFFFFFFFF AND MUL OR SWAP1 SSTORE POP PUSH32 0x1F54E1BA1832D428FBD7E7792BEAF62B1FC5A382C207FFD614209C1413E94FDA CALLER DUP3 PUSH1 0x40 MLOAD PUSH2 0x193 SWAP3 SWAP2 SWAP1 PUSH2 0x319 JUMP JUMPDEST PUSH1 0x40 MLOAD DUP1 SWAP2 SUB SWAP1 LOG1 POP POP JUMP JUMPDEST DUP3 DUP1 SLOAD PUSH2 0x1AB SWAP1 PUSH2 0x3E3 JUMP JUMPDEST SWAP1 PUSH1 0x0 MSTORE PUSH1 0x20 PUSH1 0x0 KECCAK256 SWAP1 PUSH1 0x1F ADD PUSH1 0x20 SWAP1 DIV DUP2 ADD SWAP3 DUP3 PUSH2 0x1CD JUMPI PUSH1 0x0 DUP6 SSTORE PUSH2 0x214 JUMP JUMPDEST DUP3 PUSH1 0x1F LT PUSH2 0x1E6 JUMPI DUP1 MLOAD PUSH1 0xFF NOT AND DUP4 DUP1 ADD OR DUP6 SSTORE PUSH2 0x214 JUMP JUMPDEST DUP3 DUP1 ADD PUSH1 0x1 ADD DUP6 SSTORE DUP3 ISZERO PUSH2 0x214 JUMPI SWAP2 DUP3 ADD JUMPDEST DUP3 DUP2 GT ISZERO PUSH2 0x213 JUMPI DUP3 MLOAD DUP3 SSTORE SWAP2 PUSH1 0x20 ADD SWAP2 SWAP1 PUSH1 0x1 ADD SWAP1 PUSH2 0x1F8 JUMP JUMPDEST JUMPDEST POP SWAP1 POP PUSH2 0x221 SWAP2 SWAP1 PUSH2 0x225 JUMP JUMPDEST POP SWAP1 JUMP JUMPDEST JUMPDEST DUP1 DUP3 GT ISZERO PUSH2 0x23E JUMPI PUSH1 0x0 DUP2 PUSH1 0x0 SWAP1 SSTORE POP PUSH1 0x1 ADD PUSH2 0x226 JUMP JUMPDEST POP SWAP1 JUMP JUMPDEST PUSH1 0x0 PUSH2 0x255 PUSH2 0x250 DUP5 PUSH2 0x367 JUMP JUMPDEST PUSH2 0x342 JUMP JUMPDEST SWAP1 POP DUP3 DUP2 MSTORE PUSH1 0x20 DUP2 ADD DUP5 DUP5 DUP5 ADD GT ISZERO PUSH2 0x271 JUMPI PUSH2 0x270 PUSH2 0x4A9 JUMP JUMPDEST JUMPDEST PUSH2 0x27C DUP5 DUP3 DUP6 PUSH2 0x3D4 JUMP JUMPDEST POP SWAP4 SWAP3 POP POP POP JUMP JUMPDEST PUSH1 0x0 DUP3 PUSH1 0x1F DUP4 ADD SLT PUSH2 0x299 JUMPI PUSH2 0x298 PUSH2 0x4A4 JUMP JUMPDEST JUMPDEST DUP2 CALLDATALOAD PUSH2 0x2A9 DUP5 DUP3 PUSH1 0x20 DUP7 ADD PUSH2 0x242 JUMP JUMPDEST SWAP2 POP POP SWAP3 SWAP2 POP POP JUMP JUMPDEST PUSH1 0x0 PUSH1 0x20 DUP3 DUP5 SUB SLT ISZERO PUSH2 0x2C8 JUMPI PUSH2 0x2C7 PUSH2 0x4B3 JUMP JUMPDEST JUMPDEST PUSH1 0x0 DUP3 ADD CALLDATALOAD PUSH8 0xFFFFFFFFFFFFFFFF DUP2 GT ISZERO PUSH2 0x2E6 JUMPI PUSH2 0x2E5 PUSH2 0x4AE JUMP JUMPDEST JUMPDEST PUSH2 0x2F2 DUP5 DUP3 DUP6 ADD PUSH2 0x284 JUMP JUMPDEST SWAP2 POP POP SWAP3 SWAP2 POP POP JUMP JUMPDEST PUSH2 0x304 DUP2 PUSH2 0x398 JUMP JUMPDEST DUP3 MSTORE POP POP JUMP JUMPDEST PUSH2 0x313 DUP2 PUSH2 0x3CA JUMP JUMPDEST DUP3 MSTORE POP POP JUMP JUMPDEST PUSH1 0x0 PUSH1 0x40 DUP3 ADD SWAP1 POP PUSH2 0x32E PUSH1 0x0 DUP4 ADD DUP6 PUSH2 0x2FB JUMP JUMPDEST PUSH2 0x33B PUSH1 0x20 DUP4 ADD DUP5 PUSH2 0x30A JUMP JUMPDEST SWAP4 SWAP3 POP POP POP JUMP JUMPDEST PUSH1 0x0 PUSH2 0x34C PUSH2 0x35D JUMP JUMPDEST SWAP1 POP PUSH2 0x358 DUP3 DUP3 PUSH2 0x415 JUMP JUMPDEST SWAP2 SWAP1 POP JUMP JUMPDEST PUSH1 0x0 PUSH1 0x40 MLOAD SWAP1 POP SWAP1 JUMP JUMPDEST PUSH1 0x0 PUSH8 0xFFFFFFFFFFFFFFFF DUP3 GT ISZERO PUSH2 0x382 JUMPI PUSH2 0x381 PUSH2 0x475 JUMP JUMPDEST JUMPDEST PUSH2 0x38B DUP3 PUSH2 0x4B8 JUMP JUMPDEST SWAP1 POP PUSH1 0x20 DUP2 ADD SWAP1 POP SWAP2 SWAP1 POP JUMP JUMPDEST PUSH1 0x0 PUSH2 0x3A3 DUP3 PUSH2 0x3AA JUMP JUMPDEST SWAP1 POP SWAP2 SWAP1 POP JUMP JUMPDEST PUSH1 0x0 PUSH20 0xFFFFFFFFFFFFFFFFFFFFFFFFFFFFFFFFFFFFFFFF DUP3 AND SWAP1 POP SWAP2 SWAP1 POP JUMP JUMPDEST PUSH1 0x0 DUP2 SWAP1 POP SWAP2 SWAP1 POP JUMP JUMPDEST DUP3 DUP2 DUP4 CALLDATACOPY PUSH1 0x0 DUP4 DUP4 ADD MSTORE POP POP POP JUMP JUMPDEST PUSH1 0x0 PUSH1 0x2 DUP3 DIV SWAP1 POP PUSH1 0x1 DUP3 AND DUP1 PUSH2 0x3FB JUMPI PUSH1 0x7F DUP3 AND SWAP2 POP JUMPDEST PUSH1 0x20 DUP3 LT DUP2 EQ ISZERO PUSH2 0x40F JUMPI PUSH2 0x40E PUSH2 0x446 JUMP JUMPDEST JUMPDEST POP SWAP2 SWAP1 POP JUMP JUMPDEST PUSH2 0x41E DUP3 PUSH2 0x4B8 JUMP JUMPDEST DUP2 ADD DUP2 DUP2 LT PUSH8 0xFFFFFFFFFFFFFFFF DUP3 GT OR ISZERO PUSH2 0x43D JUMPI PUSH2 0x43C PUSH2 0x475 JUMP JUMPDEST JUMPDEST DUP1 PUSH1 0x40 MSTORE POP POP POP JUMP JUMPDEST PUSH32 0x4E487B7100000000000000000000000000000000000000000000000000000000 PUSH1 0x0 MSTORE PUSH1 0x22 PUSH1 0x4 MSTORE PUSH1 0x24 PUSH1 0x0 REVERT JUMPDEST PUSH32 0x4E487B7100000000000000000000000000000000000000000000000000000000 PUSH1 0x0 MSTORE PUSH1 0x41 PUSH1 0x4 MSTORE PUSH1 0x24 PUSH1 0x0 REVERT JUMPDEST PUSH1 0x0 DUP1 REVERT JUMPDEST PUSH1 0x0 DUP1 REVERT JUMPDEST PUSH1 0x0 DUP1 REVERT JUMPDEST PUSH1 0x0 DUP1 REVERT JUMPDEST PUSH1 0x0 PUSH1 0x1F NOT PUSH1 0x1F DUP4 ADD AND SWAP1 POP SWAP2 SWAP1 POP JUMP INVALID LOG2 PUSH5 0x6970667358 0x22 SLT KECCAK256 0xAB 0x5F 0xF6 0xEF MSTORE8 0x29 0x29 TIMESTAMP 0xEC CREATE2 0xB6 0xEE 0xB6 PUSH20 0x373EF8A4BF0D5B55A975389EA6FFEAC45B336473 PUSH16 0x6C634300080700330000000000000000 "
				},
				"gasEstimates": {
					"creation": {
						"codeDepositCost": "255800",
						"executionCost": "294",
						"totalCost": "256094"
					},
					"external": {
						"addTask(string)": "infinite"
					}
				},
				"methodIdentifiers": {
					"addTask(string)": "67238562"
				}
			},
			"storageLayout": {
				"storage": [
					{
						"astId": 26,
						"contract": "Users/kacperkondracki/Desktop/PORTFOLIO/web3-todo/backend/contracts/TaskContract.sol:TaskContract",
						"label": "tasks",
						"offset": 0,
						"slot": "0",
						"type": "t_array(t_struct(Task)22_storage)dyn_storage"
					},
					{
						"astId": 30,
						"contract": "Users/kacperkondracki/Desktop/PORTFOLIO/web3-todo/backend/contracts/TaskContract.sol:TaskContract",
						"label": "taskToOwner",
						"offset": 0,
						"slot": "1",
						"type": "t_mapping(t_uint256,t_address)"
					}
				],
				"types": {
					"t_address": {
						"encoding": "inplace",
						"label": "address",
						"numberOfBytes": "20"
					},
					"t_array(t_struct(Task)22_storage)dyn_storage": {
						"base": "t_struct(Task)22_storage",
						"encoding": "dynamic_array",
						"label": "struct TaskContract.Task[]",
						"numberOfBytes": "32"
					},
					"t_bool": {
						"encoding": "inplace",
						"label": "bool",
						"numberOfBytes": "1"
					},
					"t_mapping(t_uint256,t_address)": {
						"encoding": "mapping",
						"key": "t_uint256",
						"label": "mapping(uint256 => address)",
						"numberOfBytes": "32",
						"value": "t_address"
					},
					"t_string_storage": {
						"encoding": "bytes",
						"label": "string",
						"numberOfBytes": "32"
					},
					"t_struct(Task)22_storage": {
						"encoding": "inplace",
						"label": "struct TaskContract.Task",
						"members": [
							{
								"astId": 15,
								"contract": "Users/kacperkondracki/Desktop/PORTFOLIO/web3-todo/backend/contracts/TaskContract.sol:TaskContract",
								"label": "id",
								"offset": 0,
								"slot": "0",
								"type": "t_uint256"
							},
							{
								"astId": 17,
								"contract": "Users/kacperkondracki/Desktop/PORTFOLIO/web3-todo/backend/contracts/TaskContract.sol:TaskContract",
								"label": "taskText",
								"offset": 0,
								"slot": "1",
								"type": "t_string_storage"
							},
							{
								"astId": 19,
								"contract": "Users/kacperkondracki/Desktop/PORTFOLIO/web3-todo/backend/contracts/TaskContract.sol:TaskContract",
								"label": "isImportant",
								"offset": 0,
								"slot": "2",
								"type": "t_bool"
							},
							{
								"astId": 21,
								"contract": "Users/kacperkondracki/Desktop/PORTFOLIO/web3-todo/backend/contracts/TaskContract.sol:TaskContract",
								"label": "isDone",
								"offset": 1,
								"slot": "2",
								"type": "t_bool"
							}
						],
						"numberOfBytes": "96"
					},
					"t_uint256": {
						"encoding": "inplace",
						"label": "uint256",
						"numberOfBytes": "32"
					}
				}
			},
			"userdoc": {
				"kind": "user",
				"methods": {},
				"version": 1
			}
		}
	}
}