{
	"contracts/TaskContract.sol": {
		"TaskContract": {
			"abi": [
				{
					"anonymous": false,
					"inputs": [
						{
							"indexed": false,
							"internalType": "address",
							"name": "recipient",
							"type": "address"
						},
						{
							"indexed": false,
							"internalType": "uint256",
							"name": "taskId",
							"type": "uint256"
						}
					],
					"name": "AddTask",
					"type": "event"
				},
				{
					"anonymous": false,
					"inputs": [
						{
							"indexed": false,
							"internalType": "uint256",
							"name": "taskId",
							"type": "uint256"
						},
						{
							"indexed": false,
							"internalType": "bool",
							"name": "isDeleted",
							"type": "bool"
						}
					],
					"name": "DeleteTask",
					"type": "event"
				},
				{
					"anonymous": false,
					"inputs": [
						{
							"indexed": false,
							"internalType": "uint256",
							"name": "taskId",
							"type": "uint256"
						},
						{
							"indexed": false,
							"internalType": "bool",
							"name": "isDone",
							"type": "bool"
						}
					],
					"name": "ToggleDone",
					"type": "event"
				},
				{
					"inputs": [
						{
							"internalType": "string",
							"name": "taskText",
							"type": "string"
						}
					],
					"name": "addTask",
					"outputs": [],
					"stateMutability": "nonpayable",
					"type": "function"
				},
				{
					"inputs": [
						{
							"internalType": "uint256",
							"name": "taskId",
							"type": "uint256"
						},
						{
							"internalType": "bool",
							"name": "isDeleted",
							"type": "bool"
						}
					],
					"name": "deleteTask",
					"outputs": [],
					"stateMutability": "nonpayable",
					"type": "function"
				},
				{
					"inputs": [],
					"name": "getMyTasks",
					"outputs": [
						{
							"components": [
								{
									"internalType": "uint256",
									"name": "id",
									"type": "uint256"
								},
								{
									"internalType": "string",
									"name": "taskText",
									"type": "string"
								},
								{
									"internalType": "bool",
									"name": "isImportant",
									"type": "bool"
								},
								{
									"internalType": "bool",
									"name": "isDone",
									"type": "bool"
								},
								{
									"internalType": "bool",
									"name": "isDeleted",
									"type": "bool"
								}
							],
							"internalType": "struct TaskContract.Task[]",
							"name": "",
							"type": "tuple[]"
						}
					],
					"stateMutability": "view",
					"type": "function"
				},
				{
					"inputs": [
						{
							"internalType": "uint256",
							"name": "taskId",
							"type": "uint256"
						},
						{
							"internalType": "bool",
							"name": "isDone",
							"type": "bool"
						}
					],
					"name": "toggleDone",
					"outputs": [],
					"stateMutability": "nonpayable",
					"type": "function"
				}
			],
			"devdoc": {
				"kind": "dev",
				"methods": {},
				"version": 1
			},
			"evm": {
				"assembly": "    /* \"contracts/TaskContract.sol\":66:1516  contract TaskContract {... */\n  mstore(0x40, 0x80)\n  callvalue\n  dup1\n  iszero\n  tag_1\n  jumpi\n  0x00\n  dup1\n  revert\ntag_1:\n  pop\n  dataSize(sub_0)\n  dup1\n  dataOffset(sub_0)\n  0x00\n  codecopy\n  0x00\n  return\nstop\n\nsub_0: assembly {\n        /* \"contracts/TaskContract.sol\":66:1516  contract TaskContract {... */\n      mstore(0x40, 0x80)\n      callvalue\n      dup1\n      iszero\n      tag_1\n      jumpi\n      0x00\n      dup1\n      revert\n    tag_1:\n      pop\n      jumpi(tag_2, lt(calldatasize, 0x04))\n      shr(0xe0, calldataload(0x00))\n      dup1\n      0x67238562\n      eq\n      tag_3\n      jumpi\n      dup1\n      0x6e13f818\n      eq\n      tag_4\n      jumpi\n      dup1\n      0x943a1a0a\n      eq\n      tag_5\n      jumpi\n      dup1\n      0xaaba2907\n      eq\n      tag_6\n      jumpi\n    tag_2:\n      0x00\n      dup1\n      revert\n        /* \"contracts/TaskContract.sol\":420:644  function addTask(string memory taskText) external {... */\n    tag_3:\n      tag_7\n      0x04\n      dup1\n      calldatasize\n      sub\n      dup2\n      add\n      swap1\n      tag_8\n      swap2\n      swap1\n      tag_9\n      jump\t// in\n    tag_8:\n      tag_10\n      jump\t// in\n    tag_7:\n      stop\n        /* \"contracts/TaskContract.sol\":648:1116  function getMyTasks() external view returns(Task[] memory){... */\n    tag_4:\n      tag_11\n      tag_12\n      jump\t// in\n    tag_11:\n      mload(0x40)\n      tag_13\n      swap2\n      swap1\n      tag_14\n      jump\t// in\n    tag_13:\n      mload(0x40)\n      dup1\n      swap2\n      sub\n      swap1\n      return\n        /* \"contracts/TaskContract.sol\":1120:1303  function toggleDone(uint taskId, bool isDone) external {... */\n    tag_5:\n      tag_15\n      0x04\n      dup1\n      calldatasize\n      sub\n      dup2\n      add\n      swap1\n      tag_16\n      swap2\n      swap1\n      tag_17\n      jump\t// in\n    tag_16:\n      tag_18\n      jump\t// in\n    tag_15:\n      stop\n        /* \"contracts/TaskContract.sol\":1307:1514  function deleteTask(uint taskId, bool isDeleted) external {... */\n    tag_6:\n      tag_19\n      0x04\n      dup1\n      calldatasize\n      sub\n      dup2\n      add\n      swap1\n      tag_20\n      swap2\n      swap1\n      tag_17\n      jump\t// in\n    tag_20:\n      tag_21\n      jump\t// in\n    tag_19:\n      stop\n        /* \"contracts/TaskContract.sol\":420:644  function addTask(string memory taskText) external {... */\n    tag_10:\n        /* \"contracts/TaskContract.sol\":476:487  uint taskId */\n      0x00\n        /* \"contracts/TaskContract.sol\":490:495  tasks */\n      dup1\n        /* \"contracts/TaskContract.sol\":490:502  tasks.length */\n      dup1\n      sload\n      swap1\n      pop\n        /* \"contracts/TaskContract.sol\":476:502  uint taskId = tasks.length */\n      swap1\n      pop\n        /* \"contracts/TaskContract.sol\":508:513  tasks */\n      0x00\n        /* \"contracts/TaskContract.sol\":519:562  Task(taskId, taskText, false, false, false) */\n      mload(0x40)\n      dup1\n      0xa0\n      add\n      0x40\n      mstore\n      dup1\n        /* \"contracts/TaskContract.sol\":524:530  taskId */\n      dup4\n        /* \"contracts/TaskContract.sol\":519:562  Task(taskId, taskText, false, false, false) */\n      dup2\n      mstore\n      0x20\n      add\n        /* \"contracts/TaskContract.sol\":532:540  taskText */\n      dup5\n        /* \"contracts/TaskContract.sol\":519:562  Task(taskId, taskText, false, false, false) */\n      dup2\n      mstore\n      0x20\n      add\n        /* \"contracts/TaskContract.sol\":542:547  false */\n      0x00\n        /* \"contracts/TaskContract.sol\":519:562  Task(taskId, taskText, false, false, false) */\n      iszero\n      iszero\n      dup2\n      mstore\n      0x20\n      add\n        /* \"contracts/TaskContract.sol\":549:554  false */\n      0x00\n        /* \"contracts/TaskContract.sol\":519:562  Task(taskId, taskText, false, false, false) */\n      iszero\n      iszero\n      dup2\n      mstore\n      0x20\n      add\n        /* \"contracts/TaskContract.sol\":556:561  false */\n      0x00\n        /* \"contracts/TaskContract.sol\":519:562  Task(taskId, taskText, false, false, false) */\n      iszero\n      iszero\n      dup2\n      mstore\n      pop\n        /* \"contracts/TaskContract.sol\":508:563  tasks.push(Task(taskId, taskText, false, false, false)) */\n      swap1\n      dup1\n      0x01\n      dup2\n      sload\n      add\n      dup1\n      dup3\n      sstore\n      dup1\n      swap2\n      pop\n      pop\n      0x01\n      swap1\n      sub\n      swap1\n      0x00\n      mstore\n      keccak256(0x00, 0x20)\n      swap1\n      0x03\n      mul\n      add\n      0x00\n      swap1\n      swap2\n      swap1\n      swap2\n      swap1\n      swap2\n      pop\n      0x00\n      dup3\n      add\n      mload\n      dup2\n      0x00\n      add\n      sstore\n      0x20\n      dup3\n      add\n      mload\n      dup2\n      0x01\n      add\n      swap1\n      dup1\n      mload\n      swap1\n      0x20\n      add\n      swap1\n      tag_24\n      swap3\n      swap2\n      swap1\n      tag_25\n      jump\t// in\n    tag_24:\n      pop\n      0x40\n      dup3\n      add\n      mload\n      dup2\n      0x02\n      add\n      exp(0x0100, 0x00)\n      dup2\n      sload\n      dup2\n      0xff\n      mul\n      not\n      and\n      swap1\n      dup4\n      iszero\n      iszero\n      mul\n      or\n      swap1\n      sstore\n      pop\n      0x60\n      dup3\n      add\n      mload\n      dup2\n      0x02\n      add\n      exp(0x0100, 0x01)\n      dup2\n      sload\n      dup2\n      0xff\n      mul\n      not\n      and\n      swap1\n      dup4\n      iszero\n      iszero\n      mul\n      or\n      swap1\n      sstore\n      pop\n      0x80\n      dup3\n      add\n      mload\n      dup2\n      0x02\n      add\n      exp(0x0100, 0x02)\n      dup2\n      sload\n      dup2\n      0xff\n      mul\n      not\n      and\n      swap1\n      dup4\n      iszero\n      iszero\n      mul\n      or\n      swap1\n      sstore\n      pop\n      pop\n      pop\n        /* \"contracts/TaskContract.sol\":591:601  msg.sender */\n      caller\n        /* \"contracts/TaskContract.sol\":569:580  taskToOwner */\n      0x01\n        /* \"contracts/TaskContract.sol\":569:588  taskToOwner[taskId] */\n      0x00\n        /* \"contracts/TaskContract.sol\":581:587  taskId */\n      dup4\n        /* \"contracts/TaskContract.sol\":569:588  taskToOwner[taskId] */\n      dup2\n      mstore\n      0x20\n      add\n      swap1\n      dup2\n      mstore\n      0x20\n      add\n      0x00\n      keccak256\n      0x00\n        /* \"contracts/TaskContract.sol\":569:601  taskToOwner[taskId] = msg.sender */\n      0x0100\n      exp\n      dup2\n      sload\n      dup2\n      0xffffffffffffffffffffffffffffffffffffffff\n      mul\n      not\n      and\n      swap1\n      dup4\n      0xffffffffffffffffffffffffffffffffffffffff\n      and\n      mul\n      or\n      swap1\n      sstore\n      pop\n        /* \"contracts/TaskContract.sol\":612:639  AddTask(msg.sender, taskId) */\n      0x1f54e1ba1832d428fbd7e7792beaf62b1fc5a382c207ffd614209c1413e94fda\n        /* \"contracts/TaskContract.sol\":620:630  msg.sender */\n      caller\n        /* \"contracts/TaskContract.sol\":632:638  taskId */\n      dup3\n        /* \"contracts/TaskContract.sol\":612:639  AddTask(msg.sender, taskId) */\n      mload(0x40)\n      tag_26\n      swap3\n      swap2\n      swap1\n      tag_27\n      jump\t// in\n    tag_26:\n      mload(0x40)\n      dup1\n      swap2\n      sub\n      swap1\n      log1\n        /* \"contracts/TaskContract.sol\":470:644  {... */\n      pop\n        /* \"contracts/TaskContract.sol\":420:644  function addTask(string memory taskText) external {... */\n      pop\n      jump\t// out\n        /* \"contracts/TaskContract.sol\":648:1116  function getMyTasks() external view returns(Task[] memory){... */\n    tag_12:\n        /* \"contracts/TaskContract.sol\":692:705  Task[] memory */\n      0x60\n        /* \"contracts/TaskContract.sol\":712:735  Task[] memory temporary */\n      0x00\n        /* \"contracts/TaskContract.sol\":750:755  tasks */\n      dup1\n        /* \"contracts/TaskContract.sol\":750:762  tasks.length */\n      dup1\n      sload\n      swap1\n      pop\n        /* \"contracts/TaskContract.sol\":738:763  new Task[] (tasks.length) */\n      0xffffffffffffffff\n      dup2\n      gt\n      iszero\n      tag_29\n      jumpi\n      tag_30\n      tag_31\n      jump\t// in\n    tag_30:\n    tag_29:\n      mload(0x40)\n      swap1\n      dup1\n      dup3\n      mstore\n      dup1\n      0x20\n      mul\n      0x20\n      add\n      dup3\n      add\n      0x40\n      mstore\n      dup1\n      iszero\n      tag_32\n      jumpi\n      dup2\n      0x20\n      add\n    tag_33:\n      tag_34\n      tag_35\n      jump\t// in\n    tag_34:\n      dup2\n      mstore\n      0x20\n      add\n      swap1\n      0x01\n      swap1\n      sub\n      swap1\n      dup2\n      tag_33\n      jumpi\n      swap1\n      pop\n    tag_32:\n      pop\n        /* \"contracts/TaskContract.sol\":712:763  Task[] memory temporary = new Task[] (tasks.length) */\n      swap1\n      pop\n        /* \"contracts/TaskContract.sol\":769:781  uint counter */\n      0x00\n        /* \"contracts/TaskContract.sol\":796:802  uint i */\n      dup1\n        /* \"contracts/TaskContract.sol\":792:969  for(uint i=0; i<tasks.length; i++) {... */\n    tag_36:\n        /* \"contracts/TaskContract.sol\":808:813  tasks */\n      0x00\n        /* \"contracts/TaskContract.sol\":808:820  tasks.length */\n      dup1\n      sload\n      swap1\n      pop\n        /* \"contracts/TaskContract.sol\":806:807  i */\n      dup2\n        /* \"contracts/TaskContract.sol\":806:820  i<tasks.length */\n      lt\n        /* \"contracts/TaskContract.sol\":792:969  for(uint i=0; i<tasks.length; i++) {... */\n      iszero\n      tag_37\n      jumpi\n        /* \"contracts/TaskContract.sol\":856:866  msg.sender */\n      caller\n        /* \"contracts/TaskContract.sol\":838:866  taskToOwner[i] == msg.sender */\n      0xffffffffffffffffffffffffffffffffffffffff\n      and\n        /* \"contracts/TaskContract.sol\":838:849  taskToOwner */\n      0x01\n        /* \"contracts/TaskContract.sol\":838:852  taskToOwner[i] */\n      0x00\n        /* \"contracts/TaskContract.sol\":850:851  i */\n      dup4\n        /* \"contracts/TaskContract.sol\":838:852  taskToOwner[i] */\n      dup2\n      mstore\n      0x20\n      add\n      swap1\n      dup2\n      mstore\n      0x20\n      add\n      0x00\n      keccak256\n      0x00\n      swap1\n      sload\n      swap1\n      0x0100\n      exp\n      swap1\n      div\n      0xffffffffffffffffffffffffffffffffffffffff\n      and\n        /* \"contracts/TaskContract.sol\":838:866  taskToOwner[i] == msg.sender */\n      0xffffffffffffffffffffffffffffffffffffffff\n      and\n      eq\n        /* \"contracts/TaskContract.sol\":838:894  taskToOwner[i] == msg.sender && tasks[i].isDone == false */\n      dup1\n      iszero\n      tag_39\n      jumpi\n      pop\n        /* \"contracts/TaskContract.sol\":889:894  false */\n      0x00\n        /* \"contracts/TaskContract.sol\":870:894  tasks[i].isDone == false */\n      iszero\n      iszero\n        /* \"contracts/TaskContract.sol\":870:875  tasks */\n      0x00\n        /* \"contracts/TaskContract.sol\":876:877  i */\n      dup3\n        /* \"contracts/TaskContract.sol\":870:878  tasks[i] */\n      dup2\n      sload\n      dup2\n      lt\n      tag_40\n      jumpi\n      tag_41\n      tag_42\n      jump\t// in\n    tag_41:\n    tag_40:\n      swap1\n      0x00\n      mstore\n      keccak256(0x00, 0x20)\n      swap1\n      0x03\n      mul\n      add\n        /* \"contracts/TaskContract.sol\":870:885  tasks[i].isDone */\n      0x02\n      add\n      0x01\n      swap1\n      sload\n      swap1\n      0x0100\n      exp\n      swap1\n      div\n      0xff\n      and\n        /* \"contracts/TaskContract.sol\":870:894  tasks[i].isDone == false */\n      iszero\n      iszero\n      eq\n        /* \"contracts/TaskContract.sol\":838:894  taskToOwner[i] == msg.sender && tasks[i].isDone == false */\n    tag_39:\n        /* \"contracts/TaskContract.sol\":835:963  if(taskToOwner[i] == msg.sender && tasks[i].isDone == false) {... */\n      iszero\n      tag_44\n      jumpi\n        /* \"contracts/TaskContract.sol\":927:932  tasks */\n      0x00\n        /* \"contracts/TaskContract.sol\":933:934  i */\n      dup2\n        /* \"contracts/TaskContract.sol\":927:935  tasks[i] */\n      dup2\n      sload\n      dup2\n      lt\n      tag_45\n      jumpi\n      tag_46\n      tag_42\n      jump\t// in\n    tag_46:\n    tag_45:\n      swap1\n      0x00\n      mstore\n      keccak256(0x00, 0x20)\n      swap1\n      0x03\n      mul\n      add\n        /* \"contracts/TaskContract.sol\":906:935  temporary[counter] = tasks[i] */\n      mload(0x40)\n      dup1\n      0xa0\n      add\n      0x40\n      mstore\n      swap1\n      dup2\n      0x00\n      dup3\n      add\n      sload\n      dup2\n      mstore\n      0x20\n      add\n      0x01\n      dup3\n      add\n      dup1\n      sload\n      tag_48\n      swap1\n      tag_49\n      jump\t// in\n    tag_48:\n      dup1\n      0x1f\n      add\n      0x20\n      dup1\n      swap2\n      div\n      mul\n      0x20\n      add\n      mload(0x40)\n      swap1\n      dup2\n      add\n      0x40\n      mstore\n      dup1\n      swap3\n      swap2\n      swap1\n      dup2\n      dup2\n      mstore\n      0x20\n      add\n      dup3\n      dup1\n      sload\n      tag_50\n      swap1\n      tag_49\n      jump\t// in\n    tag_50:\n      dup1\n      iszero\n      tag_51\n      jumpi\n      dup1\n      0x1f\n      lt\n      tag_52\n      jumpi\n      0x0100\n      dup1\n      dup4\n      sload\n      div\n      mul\n      dup4\n      mstore\n      swap2\n      0x20\n      add\n      swap2\n      jump(tag_51)\n    tag_52:\n      dup3\n      add\n      swap2\n      swap1\n      0x00\n      mstore\n      keccak256(0x00, 0x20)\n      swap1\n    tag_53:\n      dup2\n      sload\n      dup2\n      mstore\n      swap1\n      0x01\n      add\n      swap1\n      0x20\n      add\n      dup1\n      dup4\n      gt\n      tag_53\n      jumpi\n      dup3\n      swap1\n      sub\n      0x1f\n      and\n      dup3\n      add\n      swap2\n    tag_51:\n      pop\n      pop\n      pop\n      pop\n      pop\n      dup2\n      mstore\n      0x20\n      add\n      0x02\n      dup3\n      add\n      0x00\n      swap1\n      sload\n      swap1\n      0x0100\n      exp\n      swap1\n      div\n      0xff\n      and\n      iszero\n      iszero\n      iszero\n      iszero\n      dup2\n      mstore\n      0x20\n      add\n      0x02\n      dup3\n      add\n      0x01\n      swap1\n      sload\n      swap1\n      0x0100\n      exp\n      swap1\n      div\n      0xff\n      and\n      iszero\n      iszero\n      iszero\n      iszero\n      dup2\n      mstore\n      0x20\n      add\n      0x02\n      dup3\n      add\n      0x02\n      swap1\n      sload\n      swap1\n      0x0100\n      exp\n      swap1\n      div\n      0xff\n      and\n      iszero\n      iszero\n      iszero\n      iszero\n      dup2\n      mstore\n      pop\n      pop\n        /* \"contracts/TaskContract.sol\":906:915  temporary */\n      dup4\n        /* \"contracts/TaskContract.sol\":916:923  counter */\n      dup4\n        /* \"contracts/TaskContract.sol\":906:924  temporary[counter] */\n      dup2\n      mload\n      dup2\n      lt\n      tag_54\n      jumpi\n      tag_55\n      tag_42\n      jump\t// in\n    tag_55:\n    tag_54:\n      0x20\n      mul\n      0x20\n      add\n      add\n        /* \"contracts/TaskContract.sol\":906:935  temporary[counter] = tasks[i] */\n      dup2\n      swap1\n      mstore\n      pop\n        /* \"contracts/TaskContract.sol\":945:954  counter++ */\n      dup2\n      dup1\n      tag_56\n      swap1\n      tag_57\n      jump\t// in\n    tag_56:\n      swap3\n      pop\n      pop\n        /* \"contracts/TaskContract.sol\":835:963  if(taskToOwner[i] == msg.sender && tasks[i].isDone == false) {... */\n    tag_44:\n        /* \"contracts/TaskContract.sol\":822:825  i++ */\n      dup1\n      dup1\n      tag_58\n      swap1\n      tag_57\n      jump\t// in\n    tag_58:\n      swap2\n      pop\n      pop\n        /* \"contracts/TaskContract.sol\":792:969  for(uint i=0; i<tasks.length; i++) {... */\n      jump(tag_36)\n    tag_37:\n      pop\n        /* \"contracts/TaskContract.sol\":975:995  Task[] memory result */\n      0x00\n        /* \"contracts/TaskContract.sol\":1009:1016  counter */\n      dup2\n        /* \"contracts/TaskContract.sol\":998:1017  new Task[](counter) */\n      0xffffffffffffffff\n      dup2\n      gt\n      iszero\n      tag_59\n      jumpi\n      tag_60\n      tag_31\n      jump\t// in\n    tag_60:\n    tag_59:\n      mload(0x40)\n      swap1\n      dup1\n      dup3\n      mstore\n      dup1\n      0x20\n      mul\n      0x20\n      add\n      dup3\n      add\n      0x40\n      mstore\n      dup1\n      iszero\n      tag_61\n      jumpi\n      dup2\n      0x20\n      add\n    tag_62:\n      tag_63\n      tag_35\n      jump\t// in\n    tag_63:\n      dup2\n      mstore\n      0x20\n      add\n      swap1\n      0x01\n      swap1\n      sub\n      swap1\n      dup2\n      tag_62\n      jumpi\n      swap1\n      pop\n    tag_61:\n      pop\n        /* \"contracts/TaskContract.sol\":975:1017  Task[] memory result = new Task[](counter) */\n      swap1\n      pop\n        /* \"contracts/TaskContract.sol\":1028:1034  uint i */\n      0x00\n        /* \"contracts/TaskContract.sol\":1023:1092  for (uint i=0; i<counter; i++){... */\n    tag_64:\n        /* \"contracts/TaskContract.sol\":1040:1047  counter */\n      dup3\n        /* \"contracts/TaskContract.sol\":1038:1039  i */\n      dup2\n        /* \"contracts/TaskContract.sol\":1038:1047  i<counter */\n      lt\n        /* \"contracts/TaskContract.sol\":1023:1092  for (uint i=0; i<counter; i++){... */\n      iszero\n      tag_65\n      jumpi\n        /* \"contracts/TaskContract.sol\":1073:1082  temporary */\n      dup4\n        /* \"contracts/TaskContract.sol\":1083:1084  i */\n      dup2\n        /* \"contracts/TaskContract.sol\":1073:1085  temporary[i] */\n      dup2\n      mload\n      dup2\n      lt\n      tag_67\n      jumpi\n      tag_68\n      tag_42\n      jump\t// in\n    tag_68:\n    tag_67:\n      0x20\n      mul\n      0x20\n      add\n      add\n      mload\n        /* \"contracts/TaskContract.sol\":1061:1067  result */\n      dup3\n        /* \"contracts/TaskContract.sol\":1068:1069  i */\n      dup3\n        /* \"contracts/TaskContract.sol\":1061:1070  result[i] */\n      dup2\n      mload\n      dup2\n      lt\n      tag_69\n      jumpi\n      tag_70\n      tag_42\n      jump\t// in\n    tag_70:\n    tag_69:\n      0x20\n      mul\n      0x20\n      add\n      add\n        /* \"contracts/TaskContract.sol\":1061:1085  result[i] = temporary[i] */\n      dup2\n      swap1\n      mstore\n      pop\n        /* \"contracts/TaskContract.sol\":1049:1052  i++ */\n      dup1\n      dup1\n      tag_71\n      swap1\n      tag_57\n      jump\t// in\n    tag_71:\n      swap2\n      pop\n      pop\n        /* \"contracts/TaskContract.sol\":1023:1092  for (uint i=0; i<counter; i++){... */\n      jump(tag_64)\n    tag_65:\n      pop\n        /* \"contracts/TaskContract.sol\":1105:1111  result */\n      dup1\n        /* \"contracts/TaskContract.sol\":1098:1111  return result */\n      swap4\n      pop\n      pop\n      pop\n      pop\n        /* \"contracts/TaskContract.sol\":648:1116  function getMyTasks() external view returns(Task[] memory){... */\n      swap1\n      jump\t// out\n        /* \"contracts/TaskContract.sol\":1120:1303  function toggleDone(uint taskId, bool isDone) external {... */\n    tag_18:\n        /* \"contracts/TaskContract.sol\":1205:1215  msg.sender */\n      caller\n        /* \"contracts/TaskContract.sol\":1184:1215  taskToOwner[taskId]==msg.sender */\n      0xffffffffffffffffffffffffffffffffffffffff\n      and\n        /* \"contracts/TaskContract.sol\":1184:1195  taskToOwner */\n      0x01\n        /* \"contracts/TaskContract.sol\":1184:1203  taskToOwner[taskId] */\n      0x00\n        /* \"contracts/TaskContract.sol\":1196:1202  taskId */\n      dup5\n        /* \"contracts/TaskContract.sol\":1184:1203  taskToOwner[taskId] */\n      dup2\n      mstore\n      0x20\n      add\n      swap1\n      dup2\n      mstore\n      0x20\n      add\n      0x00\n      keccak256\n      0x00\n      swap1\n      sload\n      swap1\n      0x0100\n      exp\n      swap1\n      div\n      0xffffffffffffffffffffffffffffffffffffffff\n      and\n        /* \"contracts/TaskContract.sol\":1184:1215  taskToOwner[taskId]==msg.sender */\n      0xffffffffffffffffffffffffffffffffffffffff\n      and\n      eq\n        /* \"contracts/TaskContract.sol\":1181:1299  if(taskToOwner[taskId]==msg.sender){... */\n      iszero\n      tag_73\n      jumpi\n        /* \"contracts/TaskContract.sol\":1247:1253  isDone */\n      dup1\n        /* \"contracts/TaskContract.sol\":1224:1229  tasks */\n      0x00\n        /* \"contracts/TaskContract.sol\":1230:1236  taskId */\n      dup4\n        /* \"contracts/TaskContract.sol\":1224:1237  tasks[taskId] */\n      dup2\n      sload\n      dup2\n      lt\n      tag_74\n      jumpi\n      tag_75\n      tag_42\n      jump\t// in\n    tag_75:\n    tag_74:\n      swap1\n      0x00\n      mstore\n      keccak256(0x00, 0x20)\n      swap1\n      0x03\n      mul\n      add\n        /* \"contracts/TaskContract.sol\":1224:1244  tasks[taskId].isDone */\n      0x02\n      add\n      0x01\n        /* \"contracts/TaskContract.sol\":1224:1253  tasks[taskId].isDone = isDone */\n      0x0100\n      exp\n      dup2\n      sload\n      dup2\n      0xff\n      mul\n      not\n      and\n      swap1\n      dup4\n      iszero\n      iszero\n      mul\n      or\n      swap1\n      sstore\n      pop\n        /* \"contracts/TaskContract.sol\":1266:1292  ToggleDone(taskId, isDone) */\n      0xba663e32a8d8a276cf7b5bd80c06bfc2d343d4a4a4310f7c686e98fff148c42f\n        /* \"contracts/TaskContract.sol\":1277:1283  taskId */\n      dup3\n        /* \"contracts/TaskContract.sol\":1285:1291  isDone */\n      dup3\n        /* \"contracts/TaskContract.sol\":1266:1292  ToggleDone(taskId, isDone) */\n      mload(0x40)\n      tag_77\n      swap3\n      swap2\n      swap1\n      tag_78\n      jump\t// in\n    tag_77:\n      mload(0x40)\n      dup1\n      swap2\n      sub\n      swap1\n      log1\n        /* \"contracts/TaskContract.sol\":1181:1299  if(taskToOwner[taskId]==msg.sender){... */\n    tag_73:\n        /* \"contracts/TaskContract.sol\":1120:1303  function toggleDone(uint taskId, bool isDone) external {... */\n      pop\n      pop\n      jump\t// out\n        /* \"contracts/TaskContract.sol\":1307:1514  function deleteTask(uint taskId, bool isDeleted) external {... */\n    tag_21:\n        /* \"contracts/TaskContract.sol\":1395:1405  msg.sender */\n      caller\n        /* \"contracts/TaskContract.sol\":1374:1405  taskToOwner[taskId]==msg.sender */\n      0xffffffffffffffffffffffffffffffffffffffff\n      and\n        /* \"contracts/TaskContract.sol\":1374:1385  taskToOwner */\n      0x01\n        /* \"contracts/TaskContract.sol\":1374:1393  taskToOwner[taskId] */\n      0x00\n        /* \"contracts/TaskContract.sol\":1386:1392  taskId */\n      dup5\n        /* \"contracts/TaskContract.sol\":1374:1393  taskToOwner[taskId] */\n      dup2\n      mstore\n      0x20\n      add\n      swap1\n      dup2\n      mstore\n      0x20\n      add\n      0x00\n      keccak256\n      0x00\n      swap1\n      sload\n      swap1\n      0x0100\n      exp\n      swap1\n      div\n      0xffffffffffffffffffffffffffffffffffffffff\n      and\n        /* \"contracts/TaskContract.sol\":1374:1405  taskToOwner[taskId]==msg.sender */\n      0xffffffffffffffffffffffffffffffffffffffff\n      and\n      eq\n        /* \"contracts/TaskContract.sol\":1371:1510  if(taskToOwner[taskId]==msg.sender){... */\n      iszero\n      tag_80\n      jumpi\n        /* \"contracts/TaskContract.sol\":1444:1453  isDeleted */\n      dup1\n        /* \"contracts/TaskContract.sol\":1418:1423  tasks */\n      0x00\n        /* \"contracts/TaskContract.sol\":1424:1430  taskId */\n      dup4\n        /* \"contracts/TaskContract.sol\":1418:1431  tasks[taskId] */\n      dup2\n      sload\n      dup2\n      lt\n      tag_81\n      jumpi\n      tag_82\n      tag_42\n      jump\t// in\n    tag_82:\n    tag_81:\n      swap1\n      0x00\n      mstore\n      keccak256(0x00, 0x20)\n      swap1\n      0x03\n      mul\n      add\n        /* \"contracts/TaskContract.sol\":1418:1441  tasks[taskId].isDeleted */\n      0x02\n      add\n      0x02\n        /* \"contracts/TaskContract.sol\":1418:1453  tasks[taskId].isDeleted = isDeleted */\n      0x0100\n      exp\n      dup2\n      sload\n      dup2\n      0xff\n      mul\n      not\n      and\n      swap1\n      dup4\n      iszero\n      iszero\n      mul\n      or\n      swap1\n      sstore\n      pop\n        /* \"contracts/TaskContract.sol\":1470:1499  DeleteTask(taskId, isDeleted) */\n      0xf88a35c3d2016c409a46570b994a17b408dbc83c14a03f521512d50b85386d06\n        /* \"contracts/TaskContract.sol\":1481:1487  taskId */\n      dup3\n        /* \"contracts/TaskContract.sol\":1489:1498  isDeleted */\n      dup3\n        /* \"contracts/TaskContract.sol\":1470:1499  DeleteTask(taskId, isDeleted) */\n      mload(0x40)\n      tag_84\n      swap3\n      swap2\n      swap1\n      tag_78\n      jump\t// in\n    tag_84:\n      mload(0x40)\n      dup1\n      swap2\n      sub\n      swap1\n      log1\n        /* \"contracts/TaskContract.sol\":1371:1510  if(taskToOwner[taskId]==msg.sender){... */\n    tag_80:\n        /* \"contracts/TaskContract.sol\":1307:1514  function deleteTask(uint taskId, bool isDeleted) external {... */\n      pop\n      pop\n      jump\t// out\n    tag_25:\n      dup3\n      dup1\n      sload\n      tag_85\n      swap1\n      tag_49\n      jump\t// in\n    tag_85:\n      swap1\n      0x00\n      mstore\n      keccak256(0x00, 0x20)\n      swap1\n      0x1f\n      add\n      0x20\n      swap1\n      div\n      dup2\n      add\n      swap3\n      dup3\n      tag_87\n      jumpi\n      0x00\n      dup6\n      sstore\n      jump(tag_86)\n    tag_87:\n      dup3\n      0x1f\n      lt\n      tag_88\n      jumpi\n      dup1\n      mload\n      not(0xff)\n      and\n      dup4\n      dup1\n      add\n      or\n      dup6\n      sstore\n      jump(tag_86)\n    tag_88:\n      dup3\n      dup1\n      add\n      0x01\n      add\n      dup6\n      sstore\n      dup3\n      iszero\n      tag_86\n      jumpi\n      swap2\n      dup3\n      add\n    tag_89:\n      dup3\n      dup2\n      gt\n      iszero\n      tag_90\n      jumpi\n      dup3\n      mload\n      dup3\n      sstore\n      swap2\n      0x20\n      add\n      swap2\n      swap1\n      0x01\n      add\n      swap1\n      jump(tag_89)\n    tag_90:\n    tag_86:\n      pop\n      swap1\n      pop\n      tag_91\n      swap2\n      swap1\n      tag_92\n      jump\t// in\n    tag_91:\n      pop\n      swap1\n      jump\t// out\n    tag_35:\n      mload(0x40)\n      dup1\n      0xa0\n      add\n      0x40\n      mstore\n      dup1\n      0x00\n      dup2\n      mstore\n      0x20\n      add\n      0x60\n      dup2\n      mstore\n      0x20\n      add\n      iszero(iszero(0x00))\n      dup2\n      mstore\n      0x20\n      add\n      iszero(iszero(0x00))\n      dup2\n      mstore\n      0x20\n      add\n      iszero(iszero(0x00))\n      dup2\n      mstore\n      pop\n      swap1\n      jump\t// out\n    tag_92:\n    tag_93:\n      dup1\n      dup3\n      gt\n      iszero\n      tag_94\n      jumpi\n      0x00\n      dup2\n      0x00\n      swap1\n      sstore\n      pop\n      0x01\n      add\n      jump(tag_93)\n    tag_94:\n      pop\n      swap1\n      jump\t// out\n        /* \"#utility.yul\":7:419   */\n    tag_96:\n        /* \"#utility.yul\":85:90   */\n      0x00\n        /* \"#utility.yul\":110:176   */\n      tag_98\n        /* \"#utility.yul\":126:175   */\n      tag_99\n        /* \"#utility.yul\":168:174   */\n      dup5\n        /* \"#utility.yul\":126:175   */\n      tag_100\n      jump\t// in\n    tag_99:\n        /* \"#utility.yul\":110:176   */\n      tag_101\n      jump\t// in\n    tag_98:\n        /* \"#utility.yul\":101:176   */\n      swap1\n      pop\n        /* \"#utility.yul\":199:205   */\n      dup3\n        /* \"#utility.yul\":192:197   */\n      dup2\n        /* \"#utility.yul\":185:206   */\n      mstore\n        /* \"#utility.yul\":237:241   */\n      0x20\n        /* \"#utility.yul\":230:235   */\n      dup2\n        /* \"#utility.yul\":226:242   */\n      add\n        /* \"#utility.yul\":275:278   */\n      dup5\n        /* \"#utility.yul\":266:272   */\n      dup5\n        /* \"#utility.yul\":261:264   */\n      dup5\n        /* \"#utility.yul\":257:273   */\n      add\n        /* \"#utility.yul\":254:279   */\n      gt\n        /* \"#utility.yul\":251:363   */\n      iszero\n      tag_102\n      jumpi\n        /* \"#utility.yul\":282:361   */\n      tag_103\n      tag_104\n      jump\t// in\n    tag_103:\n        /* \"#utility.yul\":251:363   */\n    tag_102:\n        /* \"#utility.yul\":372:413   */\n      tag_105\n        /* \"#utility.yul\":406:412   */\n      dup5\n        /* \"#utility.yul\":401:404   */\n      dup3\n        /* \"#utility.yul\":396:399   */\n      dup6\n        /* \"#utility.yul\":372:413   */\n      tag_106\n      jump\t// in\n    tag_105:\n        /* \"#utility.yul\":91:419   */\n      pop\n        /* \"#utility.yul\":7:419   */\n      swap4\n      swap3\n      pop\n      pop\n      pop\n      jump\t// out\n        /* \"#utility.yul\":425:558   */\n    tag_107:\n        /* \"#utility.yul\":468:473   */\n      0x00\n        /* \"#utility.yul\":506:512   */\n      dup2\n        /* \"#utility.yul\":493:513   */\n      calldataload\n        /* \"#utility.yul\":484:513   */\n      swap1\n      pop\n        /* \"#utility.yul\":522:552   */\n      tag_109\n        /* \"#utility.yul\":546:551   */\n      dup2\n        /* \"#utility.yul\":522:552   */\n      tag_110\n      jump\t// in\n    tag_109:\n        /* \"#utility.yul\":425:558   */\n      swap3\n      swap2\n      pop\n      pop\n      jump\t// out\n        /* \"#utility.yul\":578:918   */\n    tag_111:\n        /* \"#utility.yul\":634:639   */\n      0x00\n        /* \"#utility.yul\":683:686   */\n      dup3\n        /* \"#utility.yul\":676:680   */\n      0x1f\n        /* \"#utility.yul\":668:674   */\n      dup4\n        /* \"#utility.yul\":664:681   */\n      add\n        /* \"#utility.yul\":660:687   */\n      slt\n        /* \"#utility.yul\":650:772   */\n      tag_113\n      jumpi\n        /* \"#utility.yul\":691:770   */\n      tag_114\n      tag_115\n      jump\t// in\n    tag_114:\n        /* \"#utility.yul\":650:772   */\n    tag_113:\n        /* \"#utility.yul\":808:814   */\n      dup2\n        /* \"#utility.yul\":795:815   */\n      calldataload\n        /* \"#utility.yul\":833:912   */\n      tag_116\n        /* \"#utility.yul\":908:911   */\n      dup5\n        /* \"#utility.yul\":900:906   */\n      dup3\n        /* \"#utility.yul\":893:897   */\n      0x20\n        /* \"#utility.yul\":885:891   */\n      dup7\n        /* \"#utility.yul\":881:898   */\n      add\n        /* \"#utility.yul\":833:912   */\n      tag_96\n      jump\t// in\n    tag_116:\n        /* \"#utility.yul\":824:912   */\n      swap2\n      pop\n        /* \"#utility.yul\":640:918   */\n      pop\n        /* \"#utility.yul\":578:918   */\n      swap3\n      swap2\n      pop\n      pop\n      jump\t// out\n        /* \"#utility.yul\":924:1063   */\n    tag_117:\n        /* \"#utility.yul\":970:975   */\n      0x00\n        /* \"#utility.yul\":1008:1014   */\n      dup2\n        /* \"#utility.yul\":995:1015   */\n      calldataload\n        /* \"#utility.yul\":986:1015   */\n      swap1\n      pop\n        /* \"#utility.yul\":1024:1057   */\n      tag_119\n        /* \"#utility.yul\":1051:1056   */\n      dup2\n        /* \"#utility.yul\":1024:1057   */\n      tag_120\n      jump\t// in\n    tag_119:\n        /* \"#utility.yul\":924:1063   */\n      swap3\n      swap2\n      pop\n      pop\n      jump\t// out\n        /* \"#utility.yul\":1069:1578   */\n    tag_9:\n        /* \"#utility.yul\":1138:1144   */\n      0x00\n        /* \"#utility.yul\":1187:1189   */\n      0x20\n        /* \"#utility.yul\":1175:1184   */\n      dup3\n        /* \"#utility.yul\":1166:1173   */\n      dup5\n        /* \"#utility.yul\":1162:1185   */\n      sub\n        /* \"#utility.yul\":1158:1190   */\n      slt\n        /* \"#utility.yul\":1155:1274   */\n      iszero\n      tag_122\n      jumpi\n        /* \"#utility.yul\":1193:1272   */\n      tag_123\n      tag_124\n      jump\t// in\n    tag_123:\n        /* \"#utility.yul\":1155:1274   */\n    tag_122:\n        /* \"#utility.yul\":1341:1342   */\n      0x00\n        /* \"#utility.yul\":1330:1339   */\n      dup3\n        /* \"#utility.yul\":1326:1343   */\n      add\n        /* \"#utility.yul\":1313:1344   */\n      calldataload\n        /* \"#utility.yul\":1371:1389   */\n      0xffffffffffffffff\n        /* \"#utility.yul\":1363:1369   */\n      dup2\n        /* \"#utility.yul\":1360:1390   */\n      gt\n        /* \"#utility.yul\":1357:1474   */\n      iszero\n      tag_125\n      jumpi\n        /* \"#utility.yul\":1393:1472   */\n      tag_126\n      tag_127\n      jump\t// in\n    tag_126:\n        /* \"#utility.yul\":1357:1474   */\n    tag_125:\n        /* \"#utility.yul\":1498:1561   */\n      tag_128\n        /* \"#utility.yul\":1553:1560   */\n      dup5\n        /* \"#utility.yul\":1544:1550   */\n      dup3\n        /* \"#utility.yul\":1533:1542   */\n      dup6\n        /* \"#utility.yul\":1529:1551   */\n      add\n        /* \"#utility.yul\":1498:1561   */\n      tag_111\n      jump\t// in\n    tag_128:\n        /* \"#utility.yul\":1488:1561   */\n      swap2\n      pop\n        /* \"#utility.yul\":1284:1571   */\n      pop\n        /* \"#utility.yul\":1069:1578   */\n      swap3\n      swap2\n      pop\n      pop\n      jump\t// out\n        /* \"#utility.yul\":1584:2052   */\n    tag_17:\n        /* \"#utility.yul\":1649:1655   */\n      0x00\n        /* \"#utility.yul\":1657:1663   */\n      dup1\n        /* \"#utility.yul\":1706:1708   */\n      0x40\n        /* \"#utility.yul\":1694:1703   */\n      dup4\n        /* \"#utility.yul\":1685:1692   */\n      dup6\n        /* \"#utility.yul\":1681:1704   */\n      sub\n        /* \"#utility.yul\":1677:1709   */\n      slt\n        /* \"#utility.yul\":1674:1793   */\n      iszero\n      tag_130\n      jumpi\n        /* \"#utility.yul\":1712:1791   */\n      tag_131\n      tag_124\n      jump\t// in\n    tag_131:\n        /* \"#utility.yul\":1674:1793   */\n    tag_130:\n        /* \"#utility.yul\":1832:1833   */\n      0x00\n        /* \"#utility.yul\":1857:1910   */\n      tag_132\n        /* \"#utility.yul\":1902:1909   */\n      dup6\n        /* \"#utility.yul\":1893:1899   */\n      dup3\n        /* \"#utility.yul\":1882:1891   */\n      dup7\n        /* \"#utility.yul\":1878:1900   */\n      add\n        /* \"#utility.yul\":1857:1910   */\n      tag_117\n      jump\t// in\n    tag_132:\n        /* \"#utility.yul\":1847:1910   */\n      swap3\n      pop\n        /* \"#utility.yul\":1803:1920   */\n      pop\n        /* \"#utility.yul\":1959:1961   */\n      0x20\n        /* \"#utility.yul\":1985:2035   */\n      tag_133\n        /* \"#utility.yul\":2027:2034   */\n      dup6\n        /* \"#utility.yul\":2018:2024   */\n      dup3\n        /* \"#utility.yul\":2007:2016   */\n      dup7\n        /* \"#utility.yul\":2003:2025   */\n      add\n        /* \"#utility.yul\":1985:2035   */\n      tag_107\n      jump\t// in\n    tag_133:\n        /* \"#utility.yul\":1975:2035   */\n      swap2\n      pop\n        /* \"#utility.yul\":1930:2045   */\n      pop\n        /* \"#utility.yul\":1584:2052   */\n      swap3\n      pop\n      swap3\n      swap1\n      pop\n      jump\t// out\n        /* \"#utility.yul\":2058:2294   */\n    tag_134:\n        /* \"#utility.yul\":2167:2177   */\n      0x00\n        /* \"#utility.yul\":2202:2288   */\n      tag_136\n        /* \"#utility.yul\":2284:2287   */\n      dup4\n        /* \"#utility.yul\":2276:2282   */\n      dup4\n        /* \"#utility.yul\":2202:2288   */\n      tag_137\n      jump\t// in\n    tag_136:\n        /* \"#utility.yul\":2188:2288   */\n      swap1\n      pop\n        /* \"#utility.yul\":2058:2294   */\n      swap3\n      swap2\n      pop\n      pop\n      jump\t// out\n        /* \"#utility.yul\":2300:2418   */\n    tag_138:\n        /* \"#utility.yul\":2387:2411   */\n      tag_140\n        /* \"#utility.yul\":2405:2410   */\n      dup2\n        /* \"#utility.yul\":2387:2411   */\n      tag_141\n      jump\t// in\n    tag_140:\n        /* \"#utility.yul\":2382:2385   */\n      dup3\n        /* \"#utility.yul\":2375:2412   */\n      mstore\n        /* \"#utility.yul\":2300:2418   */\n      pop\n      pop\n      jump\t// out\n        /* \"#utility.yul\":2488:3559   */\n    tag_142:\n        /* \"#utility.yul\":2647:2650   */\n      0x00\n        /* \"#utility.yul\":2676:2750   */\n      tag_144\n        /* \"#utility.yul\":2744:2749   */\n      dup3\n        /* \"#utility.yul\":2676:2750   */\n      tag_145\n      jump\t// in\n    tag_144:\n        /* \"#utility.yul\":2766:2872   */\n      tag_146\n        /* \"#utility.yul\":2865:2871   */\n      dup2\n        /* \"#utility.yul\":2860:2863   */\n      dup6\n        /* \"#utility.yul\":2766:2872   */\n      tag_147\n      jump\t// in\n    tag_146:\n        /* \"#utility.yul\":2759:2872   */\n      swap4\n      pop\n        /* \"#utility.yul\":2898:2901   */\n      dup4\n        /* \"#utility.yul\":2943:2947   */\n      0x20\n        /* \"#utility.yul\":2935:2941   */\n      dup3\n        /* \"#utility.yul\":2931:2948   */\n      mul\n        /* \"#utility.yul\":2926:2929   */\n      dup6\n        /* \"#utility.yul\":2922:2949   */\n      add\n        /* \"#utility.yul\":2973:3049   */\n      tag_148\n        /* \"#utility.yul\":3043:3048   */\n      dup6\n        /* \"#utility.yul\":2973:3049   */\n      tag_149\n      jump\t// in\n    tag_148:\n        /* \"#utility.yul\":3072:3079   */\n      dup1\n        /* \"#utility.yul\":3103:3104   */\n      0x00\n        /* \"#utility.yul\":3088:3514   */\n    tag_150:\n        /* \"#utility.yul\":3113:3119   */\n      dup6\n        /* \"#utility.yul\":3110:3111   */\n      dup2\n        /* \"#utility.yul\":3107:3120   */\n      lt\n        /* \"#utility.yul\":3088:3514   */\n      iszero\n      tag_152\n      jumpi\n        /* \"#utility.yul\":3184:3193   */\n      dup5\n        /* \"#utility.yul\":3178:3182   */\n      dup5\n        /* \"#utility.yul\":3174:3194   */\n      sub\n        /* \"#utility.yul\":3169:3172   */\n      dup10\n        /* \"#utility.yul\":3162:3195   */\n      mstore\n        /* \"#utility.yul\":3235:3241   */\n      dup2\n        /* \"#utility.yul\":3229:3242   */\n      mload\n        /* \"#utility.yul\":3263:3367   */\n      tag_153\n        /* \"#utility.yul\":3362:3366   */\n      dup6\n        /* \"#utility.yul\":3347:3360   */\n      dup3\n        /* \"#utility.yul\":3263:3367   */\n      tag_134\n      jump\t// in\n    tag_153:\n        /* \"#utility.yul\":3255:3367   */\n      swap5\n      pop\n        /* \"#utility.yul\":3390:3470   */\n      tag_154\n        /* \"#utility.yul\":3463:3469   */\n      dup4\n        /* \"#utility.yul\":3390:3470   */\n      tag_155\n      jump\t// in\n    tag_154:\n        /* \"#utility.yul\":3380:3470   */\n      swap3\n      pop\n        /* \"#utility.yul\":3499:3503   */\n      0x20\n        /* \"#utility.yul\":3494:3497   */\n      dup11\n        /* \"#utility.yul\":3490:3504   */\n      add\n        /* \"#utility.yul\":3483:3504   */\n      swap10\n      pop\n        /* \"#utility.yul\":3148:3514   */\n      pop\n        /* \"#utility.yul\":3135:3136   */\n      0x01\n        /* \"#utility.yul\":3132:3133   */\n      dup2\n        /* \"#utility.yul\":3128:3137   */\n      add\n        /* \"#utility.yul\":3123:3137   */\n      swap1\n      pop\n        /* \"#utility.yul\":3088:3514   */\n      jump(tag_150)\n    tag_152:\n        /* \"#utility.yul\":3092:3106   */\n      pop\n        /* \"#utility.yul\":3530:3534   */\n      dup3\n        /* \"#utility.yul\":3523:3534   */\n      swap8\n      pop\n        /* \"#utility.yul\":3550:3553   */\n      dup8\n        /* \"#utility.yul\":3543:3553   */\n      swap6\n      pop\n        /* \"#utility.yul\":2652:3559   */\n      pop\n      pop\n      pop\n      pop\n      pop\n        /* \"#utility.yul\":2488:3559   */\n      swap3\n      swap2\n      pop\n      pop\n      jump\t// out\n        /* \"#utility.yul\":3565:3664   */\n    tag_156:\n        /* \"#utility.yul\":3636:3657   */\n      tag_158\n        /* \"#utility.yul\":3651:3656   */\n      dup2\n        /* \"#utility.yul\":3636:3657   */\n      tag_159\n      jump\t// in\n    tag_158:\n        /* \"#utility.yul\":3631:3634   */\n      dup3\n        /* \"#utility.yul\":3624:3658   */\n      mstore\n        /* \"#utility.yul\":3565:3664   */\n      pop\n      pop\n      jump\t// out\n        /* \"#utility.yul\":3670:3779   */\n    tag_160:\n        /* \"#utility.yul\":3751:3772   */\n      tag_162\n        /* \"#utility.yul\":3766:3771   */\n      dup2\n        /* \"#utility.yul\":3751:3772   */\n      tag_159\n      jump\t// in\n    tag_162:\n        /* \"#utility.yul\":3746:3749   */\n      dup3\n        /* \"#utility.yul\":3739:3773   */\n      mstore\n        /* \"#utility.yul\":3670:3779   */\n      pop\n      pop\n      jump\t// out\n        /* \"#utility.yul\":3785:4129   */\n    tag_163:\n        /* \"#utility.yul\":3863:3866   */\n      0x00\n        /* \"#utility.yul\":3891:3930   */\n      tag_165\n        /* \"#utility.yul\":3924:3929   */\n      dup3\n        /* \"#utility.yul\":3891:3930   */\n      tag_166\n      jump\t// in\n    tag_165:\n        /* \"#utility.yul\":3946:4007   */\n      tag_167\n        /* \"#utility.yul\":4000:4006   */\n      dup2\n        /* \"#utility.yul\":3995:3998   */\n      dup6\n        /* \"#utility.yul\":3946:4007   */\n      tag_168\n      jump\t// in\n    tag_167:\n        /* \"#utility.yul\":3939:4007   */\n      swap4\n      pop\n        /* \"#utility.yul\":4016:4068   */\n      tag_169\n        /* \"#utility.yul\":4061:4067   */\n      dup2\n        /* \"#utility.yul\":4056:4059   */\n      dup6\n        /* \"#utility.yul\":4049:4053   */\n      0x20\n        /* \"#utility.yul\":4042:4047   */\n      dup7\n        /* \"#utility.yul\":4038:4054   */\n      add\n        /* \"#utility.yul\":4016:4068   */\n      tag_170\n      jump\t// in\n    tag_169:\n        /* \"#utility.yul\":4093:4122   */\n      tag_171\n        /* \"#utility.yul\":4115:4121   */\n      dup2\n        /* \"#utility.yul\":4093:4122   */\n      tag_172\n      jump\t// in\n    tag_171:\n        /* \"#utility.yul\":4088:4091   */\n      dup5\n        /* \"#utility.yul\":4084:4123   */\n      add\n        /* \"#utility.yul\":4077:4123   */\n      swap2\n      pop\n        /* \"#utility.yul\":3867:4129   */\n      pop\n        /* \"#utility.yul\":3785:4129   */\n      swap3\n      swap2\n      pop\n      pop\n      jump\t// out\n        /* \"#utility.yul\":4195:5301   */\n    tag_137:\n        /* \"#utility.yul\":4294:4297   */\n      0x00\n        /* \"#utility.yul\":4330:4334   */\n      0xa0\n        /* \"#utility.yul\":4325:4328   */\n      dup4\n        /* \"#utility.yul\":4321:4335   */\n      add\n        /* \"#utility.yul\":4415:4419   */\n      0x00\n        /* \"#utility.yul\":4408:4413   */\n      dup4\n        /* \"#utility.yul\":4404:4420   */\n      add\n        /* \"#utility.yul\":4398:4421   */\n      mload\n        /* \"#utility.yul\":4434:4497   */\n      tag_174\n        /* \"#utility.yul\":4491:4495   */\n      0x00\n        /* \"#utility.yul\":4486:4489   */\n      dup7\n        /* \"#utility.yul\":4482:4496   */\n      add\n        /* \"#utility.yul\":4468:4480   */\n      dup3\n        /* \"#utility.yul\":4434:4497   */\n      tag_175\n      jump\t// in\n    tag_174:\n        /* \"#utility.yul\":4345:4507   */\n      pop\n        /* \"#utility.yul\":4593:4597   */\n      0x20\n        /* \"#utility.yul\":4586:4591   */\n      dup4\n        /* \"#utility.yul\":4582:4598   */\n      add\n        /* \"#utility.yul\":4576:4599   */\n      mload\n        /* \"#utility.yul\":4646:4649   */\n      dup5\n        /* \"#utility.yul\":4640:4644   */\n      dup3\n        /* \"#utility.yul\":4636:4650   */\n      sub\n        /* \"#utility.yul\":4629:4633   */\n      0x20\n        /* \"#utility.yul\":4624:4627   */\n      dup7\n        /* \"#utility.yul\":4620:4634   */\n      add\n        /* \"#utility.yul\":4613:4651   */\n      mstore\n        /* \"#utility.yul\":4672:4745   */\n      tag_176\n        /* \"#utility.yul\":4740:4744   */\n      dup3\n        /* \"#utility.yul\":4726:4738   */\n      dup3\n        /* \"#utility.yul\":4672:4745   */\n      tag_163\n      jump\t// in\n    tag_176:\n        /* \"#utility.yul\":4664:4745   */\n      swap2\n      pop\n        /* \"#utility.yul\":4517:4756   */\n      pop\n        /* \"#utility.yul\":4845:4849   */\n      0x40\n        /* \"#utility.yul\":4838:4843   */\n      dup4\n        /* \"#utility.yul\":4834:4850   */\n      add\n        /* \"#utility.yul\":4828:4851   */\n      mload\n        /* \"#utility.yul\":4864:4921   */\n      tag_177\n        /* \"#utility.yul\":4915:4919   */\n      0x40\n        /* \"#utility.yul\":4910:4913   */\n      dup7\n        /* \"#utility.yul\":4906:4920   */\n      add\n        /* \"#utility.yul\":4892:4904   */\n      dup3\n        /* \"#utility.yul\":4864:4921   */\n      tag_156\n      jump\t// in\n    tag_177:\n        /* \"#utility.yul\":4766:4931   */\n      pop\n        /* \"#utility.yul\":5015:5019   */\n      0x60\n        /* \"#utility.yul\":5008:5013   */\n      dup4\n        /* \"#utility.yul\":5004:5020   */\n      add\n        /* \"#utility.yul\":4998:5021   */\n      mload\n        /* \"#utility.yul\":5034:5091   */\n      tag_178\n        /* \"#utility.yul\":5085:5089   */\n      0x60\n        /* \"#utility.yul\":5080:5083   */\n      dup7\n        /* \"#utility.yul\":5076:5090   */\n      add\n        /* \"#utility.yul\":5062:5074   */\n      dup3\n        /* \"#utility.yul\":5034:5091   */\n      tag_156\n      jump\t// in\n    tag_178:\n        /* \"#utility.yul\":4941:5101   */\n      pop\n        /* \"#utility.yul\":5188:5192   */\n      0x80\n        /* \"#utility.yul\":5181:5186   */\n      dup4\n        /* \"#utility.yul\":5177:5193   */\n      add\n        /* \"#utility.yul\":5171:5194   */\n      mload\n        /* \"#utility.yul\":5207:5264   */\n      tag_179\n        /* \"#utility.yul\":5258:5262   */\n      0x80\n        /* \"#utility.yul\":5253:5256   */\n      dup7\n        /* \"#utility.yul\":5249:5263   */\n      add\n        /* \"#utility.yul\":5235:5247   */\n      dup3\n        /* \"#utility.yul\":5207:5264   */\n      tag_156\n      jump\t// in\n    tag_179:\n        /* \"#utility.yul\":5111:5274   */\n      pop\n        /* \"#utility.yul\":5291:5295   */\n      dup1\n        /* \"#utility.yul\":5284:5295   */\n      swap2\n      pop\n        /* \"#utility.yul\":4299:5301   */\n      pop\n        /* \"#utility.yul\":4195:5301   */\n      swap3\n      swap2\n      pop\n      pop\n      jump\t// out\n        /* \"#utility.yul\":5307:5415   */\n    tag_175:\n        /* \"#utility.yul\":5384:5408   */\n      tag_181\n        /* \"#utility.yul\":5402:5407   */\n      dup2\n        /* \"#utility.yul\":5384:5408   */\n      tag_182\n      jump\t// in\n    tag_181:\n        /* \"#utility.yul\":5379:5382   */\n      dup3\n        /* \"#utility.yul\":5372:5409   */\n      mstore\n        /* \"#utility.yul\":5307:5415   */\n      pop\n      pop\n      jump\t// out\n        /* \"#utility.yul\":5421:5539   */\n    tag_183:\n        /* \"#utility.yul\":5508:5532   */\n      tag_185\n        /* \"#utility.yul\":5526:5531   */\n      dup2\n        /* \"#utility.yul\":5508:5532   */\n      tag_182\n      jump\t// in\n    tag_185:\n        /* \"#utility.yul\":5503:5506   */\n      dup3\n        /* \"#utility.yul\":5496:5533   */\n      mstore\n        /* \"#utility.yul\":5421:5539   */\n      pop\n      pop\n      jump\t// out\n        /* \"#utility.yul\":5545:5877   */\n    tag_27:\n        /* \"#utility.yul\":5666:5670   */\n      0x00\n        /* \"#utility.yul\":5704:5706   */\n      0x40\n        /* \"#utility.yul\":5693:5702   */\n      dup3\n        /* \"#utility.yul\":5689:5707   */\n      add\n        /* \"#utility.yul\":5681:5707   */\n      swap1\n      pop\n        /* \"#utility.yul\":5717:5788   */\n      tag_187\n        /* \"#utility.yul\":5785:5786   */\n      0x00\n        /* \"#utility.yul\":5774:5783   */\n      dup4\n        /* \"#utility.yul\":5770:5787   */\n      add\n        /* \"#utility.yul\":5761:5767   */\n      dup6\n        /* \"#utility.yul\":5717:5788   */\n      tag_138\n      jump\t// in\n    tag_187:\n        /* \"#utility.yul\":5798:5870   */\n      tag_188\n        /* \"#utility.yul\":5866:5868   */\n      0x20\n        /* \"#utility.yul\":5855:5864   */\n      dup4\n        /* \"#utility.yul\":5851:5869   */\n      add\n        /* \"#utility.yul\":5842:5848   */\n      dup5\n        /* \"#utility.yul\":5798:5870   */\n      tag_183\n      jump\t// in\n    tag_188:\n        /* \"#utility.yul\":5545:5877   */\n      swap4\n      swap3\n      pop\n      pop\n      pop\n      jump\t// out\n        /* \"#utility.yul\":5883:6336   */\n    tag_14:\n        /* \"#utility.yul\":6066:6070   */\n      0x00\n        /* \"#utility.yul\":6104:6106   */\n      0x20\n        /* \"#utility.yul\":6093:6102   */\n      dup3\n        /* \"#utility.yul\":6089:6107   */\n      add\n        /* \"#utility.yul\":6081:6107   */\n      swap1\n      pop\n        /* \"#utility.yul\":6153:6162   */\n      dup2\n        /* \"#utility.yul\":6147:6151   */\n      dup2\n        /* \"#utility.yul\":6143:6163   */\n      sub\n        /* \"#utility.yul\":6139:6140   */\n      0x00\n        /* \"#utility.yul\":6128:6137   */\n      dup4\n        /* \"#utility.yul\":6124:6141   */\n      add\n        /* \"#utility.yul\":6117:6164   */\n      mstore\n        /* \"#utility.yul\":6181:6329   */\n      tag_190\n        /* \"#utility.yul\":6324:6328   */\n      dup2\n        /* \"#utility.yul\":6315:6321   */\n      dup5\n        /* \"#utility.yul\":6181:6329   */\n      tag_142\n      jump\t// in\n    tag_190:\n        /* \"#utility.yul\":6173:6329   */\n      swap1\n      pop\n        /* \"#utility.yul\":5883:6336   */\n      swap3\n      swap2\n      pop\n      pop\n      jump\t// out\n        /* \"#utility.yul\":6342:6662   */\n    tag_78:\n        /* \"#utility.yul\":6457:6461   */\n      0x00\n        /* \"#utility.yul\":6495:6497   */\n      0x40\n        /* \"#utility.yul\":6484:6493   */\n      dup3\n        /* \"#utility.yul\":6480:6498   */\n      add\n        /* \"#utility.yul\":6472:6498   */\n      swap1\n      pop\n        /* \"#utility.yul\":6508:6579   */\n      tag_192\n        /* \"#utility.yul\":6576:6577   */\n      0x00\n        /* \"#utility.yul\":6565:6574   */\n      dup4\n        /* \"#utility.yul\":6561:6578   */\n      add\n        /* \"#utility.yul\":6552:6558   */\n      dup6\n        /* \"#utility.yul\":6508:6579   */\n      tag_183\n      jump\t// in\n    tag_192:\n        /* \"#utility.yul\":6589:6655   */\n      tag_193\n        /* \"#utility.yul\":6651:6653   */\n      0x20\n        /* \"#utility.yul\":6640:6649   */\n      dup4\n        /* \"#utility.yul\":6636:6654   */\n      add\n        /* \"#utility.yul\":6627:6633   */\n      dup5\n        /* \"#utility.yul\":6589:6655   */\n      tag_160\n      jump\t// in\n    tag_193:\n        /* \"#utility.yul\":6342:6662   */\n      swap4\n      swap3\n      pop\n      pop\n      pop\n      jump\t// out\n        /* \"#utility.yul\":6668:6797   */\n    tag_101:\n        /* \"#utility.yul\":6702:6708   */\n      0x00\n        /* \"#utility.yul\":6729:6749   */\n      tag_195\n      tag_196\n      jump\t// in\n    tag_195:\n        /* \"#utility.yul\":6719:6749   */\n      swap1\n      pop\n        /* \"#utility.yul\":6758:6791   */\n      tag_197\n        /* \"#utility.yul\":6786:6790   */\n      dup3\n        /* \"#utility.yul\":6778:6784   */\n      dup3\n        /* \"#utility.yul\":6758:6791   */\n      tag_198\n      jump\t// in\n    tag_197:\n        /* \"#utility.yul\":6668:6797   */\n      swap2\n      swap1\n      pop\n      jump\t// out\n        /* \"#utility.yul\":6803:6878   */\n    tag_196:\n        /* \"#utility.yul\":6836:6842   */\n      0x00\n        /* \"#utility.yul\":6869:6871   */\n      0x40\n        /* \"#utility.yul\":6863:6872   */\n      mload\n        /* \"#utility.yul\":6853:6872   */\n      swap1\n      pop\n        /* \"#utility.yul\":6803:6878   */\n      swap1\n      jump\t// out\n        /* \"#utility.yul\":6884:7192   */\n    tag_100:\n        /* \"#utility.yul\":6946:6950   */\n      0x00\n        /* \"#utility.yul\":7036:7054   */\n      0xffffffffffffffff\n        /* \"#utility.yul\":7028:7034   */\n      dup3\n        /* \"#utility.yul\":7025:7055   */\n      gt\n        /* \"#utility.yul\":7022:7078   */\n      iszero\n      tag_201\n      jumpi\n        /* \"#utility.yul\":7058:7076   */\n      tag_202\n      tag_31\n      jump\t// in\n    tag_202:\n        /* \"#utility.yul\":7022:7078   */\n    tag_201:\n        /* \"#utility.yul\":7096:7125   */\n      tag_203\n        /* \"#utility.yul\":7118:7124   */\n      dup3\n        /* \"#utility.yul\":7096:7125   */\n      tag_172\n      jump\t// in\n    tag_203:\n        /* \"#utility.yul\":7088:7125   */\n      swap1\n      pop\n        /* \"#utility.yul\":7180:7184   */\n      0x20\n        /* \"#utility.yul\":7174:7178   */\n      dup2\n        /* \"#utility.yul\":7170:7185   */\n      add\n        /* \"#utility.yul\":7162:7185   */\n      swap1\n      pop\n        /* \"#utility.yul\":6884:7192   */\n      swap2\n      swap1\n      pop\n      jump\t// out\n        /* \"#utility.yul\":7198:7350   */\n    tag_149:\n        /* \"#utility.yul\":7285:7289   */\n      0x00\n        /* \"#utility.yul\":7308:7311   */\n      dup2\n        /* \"#utility.yul\":7300:7311   */\n      swap1\n      pop\n        /* \"#utility.yul\":7338:7342   */\n      0x20\n        /* \"#utility.yul\":7333:7336   */\n      dup3\n        /* \"#utility.yul\":7329:7343   */\n      add\n        /* \"#utility.yul\":7321:7343   */\n      swap1\n      pop\n        /* \"#utility.yul\":7198:7350   */\n      swap2\n      swap1\n      pop\n      jump\t// out\n        /* \"#utility.yul\":7356:7490   */\n    tag_145:\n        /* \"#utility.yul\":7443:7449   */\n      0x00\n        /* \"#utility.yul\":7477:7482   */\n      dup2\n        /* \"#utility.yul\":7471:7483   */\n      mload\n        /* \"#utility.yul\":7461:7483   */\n      swap1\n      pop\n        /* \"#utility.yul\":7356:7490   */\n      swap2\n      swap1\n      pop\n      jump\t// out\n        /* \"#utility.yul\":7496:7595   */\n    tag_166:\n        /* \"#utility.yul\":7548:7554   */\n      0x00\n        /* \"#utility.yul\":7582:7587   */\n      dup2\n        /* \"#utility.yul\":7576:7588   */\n      mload\n        /* \"#utility.yul\":7566:7588   */\n      swap1\n      pop\n        /* \"#utility.yul\":7496:7595   */\n      swap2\n      swap1\n      pop\n      jump\t// out\n        /* \"#utility.yul\":7601:7734   */\n    tag_155:\n        /* \"#utility.yul\":7691:7695   */\n      0x00\n        /* \"#utility.yul\":7723:7727   */\n      0x20\n        /* \"#utility.yul\":7718:7721   */\n      dup3\n        /* \"#utility.yul\":7714:7728   */\n      add\n        /* \"#utility.yul\":7706:7728   */\n      swap1\n      pop\n        /* \"#utility.yul\":7601:7734   */\n      swap2\n      swap1\n      pop\n      jump\t// out\n        /* \"#utility.yul\":7740:7944   */\n    tag_147:\n        /* \"#utility.yul\":7859:7870   */\n      0x00\n        /* \"#utility.yul\":7893:7899   */\n      dup3\n        /* \"#utility.yul\":7888:7891   */\n      dup3\n        /* \"#utility.yul\":7881:7900   */\n      mstore\n        /* \"#utility.yul\":7933:7937   */\n      0x20\n        /* \"#utility.yul\":7928:7931   */\n      dup3\n        /* \"#utility.yul\":7924:7938   */\n      add\n        /* \"#utility.yul\":7909:7938   */\n      swap1\n      pop\n        /* \"#utility.yul\":7740:7944   */\n      swap3\n      swap2\n      pop\n      pop\n      jump\t// out\n        /* \"#utility.yul\":7950:8109   */\n    tag_168:\n        /* \"#utility.yul\":8024:8035   */\n      0x00\n        /* \"#utility.yul\":8058:8064   */\n      dup3\n        /* \"#utility.yul\":8053:8056   */\n      dup3\n        /* \"#utility.yul\":8046:8065   */\n      mstore\n        /* \"#utility.yul\":8098:8102   */\n      0x20\n        /* \"#utility.yul\":8093:8096   */\n      dup3\n        /* \"#utility.yul\":8089:8103   */\n      add\n        /* \"#utility.yul\":8074:8103   */\n      swap1\n      pop\n        /* \"#utility.yul\":7950:8109   */\n      swap3\n      swap2\n      pop\n      pop\n      jump\t// out\n        /* \"#utility.yul\":8115:8211   */\n    tag_141:\n        /* \"#utility.yul\":8152:8159   */\n      0x00\n        /* \"#utility.yul\":8181:8205   */\n      tag_211\n        /* \"#utility.yul\":8199:8204   */\n      dup3\n        /* \"#utility.yul\":8181:8205   */\n      tag_212\n      jump\t// in\n    tag_211:\n        /* \"#utility.yul\":8170:8205   */\n      swap1\n      pop\n        /* \"#utility.yul\":8115:8211   */\n      swap2\n      swap1\n      pop\n      jump\t// out\n        /* \"#utility.yul\":8217:8307   */\n    tag_159:\n        /* \"#utility.yul\":8251:8258   */\n      0x00\n        /* \"#utility.yul\":8294:8299   */\n      dup2\n        /* \"#utility.yul\":8287:8300   */\n      iszero\n        /* \"#utility.yul\":8280:8301   */\n      iszero\n        /* \"#utility.yul\":8269:8301   */\n      swap1\n      pop\n        /* \"#utility.yul\":8217:8307   */\n      swap2\n      swap1\n      pop\n      jump\t// out\n        /* \"#utility.yul\":8313:8439   */\n    tag_212:\n        /* \"#utility.yul\":8350:8357   */\n      0x00\n        /* \"#utility.yul\":8390:8432   */\n      0xffffffffffffffffffffffffffffffffffffffff\n        /* \"#utility.yul\":8383:8388   */\n      dup3\n        /* \"#utility.yul\":8379:8433   */\n      and\n        /* \"#utility.yul\":8368:8433   */\n      swap1\n      pop\n        /* \"#utility.yul\":8313:8439   */\n      swap2\n      swap1\n      pop\n      jump\t// out\n        /* \"#utility.yul\":8445:8522   */\n    tag_182:\n        /* \"#utility.yul\":8482:8489   */\n      0x00\n        /* \"#utility.yul\":8511:8516   */\n      dup2\n        /* \"#utility.yul\":8500:8516   */\n      swap1\n      pop\n        /* \"#utility.yul\":8445:8522   */\n      swap2\n      swap1\n      pop\n      jump\t// out\n        /* \"#utility.yul\":8528:8682   */\n    tag_106:\n        /* \"#utility.yul\":8612:8618   */\n      dup3\n        /* \"#utility.yul\":8607:8610   */\n      dup2\n        /* \"#utility.yul\":8602:8605   */\n      dup4\n        /* \"#utility.yul\":8589:8619   */\n      calldatacopy\n        /* \"#utility.yul\":8674:8675   */\n      0x00\n        /* \"#utility.yul\":8665:8671   */\n      dup4\n        /* \"#utility.yul\":8660:8663   */\n      dup4\n        /* \"#utility.yul\":8656:8672   */\n      add\n        /* \"#utility.yul\":8649:8676   */\n      mstore\n        /* \"#utility.yul\":8528:8682   */\n      pop\n      pop\n      pop\n      jump\t// out\n        /* \"#utility.yul\":8688:8995   */\n    tag_170:\n        /* \"#utility.yul\":8756:8757   */\n      0x00\n        /* \"#utility.yul\":8766:8879   */\n    tag_218:\n        /* \"#utility.yul\":8780:8786   */\n      dup4\n        /* \"#utility.yul\":8777:8778   */\n      dup2\n        /* \"#utility.yul\":8774:8787   */\n      lt\n        /* \"#utility.yul\":8766:8879   */\n      iszero\n      tag_220\n      jumpi\n        /* \"#utility.yul\":8865:8866   */\n      dup1\n        /* \"#utility.yul\":8860:8863   */\n      dup3\n        /* \"#utility.yul\":8856:8867   */\n      add\n        /* \"#utility.yul\":8850:8868   */\n      mload\n        /* \"#utility.yul\":8846:8847   */\n      dup2\n        /* \"#utility.yul\":8841:8844   */\n      dup5\n        /* \"#utility.yul\":8837:8848   */\n      add\n        /* \"#utility.yul\":8830:8869   */\n      mstore\n        /* \"#utility.yul\":8802:8804   */\n      0x20\n        /* \"#utility.yul\":8799:8800   */\n      dup2\n        /* \"#utility.yul\":8795:8805   */\n      add\n        /* \"#utility.yul\":8790:8805   */\n      swap1\n      pop\n        /* \"#utility.yul\":8766:8879   */\n      jump(tag_218)\n    tag_220:\n        /* \"#utility.yul\":8897:8903   */\n      dup4\n        /* \"#utility.yul\":8894:8895   */\n      dup2\n        /* \"#utility.yul\":8891:8904   */\n      gt\n        /* \"#utility.yul\":8888:8989   */\n      iszero\n      tag_221\n      jumpi\n        /* \"#utility.yul\":8977:8978   */\n      0x00\n        /* \"#utility.yul\":8968:8974   */\n      dup5\n        /* \"#utility.yul\":8963:8966   */\n      dup5\n        /* \"#utility.yul\":8959:8975   */\n      add\n        /* \"#utility.yul\":8952:8979   */\n      mstore\n        /* \"#utility.yul\":8888:8989   */\n    tag_221:\n        /* \"#utility.yul\":8737:8995   */\n      pop\n        /* \"#utility.yul\":8688:8995   */\n      pop\n      pop\n      pop\n      jump\t// out\n        /* \"#utility.yul\":9001:9321   */\n    tag_49:\n        /* \"#utility.yul\":9045:9051   */\n      0x00\n        /* \"#utility.yul\":9082:9083   */\n      0x02\n        /* \"#utility.yul\":9076:9080   */\n      dup3\n        /* \"#utility.yul\":9072:9084   */\n      div\n        /* \"#utility.yul\":9062:9084   */\n      swap1\n      pop\n        /* \"#utility.yul\":9129:9130   */\n      0x01\n        /* \"#utility.yul\":9123:9127   */\n      dup3\n        /* \"#utility.yul\":9119:9131   */\n      and\n        /* \"#utility.yul\":9150:9168   */\n      dup1\n        /* \"#utility.yul\":9140:9221   */\n      tag_223\n      jumpi\n        /* \"#utility.yul\":9206:9210   */\n      0x7f\n        /* \"#utility.yul\":9198:9204   */\n      dup3\n        /* \"#utility.yul\":9194:9211   */\n      and\n        /* \"#utility.yul\":9184:9211   */\n      swap2\n      pop\n        /* \"#utility.yul\":9140:9221   */\n    tag_223:\n        /* \"#utility.yul\":9268:9270   */\n      0x20\n        /* \"#utility.yul\":9260:9266   */\n      dup3\n        /* \"#utility.yul\":9257:9271   */\n      lt\n        /* \"#utility.yul\":9237:9255   */\n      dup2\n        /* \"#utility.yul\":9234:9272   */\n      eq\n        /* \"#utility.yul\":9231:9315   */\n      iszero\n      tag_224\n      jumpi\n        /* \"#utility.yul\":9287:9305   */\n      tag_225\n      tag_226\n      jump\t// in\n    tag_225:\n        /* \"#utility.yul\":9231:9315   */\n    tag_224:\n        /* \"#utility.yul\":9052:9321   */\n      pop\n        /* \"#utility.yul\":9001:9321   */\n      swap2\n      swap1\n      pop\n      jump\t// out\n        /* \"#utility.yul\":9327:9608   */\n    tag_198:\n        /* \"#utility.yul\":9410:9437   */\n      tag_228\n        /* \"#utility.yul\":9432:9436   */\n      dup3\n        /* \"#utility.yul\":9410:9437   */\n      tag_172\n      jump\t// in\n    tag_228:\n        /* \"#utility.yul\":9402:9408   */\n      dup2\n        /* \"#utility.yul\":9398:9438   */\n      add\n        /* \"#utility.yul\":9540:9546   */\n      dup2\n        /* \"#utility.yul\":9528:9538   */\n      dup2\n        /* \"#utility.yul\":9525:9547   */\n      lt\n        /* \"#utility.yul\":9504:9522   */\n      0xffffffffffffffff\n        /* \"#utility.yul\":9492:9502   */\n      dup3\n        /* \"#utility.yul\":9489:9523   */\n      gt\n        /* \"#utility.yul\":9486:9548   */\n      or\n        /* \"#utility.yul\":9483:9571   */\n      iszero\n      tag_229\n      jumpi\n        /* \"#utility.yul\":9551:9569   */\n      tag_230\n      tag_31\n      jump\t// in\n    tag_230:\n        /* \"#utility.yul\":9483:9571   */\n    tag_229:\n        /* \"#utility.yul\":9591:9601   */\n      dup1\n        /* \"#utility.yul\":9587:9589   */\n      0x40\n        /* \"#utility.yul\":9580:9602   */\n      mstore\n        /* \"#utility.yul\":9370:9608   */\n      pop\n        /* \"#utility.yul\":9327:9608   */\n      pop\n      pop\n      jump\t// out\n        /* \"#utility.yul\":9614:9847   */\n    tag_57:\n        /* \"#utility.yul\":9653:9656   */\n      0x00\n        /* \"#utility.yul\":9676:9700   */\n      tag_232\n        /* \"#utility.yul\":9694:9699   */\n      dup3\n        /* \"#utility.yul\":9676:9700   */\n      tag_182\n      jump\t// in\n    tag_232:\n        /* \"#utility.yul\":9667:9700   */\n      swap2\n      pop\n        /* \"#utility.yul\":9722:9788   */\n      0xffffffffffffffffffffffffffffffffffffffffffffffffffffffffffffffff\n        /* \"#utility.yul\":9715:9720   */\n      dup3\n        /* \"#utility.yul\":9712:9789   */\n      eq\n        /* \"#utility.yul\":9709:9812   */\n      iszero\n      tag_233\n      jumpi\n        /* \"#utility.yul\":9792:9810   */\n      tag_234\n      tag_235\n      jump\t// in\n    tag_234:\n        /* \"#utility.yul\":9709:9812   */\n    tag_233:\n        /* \"#utility.yul\":9839:9840   */\n      0x01\n        /* \"#utility.yul\":9832:9837   */\n      dup3\n        /* \"#utility.yul\":9828:9841   */\n      add\n        /* \"#utility.yul\":9821:9841   */\n      swap1\n      pop\n        /* \"#utility.yul\":9614:9847   */\n      swap2\n      swap1\n      pop\n      jump\t// out\n        /* \"#utility.yul\":9853:10033   */\n    tag_235:\n        /* \"#utility.yul\":9901:9978   */\n      0x4e487b7100000000000000000000000000000000000000000000000000000000\n        /* \"#utility.yul\":9898:9899   */\n      0x00\n        /* \"#utility.yul\":9891:9979   */\n      mstore\n        /* \"#utility.yul\":9998:10002   */\n      0x11\n        /* \"#utility.yul\":9995:9996   */\n      0x04\n        /* \"#utility.yul\":9988:10003   */\n      mstore\n        /* \"#utility.yul\":10022:10026   */\n      0x24\n        /* \"#utility.yul\":10019:10020   */\n      0x00\n        /* \"#utility.yul\":10012:10027   */\n      revert\n        /* \"#utility.yul\":10039:10219   */\n    tag_226:\n        /* \"#utility.yul\":10087:10164   */\n      0x4e487b7100000000000000000000000000000000000000000000000000000000\n        /* \"#utility.yul\":10084:10085   */\n      0x00\n        /* \"#utility.yul\":10077:10165   */\n      mstore\n        /* \"#utility.yul\":10184:10188   */\n      0x22\n        /* \"#utility.yul\":10181:10182   */\n      0x04\n        /* \"#utility.yul\":10174:10189   */\n      mstore\n        /* \"#utility.yul\":10208:10212   */\n      0x24\n        /* \"#utility.yul\":10205:10206   */\n      0x00\n        /* \"#utility.yul\":10198:10213   */\n      revert\n        /* \"#utility.yul\":10225:10405   */\n    tag_42:\n        /* \"#utility.yul\":10273:10350   */\n      0x4e487b7100000000000000000000000000000000000000000000000000000000\n        /* \"#utility.yul\":10270:10271   */\n      0x00\n        /* \"#utility.yul\":10263:10351   */\n      mstore\n        /* \"#utility.yul\":10370:10374   */\n      0x32\n        /* \"#utility.yul\":10367:10368   */\n      0x04\n        /* \"#utility.yul\":10360:10375   */\n      mstore\n        /* \"#utility.yul\":10394:10398   */\n      0x24\n        /* \"#utility.yul\":10391:10392   */\n      0x00\n        /* \"#utility.yul\":10384:10399   */\n      revert\n        /* \"#utility.yul\":10411:10591   */\n    tag_31:\n        /* \"#utility.yul\":10459:10536   */\n      0x4e487b7100000000000000000000000000000000000000000000000000000000\n        /* \"#utility.yul\":10456:10457   */\n      0x00\n        /* \"#utility.yul\":10449:10537   */\n      mstore\n        /* \"#utility.yul\":10556:10560   */\n      0x41\n        /* \"#utility.yul\":10553:10554   */\n      0x04\n        /* \"#utility.yul\":10546:10561   */\n      mstore\n        /* \"#utility.yul\":10580:10584   */\n      0x24\n        /* \"#utility.yul\":10577:10578   */\n      0x00\n        /* \"#utility.yul\":10570:10585   */\n      revert\n        /* \"#utility.yul\":10597:10714   */\n    tag_115:\n        /* \"#utility.yul\":10706:10707   */\n      0x00\n        /* \"#utility.yul\":10703:10704   */\n      dup1\n        /* \"#utility.yul\":10696:10708   */\n      revert\n        /* \"#utility.yul\":10720:10837   */\n    tag_104:\n        /* \"#utility.yul\":10829:10830   */\n      0x00\n        /* \"#utility.yul\":10826:10827   */\n      dup1\n        /* \"#utility.yul\":10819:10831   */\n      revert\n        /* \"#utility.yul\":10843:10960   */\n    tag_127:\n        /* \"#utility.yul\":10952:10953   */\n      0x00\n        /* \"#utility.yul\":10949:10950   */\n      dup1\n        /* \"#utility.yul\":10942:10954   */\n      revert\n        /* \"#utility.yul\":10966:11083   */\n    tag_124:\n        /* \"#utility.yul\":11075:11076   */\n      0x00\n        /* \"#utility.yul\":11072:11073   */\n      dup1\n        /* \"#utility.yul\":11065:11077   */\n      revert\n        /* \"#utility.yul\":11089:11191   */\n    tag_172:\n        /* \"#utility.yul\":11130:11136   */\n      0x00\n        /* \"#utility.yul\":11181:11183   */\n      0x1f\n        /* \"#utility.yul\":11177:11184   */\n      not\n        /* \"#utility.yul\":11172:11174   */\n      0x1f\n        /* \"#utility.yul\":11165:11170   */\n      dup4\n        /* \"#utility.yul\":11161:11175   */\n      add\n        /* \"#utility.yul\":11157:11185   */\n      and\n        /* \"#utility.yul\":11147:11185   */\n      swap1\n      pop\n        /* \"#utility.yul\":11089:11191   */\n      swap2\n      swap1\n      pop\n      jump\t// out\n        /* \"#utility.yul\":11197:11313   */\n    tag_110:\n        /* \"#utility.yul\":11267:11288   */\n      tag_246\n        /* \"#utility.yul\":11282:11287   */\n      dup2\n        /* \"#utility.yul\":11267:11288   */\n      tag_159\n      jump\t// in\n    tag_246:\n        /* \"#utility.yul\":11260:11265   */\n      dup2\n        /* \"#utility.yul\":11257:11289   */\n      eq\n        /* \"#utility.yul\":11247:11307   */\n      tag_247\n      jumpi\n        /* \"#utility.yul\":11303:11304   */\n      0x00\n        /* \"#utility.yul\":11300:11301   */\n      dup1\n        /* \"#utility.yul\":11293:11305   */\n      revert\n        /* \"#utility.yul\":11247:11307   */\n    tag_247:\n        /* \"#utility.yul\":11197:11313   */\n      pop\n      jump\t// out\n        /* \"#utility.yul\":11319:11441   */\n    tag_120:\n        /* \"#utility.yul\":11392:11416   */\n      tag_249\n        /* \"#utility.yul\":11410:11415   */\n      dup2\n        /* \"#utility.yul\":11392:11416   */\n      tag_182\n      jump\t// in\n    tag_249:\n        /* \"#utility.yul\":11385:11390   */\n      dup2\n        /* \"#utility.yul\":11382:11417   */\n      eq\n        /* \"#utility.yul\":11372:11435   */\n      tag_250\n      jumpi\n        /* \"#utility.yul\":11431:11432   */\n      0x00\n        /* \"#utility.yul\":11428:11429   */\n      dup1\n        /* \"#utility.yul\":11421:11433   */\n      revert\n        /* \"#utility.yul\":11372:11435   */\n    tag_250:\n        /* \"#utility.yul\":11319:11441   */\n      pop\n      jump\t// out\n\n    auxdata: 0xa2646970667358221220156933e2f92c24a11a3061a17cb61d112ee604caf46ef6090f681b7687975f1c64736f6c63430008070033\n}\n",
				"bytecode": {
					"linkReferences": {},
					"object": "608060405234801561001057600080fd5b50610e47806100206000396000f3fe608060405234801561001057600080fd5b506004361061004c5760003560e01c806367238562146100515780636e13f8181461006d578063943a1a0a1461008b578063aaba2907146100a7575b600080fd5b61006b600480360381019061006691906108a1565b6100c3565b005b61007561023f565b6040516100829190610ad6565b60405180910390f35b6100a560048036038101906100a091906108ea565b61056b565b005b6100c160048036038101906100bc91906108ea565b61064d565b005b60008080549050905060006040518060a0016040528083815260200184815260200160001515815260200160001515815260200160001515815250908060018154018082558091505060019003906000526020600020906003020160009091909190915060008201518160000155602082015181600101908051906020019061014d92919061072f565b5060408201518160020160006101000a81548160ff02191690831515021790555060608201518160020160016101000a81548160ff02191690831515021790555060808201518160020160026101000a81548160ff0219169083151502179055505050336001600083815260200190815260200160002060006101000a81548173ffffffffffffffffffffffffffffffffffffffff021916908373ffffffffffffffffffffffffffffffffffffffff1602179055507f1f54e1ba1832d428fbd7e7792beaf62b1fc5a382c207ffd614209c1413e94fda3382604051610233929190610aad565b60405180910390a15050565b60606000808054905067ffffffffffffffff81111561026157610260610d8f565b5b60405190808252806020026020018201604052801561029a57816020015b6102876107b5565b81526020019060019003908161027f5790505b5090506000805b6000805490508110156104b1573373ffffffffffffffffffffffffffffffffffffffff166001600083815260200190815260200160002060009054906101000a900473ffffffffffffffffffffffffffffffffffffffff1673ffffffffffffffffffffffffffffffffffffffff161480156103525750600015156000828154811061032f5761032e610d60565b5b906000526020600020906003020160020160019054906101000a900460ff161515145b1561049e576000818154811061036b5761036a610d60565b5b90600052602060002090600302016040518060a00160405290816000820154815260200160018201805461039e90610c56565b80601f01602080910402602001604051908101604052809291908181526020018280546103ca90610c56565b80156104175780601f106103ec57610100808354040283529160200191610417565b820191906000526020600020905b8154815290600101906020018083116103fa57829003601f168201915b505050505081526020016002820160009054906101000a900460ff161515151581526020016002820160019054906101000a900460ff161515151581526020016002820160029054906101000a900460ff16151515158152505083838151811061048457610483610d60565b5b6020026020010181905250818061049a90610cb9565b9250505b80806104a990610cb9565b9150506102a1565b5060008167ffffffffffffffff8111156104ce576104cd610d8f565b5b60405190808252806020026020018201604052801561050757816020015b6104f46107b5565b8152602001906001900390816104ec5790505b50905060005b828110156105615783818151811061052857610527610d60565b5b602002602001015182828151811061054357610542610d60565b5b6020026020010181905250808061055990610cb9565b91505061050d565b5080935050505090565b3373ffffffffffffffffffffffffffffffffffffffff166001600084815260200190815260200160002060009054906101000a900473ffffffffffffffffffffffffffffffffffffffff1673ffffffffffffffffffffffffffffffffffffffff1614156106495780600083815481106105e7576105e6610d60565b5b906000526020600020906003020160020160016101000a81548160ff0219169083151502179055507fba663e32a8d8a276cf7b5bd80c06bfc2d343d4a4a4310f7c686e98fff148c42f8282604051610640929190610af8565b60405180910390a15b5050565b3373ffffffffffffffffffffffffffffffffffffffff166001600084815260200190815260200160002060009054906101000a900473ffffffffffffffffffffffffffffffffffffffff1673ffffffffffffffffffffffffffffffffffffffff16141561072b5780600083815481106106c9576106c8610d60565b5b906000526020600020906003020160020160026101000a81548160ff0219169083151502179055507ff88a35c3d2016c409a46570b994a17b408dbc83c14a03f521512d50b85386d068282604051610722929190610af8565b60405180910390a15b5050565b82805461073b90610c56565b90600052602060002090601f01602090048101928261075d57600085556107a4565b82601f1061077657805160ff19168380011785556107a4565b828001600101855582156107a4579182015b828111156107a3578251825591602001919060010190610788565b5b5090506107b191906107ea565b5090565b6040518060a0016040528060008152602001606081526020016000151581526020016000151581526020016000151581525090565b5b808211156108035760008160009055506001016107eb565b5090565b600061081a61081584610b46565b610b21565b90508281526020810184848401111561083657610835610dc3565b5b610841848285610c14565b509392505050565b60008135905061085881610de3565b92915050565b600082601f83011261087357610872610dbe565b5b8135610883848260208601610807565b91505092915050565b60008135905061089b81610dfa565b92915050565b6000602082840312156108b7576108b6610dcd565b5b600082013567ffffffffffffffff8111156108d5576108d4610dc8565b5b6108e18482850161085e565b91505092915050565b6000806040838503121561090157610900610dcd565b5b600061090f8582860161088c565b925050602061092085828601610849565b9150509250929050565b60006109368383610a19565b905092915050565b61094781610bcc565b82525050565b600061095882610b87565b6109628185610baa565b93508360208202850161097485610b77565b8060005b858110156109b05784840389528151610991858261092a565b945061099c83610b9d565b925060208a01995050600181019050610978565b50829750879550505050505092915050565b6109cb81610bde565b82525050565b6109da81610bde565b82525050565b60006109eb82610b92565b6109f58185610bbb565b9350610a05818560208601610c23565b610a0e81610dd2565b840191505092915050565b600060a083016000830151610a316000860182610a8f565b5060208301518482036020860152610a4982826109e0565b9150506040830151610a5e60408601826109c2565b506060830151610a7160608601826109c2565b506080830151610a8460808601826109c2565b508091505092915050565b610a9881610c0a565b82525050565b610aa781610c0a565b82525050565b6000604082019050610ac2600083018561093e565b610acf6020830184610a9e565b9392505050565b60006020820190508181036000830152610af0818461094d565b905092915050565b6000604082019050610b0d6000830185610a9e565b610b1a60208301846109d1565b9392505050565b6000610b2b610b3c565b9050610b378282610c88565b919050565b6000604051905090565b600067ffffffffffffffff821115610b6157610b60610d8f565b5b610b6a82610dd2565b9050602081019050919050565b6000819050602082019050919050565b600081519050919050565b600081519050919050565b6000602082019050919050565b600082825260208201905092915050565b600082825260208201905092915050565b6000610bd782610bea565b9050919050565b60008115159050919050565b600073ffffffffffffffffffffffffffffffffffffffff82169050919050565b6000819050919050565b82818337600083830152505050565b60005b83811015610c41578082015181840152602081019050610c26565b83811115610c50576000848401525b50505050565b60006002820490506001821680610c6e57607f821691505b60208210811415610c8257610c81610d31565b5b50919050565b610c9182610dd2565b810181811067ffffffffffffffff82111715610cb057610caf610d8f565b5b80604052505050565b6000610cc482610c0a565b91507fffffffffffffffffffffffffffffffffffffffffffffffffffffffffffffffff821415610cf757610cf6610d02565b5b600182019050919050565b7f4e487b7100000000000000000000000000000000000000000000000000000000600052601160045260246000fd5b7f4e487b7100000000000000000000000000000000000000000000000000000000600052602260045260246000fd5b7f4e487b7100000000000000000000000000000000000000000000000000000000600052603260045260246000fd5b7f4e487b7100000000000000000000000000000000000000000000000000000000600052604160045260246000fd5b600080fd5b600080fd5b600080fd5b600080fd5b6000601f19601f8301169050919050565b610dec81610bde565b8114610df757600080fd5b50565b610e0381610c0a565b8114610e0e57600080fd5b5056fea2646970667358221220156933e2f92c24a11a3061a17cb61d112ee604caf46ef6090f681b7687975f1c64736f6c63430008070033",
					"opcodes": "PUSH1 0x80 PUSH1 0x40 MSTORE CALLVALUE DUP1 ISZERO PUSH2 0x10 JUMPI PUSH1 0x0 DUP1 REVERT JUMPDEST POP PUSH2 0xE47 DUP1 PUSH2 0x20 PUSH1 0x0 CODECOPY PUSH1 0x0 RETURN INVALID PUSH1 0x80 PUSH1 0x40 MSTORE CALLVALUE DUP1 ISZERO PUSH2 0x10 JUMPI PUSH1 0x0 DUP1 REVERT JUMPDEST POP PUSH1 0x4 CALLDATASIZE LT PUSH2 0x4C JUMPI PUSH1 0x0 CALLDATALOAD PUSH1 0xE0 SHR DUP1 PUSH4 0x67238562 EQ PUSH2 0x51 JUMPI DUP1 PUSH4 0x6E13F818 EQ PUSH2 0x6D JUMPI DUP1 PUSH4 0x943A1A0A EQ PUSH2 0x8B JUMPI DUP1 PUSH4 0xAABA2907 EQ PUSH2 0xA7 JUMPI JUMPDEST PUSH1 0x0 DUP1 REVERT JUMPDEST PUSH2 0x6B PUSH1 0x4 DUP1 CALLDATASIZE SUB DUP2 ADD SWAP1 PUSH2 0x66 SWAP2 SWAP1 PUSH2 0x8A1 JUMP JUMPDEST PUSH2 0xC3 JUMP JUMPDEST STOP JUMPDEST PUSH2 0x75 PUSH2 0x23F JUMP JUMPDEST PUSH1 0x40 MLOAD PUSH2 0x82 SWAP2 SWAP1 PUSH2 0xAD6 JUMP JUMPDEST PUSH1 0x40 MLOAD DUP1 SWAP2 SUB SWAP1 RETURN JUMPDEST PUSH2 0xA5 PUSH1 0x4 DUP1 CALLDATASIZE SUB DUP2 ADD SWAP1 PUSH2 0xA0 SWAP2 SWAP1 PUSH2 0x8EA JUMP JUMPDEST PUSH2 0x56B JUMP JUMPDEST STOP JUMPDEST PUSH2 0xC1 PUSH1 0x4 DUP1 CALLDATASIZE SUB DUP2 ADD SWAP1 PUSH2 0xBC SWAP2 SWAP1 PUSH2 0x8EA JUMP JUMPDEST PUSH2 0x64D JUMP JUMPDEST STOP JUMPDEST PUSH1 0x0 DUP1 DUP1 SLOAD SWAP1 POP SWAP1 POP PUSH1 0x0 PUSH1 0x40 MLOAD DUP1 PUSH1 0xA0 ADD PUSH1 0x40 MSTORE DUP1 DUP4 DUP2 MSTORE PUSH1 0x20 ADD DUP5 DUP2 MSTORE PUSH1 0x20 ADD PUSH1 0x0 ISZERO ISZERO DUP2 MSTORE PUSH1 0x20 ADD PUSH1 0x0 ISZERO ISZERO DUP2 MSTORE PUSH1 0x20 ADD PUSH1 0x0 ISZERO ISZERO DUP2 MSTORE POP SWAP1 DUP1 PUSH1 0x1 DUP2 SLOAD ADD DUP1 DUP3 SSTORE DUP1 SWAP2 POP POP PUSH1 0x1 SWAP1 SUB SWAP1 PUSH1 0x0 MSTORE PUSH1 0x20 PUSH1 0x0 KECCAK256 SWAP1 PUSH1 0x3 MUL ADD PUSH1 0x0 SWAP1 SWAP2 SWAP1 SWAP2 SWAP1 SWAP2 POP PUSH1 0x0 DUP3 ADD MLOAD DUP2 PUSH1 0x0 ADD SSTORE PUSH1 0x20 DUP3 ADD MLOAD DUP2 PUSH1 0x1 ADD SWAP1 DUP1 MLOAD SWAP1 PUSH1 0x20 ADD SWAP1 PUSH2 0x14D SWAP3 SWAP2 SWAP1 PUSH2 0x72F JUMP JUMPDEST POP PUSH1 0x40 DUP3 ADD MLOAD DUP2 PUSH1 0x2 ADD PUSH1 0x0 PUSH2 0x100 EXP DUP2 SLOAD DUP2 PUSH1 0xFF MUL NOT AND SWAP1 DUP4 ISZERO ISZERO MUL OR SWAP1 SSTORE POP PUSH1 0x60 DUP3 ADD MLOAD DUP2 PUSH1 0x2 ADD PUSH1 0x1 PUSH2 0x100 EXP DUP2 SLOAD DUP2 PUSH1 0xFF MUL NOT AND SWAP1 DUP4 ISZERO ISZERO MUL OR SWAP1 SSTORE POP PUSH1 0x80 DUP3 ADD MLOAD DUP2 PUSH1 0x2 ADD PUSH1 0x2 PUSH2 0x100 EXP DUP2 SLOAD DUP2 PUSH1 0xFF MUL NOT AND SWAP1 DUP4 ISZERO ISZERO MUL OR SWAP1 SSTORE POP POP POP CALLER PUSH1 0x1 PUSH1 0x0 DUP4 DUP2 MSTORE PUSH1 0x20 ADD SWAP1 DUP2 MSTORE PUSH1 0x20 ADD PUSH1 0x0 KECCAK256 PUSH1 0x0 PUSH2 0x100 EXP DUP2 SLOAD DUP2 PUSH20 0xFFFFFFFFFFFFFFFFFFFFFFFFFFFFFFFFFFFFFFFF MUL NOT AND SWAP1 DUP4 PUSH20 0xFFFFFFFFFFFFFFFFFFFFFFFFFFFFFFFFFFFFFFFF AND MUL OR SWAP1 SSTORE POP PUSH32 0x1F54E1BA1832D428FBD7E7792BEAF62B1FC5A382C207FFD614209C1413E94FDA CALLER DUP3 PUSH1 0x40 MLOAD PUSH2 0x233 SWAP3 SWAP2 SWAP1 PUSH2 0xAAD JUMP JUMPDEST PUSH1 0x40 MLOAD DUP1 SWAP2 SUB SWAP1 LOG1 POP POP JUMP JUMPDEST PUSH1 0x60 PUSH1 0x0 DUP1 DUP1 SLOAD SWAP1 POP PUSH8 0xFFFFFFFFFFFFFFFF DUP2 GT ISZERO PUSH2 0x261 JUMPI PUSH2 0x260 PUSH2 0xD8F JUMP JUMPDEST JUMPDEST PUSH1 0x40 MLOAD SWAP1 DUP1 DUP3 MSTORE DUP1 PUSH1 0x20 MUL PUSH1 0x20 ADD DUP3 ADD PUSH1 0x40 MSTORE DUP1 ISZERO PUSH2 0x29A JUMPI DUP2 PUSH1 0x20 ADD JUMPDEST PUSH2 0x287 PUSH2 0x7B5 JUMP JUMPDEST DUP2 MSTORE PUSH1 0x20 ADD SWAP1 PUSH1 0x1 SWAP1 SUB SWAP1 DUP2 PUSH2 0x27F JUMPI SWAP1 POP JUMPDEST POP SWAP1 POP PUSH1 0x0 DUP1 JUMPDEST PUSH1 0x0 DUP1 SLOAD SWAP1 POP DUP2 LT ISZERO PUSH2 0x4B1 JUMPI CALLER PUSH20 0xFFFFFFFFFFFFFFFFFFFFFFFFFFFFFFFFFFFFFFFF AND PUSH1 0x1 PUSH1 0x0 DUP4 DUP2 MSTORE PUSH1 0x20 ADD SWAP1 DUP2 MSTORE PUSH1 0x20 ADD PUSH1 0x0 KECCAK256 PUSH1 0x0 SWAP1 SLOAD SWAP1 PUSH2 0x100 EXP SWAP1 DIV PUSH20 0xFFFFFFFFFFFFFFFFFFFFFFFFFFFFFFFFFFFFFFFF AND PUSH20 0xFFFFFFFFFFFFFFFFFFFFFFFFFFFFFFFFFFFFFFFF AND EQ DUP1 ISZERO PUSH2 0x352 JUMPI POP PUSH1 0x0 ISZERO ISZERO PUSH1 0x0 DUP3 DUP2 SLOAD DUP2 LT PUSH2 0x32F JUMPI PUSH2 0x32E PUSH2 0xD60 JUMP JUMPDEST JUMPDEST SWAP1 PUSH1 0x0 MSTORE PUSH1 0x20 PUSH1 0x0 KECCAK256 SWAP1 PUSH1 0x3 MUL ADD PUSH1 0x2 ADD PUSH1 0x1 SWAP1 SLOAD SWAP1 PUSH2 0x100 EXP SWAP1 DIV PUSH1 0xFF AND ISZERO ISZERO EQ JUMPDEST ISZERO PUSH2 0x49E JUMPI PUSH1 0x0 DUP2 DUP2 SLOAD DUP2 LT PUSH2 0x36B JUMPI PUSH2 0x36A PUSH2 0xD60 JUMP JUMPDEST JUMPDEST SWAP1 PUSH1 0x0 MSTORE PUSH1 0x20 PUSH1 0x0 KECCAK256 SWAP1 PUSH1 0x3 MUL ADD PUSH1 0x40 MLOAD DUP1 PUSH1 0xA0 ADD PUSH1 0x40 MSTORE SWAP1 DUP2 PUSH1 0x0 DUP3 ADD SLOAD DUP2 MSTORE PUSH1 0x20 ADD PUSH1 0x1 DUP3 ADD DUP1 SLOAD PUSH2 0x39E SWAP1 PUSH2 0xC56 JUMP JUMPDEST DUP1 PUSH1 0x1F ADD PUSH1 0x20 DUP1 SWAP2 DIV MUL PUSH1 0x20 ADD PUSH1 0x40 MLOAD SWAP1 DUP2 ADD PUSH1 0x40 MSTORE DUP1 SWAP3 SWAP2 SWAP1 DUP2 DUP2 MSTORE PUSH1 0x20 ADD DUP3 DUP1 SLOAD PUSH2 0x3CA SWAP1 PUSH2 0xC56 JUMP JUMPDEST DUP1 ISZERO PUSH2 0x417 JUMPI DUP1 PUSH1 0x1F LT PUSH2 0x3EC JUMPI PUSH2 0x100 DUP1 DUP4 SLOAD DIV MUL DUP4 MSTORE SWAP2 PUSH1 0x20 ADD SWAP2 PUSH2 0x417 JUMP JUMPDEST DUP3 ADD SWAP2 SWAP1 PUSH1 0x0 MSTORE PUSH1 0x20 PUSH1 0x0 KECCAK256 SWAP1 JUMPDEST DUP2 SLOAD DUP2 MSTORE SWAP1 PUSH1 0x1 ADD SWAP1 PUSH1 0x20 ADD DUP1 DUP4 GT PUSH2 0x3FA JUMPI DUP3 SWAP1 SUB PUSH1 0x1F AND DUP3 ADD SWAP2 JUMPDEST POP POP POP POP POP DUP2 MSTORE PUSH1 0x20 ADD PUSH1 0x2 DUP3 ADD PUSH1 0x0 SWAP1 SLOAD SWAP1 PUSH2 0x100 EXP SWAP1 DIV PUSH1 0xFF AND ISZERO ISZERO ISZERO ISZERO DUP2 MSTORE PUSH1 0x20 ADD PUSH1 0x2 DUP3 ADD PUSH1 0x1 SWAP1 SLOAD SWAP1 PUSH2 0x100 EXP SWAP1 DIV PUSH1 0xFF AND ISZERO ISZERO ISZERO ISZERO DUP2 MSTORE PUSH1 0x20 ADD PUSH1 0x2 DUP3 ADD PUSH1 0x2 SWAP1 SLOAD SWAP1 PUSH2 0x100 EXP SWAP1 DIV PUSH1 0xFF AND ISZERO ISZERO ISZERO ISZERO DUP2 MSTORE POP POP DUP4 DUP4 DUP2 MLOAD DUP2 LT PUSH2 0x484 JUMPI PUSH2 0x483 PUSH2 0xD60 JUMP JUMPDEST JUMPDEST PUSH1 0x20 MUL PUSH1 0x20 ADD ADD DUP2 SWAP1 MSTORE POP DUP2 DUP1 PUSH2 0x49A SWAP1 PUSH2 0xCB9 JUMP JUMPDEST SWAP3 POP POP JUMPDEST DUP1 DUP1 PUSH2 0x4A9 SWAP1 PUSH2 0xCB9 JUMP JUMPDEST SWAP2 POP POP PUSH2 0x2A1 JUMP JUMPDEST POP PUSH1 0x0 DUP2 PUSH8 0xFFFFFFFFFFFFFFFF DUP2 GT ISZERO PUSH2 0x4CE JUMPI PUSH2 0x4CD PUSH2 0xD8F JUMP JUMPDEST JUMPDEST PUSH1 0x40 MLOAD SWAP1 DUP1 DUP3 MSTORE DUP1 PUSH1 0x20 MUL PUSH1 0x20 ADD DUP3 ADD PUSH1 0x40 MSTORE DUP1 ISZERO PUSH2 0x507 JUMPI DUP2 PUSH1 0x20 ADD JUMPDEST PUSH2 0x4F4 PUSH2 0x7B5 JUMP JUMPDEST DUP2 MSTORE PUSH1 0x20 ADD SWAP1 PUSH1 0x1 SWAP1 SUB SWAP1 DUP2 PUSH2 0x4EC JUMPI SWAP1 POP JUMPDEST POP SWAP1 POP PUSH1 0x0 JUMPDEST DUP3 DUP2 LT ISZERO PUSH2 0x561 JUMPI DUP4 DUP2 DUP2 MLOAD DUP2 LT PUSH2 0x528 JUMPI PUSH2 0x527 PUSH2 0xD60 JUMP JUMPDEST JUMPDEST PUSH1 0x20 MUL PUSH1 0x20 ADD ADD MLOAD DUP3 DUP3 DUP2 MLOAD DUP2 LT PUSH2 0x543 JUMPI PUSH2 0x542 PUSH2 0xD60 JUMP JUMPDEST JUMPDEST PUSH1 0x20 MUL PUSH1 0x20 ADD ADD DUP2 SWAP1 MSTORE POP DUP1 DUP1 PUSH2 0x559 SWAP1 PUSH2 0xCB9 JUMP JUMPDEST SWAP2 POP POP PUSH2 0x50D JUMP JUMPDEST POP DUP1 SWAP4 POP POP POP POP SWAP1 JUMP JUMPDEST CALLER PUSH20 0xFFFFFFFFFFFFFFFFFFFFFFFFFFFFFFFFFFFFFFFF AND PUSH1 0x1 PUSH1 0x0 DUP5 DUP2 MSTORE PUSH1 0x20 ADD SWAP1 DUP2 MSTORE PUSH1 0x20 ADD PUSH1 0x0 KECCAK256 PUSH1 0x0 SWAP1 SLOAD SWAP1 PUSH2 0x100 EXP SWAP1 DIV PUSH20 0xFFFFFFFFFFFFFFFFFFFFFFFFFFFFFFFFFFFFFFFF AND PUSH20 0xFFFFFFFFFFFFFFFFFFFFFFFFFFFFFFFFFFFFFFFF AND EQ ISZERO PUSH2 0x649 JUMPI DUP1 PUSH1 0x0 DUP4 DUP2 SLOAD DUP2 LT PUSH2 0x5E7 JUMPI PUSH2 0x5E6 PUSH2 0xD60 JUMP JUMPDEST JUMPDEST SWAP1 PUSH1 0x0 MSTORE PUSH1 0x20 PUSH1 0x0 KECCAK256 SWAP1 PUSH1 0x3 MUL ADD PUSH1 0x2 ADD PUSH1 0x1 PUSH2 0x100 EXP DUP2 SLOAD DUP2 PUSH1 0xFF MUL NOT AND SWAP1 DUP4 ISZERO ISZERO MUL OR SWAP1 SSTORE POP PUSH32 0xBA663E32A8D8A276CF7B5BD80C06BFC2D343D4A4A4310F7C686E98FFF148C42F DUP3 DUP3 PUSH1 0x40 MLOAD PUSH2 0x640 SWAP3 SWAP2 SWAP1 PUSH2 0xAF8 JUMP JUMPDEST PUSH1 0x40 MLOAD DUP1 SWAP2 SUB SWAP1 LOG1 JUMPDEST POP POP JUMP JUMPDEST CALLER PUSH20 0xFFFFFFFFFFFFFFFFFFFFFFFFFFFFFFFFFFFFFFFF AND PUSH1 0x1 PUSH1 0x0 DUP5 DUP2 MSTORE PUSH1 0x20 ADD SWAP1 DUP2 MSTORE PUSH1 0x20 ADD PUSH1 0x0 KECCAK256 PUSH1 0x0 SWAP1 SLOAD SWAP1 PUSH2 0x100 EXP SWAP1 DIV PUSH20 0xFFFFFFFFFFFFFFFFFFFFFFFFFFFFFFFFFFFFFFFF AND PUSH20 0xFFFFFFFFFFFFFFFFFFFFFFFFFFFFFFFFFFFFFFFF AND EQ ISZERO PUSH2 0x72B JUMPI DUP1 PUSH1 0x0 DUP4 DUP2 SLOAD DUP2 LT PUSH2 0x6C9 JUMPI PUSH2 0x6C8 PUSH2 0xD60 JUMP JUMPDEST JUMPDEST SWAP1 PUSH1 0x0 MSTORE PUSH1 0x20 PUSH1 0x0 KECCAK256 SWAP1 PUSH1 0x3 MUL ADD PUSH1 0x2 ADD PUSH1 0x2 PUSH2 0x100 EXP DUP2 SLOAD DUP2 PUSH1 0xFF MUL NOT AND SWAP1 DUP4 ISZERO ISZERO MUL OR SWAP1 SSTORE POP PUSH32 0xF88A35C3D2016C409A46570B994A17B408DBC83C14A03F521512D50B85386D06 DUP3 DUP3 PUSH1 0x40 MLOAD PUSH2 0x722 SWAP3 SWAP2 SWAP1 PUSH2 0xAF8 JUMP JUMPDEST PUSH1 0x40 MLOAD DUP1 SWAP2 SUB SWAP1 LOG1 JUMPDEST POP POP JUMP JUMPDEST DUP3 DUP1 SLOAD PUSH2 0x73B SWAP1 PUSH2 0xC56 JUMP JUMPDEST SWAP1 PUSH1 0x0 MSTORE PUSH1 0x20 PUSH1 0x0 KECCAK256 SWAP1 PUSH1 0x1F ADD PUSH1 0x20 SWAP1 DIV DUP2 ADD SWAP3 DUP3 PUSH2 0x75D JUMPI PUSH1 0x0 DUP6 SSTORE PUSH2 0x7A4 JUMP JUMPDEST DUP3 PUSH1 0x1F LT PUSH2 0x776 JUMPI DUP1 MLOAD PUSH1 0xFF NOT AND DUP4 DUP1 ADD OR DUP6 SSTORE PUSH2 0x7A4 JUMP JUMPDEST DUP3 DUP1 ADD PUSH1 0x1 ADD DUP6 SSTORE DUP3 ISZERO PUSH2 0x7A4 JUMPI SWAP2 DUP3 ADD JUMPDEST DUP3 DUP2 GT ISZERO PUSH2 0x7A3 JUMPI DUP3 MLOAD DUP3 SSTORE SWAP2 PUSH1 0x20 ADD SWAP2 SWAP1 PUSH1 0x1 ADD SWAP1 PUSH2 0x788 JUMP JUMPDEST JUMPDEST POP SWAP1 POP PUSH2 0x7B1 SWAP2 SWAP1 PUSH2 0x7EA JUMP JUMPDEST POP SWAP1 JUMP JUMPDEST PUSH1 0x40 MLOAD DUP1 PUSH1 0xA0 ADD PUSH1 0x40 MSTORE DUP1 PUSH1 0x0 DUP2 MSTORE PUSH1 0x20 ADD PUSH1 0x60 DUP2 MSTORE PUSH1 0x20 ADD PUSH1 0x0 ISZERO ISZERO DUP2 MSTORE PUSH1 0x20 ADD PUSH1 0x0 ISZERO ISZERO DUP2 MSTORE PUSH1 0x20 ADD PUSH1 0x0 ISZERO ISZERO DUP2 MSTORE POP SWAP1 JUMP JUMPDEST JUMPDEST DUP1 DUP3 GT ISZERO PUSH2 0x803 JUMPI PUSH1 0x0 DUP2 PUSH1 0x0 SWAP1 SSTORE POP PUSH1 0x1 ADD PUSH2 0x7EB JUMP JUMPDEST POP SWAP1 JUMP JUMPDEST PUSH1 0x0 PUSH2 0x81A PUSH2 0x815 DUP5 PUSH2 0xB46 JUMP JUMPDEST PUSH2 0xB21 JUMP JUMPDEST SWAP1 POP DUP3 DUP2 MSTORE PUSH1 0x20 DUP2 ADD DUP5 DUP5 DUP5 ADD GT ISZERO PUSH2 0x836 JUMPI PUSH2 0x835 PUSH2 0xDC3 JUMP JUMPDEST JUMPDEST PUSH2 0x841 DUP5 DUP3 DUP6 PUSH2 0xC14 JUMP JUMPDEST POP SWAP4 SWAP3 POP POP POP JUMP JUMPDEST PUSH1 0x0 DUP2 CALLDATALOAD SWAP1 POP PUSH2 0x858 DUP2 PUSH2 0xDE3 JUMP JUMPDEST SWAP3 SWAP2 POP POP JUMP JUMPDEST PUSH1 0x0 DUP3 PUSH1 0x1F DUP4 ADD SLT PUSH2 0x873 JUMPI PUSH2 0x872 PUSH2 0xDBE JUMP JUMPDEST JUMPDEST DUP2 CALLDATALOAD PUSH2 0x883 DUP5 DUP3 PUSH1 0x20 DUP7 ADD PUSH2 0x807 JUMP JUMPDEST SWAP2 POP POP SWAP3 SWAP2 POP POP JUMP JUMPDEST PUSH1 0x0 DUP2 CALLDATALOAD SWAP1 POP PUSH2 0x89B DUP2 PUSH2 0xDFA JUMP JUMPDEST SWAP3 SWAP2 POP POP JUMP JUMPDEST PUSH1 0x0 PUSH1 0x20 DUP3 DUP5 SUB SLT ISZERO PUSH2 0x8B7 JUMPI PUSH2 0x8B6 PUSH2 0xDCD JUMP JUMPDEST JUMPDEST PUSH1 0x0 DUP3 ADD CALLDATALOAD PUSH8 0xFFFFFFFFFFFFFFFF DUP2 GT ISZERO PUSH2 0x8D5 JUMPI PUSH2 0x8D4 PUSH2 0xDC8 JUMP JUMPDEST JUMPDEST PUSH2 0x8E1 DUP5 DUP3 DUP6 ADD PUSH2 0x85E JUMP JUMPDEST SWAP2 POP POP SWAP3 SWAP2 POP POP JUMP JUMPDEST PUSH1 0x0 DUP1 PUSH1 0x40 DUP4 DUP6 SUB SLT ISZERO PUSH2 0x901 JUMPI PUSH2 0x900 PUSH2 0xDCD JUMP JUMPDEST JUMPDEST PUSH1 0x0 PUSH2 0x90F DUP6 DUP3 DUP7 ADD PUSH2 0x88C JUMP JUMPDEST SWAP3 POP POP PUSH1 0x20 PUSH2 0x920 DUP6 DUP3 DUP7 ADD PUSH2 0x849 JUMP JUMPDEST SWAP2 POP POP SWAP3 POP SWAP3 SWAP1 POP JUMP JUMPDEST PUSH1 0x0 PUSH2 0x936 DUP4 DUP4 PUSH2 0xA19 JUMP JUMPDEST SWAP1 POP SWAP3 SWAP2 POP POP JUMP JUMPDEST PUSH2 0x947 DUP2 PUSH2 0xBCC JUMP JUMPDEST DUP3 MSTORE POP POP JUMP JUMPDEST PUSH1 0x0 PUSH2 0x958 DUP3 PUSH2 0xB87 JUMP JUMPDEST PUSH2 0x962 DUP2 DUP6 PUSH2 0xBAA JUMP JUMPDEST SWAP4 POP DUP4 PUSH1 0x20 DUP3 MUL DUP6 ADD PUSH2 0x974 DUP6 PUSH2 0xB77 JUMP JUMPDEST DUP1 PUSH1 0x0 JUMPDEST DUP6 DUP2 LT ISZERO PUSH2 0x9B0 JUMPI DUP5 DUP5 SUB DUP10 MSTORE DUP2 MLOAD PUSH2 0x991 DUP6 DUP3 PUSH2 0x92A JUMP JUMPDEST SWAP5 POP PUSH2 0x99C DUP4 PUSH2 0xB9D JUMP JUMPDEST SWAP3 POP PUSH1 0x20 DUP11 ADD SWAP10 POP POP PUSH1 0x1 DUP2 ADD SWAP1 POP PUSH2 0x978 JUMP JUMPDEST POP DUP3 SWAP8 POP DUP8 SWAP6 POP POP POP POP POP POP SWAP3 SWAP2 POP POP JUMP JUMPDEST PUSH2 0x9CB DUP2 PUSH2 0xBDE JUMP JUMPDEST DUP3 MSTORE POP POP JUMP JUMPDEST PUSH2 0x9DA DUP2 PUSH2 0xBDE JUMP JUMPDEST DUP3 MSTORE POP POP JUMP JUMPDEST PUSH1 0x0 PUSH2 0x9EB DUP3 PUSH2 0xB92 JUMP JUMPDEST PUSH2 0x9F5 DUP2 DUP6 PUSH2 0xBBB JUMP JUMPDEST SWAP4 POP PUSH2 0xA05 DUP2 DUP6 PUSH1 0x20 DUP7 ADD PUSH2 0xC23 JUMP JUMPDEST PUSH2 0xA0E DUP2 PUSH2 0xDD2 JUMP JUMPDEST DUP5 ADD SWAP2 POP POP SWAP3 SWAP2 POP POP JUMP JUMPDEST PUSH1 0x0 PUSH1 0xA0 DUP4 ADD PUSH1 0x0 DUP4 ADD MLOAD PUSH2 0xA31 PUSH1 0x0 DUP7 ADD DUP3 PUSH2 0xA8F JUMP JUMPDEST POP PUSH1 0x20 DUP4 ADD MLOAD DUP5 DUP3 SUB PUSH1 0x20 DUP7 ADD MSTORE PUSH2 0xA49 DUP3 DUP3 PUSH2 0x9E0 JUMP JUMPDEST SWAP2 POP POP PUSH1 0x40 DUP4 ADD MLOAD PUSH2 0xA5E PUSH1 0x40 DUP7 ADD DUP3 PUSH2 0x9C2 JUMP JUMPDEST POP PUSH1 0x60 DUP4 ADD MLOAD PUSH2 0xA71 PUSH1 0x60 DUP7 ADD DUP3 PUSH2 0x9C2 JUMP JUMPDEST POP PUSH1 0x80 DUP4 ADD MLOAD PUSH2 0xA84 PUSH1 0x80 DUP7 ADD DUP3 PUSH2 0x9C2 JUMP JUMPDEST POP DUP1 SWAP2 POP POP SWAP3 SWAP2 POP POP JUMP JUMPDEST PUSH2 0xA98 DUP2 PUSH2 0xC0A JUMP JUMPDEST DUP3 MSTORE POP POP JUMP JUMPDEST PUSH2 0xAA7 DUP2 PUSH2 0xC0A JUMP JUMPDEST DUP3 MSTORE POP POP JUMP JUMPDEST PUSH1 0x0 PUSH1 0x40 DUP3 ADD SWAP1 POP PUSH2 0xAC2 PUSH1 0x0 DUP4 ADD DUP6 PUSH2 0x93E JUMP JUMPDEST PUSH2 0xACF PUSH1 0x20 DUP4 ADD DUP5 PUSH2 0xA9E JUMP JUMPDEST SWAP4 SWAP3 POP POP POP JUMP JUMPDEST PUSH1 0x0 PUSH1 0x20 DUP3 ADD SWAP1 POP DUP2 DUP2 SUB PUSH1 0x0 DUP4 ADD MSTORE PUSH2 0xAF0 DUP2 DUP5 PUSH2 0x94D JUMP JUMPDEST SWAP1 POP SWAP3 SWAP2 POP POP JUMP JUMPDEST PUSH1 0x0 PUSH1 0x40 DUP3 ADD SWAP1 POP PUSH2 0xB0D PUSH1 0x0 DUP4 ADD DUP6 PUSH2 0xA9E JUMP JUMPDEST PUSH2 0xB1A PUSH1 0x20 DUP4 ADD DUP5 PUSH2 0x9D1 JUMP JUMPDEST SWAP4 SWAP3 POP POP POP JUMP JUMPDEST PUSH1 0x0 PUSH2 0xB2B PUSH2 0xB3C JUMP JUMPDEST SWAP1 POP PUSH2 0xB37 DUP3 DUP3 PUSH2 0xC88 JUMP JUMPDEST SWAP2 SWAP1 POP JUMP JUMPDEST PUSH1 0x0 PUSH1 0x40 MLOAD SWAP1 POP SWAP1 JUMP JUMPDEST PUSH1 0x0 PUSH8 0xFFFFFFFFFFFFFFFF DUP3 GT ISZERO PUSH2 0xB61 JUMPI PUSH2 0xB60 PUSH2 0xD8F JUMP JUMPDEST JUMPDEST PUSH2 0xB6A DUP3 PUSH2 0xDD2 JUMP JUMPDEST SWAP1 POP PUSH1 0x20 DUP2 ADD SWAP1 POP SWAP2 SWAP1 POP JUMP JUMPDEST PUSH1 0x0 DUP2 SWAP1 POP PUSH1 0x20 DUP3 ADD SWAP1 POP SWAP2 SWAP1 POP JUMP JUMPDEST PUSH1 0x0 DUP2 MLOAD SWAP1 POP SWAP2 SWAP1 POP JUMP JUMPDEST PUSH1 0x0 DUP2 MLOAD SWAP1 POP SWAP2 SWAP1 POP JUMP JUMPDEST PUSH1 0x0 PUSH1 0x20 DUP3 ADD SWAP1 POP SWAP2 SWAP1 POP JUMP JUMPDEST PUSH1 0x0 DUP3 DUP3 MSTORE PUSH1 0x20 DUP3 ADD SWAP1 POP SWAP3 SWAP2 POP POP JUMP JUMPDEST PUSH1 0x0 DUP3 DUP3 MSTORE PUSH1 0x20 DUP3 ADD SWAP1 POP SWAP3 SWAP2 POP POP JUMP JUMPDEST PUSH1 0x0 PUSH2 0xBD7 DUP3 PUSH2 0xBEA JUMP JUMPDEST SWAP1 POP SWAP2 SWAP1 POP JUMP JUMPDEST PUSH1 0x0 DUP2 ISZERO ISZERO SWAP1 POP SWAP2 SWAP1 POP JUMP JUMPDEST PUSH1 0x0 PUSH20 0xFFFFFFFFFFFFFFFFFFFFFFFFFFFFFFFFFFFFFFFF DUP3 AND SWAP1 POP SWAP2 SWAP1 POP JUMP JUMPDEST PUSH1 0x0 DUP2 SWAP1 POP SWAP2 SWAP1 POP JUMP JUMPDEST DUP3 DUP2 DUP4 CALLDATACOPY PUSH1 0x0 DUP4 DUP4 ADD MSTORE POP POP POP JUMP JUMPDEST PUSH1 0x0 JUMPDEST DUP4 DUP2 LT ISZERO PUSH2 0xC41 JUMPI DUP1 DUP3 ADD MLOAD DUP2 DUP5 ADD MSTORE PUSH1 0x20 DUP2 ADD SWAP1 POP PUSH2 0xC26 JUMP JUMPDEST DUP4 DUP2 GT ISZERO PUSH2 0xC50 JUMPI PUSH1 0x0 DUP5 DUP5 ADD MSTORE JUMPDEST POP POP POP POP JUMP JUMPDEST PUSH1 0x0 PUSH1 0x2 DUP3 DIV SWAP1 POP PUSH1 0x1 DUP3 AND DUP1 PUSH2 0xC6E JUMPI PUSH1 0x7F DUP3 AND SWAP2 POP JUMPDEST PUSH1 0x20 DUP3 LT DUP2 EQ ISZERO PUSH2 0xC82 JUMPI PUSH2 0xC81 PUSH2 0xD31 JUMP JUMPDEST JUMPDEST POP SWAP2 SWAP1 POP JUMP JUMPDEST PUSH2 0xC91 DUP3 PUSH2 0xDD2 JUMP JUMPDEST DUP2 ADD DUP2 DUP2 LT PUSH8 0xFFFFFFFFFFFFFFFF DUP3 GT OR ISZERO PUSH2 0xCB0 JUMPI PUSH2 0xCAF PUSH2 0xD8F JUMP JUMPDEST JUMPDEST DUP1 PUSH1 0x40 MSTORE POP POP POP JUMP JUMPDEST PUSH1 0x0 PUSH2 0xCC4 DUP3 PUSH2 0xC0A JUMP JUMPDEST SWAP2 POP PUSH32 0xFFFFFFFFFFFFFFFFFFFFFFFFFFFFFFFFFFFFFFFFFFFFFFFFFFFFFFFFFFFFFFFF DUP3 EQ ISZERO PUSH2 0xCF7 JUMPI PUSH2 0xCF6 PUSH2 0xD02 JUMP JUMPDEST JUMPDEST PUSH1 0x1 DUP3 ADD SWAP1 POP SWAP2 SWAP1 POP JUMP JUMPDEST PUSH32 0x4E487B7100000000000000000000000000000000000000000000000000000000 PUSH1 0x0 MSTORE PUSH1 0x11 PUSH1 0x4 MSTORE PUSH1 0x24 PUSH1 0x0 REVERT JUMPDEST PUSH32 0x4E487B7100000000000000000000000000000000000000000000000000000000 PUSH1 0x0 MSTORE PUSH1 0x22 PUSH1 0x4 MSTORE PUSH1 0x24 PUSH1 0x0 REVERT JUMPDEST PUSH32 0x4E487B7100000000000000000000000000000000000000000000000000000000 PUSH1 0x0 MSTORE PUSH1 0x32 PUSH1 0x4 MSTORE PUSH1 0x24 PUSH1 0x0 REVERT JUMPDEST PUSH32 0x4E487B7100000000000000000000000000000000000000000000000000000000 PUSH1 0x0 MSTORE PUSH1 0x41 PUSH1 0x4 MSTORE PUSH1 0x24 PUSH1 0x0 REVERT JUMPDEST PUSH1 0x0 DUP1 REVERT JUMPDEST PUSH1 0x0 DUP1 REVERT JUMPDEST PUSH1 0x0 DUP1 REVERT JUMPDEST PUSH1 0x0 DUP1 REVERT JUMPDEST PUSH1 0x0 PUSH1 0x1F NOT PUSH1 0x1F DUP4 ADD AND SWAP1 POP SWAP2 SWAP1 POP JUMP JUMPDEST PUSH2 0xDEC DUP2 PUSH2 0xBDE JUMP JUMPDEST DUP2 EQ PUSH2 0xDF7 JUMPI PUSH1 0x0 DUP1 REVERT JUMPDEST POP JUMP JUMPDEST PUSH2 0xE03 DUP2 PUSH2 0xC0A JUMP JUMPDEST DUP2 EQ PUSH2 0xE0E JUMPI PUSH1 0x0 DUP1 REVERT JUMPDEST POP JUMP INVALID LOG2 PUSH5 0x6970667358 0x22 SLT KECCAK256 ISZERO PUSH10 0x33E2F92C24A11A3061A1 PUSH29 0xB61D112EE604CAF46EF6090F681B7687975F1C64736F6C634300080700 CALLER "
				},
				"gasEstimates": {
					"creation": {
						"codeDepositCost": "731000",
						"executionCost": "766",
						"totalCost": "731766"
					},
					"external": {
						"addTask(string)": "infinite",
						"deleteTask(uint256,bool)": "infinite",
						"getMyTasks()": "infinite",
						"toggleDone(uint256,bool)": "infinite"
					}
				},
				"methodIdentifiers": {
					"addTask(string)": "67238562",
					"deleteTask(uint256,bool)": "aaba2907",
					"getMyTasks()": "6e13f818",
					"toggleDone(uint256,bool)": "943a1a0a"
				}
			},
			"storageLayout": {
				"storage": [
					{
						"astId": 34,
						"contract": "contracts/TaskContract.sol:TaskContract",
						"label": "tasks",
						"offset": 0,
						"slot": "0",
						"type": "t_array(t_struct(Task)30_storage)dyn_storage"
					},
					{
						"astId": 38,
						"contract": "contracts/TaskContract.sol:TaskContract",
						"label": "taskToOwner",
						"offset": 0,
						"slot": "1",
						"type": "t_mapping(t_uint256,t_address)"
					}
				],
				"types": {
					"t_address": {
						"encoding": "inplace",
						"label": "address",
						"numberOfBytes": "20"
					},
					"t_array(t_struct(Task)30_storage)dyn_storage": {
						"base": "t_struct(Task)30_storage",
						"encoding": "dynamic_array",
						"label": "struct TaskContract.Task[]",
						"numberOfBytes": "32"
					},
					"t_bool": {
						"encoding": "inplace",
						"label": "bool",
						"numberOfBytes": "1"
					},
					"t_mapping(t_uint256,t_address)": {
						"encoding": "mapping",
						"key": "t_uint256",
						"label": "mapping(uint256 => address)",
						"numberOfBytes": "32",
						"value": "t_address"
					},
					"t_string_storage": {
						"encoding": "bytes",
						"label": "string",
						"numberOfBytes": "32"
					},
					"t_struct(Task)30_storage": {
						"encoding": "inplace",
						"label": "struct TaskContract.Task",
						"members": [
							{
								"astId": 21,
								"contract": "contracts/TaskContract.sol:TaskContract",
								"label": "id",
								"offset": 0,
								"slot": "0",
								"type": "t_uint256"
							},
							{
								"astId": 23,
								"contract": "contracts/TaskContract.sol:TaskContract",
								"label": "taskText",
								"offset": 0,
								"slot": "1",
								"type": "t_string_storage"
							},
							{
								"astId": 25,
								"contract": "contracts/TaskContract.sol:TaskContract",
								"label": "isImportant",
								"offset": 0,
								"slot": "2",
								"type": "t_bool"
							},
							{
								"astId": 27,
								"contract": "contracts/TaskContract.sol:TaskContract",
								"label": "isDone",
								"offset": 1,
								"slot": "2",
								"type": "t_bool"
							},
							{
								"astId": 29,
								"contract": "contracts/TaskContract.sol:TaskContract",
								"label": "isDeleted",
								"offset": 2,
								"slot": "2",
								"type": "t_bool"
							}
						],
						"numberOfBytes": "96"
					},
					"t_uint256": {
						"encoding": "inplace",
						"label": "uint256",
						"numberOfBytes": "32"
					}
				}
			},
			"userdoc": {
				"kind": "user",
				"methods": {},
				"version": 1
			}
		}
	}
}