{
	"contracts/TaskContract.sol": {
		"TaskContract": {
			"abi": [
				{
					"anonymous": false,
					"inputs": [
						{
							"indexed": false,
							"internalType": "address",
							"name": "recipient",
							"type": "address"
						},
						{
							"indexed": false,
							"internalType": "uint256",
							"name": "taskId",
							"type": "uint256"
						}
					],
					"name": "AddTask",
					"type": "event"
				},
				{
					"anonymous": false,
					"inputs": [
						{
							"indexed": false,
							"internalType": "uint256",
							"name": "taskId",
							"type": "uint256"
						},
						{
							"indexed": false,
							"internalType": "bool",
							"name": "isDone",
							"type": "bool"
						}
					],
					"name": "DeleteTask",
					"type": "event"
				},
				{
					"anonymous": false,
					"inputs": [
						{
							"indexed": false,
							"internalType": "uint256",
							"name": "taskId",
							"type": "uint256"
						}
					],
					"name": "ToggleDone",
					"type": "event"
				},
				{
					"inputs": [
						{
							"internalType": "string",
							"name": "taskText",
							"type": "string"
						}
					],
					"name": "addTask",
					"outputs": [],
					"stateMutability": "nonpayable",
					"type": "function"
				},
				{
					"inputs": [
						{
							"internalType": "uint256",
							"name": "taskId",
							"type": "uint256"
						},
						{
							"internalType": "bool",
							"name": "isDeleted",
							"type": "bool"
						}
					],
					"name": "deleteTask",
					"outputs": [],
					"stateMutability": "nonpayable",
					"type": "function"
				},
				{
					"inputs": [],
					"name": "getMyTasks",
					"outputs": [
						{
							"components": [
								{
									"internalType": "uint256",
									"name": "id",
									"type": "uint256"
								},
								{
									"internalType": "string",
									"name": "taskText",
									"type": "string"
								},
								{
									"internalType": "bool",
									"name": "isImportant",
									"type": "bool"
								},
								{
									"internalType": "bool",
									"name": "isDone",
									"type": "bool"
								},
								{
									"internalType": "bool",
									"name": "isDeleted",
									"type": "bool"
								}
							],
							"internalType": "struct TaskContract.Task[]",
							"name": "",
							"type": "tuple[]"
						}
					],
					"stateMutability": "view",
					"type": "function"
				},
				{
					"inputs": [
						{
							"internalType": "uint256",
							"name": "taskId",
							"type": "uint256"
						},
						{
							"internalType": "bool",
							"name": "isDone",
							"type": "bool"
						}
					],
					"name": "toggleDone",
					"outputs": [],
					"stateMutability": "nonpayable",
					"type": "function"
				}
			],
			"devdoc": {
				"kind": "dev",
				"methods": {},
				"version": 1
			},
			"evm": {
				"assembly": "    /* \"contracts/TaskContract.sol\":66:1318  contract TaskContract {... */\n  mstore(0x40, 0x80)\n  callvalue\n  dup1\n  iszero\n  tag_1\n  jumpi\n  0x00\n  dup1\n  revert\ntag_1:\n  pop\n  dataSize(sub_0)\n  dup1\n  dataOffset(sub_0)\n  0x00\n  codecopy\n  0x00\n  return\nstop\n\nsub_0: assembly {\n        /* \"contracts/TaskContract.sol\":66:1318  contract TaskContract {... */\n      mstore(0x40, 0x80)\n      callvalue\n      dup1\n      iszero\n      tag_1\n      jumpi\n      0x00\n      dup1\n      revert\n    tag_1:\n      pop\n      jumpi(tag_2, lt(calldatasize, 0x04))\n      shr(0xe0, calldataload(0x00))\n      dup1\n      0x67238562\n      eq\n      tag_3\n      jumpi\n      dup1\n      0x6e13f818\n      eq\n      tag_4\n      jumpi\n      dup1\n      0x943a1a0a\n      eq\n      tag_5\n      jumpi\n      dup1\n      0xaaba2907\n      eq\n      tag_6\n      jumpi\n    tag_2:\n      0x00\n      dup1\n      revert\n        /* \"contracts/TaskContract.sol\":404:628  function addTask(string memory taskText) external {... */\n    tag_3:\n      tag_7\n      0x04\n      dup1\n      calldatasize\n      sub\n      dup2\n      add\n      swap1\n      tag_8\n      swap2\n      swap1\n      tag_9\n      jump\t// in\n    tag_8:\n      tag_10\n      jump\t// in\n    tag_7:\n      stop\n        /* \"contracts/TaskContract.sol\":632:1100  function getMyTasks() external view returns(Task[] memory){... */\n    tag_4:\n      tag_11\n      tag_12\n      jump\t// in\n    tag_11:\n      mload(0x40)\n      tag_13\n      swap2\n      swap1\n      tag_14\n      jump\t// in\n    tag_13:\n      mload(0x40)\n      dup1\n      swap2\n      sub\n      swap1\n      return\n        /* \"contracts/TaskContract.sol\":1104:1248  function toggleDone(uint taskId, bool isDone) external {... */\n    tag_5:\n      tag_15\n      0x04\n      dup1\n      calldatasize\n      sub\n      dup2\n      add\n      swap1\n      tag_16\n      swap2\n      swap1\n      tag_17\n      jump\t// in\n    tag_16:\n      tag_18\n      jump\t// in\n    tag_15:\n      stop\n        /* \"contracts/TaskContract.sol\":1252:1316  function deleteTask(uint taskId, bool isDeleted) external {... */\n    tag_6:\n      tag_19\n      0x04\n      dup1\n      calldatasize\n      sub\n      dup2\n      add\n      swap1\n      tag_20\n      swap2\n      swap1\n      tag_17\n      jump\t// in\n    tag_20:\n      tag_21\n      jump\t// in\n    tag_19:\n      stop\n        /* \"contracts/TaskContract.sol\":404:628  function addTask(string memory taskText) external {... */\n    tag_10:\n        /* \"contracts/TaskContract.sol\":460:471  uint taskId */\n      0x00\n        /* \"contracts/TaskContract.sol\":474:479  tasks */\n      dup1\n        /* \"contracts/TaskContract.sol\":474:486  tasks.length */\n      dup1\n      sload\n      swap1\n      pop\n        /* \"contracts/TaskContract.sol\":460:486  uint taskId = tasks.length */\n      swap1\n      pop\n        /* \"contracts/TaskContract.sol\":492:497  tasks */\n      0x00\n        /* \"contracts/TaskContract.sol\":503:546  Task(taskId, taskText, false, false, false) */\n      mload(0x40)\n      dup1\n      0xa0\n      add\n      0x40\n      mstore\n      dup1\n        /* \"contracts/TaskContract.sol\":508:514  taskId */\n      dup4\n        /* \"contracts/TaskContract.sol\":503:546  Task(taskId, taskText, false, false, false) */\n      dup2\n      mstore\n      0x20\n      add\n        /* \"contracts/TaskContract.sol\":516:524  taskText */\n      dup5\n        /* \"contracts/TaskContract.sol\":503:546  Task(taskId, taskText, false, false, false) */\n      dup2\n      mstore\n      0x20\n      add\n        /* \"contracts/TaskContract.sol\":526:531  false */\n      0x00\n        /* \"contracts/TaskContract.sol\":503:546  Task(taskId, taskText, false, false, false) */\n      iszero\n      iszero\n      dup2\n      mstore\n      0x20\n      add\n        /* \"contracts/TaskContract.sol\":533:538  false */\n      0x00\n        /* \"contracts/TaskContract.sol\":503:546  Task(taskId, taskText, false, false, false) */\n      iszero\n      iszero\n      dup2\n      mstore\n      0x20\n      add\n        /* \"contracts/TaskContract.sol\":540:545  false */\n      0x00\n        /* \"contracts/TaskContract.sol\":503:546  Task(taskId, taskText, false, false, false) */\n      iszero\n      iszero\n      dup2\n      mstore\n      pop\n        /* \"contracts/TaskContract.sol\":492:547  tasks.push(Task(taskId, taskText, false, false, false)) */\n      swap1\n      dup1\n      0x01\n      dup2\n      sload\n      add\n      dup1\n      dup3\n      sstore\n      dup1\n      swap2\n      pop\n      pop\n      0x01\n      swap1\n      sub\n      swap1\n      0x00\n      mstore\n      keccak256(0x00, 0x20)\n      swap1\n      0x03\n      mul\n      add\n      0x00\n      swap1\n      swap2\n      swap1\n      swap2\n      swap1\n      swap2\n      pop\n      0x00\n      dup3\n      add\n      mload\n      dup2\n      0x00\n      add\n      sstore\n      0x20\n      dup3\n      add\n      mload\n      dup2\n      0x01\n      add\n      swap1\n      dup1\n      mload\n      swap1\n      0x20\n      add\n      swap1\n      tag_24\n      swap3\n      swap2\n      swap1\n      tag_25\n      jump\t// in\n    tag_24:\n      pop\n      0x40\n      dup3\n      add\n      mload\n      dup2\n      0x02\n      add\n      exp(0x0100, 0x00)\n      dup2\n      sload\n      dup2\n      0xff\n      mul\n      not\n      and\n      swap1\n      dup4\n      iszero\n      iszero\n      mul\n      or\n      swap1\n      sstore\n      pop\n      0x60\n      dup3\n      add\n      mload\n      dup2\n      0x02\n      add\n      exp(0x0100, 0x01)\n      dup2\n      sload\n      dup2\n      0xff\n      mul\n      not\n      and\n      swap1\n      dup4\n      iszero\n      iszero\n      mul\n      or\n      swap1\n      sstore\n      pop\n      0x80\n      dup3\n      add\n      mload\n      dup2\n      0x02\n      add\n      exp(0x0100, 0x02)\n      dup2\n      sload\n      dup2\n      0xff\n      mul\n      not\n      and\n      swap1\n      dup4\n      iszero\n      iszero\n      mul\n      or\n      swap1\n      sstore\n      pop\n      pop\n      pop\n        /* \"contracts/TaskContract.sol\":575:585  msg.sender */\n      caller\n        /* \"contracts/TaskContract.sol\":553:564  taskToOwner */\n      0x01\n        /* \"contracts/TaskContract.sol\":553:572  taskToOwner[taskId] */\n      0x00\n        /* \"contracts/TaskContract.sol\":565:571  taskId */\n      dup4\n        /* \"contracts/TaskContract.sol\":553:572  taskToOwner[taskId] */\n      dup2\n      mstore\n      0x20\n      add\n      swap1\n      dup2\n      mstore\n      0x20\n      add\n      0x00\n      keccak256\n      0x00\n        /* \"contracts/TaskContract.sol\":553:585  taskToOwner[taskId] = msg.sender */\n      0x0100\n      exp\n      dup2\n      sload\n      dup2\n      0xffffffffffffffffffffffffffffffffffffffff\n      mul\n      not\n      and\n      swap1\n      dup4\n      0xffffffffffffffffffffffffffffffffffffffff\n      and\n      mul\n      or\n      swap1\n      sstore\n      pop\n        /* \"contracts/TaskContract.sol\":596:623  AddTask(msg.sender, taskId) */\n      0x1f54e1ba1832d428fbd7e7792beaf62b1fc5a382c207ffd614209c1413e94fda\n        /* \"contracts/TaskContract.sol\":604:614  msg.sender */\n      caller\n        /* \"contracts/TaskContract.sol\":616:622  taskId */\n      dup3\n        /* \"contracts/TaskContract.sol\":596:623  AddTask(msg.sender, taskId) */\n      mload(0x40)\n      tag_26\n      swap3\n      swap2\n      swap1\n      tag_27\n      jump\t// in\n    tag_26:\n      mload(0x40)\n      dup1\n      swap2\n      sub\n      swap1\n      log1\n        /* \"contracts/TaskContract.sol\":454:628  {... */\n      pop\n        /* \"contracts/TaskContract.sol\":404:628  function addTask(string memory taskText) external {... */\n      pop\n      jump\t// out\n        /* \"contracts/TaskContract.sol\":632:1100  function getMyTasks() external view returns(Task[] memory){... */\n    tag_12:\n        /* \"contracts/TaskContract.sol\":676:689  Task[] memory */\n      0x60\n        /* \"contracts/TaskContract.sol\":696:719  Task[] memory temporary */\n      0x00\n        /* \"contracts/TaskContract.sol\":734:739  tasks */\n      dup1\n        /* \"contracts/TaskContract.sol\":734:746  tasks.length */\n      dup1\n      sload\n      swap1\n      pop\n        /* \"contracts/TaskContract.sol\":722:747  new Task[] (tasks.length) */\n      0xffffffffffffffff\n      dup2\n      gt\n      iszero\n      tag_29\n      jumpi\n      tag_30\n      tag_31\n      jump\t// in\n    tag_30:\n    tag_29:\n      mload(0x40)\n      swap1\n      dup1\n      dup3\n      mstore\n      dup1\n      0x20\n      mul\n      0x20\n      add\n      dup3\n      add\n      0x40\n      mstore\n      dup1\n      iszero\n      tag_32\n      jumpi\n      dup2\n      0x20\n      add\n    tag_33:\n      tag_34\n      tag_35\n      jump\t// in\n    tag_34:\n      dup2\n      mstore\n      0x20\n      add\n      swap1\n      0x01\n      swap1\n      sub\n      swap1\n      dup2\n      tag_33\n      jumpi\n      swap1\n      pop\n    tag_32:\n      pop\n        /* \"contracts/TaskContract.sol\":696:747  Task[] memory temporary = new Task[] (tasks.length) */\n      swap1\n      pop\n        /* \"contracts/TaskContract.sol\":753:765  uint counter */\n      0x00\n        /* \"contracts/TaskContract.sol\":780:786  uint i */\n      dup1\n        /* \"contracts/TaskContract.sol\":776:953  for(uint i=0; i<tasks.length; i++) {... */\n    tag_36:\n        /* \"contracts/TaskContract.sol\":792:797  tasks */\n      0x00\n        /* \"contracts/TaskContract.sol\":792:804  tasks.length */\n      dup1\n      sload\n      swap1\n      pop\n        /* \"contracts/TaskContract.sol\":790:791  i */\n      dup2\n        /* \"contracts/TaskContract.sol\":790:804  i<tasks.length */\n      lt\n        /* \"contracts/TaskContract.sol\":776:953  for(uint i=0; i<tasks.length; i++) {... */\n      iszero\n      tag_37\n      jumpi\n        /* \"contracts/TaskContract.sol\":840:850  msg.sender */\n      caller\n        /* \"contracts/TaskContract.sol\":822:850  taskToOwner[i] == msg.sender */\n      0xffffffffffffffffffffffffffffffffffffffff\n      and\n        /* \"contracts/TaskContract.sol\":822:833  taskToOwner */\n      0x01\n        /* \"contracts/TaskContract.sol\":822:836  taskToOwner[i] */\n      0x00\n        /* \"contracts/TaskContract.sol\":834:835  i */\n      dup4\n        /* \"contracts/TaskContract.sol\":822:836  taskToOwner[i] */\n      dup2\n      mstore\n      0x20\n      add\n      swap1\n      dup2\n      mstore\n      0x20\n      add\n      0x00\n      keccak256\n      0x00\n      swap1\n      sload\n      swap1\n      0x0100\n      exp\n      swap1\n      div\n      0xffffffffffffffffffffffffffffffffffffffff\n      and\n        /* \"contracts/TaskContract.sol\":822:850  taskToOwner[i] == msg.sender */\n      0xffffffffffffffffffffffffffffffffffffffff\n      and\n      eq\n        /* \"contracts/TaskContract.sol\":822:878  taskToOwner[i] == msg.sender && tasks[i].isDone == false */\n      dup1\n      iszero\n      tag_39\n      jumpi\n      pop\n        /* \"contracts/TaskContract.sol\":873:878  false */\n      0x00\n        /* \"contracts/TaskContract.sol\":854:878  tasks[i].isDone == false */\n      iszero\n      iszero\n        /* \"contracts/TaskContract.sol\":854:859  tasks */\n      0x00\n        /* \"contracts/TaskContract.sol\":860:861  i */\n      dup3\n        /* \"contracts/TaskContract.sol\":854:862  tasks[i] */\n      dup2\n      sload\n      dup2\n      lt\n      tag_40\n      jumpi\n      tag_41\n      tag_42\n      jump\t// in\n    tag_41:\n    tag_40:\n      swap1\n      0x00\n      mstore\n      keccak256(0x00, 0x20)\n      swap1\n      0x03\n      mul\n      add\n        /* \"contracts/TaskContract.sol\":854:869  tasks[i].isDone */\n      0x02\n      add\n      0x01\n      swap1\n      sload\n      swap1\n      0x0100\n      exp\n      swap1\n      div\n      0xff\n      and\n        /* \"contracts/TaskContract.sol\":854:878  tasks[i].isDone == false */\n      iszero\n      iszero\n      eq\n        /* \"contracts/TaskContract.sol\":822:878  taskToOwner[i] == msg.sender && tasks[i].isDone == false */\n    tag_39:\n        /* \"contracts/TaskContract.sol\":819:947  if(taskToOwner[i] == msg.sender && tasks[i].isDone == false) {... */\n      iszero\n      tag_44\n      jumpi\n        /* \"contracts/TaskContract.sol\":911:916  tasks */\n      0x00\n        /* \"contracts/TaskContract.sol\":917:918  i */\n      dup2\n        /* \"contracts/TaskContract.sol\":911:919  tasks[i] */\n      dup2\n      sload\n      dup2\n      lt\n      tag_45\n      jumpi\n      tag_46\n      tag_42\n      jump\t// in\n    tag_46:\n    tag_45:\n      swap1\n      0x00\n      mstore\n      keccak256(0x00, 0x20)\n      swap1\n      0x03\n      mul\n      add\n        /* \"contracts/TaskContract.sol\":890:919  temporary[counter] = tasks[i] */\n      mload(0x40)\n      dup1\n      0xa0\n      add\n      0x40\n      mstore\n      swap1\n      dup2\n      0x00\n      dup3\n      add\n      sload\n      dup2\n      mstore\n      0x20\n      add\n      0x01\n      dup3\n      add\n      dup1\n      sload\n      tag_48\n      swap1\n      tag_49\n      jump\t// in\n    tag_48:\n      dup1\n      0x1f\n      add\n      0x20\n      dup1\n      swap2\n      div\n      mul\n      0x20\n      add\n      mload(0x40)\n      swap1\n      dup2\n      add\n      0x40\n      mstore\n      dup1\n      swap3\n      swap2\n      swap1\n      dup2\n      dup2\n      mstore\n      0x20\n      add\n      dup3\n      dup1\n      sload\n      tag_50\n      swap1\n      tag_49\n      jump\t// in\n    tag_50:\n      dup1\n      iszero\n      tag_51\n      jumpi\n      dup1\n      0x1f\n      lt\n      tag_52\n      jumpi\n      0x0100\n      dup1\n      dup4\n      sload\n      div\n      mul\n      dup4\n      mstore\n      swap2\n      0x20\n      add\n      swap2\n      jump(tag_51)\n    tag_52:\n      dup3\n      add\n      swap2\n      swap1\n      0x00\n      mstore\n      keccak256(0x00, 0x20)\n      swap1\n    tag_53:\n      dup2\n      sload\n      dup2\n      mstore\n      swap1\n      0x01\n      add\n      swap1\n      0x20\n      add\n      dup1\n      dup4\n      gt\n      tag_53\n      jumpi\n      dup3\n      swap1\n      sub\n      0x1f\n      and\n      dup3\n      add\n      swap2\n    tag_51:\n      pop\n      pop\n      pop\n      pop\n      pop\n      dup2\n      mstore\n      0x20\n      add\n      0x02\n      dup3\n      add\n      0x00\n      swap1\n      sload\n      swap1\n      0x0100\n      exp\n      swap1\n      div\n      0xff\n      and\n      iszero\n      iszero\n      iszero\n      iszero\n      dup2\n      mstore\n      0x20\n      add\n      0x02\n      dup3\n      add\n      0x01\n      swap1\n      sload\n      swap1\n      0x0100\n      exp\n      swap1\n      div\n      0xff\n      and\n      iszero\n      iszero\n      iszero\n      iszero\n      dup2\n      mstore\n      0x20\n      add\n      0x02\n      dup3\n      add\n      0x02\n      swap1\n      sload\n      swap1\n      0x0100\n      exp\n      swap1\n      div\n      0xff\n      and\n      iszero\n      iszero\n      iszero\n      iszero\n      dup2\n      mstore\n      pop\n      pop\n        /* \"contracts/TaskContract.sol\":890:899  temporary */\n      dup4\n        /* \"contracts/TaskContract.sol\":900:907  counter */\n      dup4\n        /* \"contracts/TaskContract.sol\":890:908  temporary[counter] */\n      dup2\n      mload\n      dup2\n      lt\n      tag_54\n      jumpi\n      tag_55\n      tag_42\n      jump\t// in\n    tag_55:\n    tag_54:\n      0x20\n      mul\n      0x20\n      add\n      add\n        /* \"contracts/TaskContract.sol\":890:919  temporary[counter] = tasks[i] */\n      dup2\n      swap1\n      mstore\n      pop\n        /* \"contracts/TaskContract.sol\":929:938  counter++ */\n      dup2\n      dup1\n      tag_56\n      swap1\n      tag_57\n      jump\t// in\n    tag_56:\n      swap3\n      pop\n      pop\n        /* \"contracts/TaskContract.sol\":819:947  if(taskToOwner[i] == msg.sender && tasks[i].isDone == false) {... */\n    tag_44:\n        /* \"contracts/TaskContract.sol\":806:809  i++ */\n      dup1\n      dup1\n      tag_58\n      swap1\n      tag_57\n      jump\t// in\n    tag_58:\n      swap2\n      pop\n      pop\n        /* \"contracts/TaskContract.sol\":776:953  for(uint i=0; i<tasks.length; i++) {... */\n      jump(tag_36)\n    tag_37:\n      pop\n        /* \"contracts/TaskContract.sol\":959:979  Task[] memory result */\n      0x00\n        /* \"contracts/TaskContract.sol\":993:1000  counter */\n      dup2\n        /* \"contracts/TaskContract.sol\":982:1001  new Task[](counter) */\n      0xffffffffffffffff\n      dup2\n      gt\n      iszero\n      tag_59\n      jumpi\n      tag_60\n      tag_31\n      jump\t// in\n    tag_60:\n    tag_59:\n      mload(0x40)\n      swap1\n      dup1\n      dup3\n      mstore\n      dup1\n      0x20\n      mul\n      0x20\n      add\n      dup3\n      add\n      0x40\n      mstore\n      dup1\n      iszero\n      tag_61\n      jumpi\n      dup2\n      0x20\n      add\n    tag_62:\n      tag_63\n      tag_35\n      jump\t// in\n    tag_63:\n      dup2\n      mstore\n      0x20\n      add\n      swap1\n      0x01\n      swap1\n      sub\n      swap1\n      dup2\n      tag_62\n      jumpi\n      swap1\n      pop\n    tag_61:\n      pop\n        /* \"contracts/TaskContract.sol\":959:1001  Task[] memory result = new Task[](counter) */\n      swap1\n      pop\n        /* \"contracts/TaskContract.sol\":1012:1018  uint i */\n      0x00\n        /* \"contracts/TaskContract.sol\":1007:1076  for (uint i=0; i<counter; i++){... */\n    tag_64:\n        /* \"contracts/TaskContract.sol\":1024:1031  counter */\n      dup3\n        /* \"contracts/TaskContract.sol\":1022:1023  i */\n      dup2\n        /* \"contracts/TaskContract.sol\":1022:1031  i<counter */\n      lt\n        /* \"contracts/TaskContract.sol\":1007:1076  for (uint i=0; i<counter; i++){... */\n      iszero\n      tag_65\n      jumpi\n        /* \"contracts/TaskContract.sol\":1057:1066  temporary */\n      dup4\n        /* \"contracts/TaskContract.sol\":1067:1068  i */\n      dup2\n        /* \"contracts/TaskContract.sol\":1057:1069  temporary[i] */\n      dup2\n      mload\n      dup2\n      lt\n      tag_67\n      jumpi\n      tag_68\n      tag_42\n      jump\t// in\n    tag_68:\n    tag_67:\n      0x20\n      mul\n      0x20\n      add\n      add\n      mload\n        /* \"contracts/TaskContract.sol\":1045:1051  result */\n      dup3\n        /* \"contracts/TaskContract.sol\":1052:1053  i */\n      dup3\n        /* \"contracts/TaskContract.sol\":1045:1054  result[i] */\n      dup2\n      mload\n      dup2\n      lt\n      tag_69\n      jumpi\n      tag_70\n      tag_42\n      jump\t// in\n    tag_70:\n    tag_69:\n      0x20\n      mul\n      0x20\n      add\n      add\n        /* \"contracts/TaskContract.sol\":1045:1069  result[i] = temporary[i] */\n      dup2\n      swap1\n      mstore\n      pop\n        /* \"contracts/TaskContract.sol\":1033:1036  i++ */\n      dup1\n      dup1\n      tag_71\n      swap1\n      tag_57\n      jump\t// in\n    tag_71:\n      swap2\n      pop\n      pop\n        /* \"contracts/TaskContract.sol\":1007:1076  for (uint i=0; i<counter; i++){... */\n      jump(tag_64)\n    tag_65:\n      pop\n        /* \"contracts/TaskContract.sol\":1089:1095  result */\n      dup1\n        /* \"contracts/TaskContract.sol\":1082:1095  return result */\n      swap4\n      pop\n      pop\n      pop\n      pop\n        /* \"contracts/TaskContract.sol\":632:1100  function getMyTasks() external view returns(Task[] memory){... */\n      swap1\n      jump\t// out\n        /* \"contracts/TaskContract.sol\":1104:1248  function toggleDone(uint taskId, bool isDone) external {... */\n    tag_18:\n        /* \"contracts/TaskContract.sol\":1189:1199  msg.sender */\n      caller\n        /* \"contracts/TaskContract.sol\":1168:1199  taskToOwner[taskId]==msg.sender */\n      0xffffffffffffffffffffffffffffffffffffffff\n      and\n        /* \"contracts/TaskContract.sol\":1168:1179  taskToOwner */\n      0x01\n        /* \"contracts/TaskContract.sol\":1168:1187  taskToOwner[taskId] */\n      0x00\n        /* \"contracts/TaskContract.sol\":1180:1186  taskId */\n      dup5\n        /* \"contracts/TaskContract.sol\":1168:1187  taskToOwner[taskId] */\n      dup2\n      mstore\n      0x20\n      add\n      swap1\n      dup2\n      mstore\n      0x20\n      add\n      0x00\n      keccak256\n      0x00\n      swap1\n      sload\n      swap1\n      0x0100\n      exp\n      swap1\n      div\n      0xffffffffffffffffffffffffffffffffffffffff\n      and\n        /* \"contracts/TaskContract.sol\":1168:1199  taskToOwner[taskId]==msg.sender */\n      0xffffffffffffffffffffffffffffffffffffffff\n      and\n      eq\n        /* \"contracts/TaskContract.sol\":1165:1244  if(taskToOwner[taskId]==msg.sender){... */\n      iszero\n      tag_73\n      jumpi\n        /* \"contracts/TaskContract.sol\":1231:1237  isDone */\n      dup1\n        /* \"contracts/TaskContract.sol\":1208:1213  tasks */\n      0x00\n        /* \"contracts/TaskContract.sol\":1214:1220  taskId */\n      dup4\n        /* \"contracts/TaskContract.sol\":1208:1221  tasks[taskId] */\n      dup2\n      sload\n      dup2\n      lt\n      tag_74\n      jumpi\n      tag_75\n      tag_42\n      jump\t// in\n    tag_75:\n    tag_74:\n      swap1\n      0x00\n      mstore\n      keccak256(0x00, 0x20)\n      swap1\n      0x03\n      mul\n      add\n        /* \"contracts/TaskContract.sol\":1208:1228  tasks[taskId].isDone */\n      0x02\n      add\n      0x01\n        /* \"contracts/TaskContract.sol\":1208:1237  tasks[taskId].isDone = isDone */\n      0x0100\n      exp\n      dup2\n      sload\n      dup2\n      0xff\n      mul\n      not\n      and\n      swap1\n      dup4\n      iszero\n      iszero\n      mul\n      or\n      swap1\n      sstore\n      pop\n        /* \"contracts/TaskContract.sol\":1165:1244  if(taskToOwner[taskId]==msg.sender){... */\n    tag_73:\n        /* \"contracts/TaskContract.sol\":1104:1248  function toggleDone(uint taskId, bool isDone) external {... */\n      pop\n      pop\n      jump\t// out\n        /* \"contracts/TaskContract.sol\":1252:1316  function deleteTask(uint taskId, bool isDeleted) external {... */\n    tag_21:\n      pop\n      pop\n      jump\t// out\n    tag_25:\n      dup3\n      dup1\n      sload\n      tag_78\n      swap1\n      tag_49\n      jump\t// in\n    tag_78:\n      swap1\n      0x00\n      mstore\n      keccak256(0x00, 0x20)\n      swap1\n      0x1f\n      add\n      0x20\n      swap1\n      div\n      dup2\n      add\n      swap3\n      dup3\n      tag_80\n      jumpi\n      0x00\n      dup6\n      sstore\n      jump(tag_79)\n    tag_80:\n      dup3\n      0x1f\n      lt\n      tag_81\n      jumpi\n      dup1\n      mload\n      not(0xff)\n      and\n      dup4\n      dup1\n      add\n      or\n      dup6\n      sstore\n      jump(tag_79)\n    tag_81:\n      dup3\n      dup1\n      add\n      0x01\n      add\n      dup6\n      sstore\n      dup3\n      iszero\n      tag_79\n      jumpi\n      swap2\n      dup3\n      add\n    tag_82:\n      dup3\n      dup2\n      gt\n      iszero\n      tag_83\n      jumpi\n      dup3\n      mload\n      dup3\n      sstore\n      swap2\n      0x20\n      add\n      swap2\n      swap1\n      0x01\n      add\n      swap1\n      jump(tag_82)\n    tag_83:\n    tag_79:\n      pop\n      swap1\n      pop\n      tag_84\n      swap2\n      swap1\n      tag_85\n      jump\t// in\n    tag_84:\n      pop\n      swap1\n      jump\t// out\n    tag_35:\n      mload(0x40)\n      dup1\n      0xa0\n      add\n      0x40\n      mstore\n      dup1\n      0x00\n      dup2\n      mstore\n      0x20\n      add\n      0x60\n      dup2\n      mstore\n      0x20\n      add\n      iszero(iszero(0x00))\n      dup2\n      mstore\n      0x20\n      add\n      iszero(iszero(0x00))\n      dup2\n      mstore\n      0x20\n      add\n      iszero(iszero(0x00))\n      dup2\n      mstore\n      pop\n      swap1\n      jump\t// out\n    tag_85:\n    tag_86:\n      dup1\n      dup3\n      gt\n      iszero\n      tag_87\n      jumpi\n      0x00\n      dup2\n      0x00\n      swap1\n      sstore\n      pop\n      0x01\n      add\n      jump(tag_86)\n    tag_87:\n      pop\n      swap1\n      jump\t// out\n        /* \"#utility.yul\":7:419   */\n    tag_89:\n        /* \"#utility.yul\":85:90   */\n      0x00\n        /* \"#utility.yul\":110:176   */\n      tag_91\n        /* \"#utility.yul\":126:175   */\n      tag_92\n        /* \"#utility.yul\":168:174   */\n      dup5\n        /* \"#utility.yul\":126:175   */\n      tag_93\n      jump\t// in\n    tag_92:\n        /* \"#utility.yul\":110:176   */\n      tag_94\n      jump\t// in\n    tag_91:\n        /* \"#utility.yul\":101:176   */\n      swap1\n      pop\n        /* \"#utility.yul\":199:205   */\n      dup3\n        /* \"#utility.yul\":192:197   */\n      dup2\n        /* \"#utility.yul\":185:206   */\n      mstore\n        /* \"#utility.yul\":237:241   */\n      0x20\n        /* \"#utility.yul\":230:235   */\n      dup2\n        /* \"#utility.yul\":226:242   */\n      add\n        /* \"#utility.yul\":275:278   */\n      dup5\n        /* \"#utility.yul\":266:272   */\n      dup5\n        /* \"#utility.yul\":261:264   */\n      dup5\n        /* \"#utility.yul\":257:273   */\n      add\n        /* \"#utility.yul\":254:279   */\n      gt\n        /* \"#utility.yul\":251:363   */\n      iszero\n      tag_95\n      jumpi\n        /* \"#utility.yul\":282:361   */\n      tag_96\n      tag_97\n      jump\t// in\n    tag_96:\n        /* \"#utility.yul\":251:363   */\n    tag_95:\n        /* \"#utility.yul\":372:413   */\n      tag_98\n        /* \"#utility.yul\":406:412   */\n      dup5\n        /* \"#utility.yul\":401:404   */\n      dup3\n        /* \"#utility.yul\":396:399   */\n      dup6\n        /* \"#utility.yul\":372:413   */\n      tag_99\n      jump\t// in\n    tag_98:\n        /* \"#utility.yul\":91:419   */\n      pop\n        /* \"#utility.yul\":7:419   */\n      swap4\n      swap3\n      pop\n      pop\n      pop\n      jump\t// out\n        /* \"#utility.yul\":425:558   */\n    tag_100:\n        /* \"#utility.yul\":468:473   */\n      0x00\n        /* \"#utility.yul\":506:512   */\n      dup2\n        /* \"#utility.yul\":493:513   */\n      calldataload\n        /* \"#utility.yul\":484:513   */\n      swap1\n      pop\n        /* \"#utility.yul\":522:552   */\n      tag_102\n        /* \"#utility.yul\":546:551   */\n      dup2\n        /* \"#utility.yul\":522:552   */\n      tag_103\n      jump\t// in\n    tag_102:\n        /* \"#utility.yul\":425:558   */\n      swap3\n      swap2\n      pop\n      pop\n      jump\t// out\n        /* \"#utility.yul\":578:918   */\n    tag_104:\n        /* \"#utility.yul\":634:639   */\n      0x00\n        /* \"#utility.yul\":683:686   */\n      dup3\n        /* \"#utility.yul\":676:680   */\n      0x1f\n        /* \"#utility.yul\":668:674   */\n      dup4\n        /* \"#utility.yul\":664:681   */\n      add\n        /* \"#utility.yul\":660:687   */\n      slt\n        /* \"#utility.yul\":650:772   */\n      tag_106\n      jumpi\n        /* \"#utility.yul\":691:770   */\n      tag_107\n      tag_108\n      jump\t// in\n    tag_107:\n        /* \"#utility.yul\":650:772   */\n    tag_106:\n        /* \"#utility.yul\":808:814   */\n      dup2\n        /* \"#utility.yul\":795:815   */\n      calldataload\n        /* \"#utility.yul\":833:912   */\n      tag_109\n        /* \"#utility.yul\":908:911   */\n      dup5\n        /* \"#utility.yul\":900:906   */\n      dup3\n        /* \"#utility.yul\":893:897   */\n      0x20\n        /* \"#utility.yul\":885:891   */\n      dup7\n        /* \"#utility.yul\":881:898   */\n      add\n        /* \"#utility.yul\":833:912   */\n      tag_89\n      jump\t// in\n    tag_109:\n        /* \"#utility.yul\":824:912   */\n      swap2\n      pop\n        /* \"#utility.yul\":640:918   */\n      pop\n        /* \"#utility.yul\":578:918   */\n      swap3\n      swap2\n      pop\n      pop\n      jump\t// out\n        /* \"#utility.yul\":924:1063   */\n    tag_110:\n        /* \"#utility.yul\":970:975   */\n      0x00\n        /* \"#utility.yul\":1008:1014   */\n      dup2\n        /* \"#utility.yul\":995:1015   */\n      calldataload\n        /* \"#utility.yul\":986:1015   */\n      swap1\n      pop\n        /* \"#utility.yul\":1024:1057   */\n      tag_112\n        /* \"#utility.yul\":1051:1056   */\n      dup2\n        /* \"#utility.yul\":1024:1057   */\n      tag_113\n      jump\t// in\n    tag_112:\n        /* \"#utility.yul\":924:1063   */\n      swap3\n      swap2\n      pop\n      pop\n      jump\t// out\n        /* \"#utility.yul\":1069:1578   */\n    tag_9:\n        /* \"#utility.yul\":1138:1144   */\n      0x00\n        /* \"#utility.yul\":1187:1189   */\n      0x20\n        /* \"#utility.yul\":1175:1184   */\n      dup3\n        /* \"#utility.yul\":1166:1173   */\n      dup5\n        /* \"#utility.yul\":1162:1185   */\n      sub\n        /* \"#utility.yul\":1158:1190   */\n      slt\n        /* \"#utility.yul\":1155:1274   */\n      iszero\n      tag_115\n      jumpi\n        /* \"#utility.yul\":1193:1272   */\n      tag_116\n      tag_117\n      jump\t// in\n    tag_116:\n        /* \"#utility.yul\":1155:1274   */\n    tag_115:\n        /* \"#utility.yul\":1341:1342   */\n      0x00\n        /* \"#utility.yul\":1330:1339   */\n      dup3\n        /* \"#utility.yul\":1326:1343   */\n      add\n        /* \"#utility.yul\":1313:1344   */\n      calldataload\n        /* \"#utility.yul\":1371:1389   */\n      0xffffffffffffffff\n        /* \"#utility.yul\":1363:1369   */\n      dup2\n        /* \"#utility.yul\":1360:1390   */\n      gt\n        /* \"#utility.yul\":1357:1474   */\n      iszero\n      tag_118\n      jumpi\n        /* \"#utility.yul\":1393:1472   */\n      tag_119\n      tag_120\n      jump\t// in\n    tag_119:\n        /* \"#utility.yul\":1357:1474   */\n    tag_118:\n        /* \"#utility.yul\":1498:1561   */\n      tag_121\n        /* \"#utility.yul\":1553:1560   */\n      dup5\n        /* \"#utility.yul\":1544:1550   */\n      dup3\n        /* \"#utility.yul\":1533:1542   */\n      dup6\n        /* \"#utility.yul\":1529:1551   */\n      add\n        /* \"#utility.yul\":1498:1561   */\n      tag_104\n      jump\t// in\n    tag_121:\n        /* \"#utility.yul\":1488:1561   */\n      swap2\n      pop\n        /* \"#utility.yul\":1284:1571   */\n      pop\n        /* \"#utility.yul\":1069:1578   */\n      swap3\n      swap2\n      pop\n      pop\n      jump\t// out\n        /* \"#utility.yul\":1584:2052   */\n    tag_17:\n        /* \"#utility.yul\":1649:1655   */\n      0x00\n        /* \"#utility.yul\":1657:1663   */\n      dup1\n        /* \"#utility.yul\":1706:1708   */\n      0x40\n        /* \"#utility.yul\":1694:1703   */\n      dup4\n        /* \"#utility.yul\":1685:1692   */\n      dup6\n        /* \"#utility.yul\":1681:1704   */\n      sub\n        /* \"#utility.yul\":1677:1709   */\n      slt\n        /* \"#utility.yul\":1674:1793   */\n      iszero\n      tag_123\n      jumpi\n        /* \"#utility.yul\":1712:1791   */\n      tag_124\n      tag_117\n      jump\t// in\n    tag_124:\n        /* \"#utility.yul\":1674:1793   */\n    tag_123:\n        /* \"#utility.yul\":1832:1833   */\n      0x00\n        /* \"#utility.yul\":1857:1910   */\n      tag_125\n        /* \"#utility.yul\":1902:1909   */\n      dup6\n        /* \"#utility.yul\":1893:1899   */\n      dup3\n        /* \"#utility.yul\":1882:1891   */\n      dup7\n        /* \"#utility.yul\":1878:1900   */\n      add\n        /* \"#utility.yul\":1857:1910   */\n      tag_110\n      jump\t// in\n    tag_125:\n        /* \"#utility.yul\":1847:1910   */\n      swap3\n      pop\n        /* \"#utility.yul\":1803:1920   */\n      pop\n        /* \"#utility.yul\":1959:1961   */\n      0x20\n        /* \"#utility.yul\":1985:2035   */\n      tag_126\n        /* \"#utility.yul\":2027:2034   */\n      dup6\n        /* \"#utility.yul\":2018:2024   */\n      dup3\n        /* \"#utility.yul\":2007:2016   */\n      dup7\n        /* \"#utility.yul\":2003:2025   */\n      add\n        /* \"#utility.yul\":1985:2035   */\n      tag_100\n      jump\t// in\n    tag_126:\n        /* \"#utility.yul\":1975:2035   */\n      swap2\n      pop\n        /* \"#utility.yul\":1930:2045   */\n      pop\n        /* \"#utility.yul\":1584:2052   */\n      swap3\n      pop\n      swap3\n      swap1\n      pop\n      jump\t// out\n        /* \"#utility.yul\":2058:2294   */\n    tag_127:\n        /* \"#utility.yul\":2167:2177   */\n      0x00\n        /* \"#utility.yul\":2202:2288   */\n      tag_129\n        /* \"#utility.yul\":2284:2287   */\n      dup4\n        /* \"#utility.yul\":2276:2282   */\n      dup4\n        /* \"#utility.yul\":2202:2288   */\n      tag_130\n      jump\t// in\n    tag_129:\n        /* \"#utility.yul\":2188:2288   */\n      swap1\n      pop\n        /* \"#utility.yul\":2058:2294   */\n      swap3\n      swap2\n      pop\n      pop\n      jump\t// out\n        /* \"#utility.yul\":2300:2418   */\n    tag_131:\n        /* \"#utility.yul\":2387:2411   */\n      tag_133\n        /* \"#utility.yul\":2405:2410   */\n      dup2\n        /* \"#utility.yul\":2387:2411   */\n      tag_134\n      jump\t// in\n    tag_133:\n        /* \"#utility.yul\":2382:2385   */\n      dup3\n        /* \"#utility.yul\":2375:2412   */\n      mstore\n        /* \"#utility.yul\":2300:2418   */\n      pop\n      pop\n      jump\t// out\n        /* \"#utility.yul\":2488:3559   */\n    tag_135:\n        /* \"#utility.yul\":2647:2650   */\n      0x00\n        /* \"#utility.yul\":2676:2750   */\n      tag_137\n        /* \"#utility.yul\":2744:2749   */\n      dup3\n        /* \"#utility.yul\":2676:2750   */\n      tag_138\n      jump\t// in\n    tag_137:\n        /* \"#utility.yul\":2766:2872   */\n      tag_139\n        /* \"#utility.yul\":2865:2871   */\n      dup2\n        /* \"#utility.yul\":2860:2863   */\n      dup6\n        /* \"#utility.yul\":2766:2872   */\n      tag_140\n      jump\t// in\n    tag_139:\n        /* \"#utility.yul\":2759:2872   */\n      swap4\n      pop\n        /* \"#utility.yul\":2898:2901   */\n      dup4\n        /* \"#utility.yul\":2943:2947   */\n      0x20\n        /* \"#utility.yul\":2935:2941   */\n      dup3\n        /* \"#utility.yul\":2931:2948   */\n      mul\n        /* \"#utility.yul\":2926:2929   */\n      dup6\n        /* \"#utility.yul\":2922:2949   */\n      add\n        /* \"#utility.yul\":2973:3049   */\n      tag_141\n        /* \"#utility.yul\":3043:3048   */\n      dup6\n        /* \"#utility.yul\":2973:3049   */\n      tag_142\n      jump\t// in\n    tag_141:\n        /* \"#utility.yul\":3072:3079   */\n      dup1\n        /* \"#utility.yul\":3103:3104   */\n      0x00\n        /* \"#utility.yul\":3088:3514   */\n    tag_143:\n        /* \"#utility.yul\":3113:3119   */\n      dup6\n        /* \"#utility.yul\":3110:3111   */\n      dup2\n        /* \"#utility.yul\":3107:3120   */\n      lt\n        /* \"#utility.yul\":3088:3514   */\n      iszero\n      tag_145\n      jumpi\n        /* \"#utility.yul\":3184:3193   */\n      dup5\n        /* \"#utility.yul\":3178:3182   */\n      dup5\n        /* \"#utility.yul\":3174:3194   */\n      sub\n        /* \"#utility.yul\":3169:3172   */\n      dup10\n        /* \"#utility.yul\":3162:3195   */\n      mstore\n        /* \"#utility.yul\":3235:3241   */\n      dup2\n        /* \"#utility.yul\":3229:3242   */\n      mload\n        /* \"#utility.yul\":3263:3367   */\n      tag_146\n        /* \"#utility.yul\":3362:3366   */\n      dup6\n        /* \"#utility.yul\":3347:3360   */\n      dup3\n        /* \"#utility.yul\":3263:3367   */\n      tag_127\n      jump\t// in\n    tag_146:\n        /* \"#utility.yul\":3255:3367   */\n      swap5\n      pop\n        /* \"#utility.yul\":3390:3470   */\n      tag_147\n        /* \"#utility.yul\":3463:3469   */\n      dup4\n        /* \"#utility.yul\":3390:3470   */\n      tag_148\n      jump\t// in\n    tag_147:\n        /* \"#utility.yul\":3380:3470   */\n      swap3\n      pop\n        /* \"#utility.yul\":3499:3503   */\n      0x20\n        /* \"#utility.yul\":3494:3497   */\n      dup11\n        /* \"#utility.yul\":3490:3504   */\n      add\n        /* \"#utility.yul\":3483:3504   */\n      swap10\n      pop\n        /* \"#utility.yul\":3148:3514   */\n      pop\n        /* \"#utility.yul\":3135:3136   */\n      0x01\n        /* \"#utility.yul\":3132:3133   */\n      dup2\n        /* \"#utility.yul\":3128:3137   */\n      add\n        /* \"#utility.yul\":3123:3137   */\n      swap1\n      pop\n        /* \"#utility.yul\":3088:3514   */\n      jump(tag_143)\n    tag_145:\n        /* \"#utility.yul\":3092:3106   */\n      pop\n        /* \"#utility.yul\":3530:3534   */\n      dup3\n        /* \"#utility.yul\":3523:3534   */\n      swap8\n      pop\n        /* \"#utility.yul\":3550:3553   */\n      dup8\n        /* \"#utility.yul\":3543:3553   */\n      swap6\n      pop\n        /* \"#utility.yul\":2652:3559   */\n      pop\n      pop\n      pop\n      pop\n      pop\n        /* \"#utility.yul\":2488:3559   */\n      swap3\n      swap2\n      pop\n      pop\n      jump\t// out\n        /* \"#utility.yul\":3565:3664   */\n    tag_149:\n        /* \"#utility.yul\":3636:3657   */\n      tag_151\n        /* \"#utility.yul\":3651:3656   */\n      dup2\n        /* \"#utility.yul\":3636:3657   */\n      tag_152\n      jump\t// in\n    tag_151:\n        /* \"#utility.yul\":3631:3634   */\n      dup3\n        /* \"#utility.yul\":3624:3658   */\n      mstore\n        /* \"#utility.yul\":3565:3664   */\n      pop\n      pop\n      jump\t// out\n        /* \"#utility.yul\":3670:4014   */\n    tag_153:\n        /* \"#utility.yul\":3748:3751   */\n      0x00\n        /* \"#utility.yul\":3776:3815   */\n      tag_155\n        /* \"#utility.yul\":3809:3814   */\n      dup3\n        /* \"#utility.yul\":3776:3815   */\n      tag_156\n      jump\t// in\n    tag_155:\n        /* \"#utility.yul\":3831:3892   */\n      tag_157\n        /* \"#utility.yul\":3885:3891   */\n      dup2\n        /* \"#utility.yul\":3880:3883   */\n      dup6\n        /* \"#utility.yul\":3831:3892   */\n      tag_158\n      jump\t// in\n    tag_157:\n        /* \"#utility.yul\":3824:3892   */\n      swap4\n      pop\n        /* \"#utility.yul\":3901:3953   */\n      tag_159\n        /* \"#utility.yul\":3946:3952   */\n      dup2\n        /* \"#utility.yul\":3941:3944   */\n      dup6\n        /* \"#utility.yul\":3934:3938   */\n      0x20\n        /* \"#utility.yul\":3927:3932   */\n      dup7\n        /* \"#utility.yul\":3923:3939   */\n      add\n        /* \"#utility.yul\":3901:3953   */\n      tag_160\n      jump\t// in\n    tag_159:\n        /* \"#utility.yul\":3978:4007   */\n      tag_161\n        /* \"#utility.yul\":4000:4006   */\n      dup2\n        /* \"#utility.yul\":3978:4007   */\n      tag_162\n      jump\t// in\n    tag_161:\n        /* \"#utility.yul\":3973:3976   */\n      dup5\n        /* \"#utility.yul\":3969:4008   */\n      add\n        /* \"#utility.yul\":3962:4008   */\n      swap2\n      pop\n        /* \"#utility.yul\":3752:4014   */\n      pop\n        /* \"#utility.yul\":3670:4014   */\n      swap3\n      swap2\n      pop\n      pop\n      jump\t// out\n        /* \"#utility.yul\":4080:5186   */\n    tag_130:\n        /* \"#utility.yul\":4179:4182   */\n      0x00\n        /* \"#utility.yul\":4215:4219   */\n      0xa0\n        /* \"#utility.yul\":4210:4213   */\n      dup4\n        /* \"#utility.yul\":4206:4220   */\n      add\n        /* \"#utility.yul\":4300:4304   */\n      0x00\n        /* \"#utility.yul\":4293:4298   */\n      dup4\n        /* \"#utility.yul\":4289:4305   */\n      add\n        /* \"#utility.yul\":4283:4306   */\n      mload\n        /* \"#utility.yul\":4319:4382   */\n      tag_164\n        /* \"#utility.yul\":4376:4380   */\n      0x00\n        /* \"#utility.yul\":4371:4374   */\n      dup7\n        /* \"#utility.yul\":4367:4381   */\n      add\n        /* \"#utility.yul\":4353:4365   */\n      dup3\n        /* \"#utility.yul\":4319:4382   */\n      tag_165\n      jump\t// in\n    tag_164:\n        /* \"#utility.yul\":4230:4392   */\n      pop\n        /* \"#utility.yul\":4478:4482   */\n      0x20\n        /* \"#utility.yul\":4471:4476   */\n      dup4\n        /* \"#utility.yul\":4467:4483   */\n      add\n        /* \"#utility.yul\":4461:4484   */\n      mload\n        /* \"#utility.yul\":4531:4534   */\n      dup5\n        /* \"#utility.yul\":4525:4529   */\n      dup3\n        /* \"#utility.yul\":4521:4535   */\n      sub\n        /* \"#utility.yul\":4514:4518   */\n      0x20\n        /* \"#utility.yul\":4509:4512   */\n      dup7\n        /* \"#utility.yul\":4505:4519   */\n      add\n        /* \"#utility.yul\":4498:4536   */\n      mstore\n        /* \"#utility.yul\":4557:4630   */\n      tag_166\n        /* \"#utility.yul\":4625:4629   */\n      dup3\n        /* \"#utility.yul\":4611:4623   */\n      dup3\n        /* \"#utility.yul\":4557:4630   */\n      tag_153\n      jump\t// in\n    tag_166:\n        /* \"#utility.yul\":4549:4630   */\n      swap2\n      pop\n        /* \"#utility.yul\":4402:4641   */\n      pop\n        /* \"#utility.yul\":4730:4734   */\n      0x40\n        /* \"#utility.yul\":4723:4728   */\n      dup4\n        /* \"#utility.yul\":4719:4735   */\n      add\n        /* \"#utility.yul\":4713:4736   */\n      mload\n        /* \"#utility.yul\":4749:4806   */\n      tag_167\n        /* \"#utility.yul\":4800:4804   */\n      0x40\n        /* \"#utility.yul\":4795:4798   */\n      dup7\n        /* \"#utility.yul\":4791:4805   */\n      add\n        /* \"#utility.yul\":4777:4789   */\n      dup3\n        /* \"#utility.yul\":4749:4806   */\n      tag_149\n      jump\t// in\n    tag_167:\n        /* \"#utility.yul\":4651:4816   */\n      pop\n        /* \"#utility.yul\":4900:4904   */\n      0x60\n        /* \"#utility.yul\":4893:4898   */\n      dup4\n        /* \"#utility.yul\":4889:4905   */\n      add\n        /* \"#utility.yul\":4883:4906   */\n      mload\n        /* \"#utility.yul\":4919:4976   */\n      tag_168\n        /* \"#utility.yul\":4970:4974   */\n      0x60\n        /* \"#utility.yul\":4965:4968   */\n      dup7\n        /* \"#utility.yul\":4961:4975   */\n      add\n        /* \"#utility.yul\":4947:4959   */\n      dup3\n        /* \"#utility.yul\":4919:4976   */\n      tag_149\n      jump\t// in\n    tag_168:\n        /* \"#utility.yul\":4826:4986   */\n      pop\n        /* \"#utility.yul\":5073:5077   */\n      0x80\n        /* \"#utility.yul\":5066:5071   */\n      dup4\n        /* \"#utility.yul\":5062:5078   */\n      add\n        /* \"#utility.yul\":5056:5079   */\n      mload\n        /* \"#utility.yul\":5092:5149   */\n      tag_169\n        /* \"#utility.yul\":5143:5147   */\n      0x80\n        /* \"#utility.yul\":5138:5141   */\n      dup7\n        /* \"#utility.yul\":5134:5148   */\n      add\n        /* \"#utility.yul\":5120:5132   */\n      dup3\n        /* \"#utility.yul\":5092:5149   */\n      tag_149\n      jump\t// in\n    tag_169:\n        /* \"#utility.yul\":4996:5159   */\n      pop\n        /* \"#utility.yul\":5176:5180   */\n      dup1\n        /* \"#utility.yul\":5169:5180   */\n      swap2\n      pop\n        /* \"#utility.yul\":4184:5186   */\n      pop\n        /* \"#utility.yul\":4080:5186   */\n      swap3\n      swap2\n      pop\n      pop\n      jump\t// out\n        /* \"#utility.yul\":5192:5300   */\n    tag_165:\n        /* \"#utility.yul\":5269:5293   */\n      tag_171\n        /* \"#utility.yul\":5287:5292   */\n      dup2\n        /* \"#utility.yul\":5269:5293   */\n      tag_172\n      jump\t// in\n    tag_171:\n        /* \"#utility.yul\":5264:5267   */\n      dup3\n        /* \"#utility.yul\":5257:5294   */\n      mstore\n        /* \"#utility.yul\":5192:5300   */\n      pop\n      pop\n      jump\t// out\n        /* \"#utility.yul\":5306:5424   */\n    tag_173:\n        /* \"#utility.yul\":5393:5417   */\n      tag_175\n        /* \"#utility.yul\":5411:5416   */\n      dup2\n        /* \"#utility.yul\":5393:5417   */\n      tag_172\n      jump\t// in\n    tag_175:\n        /* \"#utility.yul\":5388:5391   */\n      dup3\n        /* \"#utility.yul\":5381:5418   */\n      mstore\n        /* \"#utility.yul\":5306:5424   */\n      pop\n      pop\n      jump\t// out\n        /* \"#utility.yul\":5430:5762   */\n    tag_27:\n        /* \"#utility.yul\":5551:5555   */\n      0x00\n        /* \"#utility.yul\":5589:5591   */\n      0x40\n        /* \"#utility.yul\":5578:5587   */\n      dup3\n        /* \"#utility.yul\":5574:5592   */\n      add\n        /* \"#utility.yul\":5566:5592   */\n      swap1\n      pop\n        /* \"#utility.yul\":5602:5673   */\n      tag_177\n        /* \"#utility.yul\":5670:5671   */\n      0x00\n        /* \"#utility.yul\":5659:5668   */\n      dup4\n        /* \"#utility.yul\":5655:5672   */\n      add\n        /* \"#utility.yul\":5646:5652   */\n      dup6\n        /* \"#utility.yul\":5602:5673   */\n      tag_131\n      jump\t// in\n    tag_177:\n        /* \"#utility.yul\":5683:5755   */\n      tag_178\n        /* \"#utility.yul\":5751:5753   */\n      0x20\n        /* \"#utility.yul\":5740:5749   */\n      dup4\n        /* \"#utility.yul\":5736:5754   */\n      add\n        /* \"#utility.yul\":5727:5733   */\n      dup5\n        /* \"#utility.yul\":5683:5755   */\n      tag_173\n      jump\t// in\n    tag_178:\n        /* \"#utility.yul\":5430:5762   */\n      swap4\n      swap3\n      pop\n      pop\n      pop\n      jump\t// out\n        /* \"#utility.yul\":5768:6221   */\n    tag_14:\n        /* \"#utility.yul\":5951:5955   */\n      0x00\n        /* \"#utility.yul\":5989:5991   */\n      0x20\n        /* \"#utility.yul\":5978:5987   */\n      dup3\n        /* \"#utility.yul\":5974:5992   */\n      add\n        /* \"#utility.yul\":5966:5992   */\n      swap1\n      pop\n        /* \"#utility.yul\":6038:6047   */\n      dup2\n        /* \"#utility.yul\":6032:6036   */\n      dup2\n        /* \"#utility.yul\":6028:6048   */\n      sub\n        /* \"#utility.yul\":6024:6025   */\n      0x00\n        /* \"#utility.yul\":6013:6022   */\n      dup4\n        /* \"#utility.yul\":6009:6026   */\n      add\n        /* \"#utility.yul\":6002:6049   */\n      mstore\n        /* \"#utility.yul\":6066:6214   */\n      tag_180\n        /* \"#utility.yul\":6209:6213   */\n      dup2\n        /* \"#utility.yul\":6200:6206   */\n      dup5\n        /* \"#utility.yul\":6066:6214   */\n      tag_135\n      jump\t// in\n    tag_180:\n        /* \"#utility.yul\":6058:6214   */\n      swap1\n      pop\n        /* \"#utility.yul\":5768:6221   */\n      swap3\n      swap2\n      pop\n      pop\n      jump\t// out\n        /* \"#utility.yul\":6227:6356   */\n    tag_94:\n        /* \"#utility.yul\":6261:6267   */\n      0x00\n        /* \"#utility.yul\":6288:6308   */\n      tag_182\n      tag_183\n      jump\t// in\n    tag_182:\n        /* \"#utility.yul\":6278:6308   */\n      swap1\n      pop\n        /* \"#utility.yul\":6317:6350   */\n      tag_184\n        /* \"#utility.yul\":6345:6349   */\n      dup3\n        /* \"#utility.yul\":6337:6343   */\n      dup3\n        /* \"#utility.yul\":6317:6350   */\n      tag_185\n      jump\t// in\n    tag_184:\n        /* \"#utility.yul\":6227:6356   */\n      swap2\n      swap1\n      pop\n      jump\t// out\n        /* \"#utility.yul\":6362:6437   */\n    tag_183:\n        /* \"#utility.yul\":6395:6401   */\n      0x00\n        /* \"#utility.yul\":6428:6430   */\n      0x40\n        /* \"#utility.yul\":6422:6431   */\n      mload\n        /* \"#utility.yul\":6412:6431   */\n      swap1\n      pop\n        /* \"#utility.yul\":6362:6437   */\n      swap1\n      jump\t// out\n        /* \"#utility.yul\":6443:6751   */\n    tag_93:\n        /* \"#utility.yul\":6505:6509   */\n      0x00\n        /* \"#utility.yul\":6595:6613   */\n      0xffffffffffffffff\n        /* \"#utility.yul\":6587:6593   */\n      dup3\n        /* \"#utility.yul\":6584:6614   */\n      gt\n        /* \"#utility.yul\":6581:6637   */\n      iszero\n      tag_188\n      jumpi\n        /* \"#utility.yul\":6617:6635   */\n      tag_189\n      tag_31\n      jump\t// in\n    tag_189:\n        /* \"#utility.yul\":6581:6637   */\n    tag_188:\n        /* \"#utility.yul\":6655:6684   */\n      tag_190\n        /* \"#utility.yul\":6677:6683   */\n      dup3\n        /* \"#utility.yul\":6655:6684   */\n      tag_162\n      jump\t// in\n    tag_190:\n        /* \"#utility.yul\":6647:6684   */\n      swap1\n      pop\n        /* \"#utility.yul\":6739:6743   */\n      0x20\n        /* \"#utility.yul\":6733:6737   */\n      dup2\n        /* \"#utility.yul\":6729:6744   */\n      add\n        /* \"#utility.yul\":6721:6744   */\n      swap1\n      pop\n        /* \"#utility.yul\":6443:6751   */\n      swap2\n      swap1\n      pop\n      jump\t// out\n        /* \"#utility.yul\":6757:6909   */\n    tag_142:\n        /* \"#utility.yul\":6844:6848   */\n      0x00\n        /* \"#utility.yul\":6867:6870   */\n      dup2\n        /* \"#utility.yul\":6859:6870   */\n      swap1\n      pop\n        /* \"#utility.yul\":6897:6901   */\n      0x20\n        /* \"#utility.yul\":6892:6895   */\n      dup3\n        /* \"#utility.yul\":6888:6902   */\n      add\n        /* \"#utility.yul\":6880:6902   */\n      swap1\n      pop\n        /* \"#utility.yul\":6757:6909   */\n      swap2\n      swap1\n      pop\n      jump\t// out\n        /* \"#utility.yul\":6915:7049   */\n    tag_138:\n        /* \"#utility.yul\":7002:7008   */\n      0x00\n        /* \"#utility.yul\":7036:7041   */\n      dup2\n        /* \"#utility.yul\":7030:7042   */\n      mload\n        /* \"#utility.yul\":7020:7042   */\n      swap1\n      pop\n        /* \"#utility.yul\":6915:7049   */\n      swap2\n      swap1\n      pop\n      jump\t// out\n        /* \"#utility.yul\":7055:7154   */\n    tag_156:\n        /* \"#utility.yul\":7107:7113   */\n      0x00\n        /* \"#utility.yul\":7141:7146   */\n      dup2\n        /* \"#utility.yul\":7135:7147   */\n      mload\n        /* \"#utility.yul\":7125:7147   */\n      swap1\n      pop\n        /* \"#utility.yul\":7055:7154   */\n      swap2\n      swap1\n      pop\n      jump\t// out\n        /* \"#utility.yul\":7160:7293   */\n    tag_148:\n        /* \"#utility.yul\":7250:7254   */\n      0x00\n        /* \"#utility.yul\":7282:7286   */\n      0x20\n        /* \"#utility.yul\":7277:7280   */\n      dup3\n        /* \"#utility.yul\":7273:7287   */\n      add\n        /* \"#utility.yul\":7265:7287   */\n      swap1\n      pop\n        /* \"#utility.yul\":7160:7293   */\n      swap2\n      swap1\n      pop\n      jump\t// out\n        /* \"#utility.yul\":7299:7503   */\n    tag_140:\n        /* \"#utility.yul\":7418:7429   */\n      0x00\n        /* \"#utility.yul\":7452:7458   */\n      dup3\n        /* \"#utility.yul\":7447:7450   */\n      dup3\n        /* \"#utility.yul\":7440:7459   */\n      mstore\n        /* \"#utility.yul\":7492:7496   */\n      0x20\n        /* \"#utility.yul\":7487:7490   */\n      dup3\n        /* \"#utility.yul\":7483:7497   */\n      add\n        /* \"#utility.yul\":7468:7497   */\n      swap1\n      pop\n        /* \"#utility.yul\":7299:7503   */\n      swap3\n      swap2\n      pop\n      pop\n      jump\t// out\n        /* \"#utility.yul\":7509:7668   */\n    tag_158:\n        /* \"#utility.yul\":7583:7594   */\n      0x00\n        /* \"#utility.yul\":7617:7623   */\n      dup3\n        /* \"#utility.yul\":7612:7615   */\n      dup3\n        /* \"#utility.yul\":7605:7624   */\n      mstore\n        /* \"#utility.yul\":7657:7661   */\n      0x20\n        /* \"#utility.yul\":7652:7655   */\n      dup3\n        /* \"#utility.yul\":7648:7662   */\n      add\n        /* \"#utility.yul\":7633:7662   */\n      swap1\n      pop\n        /* \"#utility.yul\":7509:7668   */\n      swap3\n      swap2\n      pop\n      pop\n      jump\t// out\n        /* \"#utility.yul\":7674:7770   */\n    tag_134:\n        /* \"#utility.yul\":7711:7718   */\n      0x00\n        /* \"#utility.yul\":7740:7764   */\n      tag_198\n        /* \"#utility.yul\":7758:7763   */\n      dup3\n        /* \"#utility.yul\":7740:7764   */\n      tag_199\n      jump\t// in\n    tag_198:\n        /* \"#utility.yul\":7729:7764   */\n      swap1\n      pop\n        /* \"#utility.yul\":7674:7770   */\n      swap2\n      swap1\n      pop\n      jump\t// out\n        /* \"#utility.yul\":7776:7866   */\n    tag_152:\n        /* \"#utility.yul\":7810:7817   */\n      0x00\n        /* \"#utility.yul\":7853:7858   */\n      dup2\n        /* \"#utility.yul\":7846:7859   */\n      iszero\n        /* \"#utility.yul\":7839:7860   */\n      iszero\n        /* \"#utility.yul\":7828:7860   */\n      swap1\n      pop\n        /* \"#utility.yul\":7776:7866   */\n      swap2\n      swap1\n      pop\n      jump\t// out\n        /* \"#utility.yul\":7872:7998   */\n    tag_199:\n        /* \"#utility.yul\":7909:7916   */\n      0x00\n        /* \"#utility.yul\":7949:7991   */\n      0xffffffffffffffffffffffffffffffffffffffff\n        /* \"#utility.yul\":7942:7947   */\n      dup3\n        /* \"#utility.yul\":7938:7992   */\n      and\n        /* \"#utility.yul\":7927:7992   */\n      swap1\n      pop\n        /* \"#utility.yul\":7872:7998   */\n      swap2\n      swap1\n      pop\n      jump\t// out\n        /* \"#utility.yul\":8004:8081   */\n    tag_172:\n        /* \"#utility.yul\":8041:8048   */\n      0x00\n        /* \"#utility.yul\":8070:8075   */\n      dup2\n        /* \"#utility.yul\":8059:8075   */\n      swap1\n      pop\n        /* \"#utility.yul\":8004:8081   */\n      swap2\n      swap1\n      pop\n      jump\t// out\n        /* \"#utility.yul\":8087:8241   */\n    tag_99:\n        /* \"#utility.yul\":8171:8177   */\n      dup3\n        /* \"#utility.yul\":8166:8169   */\n      dup2\n        /* \"#utility.yul\":8161:8164   */\n      dup4\n        /* \"#utility.yul\":8148:8178   */\n      calldatacopy\n        /* \"#utility.yul\":8233:8234   */\n      0x00\n        /* \"#utility.yul\":8224:8230   */\n      dup4\n        /* \"#utility.yul\":8219:8222   */\n      dup4\n        /* \"#utility.yul\":8215:8231   */\n      add\n        /* \"#utility.yul\":8208:8235   */\n      mstore\n        /* \"#utility.yul\":8087:8241   */\n      pop\n      pop\n      pop\n      jump\t// out\n        /* \"#utility.yul\":8247:8554   */\n    tag_160:\n        /* \"#utility.yul\":8315:8316   */\n      0x00\n        /* \"#utility.yul\":8325:8438   */\n    tag_205:\n        /* \"#utility.yul\":8339:8345   */\n      dup4\n        /* \"#utility.yul\":8336:8337   */\n      dup2\n        /* \"#utility.yul\":8333:8346   */\n      lt\n        /* \"#utility.yul\":8325:8438   */\n      iszero\n      tag_207\n      jumpi\n        /* \"#utility.yul\":8424:8425   */\n      dup1\n        /* \"#utility.yul\":8419:8422   */\n      dup3\n        /* \"#utility.yul\":8415:8426   */\n      add\n        /* \"#utility.yul\":8409:8427   */\n      mload\n        /* \"#utility.yul\":8405:8406   */\n      dup2\n        /* \"#utility.yul\":8400:8403   */\n      dup5\n        /* \"#utility.yul\":8396:8407   */\n      add\n        /* \"#utility.yul\":8389:8428   */\n      mstore\n        /* \"#utility.yul\":8361:8363   */\n      0x20\n        /* \"#utility.yul\":8358:8359   */\n      dup2\n        /* \"#utility.yul\":8354:8364   */\n      add\n        /* \"#utility.yul\":8349:8364   */\n      swap1\n      pop\n        /* \"#utility.yul\":8325:8438   */\n      jump(tag_205)\n    tag_207:\n        /* \"#utility.yul\":8456:8462   */\n      dup4\n        /* \"#utility.yul\":8453:8454   */\n      dup2\n        /* \"#utility.yul\":8450:8463   */\n      gt\n        /* \"#utility.yul\":8447:8548   */\n      iszero\n      tag_208\n      jumpi\n        /* \"#utility.yul\":8536:8537   */\n      0x00\n        /* \"#utility.yul\":8527:8533   */\n      dup5\n        /* \"#utility.yul\":8522:8525   */\n      dup5\n        /* \"#utility.yul\":8518:8534   */\n      add\n        /* \"#utility.yul\":8511:8538   */\n      mstore\n        /* \"#utility.yul\":8447:8548   */\n    tag_208:\n        /* \"#utility.yul\":8296:8554   */\n      pop\n        /* \"#utility.yul\":8247:8554   */\n      pop\n      pop\n      pop\n      jump\t// out\n        /* \"#utility.yul\":8560:8880   */\n    tag_49:\n        /* \"#utility.yul\":8604:8610   */\n      0x00\n        /* \"#utility.yul\":8641:8642   */\n      0x02\n        /* \"#utility.yul\":8635:8639   */\n      dup3\n        /* \"#utility.yul\":8631:8643   */\n      div\n        /* \"#utility.yul\":8621:8643   */\n      swap1\n      pop\n        /* \"#utility.yul\":8688:8689   */\n      0x01\n        /* \"#utility.yul\":8682:8686   */\n      dup3\n        /* \"#utility.yul\":8678:8690   */\n      and\n        /* \"#utility.yul\":8709:8727   */\n      dup1\n        /* \"#utility.yul\":8699:8780   */\n      tag_210\n      jumpi\n        /* \"#utility.yul\":8765:8769   */\n      0x7f\n        /* \"#utility.yul\":8757:8763   */\n      dup3\n        /* \"#utility.yul\":8753:8770   */\n      and\n        /* \"#utility.yul\":8743:8770   */\n      swap2\n      pop\n        /* \"#utility.yul\":8699:8780   */\n    tag_210:\n        /* \"#utility.yul\":8827:8829   */\n      0x20\n        /* \"#utility.yul\":8819:8825   */\n      dup3\n        /* \"#utility.yul\":8816:8830   */\n      lt\n        /* \"#utility.yul\":8796:8814   */\n      dup2\n        /* \"#utility.yul\":8793:8831   */\n      eq\n        /* \"#utility.yul\":8790:8874   */\n      iszero\n      tag_211\n      jumpi\n        /* \"#utility.yul\":8846:8864   */\n      tag_212\n      tag_213\n      jump\t// in\n    tag_212:\n        /* \"#utility.yul\":8790:8874   */\n    tag_211:\n        /* \"#utility.yul\":8611:8880   */\n      pop\n        /* \"#utility.yul\":8560:8880   */\n      swap2\n      swap1\n      pop\n      jump\t// out\n        /* \"#utility.yul\":8886:9167   */\n    tag_185:\n        /* \"#utility.yul\":8969:8996   */\n      tag_215\n        /* \"#utility.yul\":8991:8995   */\n      dup3\n        /* \"#utility.yul\":8969:8996   */\n      tag_162\n      jump\t// in\n    tag_215:\n        /* \"#utility.yul\":8961:8967   */\n      dup2\n        /* \"#utility.yul\":8957:8997   */\n      add\n        /* \"#utility.yul\":9099:9105   */\n      dup2\n        /* \"#utility.yul\":9087:9097   */\n      dup2\n        /* \"#utility.yul\":9084:9106   */\n      lt\n        /* \"#utility.yul\":9063:9081   */\n      0xffffffffffffffff\n        /* \"#utility.yul\":9051:9061   */\n      dup3\n        /* \"#utility.yul\":9048:9082   */\n      gt\n        /* \"#utility.yul\":9045:9107   */\n      or\n        /* \"#utility.yul\":9042:9130   */\n      iszero\n      tag_216\n      jumpi\n        /* \"#utility.yul\":9110:9128   */\n      tag_217\n      tag_31\n      jump\t// in\n    tag_217:\n        /* \"#utility.yul\":9042:9130   */\n    tag_216:\n        /* \"#utility.yul\":9150:9160   */\n      dup1\n        /* \"#utility.yul\":9146:9148   */\n      0x40\n        /* \"#utility.yul\":9139:9161   */\n      mstore\n        /* \"#utility.yul\":8929:9167   */\n      pop\n        /* \"#utility.yul\":8886:9167   */\n      pop\n      pop\n      jump\t// out\n        /* \"#utility.yul\":9173:9406   */\n    tag_57:\n        /* \"#utility.yul\":9212:9215   */\n      0x00\n        /* \"#utility.yul\":9235:9259   */\n      tag_219\n        /* \"#utility.yul\":9253:9258   */\n      dup3\n        /* \"#utility.yul\":9235:9259   */\n      tag_172\n      jump\t// in\n    tag_219:\n        /* \"#utility.yul\":9226:9259   */\n      swap2\n      pop\n        /* \"#utility.yul\":9281:9347   */\n      0xffffffffffffffffffffffffffffffffffffffffffffffffffffffffffffffff\n        /* \"#utility.yul\":9274:9279   */\n      dup3\n        /* \"#utility.yul\":9271:9348   */\n      eq\n        /* \"#utility.yul\":9268:9371   */\n      iszero\n      tag_220\n      jumpi\n        /* \"#utility.yul\":9351:9369   */\n      tag_221\n      tag_222\n      jump\t// in\n    tag_221:\n        /* \"#utility.yul\":9268:9371   */\n    tag_220:\n        /* \"#utility.yul\":9398:9399   */\n      0x01\n        /* \"#utility.yul\":9391:9396   */\n      dup3\n        /* \"#utility.yul\":9387:9400   */\n      add\n        /* \"#utility.yul\":9380:9400   */\n      swap1\n      pop\n        /* \"#utility.yul\":9173:9406   */\n      swap2\n      swap1\n      pop\n      jump\t// out\n        /* \"#utility.yul\":9412:9592   */\n    tag_222:\n        /* \"#utility.yul\":9460:9537   */\n      0x4e487b7100000000000000000000000000000000000000000000000000000000\n        /* \"#utility.yul\":9457:9458   */\n      0x00\n        /* \"#utility.yul\":9450:9538   */\n      mstore\n        /* \"#utility.yul\":9557:9561   */\n      0x11\n        /* \"#utility.yul\":9554:9555   */\n      0x04\n        /* \"#utility.yul\":9547:9562   */\n      mstore\n        /* \"#utility.yul\":9581:9585   */\n      0x24\n        /* \"#utility.yul\":9578:9579   */\n      0x00\n        /* \"#utility.yul\":9571:9586   */\n      revert\n        /* \"#utility.yul\":9598:9778   */\n    tag_213:\n        /* \"#utility.yul\":9646:9723   */\n      0x4e487b7100000000000000000000000000000000000000000000000000000000\n        /* \"#utility.yul\":9643:9644   */\n      0x00\n        /* \"#utility.yul\":9636:9724   */\n      mstore\n        /* \"#utility.yul\":9743:9747   */\n      0x22\n        /* \"#utility.yul\":9740:9741   */\n      0x04\n        /* \"#utility.yul\":9733:9748   */\n      mstore\n        /* \"#utility.yul\":9767:9771   */\n      0x24\n        /* \"#utility.yul\":9764:9765   */\n      0x00\n        /* \"#utility.yul\":9757:9772   */\n      revert\n        /* \"#utility.yul\":9784:9964   */\n    tag_42:\n        /* \"#utility.yul\":9832:9909   */\n      0x4e487b7100000000000000000000000000000000000000000000000000000000\n        /* \"#utility.yul\":9829:9830   */\n      0x00\n        /* \"#utility.yul\":9822:9910   */\n      mstore\n        /* \"#utility.yul\":9929:9933   */\n      0x32\n        /* \"#utility.yul\":9926:9927   */\n      0x04\n        /* \"#utility.yul\":9919:9934   */\n      mstore\n        /* \"#utility.yul\":9953:9957   */\n      0x24\n        /* \"#utility.yul\":9950:9951   */\n      0x00\n        /* \"#utility.yul\":9943:9958   */\n      revert\n        /* \"#utility.yul\":9970:10150   */\n    tag_31:\n        /* \"#utility.yul\":10018:10095   */\n      0x4e487b7100000000000000000000000000000000000000000000000000000000\n        /* \"#utility.yul\":10015:10016   */\n      0x00\n        /* \"#utility.yul\":10008:10096   */\n      mstore\n        /* \"#utility.yul\":10115:10119   */\n      0x41\n        /* \"#utility.yul\":10112:10113   */\n      0x04\n        /* \"#utility.yul\":10105:10120   */\n      mstore\n        /* \"#utility.yul\":10139:10143   */\n      0x24\n        /* \"#utility.yul\":10136:10137   */\n      0x00\n        /* \"#utility.yul\":10129:10144   */\n      revert\n        /* \"#utility.yul\":10156:10273   */\n    tag_108:\n        /* \"#utility.yul\":10265:10266   */\n      0x00\n        /* \"#utility.yul\":10262:10263   */\n      dup1\n        /* \"#utility.yul\":10255:10267   */\n      revert\n        /* \"#utility.yul\":10279:10396   */\n    tag_97:\n        /* \"#utility.yul\":10388:10389   */\n      0x00\n        /* \"#utility.yul\":10385:10386   */\n      dup1\n        /* \"#utility.yul\":10378:10390   */\n      revert\n        /* \"#utility.yul\":10402:10519   */\n    tag_120:\n        /* \"#utility.yul\":10511:10512   */\n      0x00\n        /* \"#utility.yul\":10508:10509   */\n      dup1\n        /* \"#utility.yul\":10501:10513   */\n      revert\n        /* \"#utility.yul\":10525:10642   */\n    tag_117:\n        /* \"#utility.yul\":10634:10635   */\n      0x00\n        /* \"#utility.yul\":10631:10632   */\n      dup1\n        /* \"#utility.yul\":10624:10636   */\n      revert\n        /* \"#utility.yul\":10648:10750   */\n    tag_162:\n        /* \"#utility.yul\":10689:10695   */\n      0x00\n        /* \"#utility.yul\":10740:10742   */\n      0x1f\n        /* \"#utility.yul\":10736:10743   */\n      not\n        /* \"#utility.yul\":10731:10733   */\n      0x1f\n        /* \"#utility.yul\":10724:10729   */\n      dup4\n        /* \"#utility.yul\":10720:10734   */\n      add\n        /* \"#utility.yul\":10716:10744   */\n      and\n        /* \"#utility.yul\":10706:10744   */\n      swap1\n      pop\n        /* \"#utility.yul\":10648:10750   */\n      swap2\n      swap1\n      pop\n      jump\t// out\n        /* \"#utility.yul\":10756:10872   */\n    tag_103:\n        /* \"#utility.yul\":10826:10847   */\n      tag_233\n        /* \"#utility.yul\":10841:10846   */\n      dup2\n        /* \"#utility.yul\":10826:10847   */\n      tag_152\n      jump\t// in\n    tag_233:\n        /* \"#utility.yul\":10819:10824   */\n      dup2\n        /* \"#utility.yul\":10816:10848   */\n      eq\n        /* \"#utility.yul\":10806:10866   */\n      tag_234\n      jumpi\n        /* \"#utility.yul\":10862:10863   */\n      0x00\n        /* \"#utility.yul\":10859:10860   */\n      dup1\n        /* \"#utility.yul\":10852:10864   */\n      revert\n        /* \"#utility.yul\":10806:10866   */\n    tag_234:\n        /* \"#utility.yul\":10756:10872   */\n      pop\n      jump\t// out\n        /* \"#utility.yul\":10878:11000   */\n    tag_113:\n        /* \"#utility.yul\":10951:10975   */\n      tag_236\n        /* \"#utility.yul\":10969:10974   */\n      dup2\n        /* \"#utility.yul\":10951:10975   */\n      tag_172\n      jump\t// in\n    tag_236:\n        /* \"#utility.yul\":10944:10949   */\n      dup2\n        /* \"#utility.yul\":10941:10976   */\n      eq\n        /* \"#utility.yul\":10931:10994   */\n      tag_237\n      jumpi\n        /* \"#utility.yul\":10990:10991   */\n      0x00\n        /* \"#utility.yul\":10987:10988   */\n      dup1\n        /* \"#utility.yul\":10980:10992   */\n      revert\n        /* \"#utility.yul\":10931:10994   */\n    tag_237:\n        /* \"#utility.yul\":10878:11000   */\n      pop\n      jump\t// out\n\n    auxdata: 0xa26469706673582212208b39849fc49c7f065a683c8821187932c7c200ea480f435588f9e0710920f00664736f6c63430008070033\n}\n",
				"bytecode": {
					"linkReferences": {},
					"object": "608060405234801561001057600080fd5b50610cf8806100206000396000f3fe608060405234801561001057600080fd5b506004361061004c5760003560e01c806367238562146100515780636e13f8181461006d578063943a1a0a1461008b578063aaba2907146100a7575b600080fd5b61006b6004803603810190610066919061078a565b6100c3565b005b61007561023f565b60405161008291906109b0565b60405180910390f35b6100a560048036038101906100a091906107d3565b61056b565b005b6100c160048036038101906100bc91906107d3565b610614565b005b60008080549050905060006040518060a0016040528083815260200184815260200160001515815260200160001515815260200160001515815250908060018154018082558091505060019003906000526020600020906003020160009091909190915060008201518160000155602082015181600101908051906020019061014d929190610618565b5060408201518160020160006101000a81548160ff02191690831515021790555060608201518160020160016101000a81548160ff02191690831515021790555060808201518160020160026101000a81548160ff0219169083151502179055505050336001600083815260200190815260200160002060006101000a81548173ffffffffffffffffffffffffffffffffffffffff021916908373ffffffffffffffffffffffffffffffffffffffff1602179055507f1f54e1ba1832d428fbd7e7792beaf62b1fc5a382c207ffd614209c1413e94fda3382604051610233929190610987565b60405180910390a15050565b60606000808054905067ffffffffffffffff81111561026157610260610c40565b5b60405190808252806020026020018201604052801561029a57816020015b61028761069e565b81526020019060019003908161027f5790505b5090506000805b6000805490508110156104b1573373ffffffffffffffffffffffffffffffffffffffff166001600083815260200190815260200160002060009054906101000a900473ffffffffffffffffffffffffffffffffffffffff1673ffffffffffffffffffffffffffffffffffffffff161480156103525750600015156000828154811061032f5761032e610c11565b5b906000526020600020906003020160020160019054906101000a900460ff161515145b1561049e576000818154811061036b5761036a610c11565b5b90600052602060002090600302016040518060a00160405290816000820154815260200160018201805461039e90610b07565b80601f01602080910402602001604051908101604052809291908181526020018280546103ca90610b07565b80156104175780601f106103ec57610100808354040283529160200191610417565b820191906000526020600020905b8154815290600101906020018083116103fa57829003601f168201915b505050505081526020016002820160009054906101000a900460ff161515151581526020016002820160019054906101000a900460ff161515151581526020016002820160029054906101000a900460ff16151515158152505083838151811061048457610483610c11565b5b6020026020010181905250818061049a90610b6a565b9250505b80806104a990610b6a565b9150506102a1565b5060008167ffffffffffffffff8111156104ce576104cd610c40565b5b60405190808252806020026020018201604052801561050757816020015b6104f461069e565b8152602001906001900390816104ec5790505b50905060005b828110156105615783818151811061052857610527610c11565b5b602002602001015182828151811061054357610542610c11565b5b6020026020010181905250808061055990610b6a565b91505061050d565b5080935050505090565b3373ffffffffffffffffffffffffffffffffffffffff166001600084815260200190815260200160002060009054906101000a900473ffffffffffffffffffffffffffffffffffffffff1673ffffffffffffffffffffffffffffffffffffffff1614156106105780600083815481106105e7576105e6610c11565b5b906000526020600020906003020160020160016101000a81548160ff0219169083151502179055505b5050565b5050565b82805461062490610b07565b90600052602060002090601f016020900481019282610646576000855561068d565b82601f1061065f57805160ff191683800117855561068d565b8280016001018555821561068d579182015b8281111561068c578251825591602001919060010190610671565b5b50905061069a91906106d3565b5090565b6040518060a0016040528060008152602001606081526020016000151581526020016000151581526020016000151581525090565b5b808211156106ec5760008160009055506001016106d4565b5090565b60006107036106fe846109f7565b6109d2565b90508281526020810184848401111561071f5761071e610c74565b5b61072a848285610ac5565b509392505050565b60008135905061074181610c94565b92915050565b600082601f83011261075c5761075b610c6f565b5b813561076c8482602086016106f0565b91505092915050565b60008135905061078481610cab565b92915050565b6000602082840312156107a05761079f610c7e565b5b600082013567ffffffffffffffff8111156107be576107bd610c79565b5b6107ca84828501610747565b91505092915050565b600080604083850312156107ea576107e9610c7e565b5b60006107f885828601610775565b925050602061080985828601610732565b9150509250929050565b600061081f83836108f3565b905092915050565b61083081610a7d565b82525050565b600061084182610a38565b61084b8185610a5b565b93508360208202850161085d85610a28565b8060005b85811015610899578484038952815161087a8582610813565b945061088583610a4e565b925060208a01995050600181019050610861565b50829750879550505050505092915050565b6108b481610a8f565b82525050565b60006108c582610a43565b6108cf8185610a6c565b93506108df818560208601610ad4565b6108e881610c83565b840191505092915050565b600060a08301600083015161090b6000860182610969565b506020830151848203602086015261092382826108ba565b915050604083015161093860408601826108ab565b50606083015161094b60608601826108ab565b50608083015161095e60808601826108ab565b508091505092915050565b61097281610abb565b82525050565b61098181610abb565b82525050565b600060408201905061099c6000830185610827565b6109a96020830184610978565b9392505050565b600060208201905081810360008301526109ca8184610836565b905092915050565b60006109dc6109ed565b90506109e88282610b39565b919050565b6000604051905090565b600067ffffffffffffffff821115610a1257610a11610c40565b5b610a1b82610c83565b9050602081019050919050565b6000819050602082019050919050565b600081519050919050565b600081519050919050565b6000602082019050919050565b600082825260208201905092915050565b600082825260208201905092915050565b6000610a8882610a9b565b9050919050565b60008115159050919050565b600073ffffffffffffffffffffffffffffffffffffffff82169050919050565b6000819050919050565b82818337600083830152505050565b60005b83811015610af2578082015181840152602081019050610ad7565b83811115610b01576000848401525b50505050565b60006002820490506001821680610b1f57607f821691505b60208210811415610b3357610b32610be2565b5b50919050565b610b4282610c83565b810181811067ffffffffffffffff82111715610b6157610b60610c40565b5b80604052505050565b6000610b7582610abb565b91507fffffffffffffffffffffffffffffffffffffffffffffffffffffffffffffffff821415610ba857610ba7610bb3565b5b600182019050919050565b7f4e487b7100000000000000000000000000000000000000000000000000000000600052601160045260246000fd5b7f4e487b7100000000000000000000000000000000000000000000000000000000600052602260045260246000fd5b7f4e487b7100000000000000000000000000000000000000000000000000000000600052603260045260246000fd5b7f4e487b7100000000000000000000000000000000000000000000000000000000600052604160045260246000fd5b600080fd5b600080fd5b600080fd5b600080fd5b6000601f19601f8301169050919050565b610c9d81610a8f565b8114610ca857600080fd5b50565b610cb481610abb565b8114610cbf57600080fd5b5056fea26469706673582212208b39849fc49c7f065a683c8821187932c7c200ea480f435588f9e0710920f00664736f6c63430008070033",
					"opcodes": "PUSH1 0x80 PUSH1 0x40 MSTORE CALLVALUE DUP1 ISZERO PUSH2 0x10 JUMPI PUSH1 0x0 DUP1 REVERT JUMPDEST POP PUSH2 0xCF8 DUP1 PUSH2 0x20 PUSH1 0x0 CODECOPY PUSH1 0x0 RETURN INVALID PUSH1 0x80 PUSH1 0x40 MSTORE CALLVALUE DUP1 ISZERO PUSH2 0x10 JUMPI PUSH1 0x0 DUP1 REVERT JUMPDEST POP PUSH1 0x4 CALLDATASIZE LT PUSH2 0x4C JUMPI PUSH1 0x0 CALLDATALOAD PUSH1 0xE0 SHR DUP1 PUSH4 0x67238562 EQ PUSH2 0x51 JUMPI DUP1 PUSH4 0x6E13F818 EQ PUSH2 0x6D JUMPI DUP1 PUSH4 0x943A1A0A EQ PUSH2 0x8B JUMPI DUP1 PUSH4 0xAABA2907 EQ PUSH2 0xA7 JUMPI JUMPDEST PUSH1 0x0 DUP1 REVERT JUMPDEST PUSH2 0x6B PUSH1 0x4 DUP1 CALLDATASIZE SUB DUP2 ADD SWAP1 PUSH2 0x66 SWAP2 SWAP1 PUSH2 0x78A JUMP JUMPDEST PUSH2 0xC3 JUMP JUMPDEST STOP JUMPDEST PUSH2 0x75 PUSH2 0x23F JUMP JUMPDEST PUSH1 0x40 MLOAD PUSH2 0x82 SWAP2 SWAP1 PUSH2 0x9B0 JUMP JUMPDEST PUSH1 0x40 MLOAD DUP1 SWAP2 SUB SWAP1 RETURN JUMPDEST PUSH2 0xA5 PUSH1 0x4 DUP1 CALLDATASIZE SUB DUP2 ADD SWAP1 PUSH2 0xA0 SWAP2 SWAP1 PUSH2 0x7D3 JUMP JUMPDEST PUSH2 0x56B JUMP JUMPDEST STOP JUMPDEST PUSH2 0xC1 PUSH1 0x4 DUP1 CALLDATASIZE SUB DUP2 ADD SWAP1 PUSH2 0xBC SWAP2 SWAP1 PUSH2 0x7D3 JUMP JUMPDEST PUSH2 0x614 JUMP JUMPDEST STOP JUMPDEST PUSH1 0x0 DUP1 DUP1 SLOAD SWAP1 POP SWAP1 POP PUSH1 0x0 PUSH1 0x40 MLOAD DUP1 PUSH1 0xA0 ADD PUSH1 0x40 MSTORE DUP1 DUP4 DUP2 MSTORE PUSH1 0x20 ADD DUP5 DUP2 MSTORE PUSH1 0x20 ADD PUSH1 0x0 ISZERO ISZERO DUP2 MSTORE PUSH1 0x20 ADD PUSH1 0x0 ISZERO ISZERO DUP2 MSTORE PUSH1 0x20 ADD PUSH1 0x0 ISZERO ISZERO DUP2 MSTORE POP SWAP1 DUP1 PUSH1 0x1 DUP2 SLOAD ADD DUP1 DUP3 SSTORE DUP1 SWAP2 POP POP PUSH1 0x1 SWAP1 SUB SWAP1 PUSH1 0x0 MSTORE PUSH1 0x20 PUSH1 0x0 KECCAK256 SWAP1 PUSH1 0x3 MUL ADD PUSH1 0x0 SWAP1 SWAP2 SWAP1 SWAP2 SWAP1 SWAP2 POP PUSH1 0x0 DUP3 ADD MLOAD DUP2 PUSH1 0x0 ADD SSTORE PUSH1 0x20 DUP3 ADD MLOAD DUP2 PUSH1 0x1 ADD SWAP1 DUP1 MLOAD SWAP1 PUSH1 0x20 ADD SWAP1 PUSH2 0x14D SWAP3 SWAP2 SWAP1 PUSH2 0x618 JUMP JUMPDEST POP PUSH1 0x40 DUP3 ADD MLOAD DUP2 PUSH1 0x2 ADD PUSH1 0x0 PUSH2 0x100 EXP DUP2 SLOAD DUP2 PUSH1 0xFF MUL NOT AND SWAP1 DUP4 ISZERO ISZERO MUL OR SWAP1 SSTORE POP PUSH1 0x60 DUP3 ADD MLOAD DUP2 PUSH1 0x2 ADD PUSH1 0x1 PUSH2 0x100 EXP DUP2 SLOAD DUP2 PUSH1 0xFF MUL NOT AND SWAP1 DUP4 ISZERO ISZERO MUL OR SWAP1 SSTORE POP PUSH1 0x80 DUP3 ADD MLOAD DUP2 PUSH1 0x2 ADD PUSH1 0x2 PUSH2 0x100 EXP DUP2 SLOAD DUP2 PUSH1 0xFF MUL NOT AND SWAP1 DUP4 ISZERO ISZERO MUL OR SWAP1 SSTORE POP POP POP CALLER PUSH1 0x1 PUSH1 0x0 DUP4 DUP2 MSTORE PUSH1 0x20 ADD SWAP1 DUP2 MSTORE PUSH1 0x20 ADD PUSH1 0x0 KECCAK256 PUSH1 0x0 PUSH2 0x100 EXP DUP2 SLOAD DUP2 PUSH20 0xFFFFFFFFFFFFFFFFFFFFFFFFFFFFFFFFFFFFFFFF MUL NOT AND SWAP1 DUP4 PUSH20 0xFFFFFFFFFFFFFFFFFFFFFFFFFFFFFFFFFFFFFFFF AND MUL OR SWAP1 SSTORE POP PUSH32 0x1F54E1BA1832D428FBD7E7792BEAF62B1FC5A382C207FFD614209C1413E94FDA CALLER DUP3 PUSH1 0x40 MLOAD PUSH2 0x233 SWAP3 SWAP2 SWAP1 PUSH2 0x987 JUMP JUMPDEST PUSH1 0x40 MLOAD DUP1 SWAP2 SUB SWAP1 LOG1 POP POP JUMP JUMPDEST PUSH1 0x60 PUSH1 0x0 DUP1 DUP1 SLOAD SWAP1 POP PUSH8 0xFFFFFFFFFFFFFFFF DUP2 GT ISZERO PUSH2 0x261 JUMPI PUSH2 0x260 PUSH2 0xC40 JUMP JUMPDEST JUMPDEST PUSH1 0x40 MLOAD SWAP1 DUP1 DUP3 MSTORE DUP1 PUSH1 0x20 MUL PUSH1 0x20 ADD DUP3 ADD PUSH1 0x40 MSTORE DUP1 ISZERO PUSH2 0x29A JUMPI DUP2 PUSH1 0x20 ADD JUMPDEST PUSH2 0x287 PUSH2 0x69E JUMP JUMPDEST DUP2 MSTORE PUSH1 0x20 ADD SWAP1 PUSH1 0x1 SWAP1 SUB SWAP1 DUP2 PUSH2 0x27F JUMPI SWAP1 POP JUMPDEST POP SWAP1 POP PUSH1 0x0 DUP1 JUMPDEST PUSH1 0x0 DUP1 SLOAD SWAP1 POP DUP2 LT ISZERO PUSH2 0x4B1 JUMPI CALLER PUSH20 0xFFFFFFFFFFFFFFFFFFFFFFFFFFFFFFFFFFFFFFFF AND PUSH1 0x1 PUSH1 0x0 DUP4 DUP2 MSTORE PUSH1 0x20 ADD SWAP1 DUP2 MSTORE PUSH1 0x20 ADD PUSH1 0x0 KECCAK256 PUSH1 0x0 SWAP1 SLOAD SWAP1 PUSH2 0x100 EXP SWAP1 DIV PUSH20 0xFFFFFFFFFFFFFFFFFFFFFFFFFFFFFFFFFFFFFFFF AND PUSH20 0xFFFFFFFFFFFFFFFFFFFFFFFFFFFFFFFFFFFFFFFF AND EQ DUP1 ISZERO PUSH2 0x352 JUMPI POP PUSH1 0x0 ISZERO ISZERO PUSH1 0x0 DUP3 DUP2 SLOAD DUP2 LT PUSH2 0x32F JUMPI PUSH2 0x32E PUSH2 0xC11 JUMP JUMPDEST JUMPDEST SWAP1 PUSH1 0x0 MSTORE PUSH1 0x20 PUSH1 0x0 KECCAK256 SWAP1 PUSH1 0x3 MUL ADD PUSH1 0x2 ADD PUSH1 0x1 SWAP1 SLOAD SWAP1 PUSH2 0x100 EXP SWAP1 DIV PUSH1 0xFF AND ISZERO ISZERO EQ JUMPDEST ISZERO PUSH2 0x49E JUMPI PUSH1 0x0 DUP2 DUP2 SLOAD DUP2 LT PUSH2 0x36B JUMPI PUSH2 0x36A PUSH2 0xC11 JUMP JUMPDEST JUMPDEST SWAP1 PUSH1 0x0 MSTORE PUSH1 0x20 PUSH1 0x0 KECCAK256 SWAP1 PUSH1 0x3 MUL ADD PUSH1 0x40 MLOAD DUP1 PUSH1 0xA0 ADD PUSH1 0x40 MSTORE SWAP1 DUP2 PUSH1 0x0 DUP3 ADD SLOAD DUP2 MSTORE PUSH1 0x20 ADD PUSH1 0x1 DUP3 ADD DUP1 SLOAD PUSH2 0x39E SWAP1 PUSH2 0xB07 JUMP JUMPDEST DUP1 PUSH1 0x1F ADD PUSH1 0x20 DUP1 SWAP2 DIV MUL PUSH1 0x20 ADD PUSH1 0x40 MLOAD SWAP1 DUP2 ADD PUSH1 0x40 MSTORE DUP1 SWAP3 SWAP2 SWAP1 DUP2 DUP2 MSTORE PUSH1 0x20 ADD DUP3 DUP1 SLOAD PUSH2 0x3CA SWAP1 PUSH2 0xB07 JUMP JUMPDEST DUP1 ISZERO PUSH2 0x417 JUMPI DUP1 PUSH1 0x1F LT PUSH2 0x3EC JUMPI PUSH2 0x100 DUP1 DUP4 SLOAD DIV MUL DUP4 MSTORE SWAP2 PUSH1 0x20 ADD SWAP2 PUSH2 0x417 JUMP JUMPDEST DUP3 ADD SWAP2 SWAP1 PUSH1 0x0 MSTORE PUSH1 0x20 PUSH1 0x0 KECCAK256 SWAP1 JUMPDEST DUP2 SLOAD DUP2 MSTORE SWAP1 PUSH1 0x1 ADD SWAP1 PUSH1 0x20 ADD DUP1 DUP4 GT PUSH2 0x3FA JUMPI DUP3 SWAP1 SUB PUSH1 0x1F AND DUP3 ADD SWAP2 JUMPDEST POP POP POP POP POP DUP2 MSTORE PUSH1 0x20 ADD PUSH1 0x2 DUP3 ADD PUSH1 0x0 SWAP1 SLOAD SWAP1 PUSH2 0x100 EXP SWAP1 DIV PUSH1 0xFF AND ISZERO ISZERO ISZERO ISZERO DUP2 MSTORE PUSH1 0x20 ADD PUSH1 0x2 DUP3 ADD PUSH1 0x1 SWAP1 SLOAD SWAP1 PUSH2 0x100 EXP SWAP1 DIV PUSH1 0xFF AND ISZERO ISZERO ISZERO ISZERO DUP2 MSTORE PUSH1 0x20 ADD PUSH1 0x2 DUP3 ADD PUSH1 0x2 SWAP1 SLOAD SWAP1 PUSH2 0x100 EXP SWAP1 DIV PUSH1 0xFF AND ISZERO ISZERO ISZERO ISZERO DUP2 MSTORE POP POP DUP4 DUP4 DUP2 MLOAD DUP2 LT PUSH2 0x484 JUMPI PUSH2 0x483 PUSH2 0xC11 JUMP JUMPDEST JUMPDEST PUSH1 0x20 MUL PUSH1 0x20 ADD ADD DUP2 SWAP1 MSTORE POP DUP2 DUP1 PUSH2 0x49A SWAP1 PUSH2 0xB6A JUMP JUMPDEST SWAP3 POP POP JUMPDEST DUP1 DUP1 PUSH2 0x4A9 SWAP1 PUSH2 0xB6A JUMP JUMPDEST SWAP2 POP POP PUSH2 0x2A1 JUMP JUMPDEST POP PUSH1 0x0 DUP2 PUSH8 0xFFFFFFFFFFFFFFFF DUP2 GT ISZERO PUSH2 0x4CE JUMPI PUSH2 0x4CD PUSH2 0xC40 JUMP JUMPDEST JUMPDEST PUSH1 0x40 MLOAD SWAP1 DUP1 DUP3 MSTORE DUP1 PUSH1 0x20 MUL PUSH1 0x20 ADD DUP3 ADD PUSH1 0x40 MSTORE DUP1 ISZERO PUSH2 0x507 JUMPI DUP2 PUSH1 0x20 ADD JUMPDEST PUSH2 0x4F4 PUSH2 0x69E JUMP JUMPDEST DUP2 MSTORE PUSH1 0x20 ADD SWAP1 PUSH1 0x1 SWAP1 SUB SWAP1 DUP2 PUSH2 0x4EC JUMPI SWAP1 POP JUMPDEST POP SWAP1 POP PUSH1 0x0 JUMPDEST DUP3 DUP2 LT ISZERO PUSH2 0x561 JUMPI DUP4 DUP2 DUP2 MLOAD DUP2 LT PUSH2 0x528 JUMPI PUSH2 0x527 PUSH2 0xC11 JUMP JUMPDEST JUMPDEST PUSH1 0x20 MUL PUSH1 0x20 ADD ADD MLOAD DUP3 DUP3 DUP2 MLOAD DUP2 LT PUSH2 0x543 JUMPI PUSH2 0x542 PUSH2 0xC11 JUMP JUMPDEST JUMPDEST PUSH1 0x20 MUL PUSH1 0x20 ADD ADD DUP2 SWAP1 MSTORE POP DUP1 DUP1 PUSH2 0x559 SWAP1 PUSH2 0xB6A JUMP JUMPDEST SWAP2 POP POP PUSH2 0x50D JUMP JUMPDEST POP DUP1 SWAP4 POP POP POP POP SWAP1 JUMP JUMPDEST CALLER PUSH20 0xFFFFFFFFFFFFFFFFFFFFFFFFFFFFFFFFFFFFFFFF AND PUSH1 0x1 PUSH1 0x0 DUP5 DUP2 MSTORE PUSH1 0x20 ADD SWAP1 DUP2 MSTORE PUSH1 0x20 ADD PUSH1 0x0 KECCAK256 PUSH1 0x0 SWAP1 SLOAD SWAP1 PUSH2 0x100 EXP SWAP1 DIV PUSH20 0xFFFFFFFFFFFFFFFFFFFFFFFFFFFFFFFFFFFFFFFF AND PUSH20 0xFFFFFFFFFFFFFFFFFFFFFFFFFFFFFFFFFFFFFFFF AND EQ ISZERO PUSH2 0x610 JUMPI DUP1 PUSH1 0x0 DUP4 DUP2 SLOAD DUP2 LT PUSH2 0x5E7 JUMPI PUSH2 0x5E6 PUSH2 0xC11 JUMP JUMPDEST JUMPDEST SWAP1 PUSH1 0x0 MSTORE PUSH1 0x20 PUSH1 0x0 KECCAK256 SWAP1 PUSH1 0x3 MUL ADD PUSH1 0x2 ADD PUSH1 0x1 PUSH2 0x100 EXP DUP2 SLOAD DUP2 PUSH1 0xFF MUL NOT AND SWAP1 DUP4 ISZERO ISZERO MUL OR SWAP1 SSTORE POP JUMPDEST POP POP JUMP JUMPDEST POP POP JUMP JUMPDEST DUP3 DUP1 SLOAD PUSH2 0x624 SWAP1 PUSH2 0xB07 JUMP JUMPDEST SWAP1 PUSH1 0x0 MSTORE PUSH1 0x20 PUSH1 0x0 KECCAK256 SWAP1 PUSH1 0x1F ADD PUSH1 0x20 SWAP1 DIV DUP2 ADD SWAP3 DUP3 PUSH2 0x646 JUMPI PUSH1 0x0 DUP6 SSTORE PUSH2 0x68D JUMP JUMPDEST DUP3 PUSH1 0x1F LT PUSH2 0x65F JUMPI DUP1 MLOAD PUSH1 0xFF NOT AND DUP4 DUP1 ADD OR DUP6 SSTORE PUSH2 0x68D JUMP JUMPDEST DUP3 DUP1 ADD PUSH1 0x1 ADD DUP6 SSTORE DUP3 ISZERO PUSH2 0x68D JUMPI SWAP2 DUP3 ADD JUMPDEST DUP3 DUP2 GT ISZERO PUSH2 0x68C JUMPI DUP3 MLOAD DUP3 SSTORE SWAP2 PUSH1 0x20 ADD SWAP2 SWAP1 PUSH1 0x1 ADD SWAP1 PUSH2 0x671 JUMP JUMPDEST JUMPDEST POP SWAP1 POP PUSH2 0x69A SWAP2 SWAP1 PUSH2 0x6D3 JUMP JUMPDEST POP SWAP1 JUMP JUMPDEST PUSH1 0x40 MLOAD DUP1 PUSH1 0xA0 ADD PUSH1 0x40 MSTORE DUP1 PUSH1 0x0 DUP2 MSTORE PUSH1 0x20 ADD PUSH1 0x60 DUP2 MSTORE PUSH1 0x20 ADD PUSH1 0x0 ISZERO ISZERO DUP2 MSTORE PUSH1 0x20 ADD PUSH1 0x0 ISZERO ISZERO DUP2 MSTORE PUSH1 0x20 ADD PUSH1 0x0 ISZERO ISZERO DUP2 MSTORE POP SWAP1 JUMP JUMPDEST JUMPDEST DUP1 DUP3 GT ISZERO PUSH2 0x6EC JUMPI PUSH1 0x0 DUP2 PUSH1 0x0 SWAP1 SSTORE POP PUSH1 0x1 ADD PUSH2 0x6D4 JUMP JUMPDEST POP SWAP1 JUMP JUMPDEST PUSH1 0x0 PUSH2 0x703 PUSH2 0x6FE DUP5 PUSH2 0x9F7 JUMP JUMPDEST PUSH2 0x9D2 JUMP JUMPDEST SWAP1 POP DUP3 DUP2 MSTORE PUSH1 0x20 DUP2 ADD DUP5 DUP5 DUP5 ADD GT ISZERO PUSH2 0x71F JUMPI PUSH2 0x71E PUSH2 0xC74 JUMP JUMPDEST JUMPDEST PUSH2 0x72A DUP5 DUP3 DUP6 PUSH2 0xAC5 JUMP JUMPDEST POP SWAP4 SWAP3 POP POP POP JUMP JUMPDEST PUSH1 0x0 DUP2 CALLDATALOAD SWAP1 POP PUSH2 0x741 DUP2 PUSH2 0xC94 JUMP JUMPDEST SWAP3 SWAP2 POP POP JUMP JUMPDEST PUSH1 0x0 DUP3 PUSH1 0x1F DUP4 ADD SLT PUSH2 0x75C JUMPI PUSH2 0x75B PUSH2 0xC6F JUMP JUMPDEST JUMPDEST DUP2 CALLDATALOAD PUSH2 0x76C DUP5 DUP3 PUSH1 0x20 DUP7 ADD PUSH2 0x6F0 JUMP JUMPDEST SWAP2 POP POP SWAP3 SWAP2 POP POP JUMP JUMPDEST PUSH1 0x0 DUP2 CALLDATALOAD SWAP1 POP PUSH2 0x784 DUP2 PUSH2 0xCAB JUMP JUMPDEST SWAP3 SWAP2 POP POP JUMP JUMPDEST PUSH1 0x0 PUSH1 0x20 DUP3 DUP5 SUB SLT ISZERO PUSH2 0x7A0 JUMPI PUSH2 0x79F PUSH2 0xC7E JUMP JUMPDEST JUMPDEST PUSH1 0x0 DUP3 ADD CALLDATALOAD PUSH8 0xFFFFFFFFFFFFFFFF DUP2 GT ISZERO PUSH2 0x7BE JUMPI PUSH2 0x7BD PUSH2 0xC79 JUMP JUMPDEST JUMPDEST PUSH2 0x7CA DUP5 DUP3 DUP6 ADD PUSH2 0x747 JUMP JUMPDEST SWAP2 POP POP SWAP3 SWAP2 POP POP JUMP JUMPDEST PUSH1 0x0 DUP1 PUSH1 0x40 DUP4 DUP6 SUB SLT ISZERO PUSH2 0x7EA JUMPI PUSH2 0x7E9 PUSH2 0xC7E JUMP JUMPDEST JUMPDEST PUSH1 0x0 PUSH2 0x7F8 DUP6 DUP3 DUP7 ADD PUSH2 0x775 JUMP JUMPDEST SWAP3 POP POP PUSH1 0x20 PUSH2 0x809 DUP6 DUP3 DUP7 ADD PUSH2 0x732 JUMP JUMPDEST SWAP2 POP POP SWAP3 POP SWAP3 SWAP1 POP JUMP JUMPDEST PUSH1 0x0 PUSH2 0x81F DUP4 DUP4 PUSH2 0x8F3 JUMP JUMPDEST SWAP1 POP SWAP3 SWAP2 POP POP JUMP JUMPDEST PUSH2 0x830 DUP2 PUSH2 0xA7D JUMP JUMPDEST DUP3 MSTORE POP POP JUMP JUMPDEST PUSH1 0x0 PUSH2 0x841 DUP3 PUSH2 0xA38 JUMP JUMPDEST PUSH2 0x84B DUP2 DUP6 PUSH2 0xA5B JUMP JUMPDEST SWAP4 POP DUP4 PUSH1 0x20 DUP3 MUL DUP6 ADD PUSH2 0x85D DUP6 PUSH2 0xA28 JUMP JUMPDEST DUP1 PUSH1 0x0 JUMPDEST DUP6 DUP2 LT ISZERO PUSH2 0x899 JUMPI DUP5 DUP5 SUB DUP10 MSTORE DUP2 MLOAD PUSH2 0x87A DUP6 DUP3 PUSH2 0x813 JUMP JUMPDEST SWAP5 POP PUSH2 0x885 DUP4 PUSH2 0xA4E JUMP JUMPDEST SWAP3 POP PUSH1 0x20 DUP11 ADD SWAP10 POP POP PUSH1 0x1 DUP2 ADD SWAP1 POP PUSH2 0x861 JUMP JUMPDEST POP DUP3 SWAP8 POP DUP8 SWAP6 POP POP POP POP POP POP SWAP3 SWAP2 POP POP JUMP JUMPDEST PUSH2 0x8B4 DUP2 PUSH2 0xA8F JUMP JUMPDEST DUP3 MSTORE POP POP JUMP JUMPDEST PUSH1 0x0 PUSH2 0x8C5 DUP3 PUSH2 0xA43 JUMP JUMPDEST PUSH2 0x8CF DUP2 DUP6 PUSH2 0xA6C JUMP JUMPDEST SWAP4 POP PUSH2 0x8DF DUP2 DUP6 PUSH1 0x20 DUP7 ADD PUSH2 0xAD4 JUMP JUMPDEST PUSH2 0x8E8 DUP2 PUSH2 0xC83 JUMP JUMPDEST DUP5 ADD SWAP2 POP POP SWAP3 SWAP2 POP POP JUMP JUMPDEST PUSH1 0x0 PUSH1 0xA0 DUP4 ADD PUSH1 0x0 DUP4 ADD MLOAD PUSH2 0x90B PUSH1 0x0 DUP7 ADD DUP3 PUSH2 0x969 JUMP JUMPDEST POP PUSH1 0x20 DUP4 ADD MLOAD DUP5 DUP3 SUB PUSH1 0x20 DUP7 ADD MSTORE PUSH2 0x923 DUP3 DUP3 PUSH2 0x8BA JUMP JUMPDEST SWAP2 POP POP PUSH1 0x40 DUP4 ADD MLOAD PUSH2 0x938 PUSH1 0x40 DUP7 ADD DUP3 PUSH2 0x8AB JUMP JUMPDEST POP PUSH1 0x60 DUP4 ADD MLOAD PUSH2 0x94B PUSH1 0x60 DUP7 ADD DUP3 PUSH2 0x8AB JUMP JUMPDEST POP PUSH1 0x80 DUP4 ADD MLOAD PUSH2 0x95E PUSH1 0x80 DUP7 ADD DUP3 PUSH2 0x8AB JUMP JUMPDEST POP DUP1 SWAP2 POP POP SWAP3 SWAP2 POP POP JUMP JUMPDEST PUSH2 0x972 DUP2 PUSH2 0xABB JUMP JUMPDEST DUP3 MSTORE POP POP JUMP JUMPDEST PUSH2 0x981 DUP2 PUSH2 0xABB JUMP JUMPDEST DUP3 MSTORE POP POP JUMP JUMPDEST PUSH1 0x0 PUSH1 0x40 DUP3 ADD SWAP1 POP PUSH2 0x99C PUSH1 0x0 DUP4 ADD DUP6 PUSH2 0x827 JUMP JUMPDEST PUSH2 0x9A9 PUSH1 0x20 DUP4 ADD DUP5 PUSH2 0x978 JUMP JUMPDEST SWAP4 SWAP3 POP POP POP JUMP JUMPDEST PUSH1 0x0 PUSH1 0x20 DUP3 ADD SWAP1 POP DUP2 DUP2 SUB PUSH1 0x0 DUP4 ADD MSTORE PUSH2 0x9CA DUP2 DUP5 PUSH2 0x836 JUMP JUMPDEST SWAP1 POP SWAP3 SWAP2 POP POP JUMP JUMPDEST PUSH1 0x0 PUSH2 0x9DC PUSH2 0x9ED JUMP JUMPDEST SWAP1 POP PUSH2 0x9E8 DUP3 DUP3 PUSH2 0xB39 JUMP JUMPDEST SWAP2 SWAP1 POP JUMP JUMPDEST PUSH1 0x0 PUSH1 0x40 MLOAD SWAP1 POP SWAP1 JUMP JUMPDEST PUSH1 0x0 PUSH8 0xFFFFFFFFFFFFFFFF DUP3 GT ISZERO PUSH2 0xA12 JUMPI PUSH2 0xA11 PUSH2 0xC40 JUMP JUMPDEST JUMPDEST PUSH2 0xA1B DUP3 PUSH2 0xC83 JUMP JUMPDEST SWAP1 POP PUSH1 0x20 DUP2 ADD SWAP1 POP SWAP2 SWAP1 POP JUMP JUMPDEST PUSH1 0x0 DUP2 SWAP1 POP PUSH1 0x20 DUP3 ADD SWAP1 POP SWAP2 SWAP1 POP JUMP JUMPDEST PUSH1 0x0 DUP2 MLOAD SWAP1 POP SWAP2 SWAP1 POP JUMP JUMPDEST PUSH1 0x0 DUP2 MLOAD SWAP1 POP SWAP2 SWAP1 POP JUMP JUMPDEST PUSH1 0x0 PUSH1 0x20 DUP3 ADD SWAP1 POP SWAP2 SWAP1 POP JUMP JUMPDEST PUSH1 0x0 DUP3 DUP3 MSTORE PUSH1 0x20 DUP3 ADD SWAP1 POP SWAP3 SWAP2 POP POP JUMP JUMPDEST PUSH1 0x0 DUP3 DUP3 MSTORE PUSH1 0x20 DUP3 ADD SWAP1 POP SWAP3 SWAP2 POP POP JUMP JUMPDEST PUSH1 0x0 PUSH2 0xA88 DUP3 PUSH2 0xA9B JUMP JUMPDEST SWAP1 POP SWAP2 SWAP1 POP JUMP JUMPDEST PUSH1 0x0 DUP2 ISZERO ISZERO SWAP1 POP SWAP2 SWAP1 POP JUMP JUMPDEST PUSH1 0x0 PUSH20 0xFFFFFFFFFFFFFFFFFFFFFFFFFFFFFFFFFFFFFFFF DUP3 AND SWAP1 POP SWAP2 SWAP1 POP JUMP JUMPDEST PUSH1 0x0 DUP2 SWAP1 POP SWAP2 SWAP1 POP JUMP JUMPDEST DUP3 DUP2 DUP4 CALLDATACOPY PUSH1 0x0 DUP4 DUP4 ADD MSTORE POP POP POP JUMP JUMPDEST PUSH1 0x0 JUMPDEST DUP4 DUP2 LT ISZERO PUSH2 0xAF2 JUMPI DUP1 DUP3 ADD MLOAD DUP2 DUP5 ADD MSTORE PUSH1 0x20 DUP2 ADD SWAP1 POP PUSH2 0xAD7 JUMP JUMPDEST DUP4 DUP2 GT ISZERO PUSH2 0xB01 JUMPI PUSH1 0x0 DUP5 DUP5 ADD MSTORE JUMPDEST POP POP POP POP JUMP JUMPDEST PUSH1 0x0 PUSH1 0x2 DUP3 DIV SWAP1 POP PUSH1 0x1 DUP3 AND DUP1 PUSH2 0xB1F JUMPI PUSH1 0x7F DUP3 AND SWAP2 POP JUMPDEST PUSH1 0x20 DUP3 LT DUP2 EQ ISZERO PUSH2 0xB33 JUMPI PUSH2 0xB32 PUSH2 0xBE2 JUMP JUMPDEST JUMPDEST POP SWAP2 SWAP1 POP JUMP JUMPDEST PUSH2 0xB42 DUP3 PUSH2 0xC83 JUMP JUMPDEST DUP2 ADD DUP2 DUP2 LT PUSH8 0xFFFFFFFFFFFFFFFF DUP3 GT OR ISZERO PUSH2 0xB61 JUMPI PUSH2 0xB60 PUSH2 0xC40 JUMP JUMPDEST JUMPDEST DUP1 PUSH1 0x40 MSTORE POP POP POP JUMP JUMPDEST PUSH1 0x0 PUSH2 0xB75 DUP3 PUSH2 0xABB JUMP JUMPDEST SWAP2 POP PUSH32 0xFFFFFFFFFFFFFFFFFFFFFFFFFFFFFFFFFFFFFFFFFFFFFFFFFFFFFFFFFFFFFFFF DUP3 EQ ISZERO PUSH2 0xBA8 JUMPI PUSH2 0xBA7 PUSH2 0xBB3 JUMP JUMPDEST JUMPDEST PUSH1 0x1 DUP3 ADD SWAP1 POP SWAP2 SWAP1 POP JUMP JUMPDEST PUSH32 0x4E487B7100000000000000000000000000000000000000000000000000000000 PUSH1 0x0 MSTORE PUSH1 0x11 PUSH1 0x4 MSTORE PUSH1 0x24 PUSH1 0x0 REVERT JUMPDEST PUSH32 0x4E487B7100000000000000000000000000000000000000000000000000000000 PUSH1 0x0 MSTORE PUSH1 0x22 PUSH1 0x4 MSTORE PUSH1 0x24 PUSH1 0x0 REVERT JUMPDEST PUSH32 0x4E487B7100000000000000000000000000000000000000000000000000000000 PUSH1 0x0 MSTORE PUSH1 0x32 PUSH1 0x4 MSTORE PUSH1 0x24 PUSH1 0x0 REVERT JUMPDEST PUSH32 0x4E487B7100000000000000000000000000000000000000000000000000000000 PUSH1 0x0 MSTORE PUSH1 0x41 PUSH1 0x4 MSTORE PUSH1 0x24 PUSH1 0x0 REVERT JUMPDEST PUSH1 0x0 DUP1 REVERT JUMPDEST PUSH1 0x0 DUP1 REVERT JUMPDEST PUSH1 0x0 DUP1 REVERT JUMPDEST PUSH1 0x0 DUP1 REVERT JUMPDEST PUSH1 0x0 PUSH1 0x1F NOT PUSH1 0x1F DUP4 ADD AND SWAP1 POP SWAP2 SWAP1 POP JUMP JUMPDEST PUSH2 0xC9D DUP2 PUSH2 0xA8F JUMP JUMPDEST DUP2 EQ PUSH2 0xCA8 JUMPI PUSH1 0x0 DUP1 REVERT JUMPDEST POP JUMP JUMPDEST PUSH2 0xCB4 DUP2 PUSH2 0xABB JUMP JUMPDEST DUP2 EQ PUSH2 0xCBF JUMPI PUSH1 0x0 DUP1 REVERT JUMPDEST POP JUMP INVALID LOG2 PUSH5 0x6970667358 0x22 SLT KECCAK256 DUP12 CODECOPY DUP5 SWAP16 0xC4 SWAP13 PUSH32 0x65A683C8821187932C7C200EA480F435588F9E0710920F00664736F6C634300 ADDMOD SMOD STOP CALLER "
				},
				"gasEstimates": {
					"creation": {
						"codeDepositCost": "664000",
						"executionCost": "696",
						"totalCost": "664696"
					},
					"external": {
						"addTask(string)": "infinite",
						"deleteTask(uint256,bool)": "629",
						"getMyTasks()": "infinite",
						"toggleDone(uint256,bool)": "29372"
					}
				},
				"methodIdentifiers": {
					"addTask(string)": "67238562",
					"deleteTask(uint256,bool)": "aaba2907",
					"getMyTasks()": "6e13f818",
					"toggleDone(uint256,bool)": "943a1a0a"
				}
			},
			"storageLayout": {
				"storage": [
					{
						"astId": 32,
						"contract": "contracts/TaskContract.sol:TaskContract",
						"label": "tasks",
						"offset": 0,
						"slot": "0",
						"type": "t_array(t_struct(Task)28_storage)dyn_storage"
					},
					{
						"astId": 36,
						"contract": "contracts/TaskContract.sol:TaskContract",
						"label": "taskToOwner",
						"offset": 0,
						"slot": "1",
						"type": "t_mapping(t_uint256,t_address)"
					}
				],
				"types": {
					"t_address": {
						"encoding": "inplace",
						"label": "address",
						"numberOfBytes": "20"
					},
					"t_array(t_struct(Task)28_storage)dyn_storage": {
						"base": "t_struct(Task)28_storage",
						"encoding": "dynamic_array",
						"label": "struct TaskContract.Task[]",
						"numberOfBytes": "32"
					},
					"t_bool": {
						"encoding": "inplace",
						"label": "bool",
						"numberOfBytes": "1"
					},
					"t_mapping(t_uint256,t_address)": {
						"encoding": "mapping",
						"key": "t_uint256",
						"label": "mapping(uint256 => address)",
						"numberOfBytes": "32",
						"value": "t_address"
					},
					"t_string_storage": {
						"encoding": "bytes",
						"label": "string",
						"numberOfBytes": "32"
					},
					"t_struct(Task)28_storage": {
						"encoding": "inplace",
						"label": "struct TaskContract.Task",
						"members": [
							{
								"astId": 19,
								"contract": "contracts/TaskContract.sol:TaskContract",
								"label": "id",
								"offset": 0,
								"slot": "0",
								"type": "t_uint256"
							},
							{
								"astId": 21,
								"contract": "contracts/TaskContract.sol:TaskContract",
								"label": "taskText",
								"offset": 0,
								"slot": "1",
								"type": "t_string_storage"
							},
							{
								"astId": 23,
								"contract": "contracts/TaskContract.sol:TaskContract",
								"label": "isImportant",
								"offset": 0,
								"slot": "2",
								"type": "t_bool"
							},
							{
								"astId": 25,
								"contract": "contracts/TaskContract.sol:TaskContract",
								"label": "isDone",
								"offset": 1,
								"slot": "2",
								"type": "t_bool"
							},
							{
								"astId": 27,
								"contract": "contracts/TaskContract.sol:TaskContract",
								"label": "isDeleted",
								"offset": 2,
								"slot": "2",
								"type": "t_bool"
							}
						],
						"numberOfBytes": "96"
					},
					"t_uint256": {
						"encoding": "inplace",
						"label": "uint256",
						"numberOfBytes": "32"
					}
				}
			},
			"userdoc": {
				"kind": "user",
				"methods": {},
				"version": 1
			}
		}
	}
}