{
	"contracts/TaskContract.sol": {
		"TaskContract": {
			"abi": [
				{
					"anonymous": false,
					"inputs": [
						{
							"indexed": false,
							"internalType": "address",
							"name": "recipient",
							"type": "address"
						},
						{
							"indexed": false,
							"internalType": "uint256",
							"name": "taskId",
							"type": "uint256"
						}
					],
					"name": "AddTask",
					"type": "event"
				},
				{
					"anonymous": false,
					"inputs": [
						{
							"indexed": false,
							"internalType": "uint256",
							"name": "taskId",
							"type": "uint256"
						},
						{
							"indexed": false,
							"internalType": "bool",
							"name": "isDone",
							"type": "bool"
						}
					],
					"name": "DeleteTask",
					"type": "event"
				},
				{
					"inputs": [
						{
							"internalType": "string",
							"name": "taskText",
							"type": "string"
						}
					],
					"name": "addTask",
					"outputs": [],
					"stateMutability": "nonpayable",
					"type": "function"
				},
				{
					"inputs": [],
					"name": "getMyTasks",
					"outputs": [
						{
							"components": [
								{
									"internalType": "uint256",
									"name": "id",
									"type": "uint256"
								},
								{
									"internalType": "string",
									"name": "taskText",
									"type": "string"
								},
								{
									"internalType": "bool",
									"name": "isImportant",
									"type": "bool"
								},
								{
									"internalType": "bool",
									"name": "isDone",
									"type": "bool"
								}
							],
							"internalType": "struct TaskContract.Task[]",
							"name": "",
							"type": "tuple[]"
						}
					],
					"stateMutability": "view",
					"type": "function"
				}
			],
			"devdoc": {
				"kind": "dev",
				"methods": {},
				"version": 1
			},
			"evm": {
				"assembly": "    /* \"contracts/TaskContract.sol\":66:694  contract TaskContract {... */\n  mstore(0x40, 0x80)\n  callvalue\n  dup1\n  iszero\n  tag_1\n  jumpi\n  0x00\n  dup1\n  revert\ntag_1:\n  pop\n  dataSize(sub_0)\n  dup1\n  dataOffset(sub_0)\n  0x00\n  codecopy\n  0x00\n  return\nstop\n\nsub_0: assembly {\n        /* \"contracts/TaskContract.sol\":66:694  contract TaskContract {... */\n      mstore(0x40, 0x80)\n      callvalue\n      dup1\n      iszero\n      tag_1\n      jumpi\n      0x00\n      dup1\n      revert\n    tag_1:\n      pop\n      jumpi(tag_2, lt(calldatasize, 0x04))\n      shr(0xe0, calldataload(0x00))\n      dup1\n      0x67238562\n      eq\n      tag_3\n      jumpi\n      dup1\n      0x6e13f818\n      eq\n      tag_4\n      jumpi\n    tag_2:\n      0x00\n      dup1\n      revert\n        /* \"contracts/TaskContract.sol\":351:568  function addTask(string memory taskText) external {... */\n    tag_3:\n      tag_5\n      0x04\n      dup1\n      calldatasize\n      sub\n      dup2\n      add\n      swap1\n      tag_6\n      swap2\n      swap1\n      tag_7\n      jump\t// in\n    tag_6:\n      tag_8\n      jump\t// in\n    tag_5:\n      stop\n        /* \"contracts/TaskContract.sol\":572:692  function getMyTasks() external view returns(Task[] memory){... */\n    tag_4:\n      tag_9\n      tag_10\n      jump\t// in\n    tag_9:\n      mload(0x40)\n      tag_11\n      swap2\n      swap1\n      tag_12\n      jump\t// in\n    tag_11:\n      mload(0x40)\n      dup1\n      swap2\n      sub\n      swap1\n      return\n        /* \"contracts/TaskContract.sol\":351:568  function addTask(string memory taskText) external {... */\n    tag_8:\n        /* \"contracts/TaskContract.sol\":407:418  uint taskId */\n      0x00\n        /* \"contracts/TaskContract.sol\":421:426  tasks */\n      dup1\n        /* \"contracts/TaskContract.sol\":421:433  tasks.length */\n      dup1\n      sload\n      swap1\n      pop\n        /* \"contracts/TaskContract.sol\":407:433  uint taskId = tasks.length */\n      swap1\n      pop\n        /* \"contracts/TaskContract.sol\":439:444  tasks */\n      0x00\n        /* \"contracts/TaskContract.sol\":450:486  Task(taskId, taskText, false, false) */\n      mload(0x40)\n      dup1\n      0x80\n      add\n      0x40\n      mstore\n      dup1\n        /* \"contracts/TaskContract.sol\":455:461  taskId */\n      dup4\n        /* \"contracts/TaskContract.sol\":450:486  Task(taskId, taskText, false, false) */\n      dup2\n      mstore\n      0x20\n      add\n        /* \"contracts/TaskContract.sol\":463:471  taskText */\n      dup5\n        /* \"contracts/TaskContract.sol\":450:486  Task(taskId, taskText, false, false) */\n      dup2\n      mstore\n      0x20\n      add\n        /* \"contracts/TaskContract.sol\":473:478  false */\n      0x00\n        /* \"contracts/TaskContract.sol\":450:486  Task(taskId, taskText, false, false) */\n      iszero\n      iszero\n      dup2\n      mstore\n      0x20\n      add\n        /* \"contracts/TaskContract.sol\":480:485  false */\n      0x00\n        /* \"contracts/TaskContract.sol\":450:486  Task(taskId, taskText, false, false) */\n      iszero\n      iszero\n      dup2\n      mstore\n      pop\n        /* \"contracts/TaskContract.sol\":439:487  tasks.push(Task(taskId, taskText, false, false)) */\n      swap1\n      dup1\n      0x01\n      dup2\n      sload\n      add\n      dup1\n      dup3\n      sstore\n      dup1\n      swap2\n      pop\n      pop\n      0x01\n      swap1\n      sub\n      swap1\n      0x00\n      mstore\n      keccak256(0x00, 0x20)\n      swap1\n      0x03\n      mul\n      add\n      0x00\n      swap1\n      swap2\n      swap1\n      swap2\n      swap1\n      swap2\n      pop\n      0x00\n      dup3\n      add\n      mload\n      dup2\n      0x00\n      add\n      sstore\n      0x20\n      dup3\n      add\n      mload\n      dup2\n      0x01\n      add\n      swap1\n      dup1\n      mload\n      swap1\n      0x20\n      add\n      swap1\n      tag_15\n      swap3\n      swap2\n      swap1\n      tag_16\n      jump\t// in\n    tag_15:\n      pop\n      0x40\n      dup3\n      add\n      mload\n      dup2\n      0x02\n      add\n      exp(0x0100, 0x00)\n      dup2\n      sload\n      dup2\n      0xff\n      mul\n      not\n      and\n      swap1\n      dup4\n      iszero\n      iszero\n      mul\n      or\n      swap1\n      sstore\n      pop\n      0x60\n      dup3\n      add\n      mload\n      dup2\n      0x02\n      add\n      exp(0x0100, 0x01)\n      dup2\n      sload\n      dup2\n      0xff\n      mul\n      not\n      and\n      swap1\n      dup4\n      iszero\n      iszero\n      mul\n      or\n      swap1\n      sstore\n      pop\n      pop\n      pop\n        /* \"contracts/TaskContract.sol\":515:525  msg.sender */\n      caller\n        /* \"contracts/TaskContract.sol\":493:504  taskToOwner */\n      0x01\n        /* \"contracts/TaskContract.sol\":493:512  taskToOwner[taskId] */\n      0x00\n        /* \"contracts/TaskContract.sol\":505:511  taskId */\n      dup4\n        /* \"contracts/TaskContract.sol\":493:512  taskToOwner[taskId] */\n      dup2\n      mstore\n      0x20\n      add\n      swap1\n      dup2\n      mstore\n      0x20\n      add\n      0x00\n      keccak256\n      0x00\n        /* \"contracts/TaskContract.sol\":493:525  taskToOwner[taskId] = msg.sender */\n      0x0100\n      exp\n      dup2\n      sload\n      dup2\n      0xffffffffffffffffffffffffffffffffffffffff\n      mul\n      not\n      and\n      swap1\n      dup4\n      0xffffffffffffffffffffffffffffffffffffffff\n      and\n      mul\n      or\n      swap1\n      sstore\n      pop\n        /* \"contracts/TaskContract.sol\":536:563  AddTask(msg.sender, taskId) */\n      0x1f54e1ba1832d428fbd7e7792beaf62b1fc5a382c207ffd614209c1413e94fda\n        /* \"contracts/TaskContract.sol\":544:554  msg.sender */\n      caller\n        /* \"contracts/TaskContract.sol\":556:562  taskId */\n      dup3\n        /* \"contracts/TaskContract.sol\":536:563  AddTask(msg.sender, taskId) */\n      mload(0x40)\n      tag_17\n      swap3\n      swap2\n      swap1\n      tag_18\n      jump\t// in\n    tag_17:\n      mload(0x40)\n      dup1\n      swap2\n      sub\n      swap1\n      log1\n        /* \"contracts/TaskContract.sol\":401:568  {... */\n      pop\n        /* \"contracts/TaskContract.sol\":351:568  function addTask(string memory taskText) external {... */\n      pop\n      jump\t// out\n        /* \"contracts/TaskContract.sol\":572:692  function getMyTasks() external view returns(Task[] memory){... */\n    tag_10:\n        /* \"contracts/TaskContract.sol\":616:629  Task[] memory */\n      0x60\n        /* \"contracts/TaskContract.sol\":636:659  Task[] memory temporary */\n      0x00\n        /* \"contracts/TaskContract.sol\":674:679  tasks */\n      dup1\n        /* \"contracts/TaskContract.sol\":674:686  tasks.length */\n      dup1\n      sload\n      swap1\n      pop\n        /* \"contracts/TaskContract.sol\":662:687  new Task[] (tasks.length) */\n      0xffffffffffffffff\n      dup2\n      gt\n      iszero\n      tag_20\n      jumpi\n      tag_21\n      tag_22\n      jump\t// in\n    tag_21:\n    tag_20:\n      mload(0x40)\n      swap1\n      dup1\n      dup3\n      mstore\n      dup1\n      0x20\n      mul\n      0x20\n      add\n      dup3\n      add\n      0x40\n      mstore\n      dup1\n      iszero\n      tag_23\n      jumpi\n      dup2\n      0x20\n      add\n    tag_24:\n      tag_25\n      tag_26\n      jump\t// in\n    tag_25:\n      dup2\n      mstore\n      0x20\n      add\n      swap1\n      0x01\n      swap1\n      sub\n      swap1\n      dup2\n      tag_24\n      jumpi\n      swap1\n      pop\n    tag_23:\n      pop\n        /* \"contracts/TaskContract.sol\":636:687  Task[] memory temporary = new Task[] (tasks.length) */\n      swap1\n      pop\n        /* \"contracts/TaskContract.sol\":630:692  {... */\n      pop\n        /* \"contracts/TaskContract.sol\":572:692  function getMyTasks() external view returns(Task[] memory){... */\n      swap1\n      jump\t// out\n    tag_16:\n      dup3\n      dup1\n      sload\n      tag_27\n      swap1\n      tag_28\n      jump\t// in\n    tag_27:\n      swap1\n      0x00\n      mstore\n      keccak256(0x00, 0x20)\n      swap1\n      0x1f\n      add\n      0x20\n      swap1\n      div\n      dup2\n      add\n      swap3\n      dup3\n      tag_30\n      jumpi\n      0x00\n      dup6\n      sstore\n      jump(tag_29)\n    tag_30:\n      dup3\n      0x1f\n      lt\n      tag_31\n      jumpi\n      dup1\n      mload\n      not(0xff)\n      and\n      dup4\n      dup1\n      add\n      or\n      dup6\n      sstore\n      jump(tag_29)\n    tag_31:\n      dup3\n      dup1\n      add\n      0x01\n      add\n      dup6\n      sstore\n      dup3\n      iszero\n      tag_29\n      jumpi\n      swap2\n      dup3\n      add\n    tag_32:\n      dup3\n      dup2\n      gt\n      iszero\n      tag_33\n      jumpi\n      dup3\n      mload\n      dup3\n      sstore\n      swap2\n      0x20\n      add\n      swap2\n      swap1\n      0x01\n      add\n      swap1\n      jump(tag_32)\n    tag_33:\n    tag_29:\n      pop\n      swap1\n      pop\n      tag_34\n      swap2\n      swap1\n      tag_35\n      jump\t// in\n    tag_34:\n      pop\n      swap1\n      jump\t// out\n    tag_26:\n      mload(0x40)\n      dup1\n      0x80\n      add\n      0x40\n      mstore\n      dup1\n      0x00\n      dup2\n      mstore\n      0x20\n      add\n      0x60\n      dup2\n      mstore\n      0x20\n      add\n      iszero(iszero(0x00))\n      dup2\n      mstore\n      0x20\n      add\n      iszero(iszero(0x00))\n      dup2\n      mstore\n      pop\n      swap1\n      jump\t// out\n    tag_35:\n    tag_36:\n      dup1\n      dup3\n      gt\n      iszero\n      tag_37\n      jumpi\n      0x00\n      dup2\n      0x00\n      swap1\n      sstore\n      pop\n      0x01\n      add\n      jump(tag_36)\n    tag_37:\n      pop\n      swap1\n      jump\t// out\n        /* \"#utility.yul\":7:419   */\n    tag_39:\n        /* \"#utility.yul\":85:90   */\n      0x00\n        /* \"#utility.yul\":110:176   */\n      tag_41\n        /* \"#utility.yul\":126:175   */\n      tag_42\n        /* \"#utility.yul\":168:174   */\n      dup5\n        /* \"#utility.yul\":126:175   */\n      tag_43\n      jump\t// in\n    tag_42:\n        /* \"#utility.yul\":110:176   */\n      tag_44\n      jump\t// in\n    tag_41:\n        /* \"#utility.yul\":101:176   */\n      swap1\n      pop\n        /* \"#utility.yul\":199:205   */\n      dup3\n        /* \"#utility.yul\":192:197   */\n      dup2\n        /* \"#utility.yul\":185:206   */\n      mstore\n        /* \"#utility.yul\":237:241   */\n      0x20\n        /* \"#utility.yul\":230:235   */\n      dup2\n        /* \"#utility.yul\":226:242   */\n      add\n        /* \"#utility.yul\":275:278   */\n      dup5\n        /* \"#utility.yul\":266:272   */\n      dup5\n        /* \"#utility.yul\":261:264   */\n      dup5\n        /* \"#utility.yul\":257:273   */\n      add\n        /* \"#utility.yul\":254:279   */\n      gt\n        /* \"#utility.yul\":251:363   */\n      iszero\n      tag_45\n      jumpi\n        /* \"#utility.yul\":282:361   */\n      tag_46\n      tag_47\n      jump\t// in\n    tag_46:\n        /* \"#utility.yul\":251:363   */\n    tag_45:\n        /* \"#utility.yul\":372:413   */\n      tag_48\n        /* \"#utility.yul\":406:412   */\n      dup5\n        /* \"#utility.yul\":401:404   */\n      dup3\n        /* \"#utility.yul\":396:399   */\n      dup6\n        /* \"#utility.yul\":372:413   */\n      tag_49\n      jump\t// in\n    tag_48:\n        /* \"#utility.yul\":91:419   */\n      pop\n        /* \"#utility.yul\":7:419   */\n      swap4\n      swap3\n      pop\n      pop\n      pop\n      jump\t// out\n        /* \"#utility.yul\":439:779   */\n    tag_50:\n        /* \"#utility.yul\":495:500   */\n      0x00\n        /* \"#utility.yul\":544:547   */\n      dup3\n        /* \"#utility.yul\":537:541   */\n      0x1f\n        /* \"#utility.yul\":529:535   */\n      dup4\n        /* \"#utility.yul\":525:542   */\n      add\n        /* \"#utility.yul\":521:548   */\n      slt\n        /* \"#utility.yul\":511:633   */\n      tag_52\n      jumpi\n        /* \"#utility.yul\":552:631   */\n      tag_53\n      tag_54\n      jump\t// in\n    tag_53:\n        /* \"#utility.yul\":511:633   */\n    tag_52:\n        /* \"#utility.yul\":669:675   */\n      dup2\n        /* \"#utility.yul\":656:676   */\n      calldataload\n        /* \"#utility.yul\":694:773   */\n      tag_55\n        /* \"#utility.yul\":769:772   */\n      dup5\n        /* \"#utility.yul\":761:767   */\n      dup3\n        /* \"#utility.yul\":754:758   */\n      0x20\n        /* \"#utility.yul\":746:752   */\n      dup7\n        /* \"#utility.yul\":742:759   */\n      add\n        /* \"#utility.yul\":694:773   */\n      tag_39\n      jump\t// in\n    tag_55:\n        /* \"#utility.yul\":685:773   */\n      swap2\n      pop\n        /* \"#utility.yul\":501:779   */\n      pop\n        /* \"#utility.yul\":439:779   */\n      swap3\n      swap2\n      pop\n      pop\n      jump\t// out\n        /* \"#utility.yul\":785:1294   */\n    tag_7:\n        /* \"#utility.yul\":854:860   */\n      0x00\n        /* \"#utility.yul\":903:905   */\n      0x20\n        /* \"#utility.yul\":891:900   */\n      dup3\n        /* \"#utility.yul\":882:889   */\n      dup5\n        /* \"#utility.yul\":878:901   */\n      sub\n        /* \"#utility.yul\":874:906   */\n      slt\n        /* \"#utility.yul\":871:990   */\n      iszero\n      tag_57\n      jumpi\n        /* \"#utility.yul\":909:988   */\n      tag_58\n      tag_59\n      jump\t// in\n    tag_58:\n        /* \"#utility.yul\":871:990   */\n    tag_57:\n        /* \"#utility.yul\":1057:1058   */\n      0x00\n        /* \"#utility.yul\":1046:1055   */\n      dup3\n        /* \"#utility.yul\":1042:1059   */\n      add\n        /* \"#utility.yul\":1029:1060   */\n      calldataload\n        /* \"#utility.yul\":1087:1105   */\n      0xffffffffffffffff\n        /* \"#utility.yul\":1079:1085   */\n      dup2\n        /* \"#utility.yul\":1076:1106   */\n      gt\n        /* \"#utility.yul\":1073:1190   */\n      iszero\n      tag_60\n      jumpi\n        /* \"#utility.yul\":1109:1188   */\n      tag_61\n      tag_62\n      jump\t// in\n    tag_61:\n        /* \"#utility.yul\":1073:1190   */\n    tag_60:\n        /* \"#utility.yul\":1214:1277   */\n      tag_63\n        /* \"#utility.yul\":1269:1276   */\n      dup5\n        /* \"#utility.yul\":1260:1266   */\n      dup3\n        /* \"#utility.yul\":1249:1258   */\n      dup6\n        /* \"#utility.yul\":1245:1267   */\n      add\n        /* \"#utility.yul\":1214:1277   */\n      tag_50\n      jump\t// in\n    tag_63:\n        /* \"#utility.yul\":1204:1277   */\n      swap2\n      pop\n        /* \"#utility.yul\":1000:1287   */\n      pop\n        /* \"#utility.yul\":785:1294   */\n      swap3\n      swap2\n      pop\n      pop\n      jump\t// out\n        /* \"#utility.yul\":1300:1536   */\n    tag_64:\n        /* \"#utility.yul\":1409:1419   */\n      0x00\n        /* \"#utility.yul\":1444:1530   */\n      tag_66\n        /* \"#utility.yul\":1526:1529   */\n      dup4\n        /* \"#utility.yul\":1518:1524   */\n      dup4\n        /* \"#utility.yul\":1444:1530   */\n      tag_67\n      jump\t// in\n    tag_66:\n        /* \"#utility.yul\":1430:1530   */\n      swap1\n      pop\n        /* \"#utility.yul\":1300:1536   */\n      swap3\n      swap2\n      pop\n      pop\n      jump\t// out\n        /* \"#utility.yul\":1542:1660   */\n    tag_68:\n        /* \"#utility.yul\":1629:1653   */\n      tag_70\n        /* \"#utility.yul\":1647:1652   */\n      dup2\n        /* \"#utility.yul\":1629:1653   */\n      tag_71\n      jump\t// in\n    tag_70:\n        /* \"#utility.yul\":1624:1627   */\n      dup3\n        /* \"#utility.yul\":1617:1654   */\n      mstore\n        /* \"#utility.yul\":1542:1660   */\n      pop\n      pop\n      jump\t// out\n        /* \"#utility.yul\":1730:2801   */\n    tag_72:\n        /* \"#utility.yul\":1889:1892   */\n      0x00\n        /* \"#utility.yul\":1918:1992   */\n      tag_74\n        /* \"#utility.yul\":1986:1991   */\n      dup3\n        /* \"#utility.yul\":1918:1992   */\n      tag_75\n      jump\t// in\n    tag_74:\n        /* \"#utility.yul\":2008:2114   */\n      tag_76\n        /* \"#utility.yul\":2107:2113   */\n      dup2\n        /* \"#utility.yul\":2102:2105   */\n      dup6\n        /* \"#utility.yul\":2008:2114   */\n      tag_77\n      jump\t// in\n    tag_76:\n        /* \"#utility.yul\":2001:2114   */\n      swap4\n      pop\n        /* \"#utility.yul\":2140:2143   */\n      dup4\n        /* \"#utility.yul\":2185:2189   */\n      0x20\n        /* \"#utility.yul\":2177:2183   */\n      dup3\n        /* \"#utility.yul\":2173:2190   */\n      mul\n        /* \"#utility.yul\":2168:2171   */\n      dup6\n        /* \"#utility.yul\":2164:2191   */\n      add\n        /* \"#utility.yul\":2215:2291   */\n      tag_78\n        /* \"#utility.yul\":2285:2290   */\n      dup6\n        /* \"#utility.yul\":2215:2291   */\n      tag_79\n      jump\t// in\n    tag_78:\n        /* \"#utility.yul\":2314:2321   */\n      dup1\n        /* \"#utility.yul\":2345:2346   */\n      0x00\n        /* \"#utility.yul\":2330:2756   */\n    tag_80:\n        /* \"#utility.yul\":2355:2361   */\n      dup6\n        /* \"#utility.yul\":2352:2353   */\n      dup2\n        /* \"#utility.yul\":2349:2362   */\n      lt\n        /* \"#utility.yul\":2330:2756   */\n      iszero\n      tag_82\n      jumpi\n        /* \"#utility.yul\":2426:2435   */\n      dup5\n        /* \"#utility.yul\":2420:2424   */\n      dup5\n        /* \"#utility.yul\":2416:2436   */\n      sub\n        /* \"#utility.yul\":2411:2414   */\n      dup10\n        /* \"#utility.yul\":2404:2437   */\n      mstore\n        /* \"#utility.yul\":2477:2483   */\n      dup2\n        /* \"#utility.yul\":2471:2484   */\n      mload\n        /* \"#utility.yul\":2505:2609   */\n      tag_83\n        /* \"#utility.yul\":2604:2608   */\n      dup6\n        /* \"#utility.yul\":2589:2602   */\n      dup3\n        /* \"#utility.yul\":2505:2609   */\n      tag_64\n      jump\t// in\n    tag_83:\n        /* \"#utility.yul\":2497:2609   */\n      swap5\n      pop\n        /* \"#utility.yul\":2632:2712   */\n      tag_84\n        /* \"#utility.yul\":2705:2711   */\n      dup4\n        /* \"#utility.yul\":2632:2712   */\n      tag_85\n      jump\t// in\n    tag_84:\n        /* \"#utility.yul\":2622:2712   */\n      swap3\n      pop\n        /* \"#utility.yul\":2741:2745   */\n      0x20\n        /* \"#utility.yul\":2736:2739   */\n      dup11\n        /* \"#utility.yul\":2732:2746   */\n      add\n        /* \"#utility.yul\":2725:2746   */\n      swap10\n      pop\n        /* \"#utility.yul\":2390:2756   */\n      pop\n        /* \"#utility.yul\":2377:2378   */\n      0x01\n        /* \"#utility.yul\":2374:2375   */\n      dup2\n        /* \"#utility.yul\":2370:2379   */\n      add\n        /* \"#utility.yul\":2365:2379   */\n      swap1\n      pop\n        /* \"#utility.yul\":2330:2756   */\n      jump(tag_80)\n    tag_82:\n        /* \"#utility.yul\":2334:2348   */\n      pop\n        /* \"#utility.yul\":2772:2776   */\n      dup3\n        /* \"#utility.yul\":2765:2776   */\n      swap8\n      pop\n        /* \"#utility.yul\":2792:2795   */\n      dup8\n        /* \"#utility.yul\":2785:2795   */\n      swap6\n      pop\n        /* \"#utility.yul\":1894:2801   */\n      pop\n      pop\n      pop\n      pop\n      pop\n        /* \"#utility.yul\":1730:2801   */\n      swap3\n      swap2\n      pop\n      pop\n      jump\t// out\n        /* \"#utility.yul\":2807:2906   */\n    tag_86:\n        /* \"#utility.yul\":2878:2899   */\n      tag_88\n        /* \"#utility.yul\":2893:2898   */\n      dup2\n        /* \"#utility.yul\":2878:2899   */\n      tag_89\n      jump\t// in\n    tag_88:\n        /* \"#utility.yul\":2873:2876   */\n      dup3\n        /* \"#utility.yul\":2866:2900   */\n      mstore\n        /* \"#utility.yul\":2807:2906   */\n      pop\n      pop\n      jump\t// out\n        /* \"#utility.yul\":2912:3256   */\n    tag_90:\n        /* \"#utility.yul\":2990:2993   */\n      0x00\n        /* \"#utility.yul\":3018:3057   */\n      tag_92\n        /* \"#utility.yul\":3051:3056   */\n      dup3\n        /* \"#utility.yul\":3018:3057   */\n      tag_93\n      jump\t// in\n    tag_92:\n        /* \"#utility.yul\":3073:3134   */\n      tag_94\n        /* \"#utility.yul\":3127:3133   */\n      dup2\n        /* \"#utility.yul\":3122:3125   */\n      dup6\n        /* \"#utility.yul\":3073:3134   */\n      tag_95\n      jump\t// in\n    tag_94:\n        /* \"#utility.yul\":3066:3134   */\n      swap4\n      pop\n        /* \"#utility.yul\":3143:3195   */\n      tag_96\n        /* \"#utility.yul\":3188:3194   */\n      dup2\n        /* \"#utility.yul\":3183:3186   */\n      dup6\n        /* \"#utility.yul\":3176:3180   */\n      0x20\n        /* \"#utility.yul\":3169:3174   */\n      dup7\n        /* \"#utility.yul\":3165:3181   */\n      add\n        /* \"#utility.yul\":3143:3195   */\n      tag_97\n      jump\t// in\n    tag_96:\n        /* \"#utility.yul\":3220:3249   */\n      tag_98\n        /* \"#utility.yul\":3242:3248   */\n      dup2\n        /* \"#utility.yul\":3220:3249   */\n      tag_99\n      jump\t// in\n    tag_98:\n        /* \"#utility.yul\":3215:3218   */\n      dup5\n        /* \"#utility.yul\":3211:3250   */\n      add\n        /* \"#utility.yul\":3204:3250   */\n      swap2\n      pop\n        /* \"#utility.yul\":2994:3256   */\n      pop\n        /* \"#utility.yul\":2912:3256   */\n      swap3\n      swap2\n      pop\n      pop\n      jump\t// out\n        /* \"#utility.yul\":3322:4255   */\n    tag_67:\n        /* \"#utility.yul\":3421:3424   */\n      0x00\n        /* \"#utility.yul\":3457:3461   */\n      0x80\n        /* \"#utility.yul\":3452:3455   */\n      dup4\n        /* \"#utility.yul\":3448:3462   */\n      add\n        /* \"#utility.yul\":3542:3546   */\n      0x00\n        /* \"#utility.yul\":3535:3540   */\n      dup4\n        /* \"#utility.yul\":3531:3547   */\n      add\n        /* \"#utility.yul\":3525:3548   */\n      mload\n        /* \"#utility.yul\":3561:3624   */\n      tag_101\n        /* \"#utility.yul\":3618:3622   */\n      0x00\n        /* \"#utility.yul\":3613:3616   */\n      dup7\n        /* \"#utility.yul\":3609:3623   */\n      add\n        /* \"#utility.yul\":3595:3607   */\n      dup3\n        /* \"#utility.yul\":3561:3624   */\n      tag_102\n      jump\t// in\n    tag_101:\n        /* \"#utility.yul\":3472:3634   */\n      pop\n        /* \"#utility.yul\":3720:3724   */\n      0x20\n        /* \"#utility.yul\":3713:3718   */\n      dup4\n        /* \"#utility.yul\":3709:3725   */\n      add\n        /* \"#utility.yul\":3703:3726   */\n      mload\n        /* \"#utility.yul\":3773:3776   */\n      dup5\n        /* \"#utility.yul\":3767:3771   */\n      dup3\n        /* \"#utility.yul\":3763:3777   */\n      sub\n        /* \"#utility.yul\":3756:3760   */\n      0x20\n        /* \"#utility.yul\":3751:3754   */\n      dup7\n        /* \"#utility.yul\":3747:3761   */\n      add\n        /* \"#utility.yul\":3740:3778   */\n      mstore\n        /* \"#utility.yul\":3799:3872   */\n      tag_103\n        /* \"#utility.yul\":3867:3871   */\n      dup3\n        /* \"#utility.yul\":3853:3865   */\n      dup3\n        /* \"#utility.yul\":3799:3872   */\n      tag_90\n      jump\t// in\n    tag_103:\n        /* \"#utility.yul\":3791:3872   */\n      swap2\n      pop\n        /* \"#utility.yul\":3644:3883   */\n      pop\n        /* \"#utility.yul\":3972:3976   */\n      0x40\n        /* \"#utility.yul\":3965:3970   */\n      dup4\n        /* \"#utility.yul\":3961:3977   */\n      add\n        /* \"#utility.yul\":3955:3978   */\n      mload\n        /* \"#utility.yul\":3991:4048   */\n      tag_104\n        /* \"#utility.yul\":4042:4046   */\n      0x40\n        /* \"#utility.yul\":4037:4040   */\n      dup7\n        /* \"#utility.yul\":4033:4047   */\n      add\n        /* \"#utility.yul\":4019:4031   */\n      dup3\n        /* \"#utility.yul\":3991:4048   */\n      tag_86\n      jump\t// in\n    tag_104:\n        /* \"#utility.yul\":3893:4058   */\n      pop\n        /* \"#utility.yul\":4142:4146   */\n      0x60\n        /* \"#utility.yul\":4135:4140   */\n      dup4\n        /* \"#utility.yul\":4131:4147   */\n      add\n        /* \"#utility.yul\":4125:4148   */\n      mload\n        /* \"#utility.yul\":4161:4218   */\n      tag_105\n        /* \"#utility.yul\":4212:4216   */\n      0x60\n        /* \"#utility.yul\":4207:4210   */\n      dup7\n        /* \"#utility.yul\":4203:4217   */\n      add\n        /* \"#utility.yul\":4189:4201   */\n      dup3\n        /* \"#utility.yul\":4161:4218   */\n      tag_86\n      jump\t// in\n    tag_105:\n        /* \"#utility.yul\":4068:4228   */\n      pop\n        /* \"#utility.yul\":4245:4249   */\n      dup1\n        /* \"#utility.yul\":4238:4249   */\n      swap2\n      pop\n        /* \"#utility.yul\":3426:4255   */\n      pop\n        /* \"#utility.yul\":3322:4255   */\n      swap3\n      swap2\n      pop\n      pop\n      jump\t// out\n        /* \"#utility.yul\":4261:4369   */\n    tag_102:\n        /* \"#utility.yul\":4338:4362   */\n      tag_107\n        /* \"#utility.yul\":4356:4361   */\n      dup2\n        /* \"#utility.yul\":4338:4362   */\n      tag_108\n      jump\t// in\n    tag_107:\n        /* \"#utility.yul\":4333:4336   */\n      dup3\n        /* \"#utility.yul\":4326:4363   */\n      mstore\n        /* \"#utility.yul\":4261:4369   */\n      pop\n      pop\n      jump\t// out\n        /* \"#utility.yul\":4375:4493   */\n    tag_109:\n        /* \"#utility.yul\":4462:4486   */\n      tag_111\n        /* \"#utility.yul\":4480:4485   */\n      dup2\n        /* \"#utility.yul\":4462:4486   */\n      tag_108\n      jump\t// in\n    tag_111:\n        /* \"#utility.yul\":4457:4460   */\n      dup3\n        /* \"#utility.yul\":4450:4487   */\n      mstore\n        /* \"#utility.yul\":4375:4493   */\n      pop\n      pop\n      jump\t// out\n        /* \"#utility.yul\":4499:4831   */\n    tag_18:\n        /* \"#utility.yul\":4620:4624   */\n      0x00\n        /* \"#utility.yul\":4658:4660   */\n      0x40\n        /* \"#utility.yul\":4647:4656   */\n      dup3\n        /* \"#utility.yul\":4643:4661   */\n      add\n        /* \"#utility.yul\":4635:4661   */\n      swap1\n      pop\n        /* \"#utility.yul\":4671:4742   */\n      tag_113\n        /* \"#utility.yul\":4739:4740   */\n      0x00\n        /* \"#utility.yul\":4728:4737   */\n      dup4\n        /* \"#utility.yul\":4724:4741   */\n      add\n        /* \"#utility.yul\":4715:4721   */\n      dup6\n        /* \"#utility.yul\":4671:4742   */\n      tag_68\n      jump\t// in\n    tag_113:\n        /* \"#utility.yul\":4752:4824   */\n      tag_114\n        /* \"#utility.yul\":4820:4822   */\n      0x20\n        /* \"#utility.yul\":4809:4818   */\n      dup4\n        /* \"#utility.yul\":4805:4823   */\n      add\n        /* \"#utility.yul\":4796:4802   */\n      dup5\n        /* \"#utility.yul\":4752:4824   */\n      tag_109\n      jump\t// in\n    tag_114:\n        /* \"#utility.yul\":4499:4831   */\n      swap4\n      swap3\n      pop\n      pop\n      pop\n      jump\t// out\n        /* \"#utility.yul\":4837:5290   */\n    tag_12:\n        /* \"#utility.yul\":5020:5024   */\n      0x00\n        /* \"#utility.yul\":5058:5060   */\n      0x20\n        /* \"#utility.yul\":5047:5056   */\n      dup3\n        /* \"#utility.yul\":5043:5061   */\n      add\n        /* \"#utility.yul\":5035:5061   */\n      swap1\n      pop\n        /* \"#utility.yul\":5107:5116   */\n      dup2\n        /* \"#utility.yul\":5101:5105   */\n      dup2\n        /* \"#utility.yul\":5097:5117   */\n      sub\n        /* \"#utility.yul\":5093:5094   */\n      0x00\n        /* \"#utility.yul\":5082:5091   */\n      dup4\n        /* \"#utility.yul\":5078:5095   */\n      add\n        /* \"#utility.yul\":5071:5118   */\n      mstore\n        /* \"#utility.yul\":5135:5283   */\n      tag_116\n        /* \"#utility.yul\":5278:5282   */\n      dup2\n        /* \"#utility.yul\":5269:5275   */\n      dup5\n        /* \"#utility.yul\":5135:5283   */\n      tag_72\n      jump\t// in\n    tag_116:\n        /* \"#utility.yul\":5127:5283   */\n      swap1\n      pop\n        /* \"#utility.yul\":4837:5290   */\n      swap3\n      swap2\n      pop\n      pop\n      jump\t// out\n        /* \"#utility.yul\":5296:5425   */\n    tag_44:\n        /* \"#utility.yul\":5330:5336   */\n      0x00\n        /* \"#utility.yul\":5357:5377   */\n      tag_118\n      tag_119\n      jump\t// in\n    tag_118:\n        /* \"#utility.yul\":5347:5377   */\n      swap1\n      pop\n        /* \"#utility.yul\":5386:5419   */\n      tag_120\n        /* \"#utility.yul\":5414:5418   */\n      dup3\n        /* \"#utility.yul\":5406:5412   */\n      dup3\n        /* \"#utility.yul\":5386:5419   */\n      tag_121\n      jump\t// in\n    tag_120:\n        /* \"#utility.yul\":5296:5425   */\n      swap2\n      swap1\n      pop\n      jump\t// out\n        /* \"#utility.yul\":5431:5506   */\n    tag_119:\n        /* \"#utility.yul\":5464:5470   */\n      0x00\n        /* \"#utility.yul\":5497:5499   */\n      0x40\n        /* \"#utility.yul\":5491:5500   */\n      mload\n        /* \"#utility.yul\":5481:5500   */\n      swap1\n      pop\n        /* \"#utility.yul\":5431:5506   */\n      swap1\n      jump\t// out\n        /* \"#utility.yul\":5512:5820   */\n    tag_43:\n        /* \"#utility.yul\":5574:5578   */\n      0x00\n        /* \"#utility.yul\":5664:5682   */\n      0xffffffffffffffff\n        /* \"#utility.yul\":5656:5662   */\n      dup3\n        /* \"#utility.yul\":5653:5683   */\n      gt\n        /* \"#utility.yul\":5650:5706   */\n      iszero\n      tag_124\n      jumpi\n        /* \"#utility.yul\":5686:5704   */\n      tag_125\n      tag_22\n      jump\t// in\n    tag_125:\n        /* \"#utility.yul\":5650:5706   */\n    tag_124:\n        /* \"#utility.yul\":5724:5753   */\n      tag_126\n        /* \"#utility.yul\":5746:5752   */\n      dup3\n        /* \"#utility.yul\":5724:5753   */\n      tag_99\n      jump\t// in\n    tag_126:\n        /* \"#utility.yul\":5716:5753   */\n      swap1\n      pop\n        /* \"#utility.yul\":5808:5812   */\n      0x20\n        /* \"#utility.yul\":5802:5806   */\n      dup2\n        /* \"#utility.yul\":5798:5813   */\n      add\n        /* \"#utility.yul\":5790:5813   */\n      swap1\n      pop\n        /* \"#utility.yul\":5512:5820   */\n      swap2\n      swap1\n      pop\n      jump\t// out\n        /* \"#utility.yul\":5826:5978   */\n    tag_79:\n        /* \"#utility.yul\":5913:5917   */\n      0x00\n        /* \"#utility.yul\":5936:5939   */\n      dup2\n        /* \"#utility.yul\":5928:5939   */\n      swap1\n      pop\n        /* \"#utility.yul\":5966:5970   */\n      0x20\n        /* \"#utility.yul\":5961:5964   */\n      dup3\n        /* \"#utility.yul\":5957:5971   */\n      add\n        /* \"#utility.yul\":5949:5971   */\n      swap1\n      pop\n        /* \"#utility.yul\":5826:5978   */\n      swap2\n      swap1\n      pop\n      jump\t// out\n        /* \"#utility.yul\":5984:6118   */\n    tag_75:\n        /* \"#utility.yul\":6071:6077   */\n      0x00\n        /* \"#utility.yul\":6105:6110   */\n      dup2\n        /* \"#utility.yul\":6099:6111   */\n      mload\n        /* \"#utility.yul\":6089:6111   */\n      swap1\n      pop\n        /* \"#utility.yul\":5984:6118   */\n      swap2\n      swap1\n      pop\n      jump\t// out\n        /* \"#utility.yul\":6124:6223   */\n    tag_93:\n        /* \"#utility.yul\":6176:6182   */\n      0x00\n        /* \"#utility.yul\":6210:6215   */\n      dup2\n        /* \"#utility.yul\":6204:6216   */\n      mload\n        /* \"#utility.yul\":6194:6216   */\n      swap1\n      pop\n        /* \"#utility.yul\":6124:6223   */\n      swap2\n      swap1\n      pop\n      jump\t// out\n        /* \"#utility.yul\":6229:6362   */\n    tag_85:\n        /* \"#utility.yul\":6319:6323   */\n      0x00\n        /* \"#utility.yul\":6351:6355   */\n      0x20\n        /* \"#utility.yul\":6346:6349   */\n      dup3\n        /* \"#utility.yul\":6342:6356   */\n      add\n        /* \"#utility.yul\":6334:6356   */\n      swap1\n      pop\n        /* \"#utility.yul\":6229:6362   */\n      swap2\n      swap1\n      pop\n      jump\t// out\n        /* \"#utility.yul\":6368:6572   */\n    tag_77:\n        /* \"#utility.yul\":6487:6498   */\n      0x00\n        /* \"#utility.yul\":6521:6527   */\n      dup3\n        /* \"#utility.yul\":6516:6519   */\n      dup3\n        /* \"#utility.yul\":6509:6528   */\n      mstore\n        /* \"#utility.yul\":6561:6565   */\n      0x20\n        /* \"#utility.yul\":6556:6559   */\n      dup3\n        /* \"#utility.yul\":6552:6566   */\n      add\n        /* \"#utility.yul\":6537:6566   */\n      swap1\n      pop\n        /* \"#utility.yul\":6368:6572   */\n      swap3\n      swap2\n      pop\n      pop\n      jump\t// out\n        /* \"#utility.yul\":6578:6737   */\n    tag_95:\n        /* \"#utility.yul\":6652:6663   */\n      0x00\n        /* \"#utility.yul\":6686:6692   */\n      dup3\n        /* \"#utility.yul\":6681:6684   */\n      dup3\n        /* \"#utility.yul\":6674:6693   */\n      mstore\n        /* \"#utility.yul\":6726:6730   */\n      0x20\n        /* \"#utility.yul\":6721:6724   */\n      dup3\n        /* \"#utility.yul\":6717:6731   */\n      add\n        /* \"#utility.yul\":6702:6731   */\n      swap1\n      pop\n        /* \"#utility.yul\":6578:6737   */\n      swap3\n      swap2\n      pop\n      pop\n      jump\t// out\n        /* \"#utility.yul\":6743:6839   */\n    tag_71:\n        /* \"#utility.yul\":6780:6787   */\n      0x00\n        /* \"#utility.yul\":6809:6833   */\n      tag_134\n        /* \"#utility.yul\":6827:6832   */\n      dup3\n        /* \"#utility.yul\":6809:6833   */\n      tag_135\n      jump\t// in\n    tag_134:\n        /* \"#utility.yul\":6798:6833   */\n      swap1\n      pop\n        /* \"#utility.yul\":6743:6839   */\n      swap2\n      swap1\n      pop\n      jump\t// out\n        /* \"#utility.yul\":6845:6935   */\n    tag_89:\n        /* \"#utility.yul\":6879:6886   */\n      0x00\n        /* \"#utility.yul\":6922:6927   */\n      dup2\n        /* \"#utility.yul\":6915:6928   */\n      iszero\n        /* \"#utility.yul\":6908:6929   */\n      iszero\n        /* \"#utility.yul\":6897:6929   */\n      swap1\n      pop\n        /* \"#utility.yul\":6845:6935   */\n      swap2\n      swap1\n      pop\n      jump\t// out\n        /* \"#utility.yul\":6941:7067   */\n    tag_135:\n        /* \"#utility.yul\":6978:6985   */\n      0x00\n        /* \"#utility.yul\":7018:7060   */\n      0xffffffffffffffffffffffffffffffffffffffff\n        /* \"#utility.yul\":7011:7016   */\n      dup3\n        /* \"#utility.yul\":7007:7061   */\n      and\n        /* \"#utility.yul\":6996:7061   */\n      swap1\n      pop\n        /* \"#utility.yul\":6941:7067   */\n      swap2\n      swap1\n      pop\n      jump\t// out\n        /* \"#utility.yul\":7073:7150   */\n    tag_108:\n        /* \"#utility.yul\":7110:7117   */\n      0x00\n        /* \"#utility.yul\":7139:7144   */\n      dup2\n        /* \"#utility.yul\":7128:7144   */\n      swap1\n      pop\n        /* \"#utility.yul\":7073:7150   */\n      swap2\n      swap1\n      pop\n      jump\t// out\n        /* \"#utility.yul\":7156:7310   */\n    tag_49:\n        /* \"#utility.yul\":7240:7246   */\n      dup3\n        /* \"#utility.yul\":7235:7238   */\n      dup2\n        /* \"#utility.yul\":7230:7233   */\n      dup4\n        /* \"#utility.yul\":7217:7247   */\n      calldatacopy\n        /* \"#utility.yul\":7302:7303   */\n      0x00\n        /* \"#utility.yul\":7293:7299   */\n      dup4\n        /* \"#utility.yul\":7288:7291   */\n      dup4\n        /* \"#utility.yul\":7284:7300   */\n      add\n        /* \"#utility.yul\":7277:7304   */\n      mstore\n        /* \"#utility.yul\":7156:7310   */\n      pop\n      pop\n      pop\n      jump\t// out\n        /* \"#utility.yul\":7316:7623   */\n    tag_97:\n        /* \"#utility.yul\":7384:7385   */\n      0x00\n        /* \"#utility.yul\":7394:7507   */\n    tag_141:\n        /* \"#utility.yul\":7408:7414   */\n      dup4\n        /* \"#utility.yul\":7405:7406   */\n      dup2\n        /* \"#utility.yul\":7402:7415   */\n      lt\n        /* \"#utility.yul\":7394:7507   */\n      iszero\n      tag_143\n      jumpi\n        /* \"#utility.yul\":7493:7494   */\n      dup1\n        /* \"#utility.yul\":7488:7491   */\n      dup3\n        /* \"#utility.yul\":7484:7495   */\n      add\n        /* \"#utility.yul\":7478:7496   */\n      mload\n        /* \"#utility.yul\":7474:7475   */\n      dup2\n        /* \"#utility.yul\":7469:7472   */\n      dup5\n        /* \"#utility.yul\":7465:7476   */\n      add\n        /* \"#utility.yul\":7458:7497   */\n      mstore\n        /* \"#utility.yul\":7430:7432   */\n      0x20\n        /* \"#utility.yul\":7427:7428   */\n      dup2\n        /* \"#utility.yul\":7423:7433   */\n      add\n        /* \"#utility.yul\":7418:7433   */\n      swap1\n      pop\n        /* \"#utility.yul\":7394:7507   */\n      jump(tag_141)\n    tag_143:\n        /* \"#utility.yul\":7525:7531   */\n      dup4\n        /* \"#utility.yul\":7522:7523   */\n      dup2\n        /* \"#utility.yul\":7519:7532   */\n      gt\n        /* \"#utility.yul\":7516:7617   */\n      iszero\n      tag_144\n      jumpi\n        /* \"#utility.yul\":7605:7606   */\n      0x00\n        /* \"#utility.yul\":7596:7602   */\n      dup5\n        /* \"#utility.yul\":7591:7594   */\n      dup5\n        /* \"#utility.yul\":7587:7603   */\n      add\n        /* \"#utility.yul\":7580:7607   */\n      mstore\n        /* \"#utility.yul\":7516:7617   */\n    tag_144:\n        /* \"#utility.yul\":7365:7623   */\n      pop\n        /* \"#utility.yul\":7316:7623   */\n      pop\n      pop\n      pop\n      jump\t// out\n        /* \"#utility.yul\":7629:7949   */\n    tag_28:\n        /* \"#utility.yul\":7673:7679   */\n      0x00\n        /* \"#utility.yul\":7710:7711   */\n      0x02\n        /* \"#utility.yul\":7704:7708   */\n      dup3\n        /* \"#utility.yul\":7700:7712   */\n      div\n        /* \"#utility.yul\":7690:7712   */\n      swap1\n      pop\n        /* \"#utility.yul\":7757:7758   */\n      0x01\n        /* \"#utility.yul\":7751:7755   */\n      dup3\n        /* \"#utility.yul\":7747:7759   */\n      and\n        /* \"#utility.yul\":7778:7796   */\n      dup1\n        /* \"#utility.yul\":7768:7849   */\n      tag_146\n      jumpi\n        /* \"#utility.yul\":7834:7838   */\n      0x7f\n        /* \"#utility.yul\":7826:7832   */\n      dup3\n        /* \"#utility.yul\":7822:7839   */\n      and\n        /* \"#utility.yul\":7812:7839   */\n      swap2\n      pop\n        /* \"#utility.yul\":7768:7849   */\n    tag_146:\n        /* \"#utility.yul\":7896:7898   */\n      0x20\n        /* \"#utility.yul\":7888:7894   */\n      dup3\n        /* \"#utility.yul\":7885:7899   */\n      lt\n        /* \"#utility.yul\":7865:7883   */\n      dup2\n        /* \"#utility.yul\":7862:7900   */\n      eq\n        /* \"#utility.yul\":7859:7943   */\n      iszero\n      tag_147\n      jumpi\n        /* \"#utility.yul\":7915:7933   */\n      tag_148\n      tag_149\n      jump\t// in\n    tag_148:\n        /* \"#utility.yul\":7859:7943   */\n    tag_147:\n        /* \"#utility.yul\":7680:7949   */\n      pop\n        /* \"#utility.yul\":7629:7949   */\n      swap2\n      swap1\n      pop\n      jump\t// out\n        /* \"#utility.yul\":7955:8236   */\n    tag_121:\n        /* \"#utility.yul\":8038:8065   */\n      tag_151\n        /* \"#utility.yul\":8060:8064   */\n      dup3\n        /* \"#utility.yul\":8038:8065   */\n      tag_99\n      jump\t// in\n    tag_151:\n        /* \"#utility.yul\":8030:8036   */\n      dup2\n        /* \"#utility.yul\":8026:8066   */\n      add\n        /* \"#utility.yul\":8168:8174   */\n      dup2\n        /* \"#utility.yul\":8156:8166   */\n      dup2\n        /* \"#utility.yul\":8153:8175   */\n      lt\n        /* \"#utility.yul\":8132:8150   */\n      0xffffffffffffffff\n        /* \"#utility.yul\":8120:8130   */\n      dup3\n        /* \"#utility.yul\":8117:8151   */\n      gt\n        /* \"#utility.yul\":8114:8176   */\n      or\n        /* \"#utility.yul\":8111:8199   */\n      iszero\n      tag_152\n      jumpi\n        /* \"#utility.yul\":8179:8197   */\n      tag_153\n      tag_22\n      jump\t// in\n    tag_153:\n        /* \"#utility.yul\":8111:8199   */\n    tag_152:\n        /* \"#utility.yul\":8219:8229   */\n      dup1\n        /* \"#utility.yul\":8215:8217   */\n      0x40\n        /* \"#utility.yul\":8208:8230   */\n      mstore\n        /* \"#utility.yul\":7998:8236   */\n      pop\n        /* \"#utility.yul\":7955:8236   */\n      pop\n      pop\n      jump\t// out\n        /* \"#utility.yul\":8242:8422   */\n    tag_149:\n        /* \"#utility.yul\":8290:8367   */\n      0x4e487b7100000000000000000000000000000000000000000000000000000000\n        /* \"#utility.yul\":8287:8288   */\n      0x00\n        /* \"#utility.yul\":8280:8368   */\n      mstore\n        /* \"#utility.yul\":8387:8391   */\n      0x22\n        /* \"#utility.yul\":8384:8385   */\n      0x04\n        /* \"#utility.yul\":8377:8392   */\n      mstore\n        /* \"#utility.yul\":8411:8415   */\n      0x24\n        /* \"#utility.yul\":8408:8409   */\n      0x00\n        /* \"#utility.yul\":8401:8416   */\n      revert\n        /* \"#utility.yul\":8428:8608   */\n    tag_22:\n        /* \"#utility.yul\":8476:8553   */\n      0x4e487b7100000000000000000000000000000000000000000000000000000000\n        /* \"#utility.yul\":8473:8474   */\n      0x00\n        /* \"#utility.yul\":8466:8554   */\n      mstore\n        /* \"#utility.yul\":8573:8577   */\n      0x41\n        /* \"#utility.yul\":8570:8571   */\n      0x04\n        /* \"#utility.yul\":8563:8578   */\n      mstore\n        /* \"#utility.yul\":8597:8601   */\n      0x24\n        /* \"#utility.yul\":8594:8595   */\n      0x00\n        /* \"#utility.yul\":8587:8602   */\n      revert\n        /* \"#utility.yul\":8614:8731   */\n    tag_54:\n        /* \"#utility.yul\":8723:8724   */\n      0x00\n        /* \"#utility.yul\":8720:8721   */\n      dup1\n        /* \"#utility.yul\":8713:8725   */\n      revert\n        /* \"#utility.yul\":8737:8854   */\n    tag_47:\n        /* \"#utility.yul\":8846:8847   */\n      0x00\n        /* \"#utility.yul\":8843:8844   */\n      dup1\n        /* \"#utility.yul\":8836:8848   */\n      revert\n        /* \"#utility.yul\":8860:8977   */\n    tag_62:\n        /* \"#utility.yul\":8969:8970   */\n      0x00\n        /* \"#utility.yul\":8966:8967   */\n      dup1\n        /* \"#utility.yul\":8959:8971   */\n      revert\n        /* \"#utility.yul\":8983:9100   */\n    tag_59:\n        /* \"#utility.yul\":9092:9093   */\n      0x00\n        /* \"#utility.yul\":9089:9090   */\n      dup1\n        /* \"#utility.yul\":9082:9094   */\n      revert\n        /* \"#utility.yul\":9106:9208   */\n    tag_99:\n        /* \"#utility.yul\":9147:9153   */\n      0x00\n        /* \"#utility.yul\":9198:9200   */\n      0x1f\n        /* \"#utility.yul\":9194:9201   */\n      not\n        /* \"#utility.yul\":9189:9191   */\n      0x1f\n        /* \"#utility.yul\":9182:9187   */\n      dup4\n        /* \"#utility.yul\":9178:9192   */\n      add\n        /* \"#utility.yul\":9174:9202   */\n      and\n        /* \"#utility.yul\":9164:9202   */\n      swap1\n      pop\n        /* \"#utility.yul\":9106:9208   */\n      swap2\n      swap1\n      pop\n      jump\t// out\n\n    auxdata: 0xa26469706673582212209a78a74e817d38ea953170c16bbc8c6e5bed84c5bdfa732f317a3cf7ecb3df9c64736f6c63430008070033\n}\n",
				"bytecode": {
					"linkReferences": {},
					"object": "608060405234801561001057600080fd5b506107af806100206000396000f3fe608060405234801561001057600080fd5b50600436106100365760003560e01c8063672385621461003b5780636e13f81814610057575b600080fd5b61005560048036038101906100509190610369565b610075565b005b61005f6101c8565b60405161006c919061053c565b60405180910390f35b600080805490509050600060405180608001604052808381526020018481526020016000151581526020016000151581525090806001815401808255809150506001900390600052602060002090600302016000909190919091506000820151816000015560208201518160010190805190602001906100f692919061022a565b5060408201518160020160006101000a81548160ff02191690831515021790555060608201518160020160016101000a81548160ff0219169083151502179055505050336001600083815260200190815260200160002060006101000a81548173ffffffffffffffffffffffffffffffffffffffff021916908373ffffffffffffffffffffffffffffffffffffffff1602179055507f1f54e1ba1832d428fbd7e7792beaf62b1fc5a382c207ffd614209c1413e94fda33826040516101bc929190610513565b60405180910390a15050565b60606000808054905067ffffffffffffffff8111156101ea576101e9610725565b5b60405190808252806020026020018201604052801561022357816020015b6102106102b0565b8152602001906001900390816102085790505b5090505090565b82805461023690610693565b90600052602060002090601f016020900481019282610258576000855561029f565b82601f1061027157805160ff191683800117855561029f565b8280016001018555821561029f579182015b8281111561029e578251825591602001919060010190610283565b5b5090506102ac91906102dc565b5090565b604051806080016040528060008152602001606081526020016000151581526020016000151581525090565b5b808211156102f55760008160009055506001016102dd565b5090565b600061030c61030784610583565b61055e565b90508281526020810184848401111561032857610327610759565b5b610333848285610651565b509392505050565b600082601f8301126103505761034f610754565b5b81356103608482602086016102f9565b91505092915050565b60006020828403121561037f5761037e610763565b5b600082013567ffffffffffffffff81111561039d5761039c61075e565b5b6103a98482850161033b565b91505092915050565b60006103be8383610492565b905092915050565b6103cf81610609565b82525050565b60006103e0826105c4565b6103ea81856105e7565b9350836020820285016103fc856105b4565b8060005b85811015610438578484038952815161041985826103b2565b9450610424836105da565b925060208a01995050600181019050610400565b50829750879550505050505092915050565b6104538161061b565b82525050565b6000610464826105cf565b61046e81856105f8565b935061047e818560208601610660565b61048781610768565b840191505092915050565b60006080830160008301516104aa60008601826104f5565b50602083015184820360208601526104c28282610459565b91505060408301516104d7604086018261044a565b5060608301516104ea606086018261044a565b508091505092915050565b6104fe81610647565b82525050565b61050d81610647565b82525050565b600060408201905061052860008301856103c6565b6105356020830184610504565b9392505050565b6000602082019050818103600083015261055681846103d5565b905092915050565b6000610568610579565b905061057482826106c5565b919050565b6000604051905090565b600067ffffffffffffffff82111561059e5761059d610725565b5b6105a782610768565b9050602081019050919050565b6000819050602082019050919050565b600081519050919050565b600081519050919050565b6000602082019050919050565b600082825260208201905092915050565b600082825260208201905092915050565b600061061482610627565b9050919050565b60008115159050919050565b600073ffffffffffffffffffffffffffffffffffffffff82169050919050565b6000819050919050565b82818337600083830152505050565b60005b8381101561067e578082015181840152602081019050610663565b8381111561068d576000848401525b50505050565b600060028204905060018216806106ab57607f821691505b602082108114156106bf576106be6106f6565b5b50919050565b6106ce82610768565b810181811067ffffffffffffffff821117156106ed576106ec610725565b5b80604052505050565b7f4e487b7100000000000000000000000000000000000000000000000000000000600052602260045260246000fd5b7f4e487b7100000000000000000000000000000000000000000000000000000000600052604160045260246000fd5b600080fd5b600080fd5b600080fd5b600080fd5b6000601f19601f830116905091905056fea26469706673582212209a78a74e817d38ea953170c16bbc8c6e5bed84c5bdfa732f317a3cf7ecb3df9c64736f6c63430008070033",
					"opcodes": "PUSH1 0x80 PUSH1 0x40 MSTORE CALLVALUE DUP1 ISZERO PUSH2 0x10 JUMPI PUSH1 0x0 DUP1 REVERT JUMPDEST POP PUSH2 0x7AF DUP1 PUSH2 0x20 PUSH1 0x0 CODECOPY PUSH1 0x0 RETURN INVALID PUSH1 0x80 PUSH1 0x40 MSTORE CALLVALUE DUP1 ISZERO PUSH2 0x10 JUMPI PUSH1 0x0 DUP1 REVERT JUMPDEST POP PUSH1 0x4 CALLDATASIZE LT PUSH2 0x36 JUMPI PUSH1 0x0 CALLDATALOAD PUSH1 0xE0 SHR DUP1 PUSH4 0x67238562 EQ PUSH2 0x3B JUMPI DUP1 PUSH4 0x6E13F818 EQ PUSH2 0x57 JUMPI JUMPDEST PUSH1 0x0 DUP1 REVERT JUMPDEST PUSH2 0x55 PUSH1 0x4 DUP1 CALLDATASIZE SUB DUP2 ADD SWAP1 PUSH2 0x50 SWAP2 SWAP1 PUSH2 0x369 JUMP JUMPDEST PUSH2 0x75 JUMP JUMPDEST STOP JUMPDEST PUSH2 0x5F PUSH2 0x1C8 JUMP JUMPDEST PUSH1 0x40 MLOAD PUSH2 0x6C SWAP2 SWAP1 PUSH2 0x53C JUMP JUMPDEST PUSH1 0x40 MLOAD DUP1 SWAP2 SUB SWAP1 RETURN JUMPDEST PUSH1 0x0 DUP1 DUP1 SLOAD SWAP1 POP SWAP1 POP PUSH1 0x0 PUSH1 0x40 MLOAD DUP1 PUSH1 0x80 ADD PUSH1 0x40 MSTORE DUP1 DUP4 DUP2 MSTORE PUSH1 0x20 ADD DUP5 DUP2 MSTORE PUSH1 0x20 ADD PUSH1 0x0 ISZERO ISZERO DUP2 MSTORE PUSH1 0x20 ADD PUSH1 0x0 ISZERO ISZERO DUP2 MSTORE POP SWAP1 DUP1 PUSH1 0x1 DUP2 SLOAD ADD DUP1 DUP3 SSTORE DUP1 SWAP2 POP POP PUSH1 0x1 SWAP1 SUB SWAP1 PUSH1 0x0 MSTORE PUSH1 0x20 PUSH1 0x0 KECCAK256 SWAP1 PUSH1 0x3 MUL ADD PUSH1 0x0 SWAP1 SWAP2 SWAP1 SWAP2 SWAP1 SWAP2 POP PUSH1 0x0 DUP3 ADD MLOAD DUP2 PUSH1 0x0 ADD SSTORE PUSH1 0x20 DUP3 ADD MLOAD DUP2 PUSH1 0x1 ADD SWAP1 DUP1 MLOAD SWAP1 PUSH1 0x20 ADD SWAP1 PUSH2 0xF6 SWAP3 SWAP2 SWAP1 PUSH2 0x22A JUMP JUMPDEST POP PUSH1 0x40 DUP3 ADD MLOAD DUP2 PUSH1 0x2 ADD PUSH1 0x0 PUSH2 0x100 EXP DUP2 SLOAD DUP2 PUSH1 0xFF MUL NOT AND SWAP1 DUP4 ISZERO ISZERO MUL OR SWAP1 SSTORE POP PUSH1 0x60 DUP3 ADD MLOAD DUP2 PUSH1 0x2 ADD PUSH1 0x1 PUSH2 0x100 EXP DUP2 SLOAD DUP2 PUSH1 0xFF MUL NOT AND SWAP1 DUP4 ISZERO ISZERO MUL OR SWAP1 SSTORE POP POP POP CALLER PUSH1 0x1 PUSH1 0x0 DUP4 DUP2 MSTORE PUSH1 0x20 ADD SWAP1 DUP2 MSTORE PUSH1 0x20 ADD PUSH1 0x0 KECCAK256 PUSH1 0x0 PUSH2 0x100 EXP DUP2 SLOAD DUP2 PUSH20 0xFFFFFFFFFFFFFFFFFFFFFFFFFFFFFFFFFFFFFFFF MUL NOT AND SWAP1 DUP4 PUSH20 0xFFFFFFFFFFFFFFFFFFFFFFFFFFFFFFFFFFFFFFFF AND MUL OR SWAP1 SSTORE POP PUSH32 0x1F54E1BA1832D428FBD7E7792BEAF62B1FC5A382C207FFD614209C1413E94FDA CALLER DUP3 PUSH1 0x40 MLOAD PUSH2 0x1BC SWAP3 SWAP2 SWAP1 PUSH2 0x513 JUMP JUMPDEST PUSH1 0x40 MLOAD DUP1 SWAP2 SUB SWAP1 LOG1 POP POP JUMP JUMPDEST PUSH1 0x60 PUSH1 0x0 DUP1 DUP1 SLOAD SWAP1 POP PUSH8 0xFFFFFFFFFFFFFFFF DUP2 GT ISZERO PUSH2 0x1EA JUMPI PUSH2 0x1E9 PUSH2 0x725 JUMP JUMPDEST JUMPDEST PUSH1 0x40 MLOAD SWAP1 DUP1 DUP3 MSTORE DUP1 PUSH1 0x20 MUL PUSH1 0x20 ADD DUP3 ADD PUSH1 0x40 MSTORE DUP1 ISZERO PUSH2 0x223 JUMPI DUP2 PUSH1 0x20 ADD JUMPDEST PUSH2 0x210 PUSH2 0x2B0 JUMP JUMPDEST DUP2 MSTORE PUSH1 0x20 ADD SWAP1 PUSH1 0x1 SWAP1 SUB SWAP1 DUP2 PUSH2 0x208 JUMPI SWAP1 POP JUMPDEST POP SWAP1 POP POP SWAP1 JUMP JUMPDEST DUP3 DUP1 SLOAD PUSH2 0x236 SWAP1 PUSH2 0x693 JUMP JUMPDEST SWAP1 PUSH1 0x0 MSTORE PUSH1 0x20 PUSH1 0x0 KECCAK256 SWAP1 PUSH1 0x1F ADD PUSH1 0x20 SWAP1 DIV DUP2 ADD SWAP3 DUP3 PUSH2 0x258 JUMPI PUSH1 0x0 DUP6 SSTORE PUSH2 0x29F JUMP JUMPDEST DUP3 PUSH1 0x1F LT PUSH2 0x271 JUMPI DUP1 MLOAD PUSH1 0xFF NOT AND DUP4 DUP1 ADD OR DUP6 SSTORE PUSH2 0x29F JUMP JUMPDEST DUP3 DUP1 ADD PUSH1 0x1 ADD DUP6 SSTORE DUP3 ISZERO PUSH2 0x29F JUMPI SWAP2 DUP3 ADD JUMPDEST DUP3 DUP2 GT ISZERO PUSH2 0x29E JUMPI DUP3 MLOAD DUP3 SSTORE SWAP2 PUSH1 0x20 ADD SWAP2 SWAP1 PUSH1 0x1 ADD SWAP1 PUSH2 0x283 JUMP JUMPDEST JUMPDEST POP SWAP1 POP PUSH2 0x2AC SWAP2 SWAP1 PUSH2 0x2DC JUMP JUMPDEST POP SWAP1 JUMP JUMPDEST PUSH1 0x40 MLOAD DUP1 PUSH1 0x80 ADD PUSH1 0x40 MSTORE DUP1 PUSH1 0x0 DUP2 MSTORE PUSH1 0x20 ADD PUSH1 0x60 DUP2 MSTORE PUSH1 0x20 ADD PUSH1 0x0 ISZERO ISZERO DUP2 MSTORE PUSH1 0x20 ADD PUSH1 0x0 ISZERO ISZERO DUP2 MSTORE POP SWAP1 JUMP JUMPDEST JUMPDEST DUP1 DUP3 GT ISZERO PUSH2 0x2F5 JUMPI PUSH1 0x0 DUP2 PUSH1 0x0 SWAP1 SSTORE POP PUSH1 0x1 ADD PUSH2 0x2DD JUMP JUMPDEST POP SWAP1 JUMP JUMPDEST PUSH1 0x0 PUSH2 0x30C PUSH2 0x307 DUP5 PUSH2 0x583 JUMP JUMPDEST PUSH2 0x55E JUMP JUMPDEST SWAP1 POP DUP3 DUP2 MSTORE PUSH1 0x20 DUP2 ADD DUP5 DUP5 DUP5 ADD GT ISZERO PUSH2 0x328 JUMPI PUSH2 0x327 PUSH2 0x759 JUMP JUMPDEST JUMPDEST PUSH2 0x333 DUP5 DUP3 DUP6 PUSH2 0x651 JUMP JUMPDEST POP SWAP4 SWAP3 POP POP POP JUMP JUMPDEST PUSH1 0x0 DUP3 PUSH1 0x1F DUP4 ADD SLT PUSH2 0x350 JUMPI PUSH2 0x34F PUSH2 0x754 JUMP JUMPDEST JUMPDEST DUP2 CALLDATALOAD PUSH2 0x360 DUP5 DUP3 PUSH1 0x20 DUP7 ADD PUSH2 0x2F9 JUMP JUMPDEST SWAP2 POP POP SWAP3 SWAP2 POP POP JUMP JUMPDEST PUSH1 0x0 PUSH1 0x20 DUP3 DUP5 SUB SLT ISZERO PUSH2 0x37F JUMPI PUSH2 0x37E PUSH2 0x763 JUMP JUMPDEST JUMPDEST PUSH1 0x0 DUP3 ADD CALLDATALOAD PUSH8 0xFFFFFFFFFFFFFFFF DUP2 GT ISZERO PUSH2 0x39D JUMPI PUSH2 0x39C PUSH2 0x75E JUMP JUMPDEST JUMPDEST PUSH2 0x3A9 DUP5 DUP3 DUP6 ADD PUSH2 0x33B JUMP JUMPDEST SWAP2 POP POP SWAP3 SWAP2 POP POP JUMP JUMPDEST PUSH1 0x0 PUSH2 0x3BE DUP4 DUP4 PUSH2 0x492 JUMP JUMPDEST SWAP1 POP SWAP3 SWAP2 POP POP JUMP JUMPDEST PUSH2 0x3CF DUP2 PUSH2 0x609 JUMP JUMPDEST DUP3 MSTORE POP POP JUMP JUMPDEST PUSH1 0x0 PUSH2 0x3E0 DUP3 PUSH2 0x5C4 JUMP JUMPDEST PUSH2 0x3EA DUP2 DUP6 PUSH2 0x5E7 JUMP JUMPDEST SWAP4 POP DUP4 PUSH1 0x20 DUP3 MUL DUP6 ADD PUSH2 0x3FC DUP6 PUSH2 0x5B4 JUMP JUMPDEST DUP1 PUSH1 0x0 JUMPDEST DUP6 DUP2 LT ISZERO PUSH2 0x438 JUMPI DUP5 DUP5 SUB DUP10 MSTORE DUP2 MLOAD PUSH2 0x419 DUP6 DUP3 PUSH2 0x3B2 JUMP JUMPDEST SWAP5 POP PUSH2 0x424 DUP4 PUSH2 0x5DA JUMP JUMPDEST SWAP3 POP PUSH1 0x20 DUP11 ADD SWAP10 POP POP PUSH1 0x1 DUP2 ADD SWAP1 POP PUSH2 0x400 JUMP JUMPDEST POP DUP3 SWAP8 POP DUP8 SWAP6 POP POP POP POP POP POP SWAP3 SWAP2 POP POP JUMP JUMPDEST PUSH2 0x453 DUP2 PUSH2 0x61B JUMP JUMPDEST DUP3 MSTORE POP POP JUMP JUMPDEST PUSH1 0x0 PUSH2 0x464 DUP3 PUSH2 0x5CF JUMP JUMPDEST PUSH2 0x46E DUP2 DUP6 PUSH2 0x5F8 JUMP JUMPDEST SWAP4 POP PUSH2 0x47E DUP2 DUP6 PUSH1 0x20 DUP7 ADD PUSH2 0x660 JUMP JUMPDEST PUSH2 0x487 DUP2 PUSH2 0x768 JUMP JUMPDEST DUP5 ADD SWAP2 POP POP SWAP3 SWAP2 POP POP JUMP JUMPDEST PUSH1 0x0 PUSH1 0x80 DUP4 ADD PUSH1 0x0 DUP4 ADD MLOAD PUSH2 0x4AA PUSH1 0x0 DUP7 ADD DUP3 PUSH2 0x4F5 JUMP JUMPDEST POP PUSH1 0x20 DUP4 ADD MLOAD DUP5 DUP3 SUB PUSH1 0x20 DUP7 ADD MSTORE PUSH2 0x4C2 DUP3 DUP3 PUSH2 0x459 JUMP JUMPDEST SWAP2 POP POP PUSH1 0x40 DUP4 ADD MLOAD PUSH2 0x4D7 PUSH1 0x40 DUP7 ADD DUP3 PUSH2 0x44A JUMP JUMPDEST POP PUSH1 0x60 DUP4 ADD MLOAD PUSH2 0x4EA PUSH1 0x60 DUP7 ADD DUP3 PUSH2 0x44A JUMP JUMPDEST POP DUP1 SWAP2 POP POP SWAP3 SWAP2 POP POP JUMP JUMPDEST PUSH2 0x4FE DUP2 PUSH2 0x647 JUMP JUMPDEST DUP3 MSTORE POP POP JUMP JUMPDEST PUSH2 0x50D DUP2 PUSH2 0x647 JUMP JUMPDEST DUP3 MSTORE POP POP JUMP JUMPDEST PUSH1 0x0 PUSH1 0x40 DUP3 ADD SWAP1 POP PUSH2 0x528 PUSH1 0x0 DUP4 ADD DUP6 PUSH2 0x3C6 JUMP JUMPDEST PUSH2 0x535 PUSH1 0x20 DUP4 ADD DUP5 PUSH2 0x504 JUMP JUMPDEST SWAP4 SWAP3 POP POP POP JUMP JUMPDEST PUSH1 0x0 PUSH1 0x20 DUP3 ADD SWAP1 POP DUP2 DUP2 SUB PUSH1 0x0 DUP4 ADD MSTORE PUSH2 0x556 DUP2 DUP5 PUSH2 0x3D5 JUMP JUMPDEST SWAP1 POP SWAP3 SWAP2 POP POP JUMP JUMPDEST PUSH1 0x0 PUSH2 0x568 PUSH2 0x579 JUMP JUMPDEST SWAP1 POP PUSH2 0x574 DUP3 DUP3 PUSH2 0x6C5 JUMP JUMPDEST SWAP2 SWAP1 POP JUMP JUMPDEST PUSH1 0x0 PUSH1 0x40 MLOAD SWAP1 POP SWAP1 JUMP JUMPDEST PUSH1 0x0 PUSH8 0xFFFFFFFFFFFFFFFF DUP3 GT ISZERO PUSH2 0x59E JUMPI PUSH2 0x59D PUSH2 0x725 JUMP JUMPDEST JUMPDEST PUSH2 0x5A7 DUP3 PUSH2 0x768 JUMP JUMPDEST SWAP1 POP PUSH1 0x20 DUP2 ADD SWAP1 POP SWAP2 SWAP1 POP JUMP JUMPDEST PUSH1 0x0 DUP2 SWAP1 POP PUSH1 0x20 DUP3 ADD SWAP1 POP SWAP2 SWAP1 POP JUMP JUMPDEST PUSH1 0x0 DUP2 MLOAD SWAP1 POP SWAP2 SWAP1 POP JUMP JUMPDEST PUSH1 0x0 DUP2 MLOAD SWAP1 POP SWAP2 SWAP1 POP JUMP JUMPDEST PUSH1 0x0 PUSH1 0x20 DUP3 ADD SWAP1 POP SWAP2 SWAP1 POP JUMP JUMPDEST PUSH1 0x0 DUP3 DUP3 MSTORE PUSH1 0x20 DUP3 ADD SWAP1 POP SWAP3 SWAP2 POP POP JUMP JUMPDEST PUSH1 0x0 DUP3 DUP3 MSTORE PUSH1 0x20 DUP3 ADD SWAP1 POP SWAP3 SWAP2 POP POP JUMP JUMPDEST PUSH1 0x0 PUSH2 0x614 DUP3 PUSH2 0x627 JUMP JUMPDEST SWAP1 POP SWAP2 SWAP1 POP JUMP JUMPDEST PUSH1 0x0 DUP2 ISZERO ISZERO SWAP1 POP SWAP2 SWAP1 POP JUMP JUMPDEST PUSH1 0x0 PUSH20 0xFFFFFFFFFFFFFFFFFFFFFFFFFFFFFFFFFFFFFFFF DUP3 AND SWAP1 POP SWAP2 SWAP1 POP JUMP JUMPDEST PUSH1 0x0 DUP2 SWAP1 POP SWAP2 SWAP1 POP JUMP JUMPDEST DUP3 DUP2 DUP4 CALLDATACOPY PUSH1 0x0 DUP4 DUP4 ADD MSTORE POP POP POP JUMP JUMPDEST PUSH1 0x0 JUMPDEST DUP4 DUP2 LT ISZERO PUSH2 0x67E JUMPI DUP1 DUP3 ADD MLOAD DUP2 DUP5 ADD MSTORE PUSH1 0x20 DUP2 ADD SWAP1 POP PUSH2 0x663 JUMP JUMPDEST DUP4 DUP2 GT ISZERO PUSH2 0x68D JUMPI PUSH1 0x0 DUP5 DUP5 ADD MSTORE JUMPDEST POP POP POP POP JUMP JUMPDEST PUSH1 0x0 PUSH1 0x2 DUP3 DIV SWAP1 POP PUSH1 0x1 DUP3 AND DUP1 PUSH2 0x6AB JUMPI PUSH1 0x7F DUP3 AND SWAP2 POP JUMPDEST PUSH1 0x20 DUP3 LT DUP2 EQ ISZERO PUSH2 0x6BF JUMPI PUSH2 0x6BE PUSH2 0x6F6 JUMP JUMPDEST JUMPDEST POP SWAP2 SWAP1 POP JUMP JUMPDEST PUSH2 0x6CE DUP3 PUSH2 0x768 JUMP JUMPDEST DUP2 ADD DUP2 DUP2 LT PUSH8 0xFFFFFFFFFFFFFFFF DUP3 GT OR ISZERO PUSH2 0x6ED JUMPI PUSH2 0x6EC PUSH2 0x725 JUMP JUMPDEST JUMPDEST DUP1 PUSH1 0x40 MSTORE POP POP POP JUMP JUMPDEST PUSH32 0x4E487B7100000000000000000000000000000000000000000000000000000000 PUSH1 0x0 MSTORE PUSH1 0x22 PUSH1 0x4 MSTORE PUSH1 0x24 PUSH1 0x0 REVERT JUMPDEST PUSH32 0x4E487B7100000000000000000000000000000000000000000000000000000000 PUSH1 0x0 MSTORE PUSH1 0x41 PUSH1 0x4 MSTORE PUSH1 0x24 PUSH1 0x0 REVERT JUMPDEST PUSH1 0x0 DUP1 REVERT JUMPDEST PUSH1 0x0 DUP1 REVERT JUMPDEST PUSH1 0x0 DUP1 REVERT JUMPDEST PUSH1 0x0 DUP1 REVERT JUMPDEST PUSH1 0x0 PUSH1 0x1F NOT PUSH1 0x1F DUP4 ADD AND SWAP1 POP SWAP2 SWAP1 POP JUMP INVALID LOG2 PUSH5 0x6970667358 0x22 SLT KECCAK256 SWAP11 PUSH25 0xA74E817D38EA953170C16BBC8C6E5BED84C5BDFA732F317A3C 0xF7 0xEC 0xB3 0xDF SWAP13 PUSH5 0x736F6C6343 STOP ADDMOD SMOD STOP CALLER "
				},
				"gasEstimates": {
					"creation": {
						"codeDepositCost": "393400",
						"executionCost": "430",
						"totalCost": "393830"
					},
					"external": {
						"addTask(string)": "infinite",
						"getMyTasks()": "infinite"
					}
				},
				"methodIdentifiers": {
					"addTask(string)": "67238562",
					"getMyTasks()": "6e13f818"
				}
			},
			"storageLayout": {
				"storage": [
					{
						"astId": 26,
						"contract": "contracts/TaskContract.sol:TaskContract",
						"label": "tasks",
						"offset": 0,
						"slot": "0",
						"type": "t_array(t_struct(Task)22_storage)dyn_storage"
					},
					{
						"astId": 30,
						"contract": "contracts/TaskContract.sol:TaskContract",
						"label": "taskToOwner",
						"offset": 0,
						"slot": "1",
						"type": "t_mapping(t_uint256,t_address)"
					}
				],
				"types": {
					"t_address": {
						"encoding": "inplace",
						"label": "address",
						"numberOfBytes": "20"
					},
					"t_array(t_struct(Task)22_storage)dyn_storage": {
						"base": "t_struct(Task)22_storage",
						"encoding": "dynamic_array",
						"label": "struct TaskContract.Task[]",
						"numberOfBytes": "32"
					},
					"t_bool": {
						"encoding": "inplace",
						"label": "bool",
						"numberOfBytes": "1"
					},
					"t_mapping(t_uint256,t_address)": {
						"encoding": "mapping",
						"key": "t_uint256",
						"label": "mapping(uint256 => address)",
						"numberOfBytes": "32",
						"value": "t_address"
					},
					"t_string_storage": {
						"encoding": "bytes",
						"label": "string",
						"numberOfBytes": "32"
					},
					"t_struct(Task)22_storage": {
						"encoding": "inplace",
						"label": "struct TaskContract.Task",
						"members": [
							{
								"astId": 15,
								"contract": "contracts/TaskContract.sol:TaskContract",
								"label": "id",
								"offset": 0,
								"slot": "0",
								"type": "t_uint256"
							},
							{
								"astId": 17,
								"contract": "contracts/TaskContract.sol:TaskContract",
								"label": "taskText",
								"offset": 0,
								"slot": "1",
								"type": "t_string_storage"
							},
							{
								"astId": 19,
								"contract": "contracts/TaskContract.sol:TaskContract",
								"label": "isImportant",
								"offset": 0,
								"slot": "2",
								"type": "t_bool"
							},
							{
								"astId": 21,
								"contract": "contracts/TaskContract.sol:TaskContract",
								"label": "isDone",
								"offset": 1,
								"slot": "2",
								"type": "t_bool"
							}
						],
						"numberOfBytes": "96"
					},
					"t_uint256": {
						"encoding": "inplace",
						"label": "uint256",
						"numberOfBytes": "32"
					}
				}
			},
			"userdoc": {
				"kind": "user",
				"methods": {},
				"version": 1
			}
		}
	}
}