{
	"contracts/TaskContract.sol": {
		"TaskContract": {
			"abi": [
				{
					"anonymous": false,
					"inputs": [
						{
							"indexed": false,
							"internalType": "address",
							"name": "recipient",
							"type": "address"
						},
						{
							"indexed": false,
							"internalType": "uint256",
							"name": "taskId",
							"type": "uint256"
						}
					],
					"name": "AddTask",
					"type": "event"
				},
				{
					"anonymous": false,
					"inputs": [
						{
							"indexed": false,
							"internalType": "uint256",
							"name": "taskId",
							"type": "uint256"
						},
						{
							"indexed": false,
							"internalType": "bool",
							"name": "isDone",
							"type": "bool"
						}
					],
					"name": "DeleteTask",
					"type": "event"
				},
				{
					"inputs": [
						{
							"internalType": "string",
							"name": "taskText",
							"type": "string"
						}
					],
					"name": "addTask",
					"outputs": [],
					"stateMutability": "nonpayable",
					"type": "function"
				},
				{
					"inputs": [],
					"name": "getMyTasks",
					"outputs": [
						{
							"components": [
								{
									"internalType": "uint256",
									"name": "id",
									"type": "uint256"
								},
								{
									"internalType": "string",
									"name": "taskText",
									"type": "string"
								},
								{
									"internalType": "bool",
									"name": "isImportant",
									"type": "bool"
								},
								{
									"internalType": "bool",
									"name": "isDone",
									"type": "bool"
								}
							],
							"internalType": "struct TaskContract.Task[]",
							"name": "",
							"type": "tuple[]"
						}
					],
					"stateMutability": "view",
					"type": "function"
				}
			],
			"devdoc": {
				"kind": "dev",
				"methods": {},
				"version": 1
			},
			"evm": {
				"assembly": "    /* \"contracts/TaskContract.sol\":66:1042  contract TaskContract {... */\n  mstore(0x40, 0x80)\n  callvalue\n  dup1\n  iszero\n  tag_1\n  jumpi\n  0x00\n  dup1\n  revert\ntag_1:\n  pop\n  dataSize(sub_0)\n  dup1\n  dataOffset(sub_0)\n  0x00\n  codecopy\n  0x00\n  return\nstop\n\nsub_0: assembly {\n        /* \"contracts/TaskContract.sol\":66:1042  contract TaskContract {... */\n      mstore(0x40, 0x80)\n      callvalue\n      dup1\n      iszero\n      tag_1\n      jumpi\n      0x00\n      dup1\n      revert\n    tag_1:\n      pop\n      jumpi(tag_2, lt(calldatasize, 0x04))\n      shr(0xe0, calldataload(0x00))\n      dup1\n      0x67238562\n      eq\n      tag_3\n      jumpi\n      dup1\n      0x6e13f818\n      eq\n      tag_4\n      jumpi\n    tag_2:\n      0x00\n      dup1\n      revert\n        /* \"contracts/TaskContract.sol\":351:568  function addTask(string memory taskText) external {... */\n    tag_3:\n      tag_5\n      0x04\n      dup1\n      calldatasize\n      sub\n      dup2\n      add\n      swap1\n      tag_6\n      swap2\n      swap1\n      tag_7\n      jump\t// in\n    tag_6:\n      tag_8\n      jump\t// in\n    tag_5:\n      stop\n        /* \"contracts/TaskContract.sol\":572:1040  function getMyTasks() external view returns(Task[] memory){... */\n    tag_4:\n      tag_9\n      tag_10\n      jump\t// in\n    tag_9:\n      mload(0x40)\n      tag_11\n      swap2\n      swap1\n      tag_12\n      jump\t// in\n    tag_11:\n      mload(0x40)\n      dup1\n      swap2\n      sub\n      swap1\n      return\n        /* \"contracts/TaskContract.sol\":351:568  function addTask(string memory taskText) external {... */\n    tag_8:\n        /* \"contracts/TaskContract.sol\":407:418  uint taskId */\n      0x00\n        /* \"contracts/TaskContract.sol\":421:426  tasks */\n      dup1\n        /* \"contracts/TaskContract.sol\":421:433  tasks.length */\n      dup1\n      sload\n      swap1\n      pop\n        /* \"contracts/TaskContract.sol\":407:433  uint taskId = tasks.length */\n      swap1\n      pop\n        /* \"contracts/TaskContract.sol\":439:444  tasks */\n      0x00\n        /* \"contracts/TaskContract.sol\":450:486  Task(taskId, taskText, false, false) */\n      mload(0x40)\n      dup1\n      0x80\n      add\n      0x40\n      mstore\n      dup1\n        /* \"contracts/TaskContract.sol\":455:461  taskId */\n      dup4\n        /* \"contracts/TaskContract.sol\":450:486  Task(taskId, taskText, false, false) */\n      dup2\n      mstore\n      0x20\n      add\n        /* \"contracts/TaskContract.sol\":463:471  taskText */\n      dup5\n        /* \"contracts/TaskContract.sol\":450:486  Task(taskId, taskText, false, false) */\n      dup2\n      mstore\n      0x20\n      add\n        /* \"contracts/TaskContract.sol\":473:478  false */\n      0x00\n        /* \"contracts/TaskContract.sol\":450:486  Task(taskId, taskText, false, false) */\n      iszero\n      iszero\n      dup2\n      mstore\n      0x20\n      add\n        /* \"contracts/TaskContract.sol\":480:485  false */\n      0x00\n        /* \"contracts/TaskContract.sol\":450:486  Task(taskId, taskText, false, false) */\n      iszero\n      iszero\n      dup2\n      mstore\n      pop\n        /* \"contracts/TaskContract.sol\":439:487  tasks.push(Task(taskId, taskText, false, false)) */\n      swap1\n      dup1\n      0x01\n      dup2\n      sload\n      add\n      dup1\n      dup3\n      sstore\n      dup1\n      swap2\n      pop\n      pop\n      0x01\n      swap1\n      sub\n      swap1\n      0x00\n      mstore\n      keccak256(0x00, 0x20)\n      swap1\n      0x03\n      mul\n      add\n      0x00\n      swap1\n      swap2\n      swap1\n      swap2\n      swap1\n      swap2\n      pop\n      0x00\n      dup3\n      add\n      mload\n      dup2\n      0x00\n      add\n      sstore\n      0x20\n      dup3\n      add\n      mload\n      dup2\n      0x01\n      add\n      swap1\n      dup1\n      mload\n      swap1\n      0x20\n      add\n      swap1\n      tag_15\n      swap3\n      swap2\n      swap1\n      tag_16\n      jump\t// in\n    tag_15:\n      pop\n      0x40\n      dup3\n      add\n      mload\n      dup2\n      0x02\n      add\n      exp(0x0100, 0x00)\n      dup2\n      sload\n      dup2\n      0xff\n      mul\n      not\n      and\n      swap1\n      dup4\n      iszero\n      iszero\n      mul\n      or\n      swap1\n      sstore\n      pop\n      0x60\n      dup3\n      add\n      mload\n      dup2\n      0x02\n      add\n      exp(0x0100, 0x01)\n      dup2\n      sload\n      dup2\n      0xff\n      mul\n      not\n      and\n      swap1\n      dup4\n      iszero\n      iszero\n      mul\n      or\n      swap1\n      sstore\n      pop\n      pop\n      pop\n        /* \"contracts/TaskContract.sol\":515:525  msg.sender */\n      caller\n        /* \"contracts/TaskContract.sol\":493:504  taskToOwner */\n      0x01\n        /* \"contracts/TaskContract.sol\":493:512  taskToOwner[taskId] */\n      0x00\n        /* \"contracts/TaskContract.sol\":505:511  taskId */\n      dup4\n        /* \"contracts/TaskContract.sol\":493:512  taskToOwner[taskId] */\n      dup2\n      mstore\n      0x20\n      add\n      swap1\n      dup2\n      mstore\n      0x20\n      add\n      0x00\n      keccak256\n      0x00\n        /* \"contracts/TaskContract.sol\":493:525  taskToOwner[taskId] = msg.sender */\n      0x0100\n      exp\n      dup2\n      sload\n      dup2\n      0xffffffffffffffffffffffffffffffffffffffff\n      mul\n      not\n      and\n      swap1\n      dup4\n      0xffffffffffffffffffffffffffffffffffffffff\n      and\n      mul\n      or\n      swap1\n      sstore\n      pop\n        /* \"contracts/TaskContract.sol\":536:563  AddTask(msg.sender, taskId) */\n      0x1f54e1ba1832d428fbd7e7792beaf62b1fc5a382c207ffd614209c1413e94fda\n        /* \"contracts/TaskContract.sol\":544:554  msg.sender */\n      caller\n        /* \"contracts/TaskContract.sol\":556:562  taskId */\n      dup3\n        /* \"contracts/TaskContract.sol\":536:563  AddTask(msg.sender, taskId) */\n      mload(0x40)\n      tag_17\n      swap3\n      swap2\n      swap1\n      tag_18\n      jump\t// in\n    tag_17:\n      mload(0x40)\n      dup1\n      swap2\n      sub\n      swap1\n      log1\n        /* \"contracts/TaskContract.sol\":401:568  {... */\n      pop\n        /* \"contracts/TaskContract.sol\":351:568  function addTask(string memory taskText) external {... */\n      pop\n      jump\t// out\n        /* \"contracts/TaskContract.sol\":572:1040  function getMyTasks() external view returns(Task[] memory){... */\n    tag_10:\n        /* \"contracts/TaskContract.sol\":616:629  Task[] memory */\n      0x60\n        /* \"contracts/TaskContract.sol\":636:659  Task[] memory temporary */\n      0x00\n        /* \"contracts/TaskContract.sol\":674:679  tasks */\n      dup1\n        /* \"contracts/TaskContract.sol\":674:686  tasks.length */\n      dup1\n      sload\n      swap1\n      pop\n        /* \"contracts/TaskContract.sol\":662:687  new Task[] (tasks.length) */\n      0xffffffffffffffff\n      dup2\n      gt\n      iszero\n      tag_20\n      jumpi\n      tag_21\n      tag_22\n      jump\t// in\n    tag_21:\n    tag_20:\n      mload(0x40)\n      swap1\n      dup1\n      dup3\n      mstore\n      dup1\n      0x20\n      mul\n      0x20\n      add\n      dup3\n      add\n      0x40\n      mstore\n      dup1\n      iszero\n      tag_23\n      jumpi\n      dup2\n      0x20\n      add\n    tag_24:\n      tag_25\n      tag_26\n      jump\t// in\n    tag_25:\n      dup2\n      mstore\n      0x20\n      add\n      swap1\n      0x01\n      swap1\n      sub\n      swap1\n      dup2\n      tag_24\n      jumpi\n      swap1\n      pop\n    tag_23:\n      pop\n        /* \"contracts/TaskContract.sol\":636:687  Task[] memory temporary = new Task[] (tasks.length) */\n      swap1\n      pop\n        /* \"contracts/TaskContract.sol\":693:705  uint counter */\n      0x00\n        /* \"contracts/TaskContract.sol\":720:726  uint i */\n      dup1\n        /* \"contracts/TaskContract.sol\":716:893  for(uint i=0; i<tasks.length; i++) {... */\n    tag_27:\n        /* \"contracts/TaskContract.sol\":732:737  tasks */\n      0x00\n        /* \"contracts/TaskContract.sol\":732:744  tasks.length */\n      dup1\n      sload\n      swap1\n      pop\n        /* \"contracts/TaskContract.sol\":730:731  i */\n      dup2\n        /* \"contracts/TaskContract.sol\":730:744  i<tasks.length */\n      lt\n        /* \"contracts/TaskContract.sol\":716:893  for(uint i=0; i<tasks.length; i++) {... */\n      iszero\n      tag_28\n      jumpi\n        /* \"contracts/TaskContract.sol\":780:790  msg.sender */\n      caller\n        /* \"contracts/TaskContract.sol\":762:790  taskToOwner[i] == msg.sender */\n      0xffffffffffffffffffffffffffffffffffffffff\n      and\n        /* \"contracts/TaskContract.sol\":762:773  taskToOwner */\n      0x01\n        /* \"contracts/TaskContract.sol\":762:776  taskToOwner[i] */\n      0x00\n        /* \"contracts/TaskContract.sol\":774:775  i */\n      dup4\n        /* \"contracts/TaskContract.sol\":762:776  taskToOwner[i] */\n      dup2\n      mstore\n      0x20\n      add\n      swap1\n      dup2\n      mstore\n      0x20\n      add\n      0x00\n      keccak256\n      0x00\n      swap1\n      sload\n      swap1\n      0x0100\n      exp\n      swap1\n      div\n      0xffffffffffffffffffffffffffffffffffffffff\n      and\n        /* \"contracts/TaskContract.sol\":762:790  taskToOwner[i] == msg.sender */\n      0xffffffffffffffffffffffffffffffffffffffff\n      and\n      eq\n        /* \"contracts/TaskContract.sol\":762:818  taskToOwner[i] == msg.sender && tasks[i].isDone == false */\n      dup1\n      iszero\n      tag_30\n      jumpi\n      pop\n        /* \"contracts/TaskContract.sol\":813:818  false */\n      0x00\n        /* \"contracts/TaskContract.sol\":794:818  tasks[i].isDone == false */\n      iszero\n      iszero\n        /* \"contracts/TaskContract.sol\":794:799  tasks */\n      0x00\n        /* \"contracts/TaskContract.sol\":800:801  i */\n      dup3\n        /* \"contracts/TaskContract.sol\":794:802  tasks[i] */\n      dup2\n      sload\n      dup2\n      lt\n      tag_31\n      jumpi\n      tag_32\n      tag_33\n      jump\t// in\n    tag_32:\n    tag_31:\n      swap1\n      0x00\n      mstore\n      keccak256(0x00, 0x20)\n      swap1\n      0x03\n      mul\n      add\n        /* \"contracts/TaskContract.sol\":794:809  tasks[i].isDone */\n      0x02\n      add\n      0x01\n      swap1\n      sload\n      swap1\n      0x0100\n      exp\n      swap1\n      div\n      0xff\n      and\n        /* \"contracts/TaskContract.sol\":794:818  tasks[i].isDone == false */\n      iszero\n      iszero\n      eq\n        /* \"contracts/TaskContract.sol\":762:818  taskToOwner[i] == msg.sender && tasks[i].isDone == false */\n    tag_30:\n        /* \"contracts/TaskContract.sol\":759:887  if(taskToOwner[i] == msg.sender && tasks[i].isDone == false) {... */\n      iszero\n      tag_35\n      jumpi\n        /* \"contracts/TaskContract.sol\":851:856  tasks */\n      0x00\n        /* \"contracts/TaskContract.sol\":857:858  i */\n      dup2\n        /* \"contracts/TaskContract.sol\":851:859  tasks[i] */\n      dup2\n      sload\n      dup2\n      lt\n      tag_36\n      jumpi\n      tag_37\n      tag_33\n      jump\t// in\n    tag_37:\n    tag_36:\n      swap1\n      0x00\n      mstore\n      keccak256(0x00, 0x20)\n      swap1\n      0x03\n      mul\n      add\n        /* \"contracts/TaskContract.sol\":830:859  temporary[counter] = tasks[i] */\n      mload(0x40)\n      dup1\n      0x80\n      add\n      0x40\n      mstore\n      swap1\n      dup2\n      0x00\n      dup3\n      add\n      sload\n      dup2\n      mstore\n      0x20\n      add\n      0x01\n      dup3\n      add\n      dup1\n      sload\n      tag_39\n      swap1\n      tag_40\n      jump\t// in\n    tag_39:\n      dup1\n      0x1f\n      add\n      0x20\n      dup1\n      swap2\n      div\n      mul\n      0x20\n      add\n      mload(0x40)\n      swap1\n      dup2\n      add\n      0x40\n      mstore\n      dup1\n      swap3\n      swap2\n      swap1\n      dup2\n      dup2\n      mstore\n      0x20\n      add\n      dup3\n      dup1\n      sload\n      tag_41\n      swap1\n      tag_40\n      jump\t// in\n    tag_41:\n      dup1\n      iszero\n      tag_42\n      jumpi\n      dup1\n      0x1f\n      lt\n      tag_43\n      jumpi\n      0x0100\n      dup1\n      dup4\n      sload\n      div\n      mul\n      dup4\n      mstore\n      swap2\n      0x20\n      add\n      swap2\n      jump(tag_42)\n    tag_43:\n      dup3\n      add\n      swap2\n      swap1\n      0x00\n      mstore\n      keccak256(0x00, 0x20)\n      swap1\n    tag_44:\n      dup2\n      sload\n      dup2\n      mstore\n      swap1\n      0x01\n      add\n      swap1\n      0x20\n      add\n      dup1\n      dup4\n      gt\n      tag_44\n      jumpi\n      dup3\n      swap1\n      sub\n      0x1f\n      and\n      dup3\n      add\n      swap2\n    tag_42:\n      pop\n      pop\n      pop\n      pop\n      pop\n      dup2\n      mstore\n      0x20\n      add\n      0x02\n      dup3\n      add\n      0x00\n      swap1\n      sload\n      swap1\n      0x0100\n      exp\n      swap1\n      div\n      0xff\n      and\n      iszero\n      iszero\n      iszero\n      iszero\n      dup2\n      mstore\n      0x20\n      add\n      0x02\n      dup3\n      add\n      0x01\n      swap1\n      sload\n      swap1\n      0x0100\n      exp\n      swap1\n      div\n      0xff\n      and\n      iszero\n      iszero\n      iszero\n      iszero\n      dup2\n      mstore\n      pop\n      pop\n        /* \"contracts/TaskContract.sol\":830:839  temporary */\n      dup4\n        /* \"contracts/TaskContract.sol\":840:847  counter */\n      dup4\n        /* \"contracts/TaskContract.sol\":830:848  temporary[counter] */\n      dup2\n      mload\n      dup2\n      lt\n      tag_45\n      jumpi\n      tag_46\n      tag_33\n      jump\t// in\n    tag_46:\n    tag_45:\n      0x20\n      mul\n      0x20\n      add\n      add\n        /* \"contracts/TaskContract.sol\":830:859  temporary[counter] = tasks[i] */\n      dup2\n      swap1\n      mstore\n      pop\n        /* \"contracts/TaskContract.sol\":869:878  counter++ */\n      dup2\n      dup1\n      tag_47\n      swap1\n      tag_48\n      jump\t// in\n    tag_47:\n      swap3\n      pop\n      pop\n        /* \"contracts/TaskContract.sol\":759:887  if(taskToOwner[i] == msg.sender && tasks[i].isDone == false) {... */\n    tag_35:\n        /* \"contracts/TaskContract.sol\":746:749  i++ */\n      dup1\n      dup1\n      tag_49\n      swap1\n      tag_48\n      jump\t// in\n    tag_49:\n      swap2\n      pop\n      pop\n        /* \"contracts/TaskContract.sol\":716:893  for(uint i=0; i<tasks.length; i++) {... */\n      jump(tag_27)\n    tag_28:\n      pop\n        /* \"contracts/TaskContract.sol\":899:919  Task[] memory result */\n      0x00\n        /* \"contracts/TaskContract.sol\":933:940  counter */\n      dup2\n        /* \"contracts/TaskContract.sol\":922:941  new Task[](counter) */\n      0xffffffffffffffff\n      dup2\n      gt\n      iszero\n      tag_50\n      jumpi\n      tag_51\n      tag_22\n      jump\t// in\n    tag_51:\n    tag_50:\n      mload(0x40)\n      swap1\n      dup1\n      dup3\n      mstore\n      dup1\n      0x20\n      mul\n      0x20\n      add\n      dup3\n      add\n      0x40\n      mstore\n      dup1\n      iszero\n      tag_52\n      jumpi\n      dup2\n      0x20\n      add\n    tag_53:\n      tag_54\n      tag_26\n      jump\t// in\n    tag_54:\n      dup2\n      mstore\n      0x20\n      add\n      swap1\n      0x01\n      swap1\n      sub\n      swap1\n      dup2\n      tag_53\n      jumpi\n      swap1\n      pop\n    tag_52:\n      pop\n        /* \"contracts/TaskContract.sol\":899:941  Task[] memory result = new Task[](counter) */\n      swap1\n      pop\n        /* \"contracts/TaskContract.sol\":952:958  uint i */\n      0x00\n        /* \"contracts/TaskContract.sol\":947:1016  for (uint i=0; i<counter; i++){... */\n    tag_55:\n        /* \"contracts/TaskContract.sol\":964:971  counter */\n      dup3\n        /* \"contracts/TaskContract.sol\":962:963  i */\n      dup2\n        /* \"contracts/TaskContract.sol\":962:971  i<counter */\n      lt\n        /* \"contracts/TaskContract.sol\":947:1016  for (uint i=0; i<counter; i++){... */\n      iszero\n      tag_56\n      jumpi\n        /* \"contracts/TaskContract.sol\":997:1006  temporary */\n      dup4\n        /* \"contracts/TaskContract.sol\":1007:1008  i */\n      dup2\n        /* \"contracts/TaskContract.sol\":997:1009  temporary[i] */\n      dup2\n      mload\n      dup2\n      lt\n      tag_58\n      jumpi\n      tag_59\n      tag_33\n      jump\t// in\n    tag_59:\n    tag_58:\n      0x20\n      mul\n      0x20\n      add\n      add\n      mload\n        /* \"contracts/TaskContract.sol\":985:991  result */\n      dup3\n        /* \"contracts/TaskContract.sol\":992:993  i */\n      dup3\n        /* \"contracts/TaskContract.sol\":985:994  result[i] */\n      dup2\n      mload\n      dup2\n      lt\n      tag_60\n      jumpi\n      tag_61\n      tag_33\n      jump\t// in\n    tag_61:\n    tag_60:\n      0x20\n      mul\n      0x20\n      add\n      add\n        /* \"contracts/TaskContract.sol\":985:1009  result[i] = temporary[i] */\n      dup2\n      swap1\n      mstore\n      pop\n        /* \"contracts/TaskContract.sol\":973:976  i++ */\n      dup1\n      dup1\n      tag_62\n      swap1\n      tag_48\n      jump\t// in\n    tag_62:\n      swap2\n      pop\n      pop\n        /* \"contracts/TaskContract.sol\":947:1016  for (uint i=0; i<counter; i++){... */\n      jump(tag_55)\n    tag_56:\n      pop\n        /* \"contracts/TaskContract.sol\":1029:1035  result */\n      dup1\n        /* \"contracts/TaskContract.sol\":1022:1035  return result */\n      swap4\n      pop\n      pop\n      pop\n      pop\n        /* \"contracts/TaskContract.sol\":572:1040  function getMyTasks() external view returns(Task[] memory){... */\n      swap1\n      jump\t// out\n    tag_16:\n      dup3\n      dup1\n      sload\n      tag_63\n      swap1\n      tag_40\n      jump\t// in\n    tag_63:\n      swap1\n      0x00\n      mstore\n      keccak256(0x00, 0x20)\n      swap1\n      0x1f\n      add\n      0x20\n      swap1\n      div\n      dup2\n      add\n      swap3\n      dup3\n      tag_65\n      jumpi\n      0x00\n      dup6\n      sstore\n      jump(tag_64)\n    tag_65:\n      dup3\n      0x1f\n      lt\n      tag_66\n      jumpi\n      dup1\n      mload\n      not(0xff)\n      and\n      dup4\n      dup1\n      add\n      or\n      dup6\n      sstore\n      jump(tag_64)\n    tag_66:\n      dup3\n      dup1\n      add\n      0x01\n      add\n      dup6\n      sstore\n      dup3\n      iszero\n      tag_64\n      jumpi\n      swap2\n      dup3\n      add\n    tag_67:\n      dup3\n      dup2\n      gt\n      iszero\n      tag_68\n      jumpi\n      dup3\n      mload\n      dup3\n      sstore\n      swap2\n      0x20\n      add\n      swap2\n      swap1\n      0x01\n      add\n      swap1\n      jump(tag_67)\n    tag_68:\n    tag_64:\n      pop\n      swap1\n      pop\n      tag_69\n      swap2\n      swap1\n      tag_70\n      jump\t// in\n    tag_69:\n      pop\n      swap1\n      jump\t// out\n    tag_26:\n      mload(0x40)\n      dup1\n      0x80\n      add\n      0x40\n      mstore\n      dup1\n      0x00\n      dup2\n      mstore\n      0x20\n      add\n      0x60\n      dup2\n      mstore\n      0x20\n      add\n      iszero(iszero(0x00))\n      dup2\n      mstore\n      0x20\n      add\n      iszero(iszero(0x00))\n      dup2\n      mstore\n      pop\n      swap1\n      jump\t// out\n    tag_70:\n    tag_71:\n      dup1\n      dup3\n      gt\n      iszero\n      tag_72\n      jumpi\n      0x00\n      dup2\n      0x00\n      swap1\n      sstore\n      pop\n      0x01\n      add\n      jump(tag_71)\n    tag_72:\n      pop\n      swap1\n      jump\t// out\n        /* \"#utility.yul\":7:419   */\n    tag_74:\n        /* \"#utility.yul\":85:90   */\n      0x00\n        /* \"#utility.yul\":110:176   */\n      tag_76\n        /* \"#utility.yul\":126:175   */\n      tag_77\n        /* \"#utility.yul\":168:174   */\n      dup5\n        /* \"#utility.yul\":126:175   */\n      tag_78\n      jump\t// in\n    tag_77:\n        /* \"#utility.yul\":110:176   */\n      tag_79\n      jump\t// in\n    tag_76:\n        /* \"#utility.yul\":101:176   */\n      swap1\n      pop\n        /* \"#utility.yul\":199:205   */\n      dup3\n        /* \"#utility.yul\":192:197   */\n      dup2\n        /* \"#utility.yul\":185:206   */\n      mstore\n        /* \"#utility.yul\":237:241   */\n      0x20\n        /* \"#utility.yul\":230:235   */\n      dup2\n        /* \"#utility.yul\":226:242   */\n      add\n        /* \"#utility.yul\":275:278   */\n      dup5\n        /* \"#utility.yul\":266:272   */\n      dup5\n        /* \"#utility.yul\":261:264   */\n      dup5\n        /* \"#utility.yul\":257:273   */\n      add\n        /* \"#utility.yul\":254:279   */\n      gt\n        /* \"#utility.yul\":251:363   */\n      iszero\n      tag_80\n      jumpi\n        /* \"#utility.yul\":282:361   */\n      tag_81\n      tag_82\n      jump\t// in\n    tag_81:\n        /* \"#utility.yul\":251:363   */\n    tag_80:\n        /* \"#utility.yul\":372:413   */\n      tag_83\n        /* \"#utility.yul\":406:412   */\n      dup5\n        /* \"#utility.yul\":401:404   */\n      dup3\n        /* \"#utility.yul\":396:399   */\n      dup6\n        /* \"#utility.yul\":372:413   */\n      tag_84\n      jump\t// in\n    tag_83:\n        /* \"#utility.yul\":91:419   */\n      pop\n        /* \"#utility.yul\":7:419   */\n      swap4\n      swap3\n      pop\n      pop\n      pop\n      jump\t// out\n        /* \"#utility.yul\":439:779   */\n    tag_85:\n        /* \"#utility.yul\":495:500   */\n      0x00\n        /* \"#utility.yul\":544:547   */\n      dup3\n        /* \"#utility.yul\":537:541   */\n      0x1f\n        /* \"#utility.yul\":529:535   */\n      dup4\n        /* \"#utility.yul\":525:542   */\n      add\n        /* \"#utility.yul\":521:548   */\n      slt\n        /* \"#utility.yul\":511:633   */\n      tag_87\n      jumpi\n        /* \"#utility.yul\":552:631   */\n      tag_88\n      tag_89\n      jump\t// in\n    tag_88:\n        /* \"#utility.yul\":511:633   */\n    tag_87:\n        /* \"#utility.yul\":669:675   */\n      dup2\n        /* \"#utility.yul\":656:676   */\n      calldataload\n        /* \"#utility.yul\":694:773   */\n      tag_90\n        /* \"#utility.yul\":769:772   */\n      dup5\n        /* \"#utility.yul\":761:767   */\n      dup3\n        /* \"#utility.yul\":754:758   */\n      0x20\n        /* \"#utility.yul\":746:752   */\n      dup7\n        /* \"#utility.yul\":742:759   */\n      add\n        /* \"#utility.yul\":694:773   */\n      tag_74\n      jump\t// in\n    tag_90:\n        /* \"#utility.yul\":685:773   */\n      swap2\n      pop\n        /* \"#utility.yul\":501:779   */\n      pop\n        /* \"#utility.yul\":439:779   */\n      swap3\n      swap2\n      pop\n      pop\n      jump\t// out\n        /* \"#utility.yul\":785:1294   */\n    tag_7:\n        /* \"#utility.yul\":854:860   */\n      0x00\n        /* \"#utility.yul\":903:905   */\n      0x20\n        /* \"#utility.yul\":891:900   */\n      dup3\n        /* \"#utility.yul\":882:889   */\n      dup5\n        /* \"#utility.yul\":878:901   */\n      sub\n        /* \"#utility.yul\":874:906   */\n      slt\n        /* \"#utility.yul\":871:990   */\n      iszero\n      tag_92\n      jumpi\n        /* \"#utility.yul\":909:988   */\n      tag_93\n      tag_94\n      jump\t// in\n    tag_93:\n        /* \"#utility.yul\":871:990   */\n    tag_92:\n        /* \"#utility.yul\":1057:1058   */\n      0x00\n        /* \"#utility.yul\":1046:1055   */\n      dup3\n        /* \"#utility.yul\":1042:1059   */\n      add\n        /* \"#utility.yul\":1029:1060   */\n      calldataload\n        /* \"#utility.yul\":1087:1105   */\n      0xffffffffffffffff\n        /* \"#utility.yul\":1079:1085   */\n      dup2\n        /* \"#utility.yul\":1076:1106   */\n      gt\n        /* \"#utility.yul\":1073:1190   */\n      iszero\n      tag_95\n      jumpi\n        /* \"#utility.yul\":1109:1188   */\n      tag_96\n      tag_97\n      jump\t// in\n    tag_96:\n        /* \"#utility.yul\":1073:1190   */\n    tag_95:\n        /* \"#utility.yul\":1214:1277   */\n      tag_98\n        /* \"#utility.yul\":1269:1276   */\n      dup5\n        /* \"#utility.yul\":1260:1266   */\n      dup3\n        /* \"#utility.yul\":1249:1258   */\n      dup6\n        /* \"#utility.yul\":1245:1267   */\n      add\n        /* \"#utility.yul\":1214:1277   */\n      tag_85\n      jump\t// in\n    tag_98:\n        /* \"#utility.yul\":1204:1277   */\n      swap2\n      pop\n        /* \"#utility.yul\":1000:1287   */\n      pop\n        /* \"#utility.yul\":785:1294   */\n      swap3\n      swap2\n      pop\n      pop\n      jump\t// out\n        /* \"#utility.yul\":1300:1536   */\n    tag_99:\n        /* \"#utility.yul\":1409:1419   */\n      0x00\n        /* \"#utility.yul\":1444:1530   */\n      tag_101\n        /* \"#utility.yul\":1526:1529   */\n      dup4\n        /* \"#utility.yul\":1518:1524   */\n      dup4\n        /* \"#utility.yul\":1444:1530   */\n      tag_102\n      jump\t// in\n    tag_101:\n        /* \"#utility.yul\":1430:1530   */\n      swap1\n      pop\n        /* \"#utility.yul\":1300:1536   */\n      swap3\n      swap2\n      pop\n      pop\n      jump\t// out\n        /* \"#utility.yul\":1542:1660   */\n    tag_103:\n        /* \"#utility.yul\":1629:1653   */\n      tag_105\n        /* \"#utility.yul\":1647:1652   */\n      dup2\n        /* \"#utility.yul\":1629:1653   */\n      tag_106\n      jump\t// in\n    tag_105:\n        /* \"#utility.yul\":1624:1627   */\n      dup3\n        /* \"#utility.yul\":1617:1654   */\n      mstore\n        /* \"#utility.yul\":1542:1660   */\n      pop\n      pop\n      jump\t// out\n        /* \"#utility.yul\":1730:2801   */\n    tag_107:\n        /* \"#utility.yul\":1889:1892   */\n      0x00\n        /* \"#utility.yul\":1918:1992   */\n      tag_109\n        /* \"#utility.yul\":1986:1991   */\n      dup3\n        /* \"#utility.yul\":1918:1992   */\n      tag_110\n      jump\t// in\n    tag_109:\n        /* \"#utility.yul\":2008:2114   */\n      tag_111\n        /* \"#utility.yul\":2107:2113   */\n      dup2\n        /* \"#utility.yul\":2102:2105   */\n      dup6\n        /* \"#utility.yul\":2008:2114   */\n      tag_112\n      jump\t// in\n    tag_111:\n        /* \"#utility.yul\":2001:2114   */\n      swap4\n      pop\n        /* \"#utility.yul\":2140:2143   */\n      dup4\n        /* \"#utility.yul\":2185:2189   */\n      0x20\n        /* \"#utility.yul\":2177:2183   */\n      dup3\n        /* \"#utility.yul\":2173:2190   */\n      mul\n        /* \"#utility.yul\":2168:2171   */\n      dup6\n        /* \"#utility.yul\":2164:2191   */\n      add\n        /* \"#utility.yul\":2215:2291   */\n      tag_113\n        /* \"#utility.yul\":2285:2290   */\n      dup6\n        /* \"#utility.yul\":2215:2291   */\n      tag_114\n      jump\t// in\n    tag_113:\n        /* \"#utility.yul\":2314:2321   */\n      dup1\n        /* \"#utility.yul\":2345:2346   */\n      0x00\n        /* \"#utility.yul\":2330:2756   */\n    tag_115:\n        /* \"#utility.yul\":2355:2361   */\n      dup6\n        /* \"#utility.yul\":2352:2353   */\n      dup2\n        /* \"#utility.yul\":2349:2362   */\n      lt\n        /* \"#utility.yul\":2330:2756   */\n      iszero\n      tag_117\n      jumpi\n        /* \"#utility.yul\":2426:2435   */\n      dup5\n        /* \"#utility.yul\":2420:2424   */\n      dup5\n        /* \"#utility.yul\":2416:2436   */\n      sub\n        /* \"#utility.yul\":2411:2414   */\n      dup10\n        /* \"#utility.yul\":2404:2437   */\n      mstore\n        /* \"#utility.yul\":2477:2483   */\n      dup2\n        /* \"#utility.yul\":2471:2484   */\n      mload\n        /* \"#utility.yul\":2505:2609   */\n      tag_118\n        /* \"#utility.yul\":2604:2608   */\n      dup6\n        /* \"#utility.yul\":2589:2602   */\n      dup3\n        /* \"#utility.yul\":2505:2609   */\n      tag_99\n      jump\t// in\n    tag_118:\n        /* \"#utility.yul\":2497:2609   */\n      swap5\n      pop\n        /* \"#utility.yul\":2632:2712   */\n      tag_119\n        /* \"#utility.yul\":2705:2711   */\n      dup4\n        /* \"#utility.yul\":2632:2712   */\n      tag_120\n      jump\t// in\n    tag_119:\n        /* \"#utility.yul\":2622:2712   */\n      swap3\n      pop\n        /* \"#utility.yul\":2741:2745   */\n      0x20\n        /* \"#utility.yul\":2736:2739   */\n      dup11\n        /* \"#utility.yul\":2732:2746   */\n      add\n        /* \"#utility.yul\":2725:2746   */\n      swap10\n      pop\n        /* \"#utility.yul\":2390:2756   */\n      pop\n        /* \"#utility.yul\":2377:2378   */\n      0x01\n        /* \"#utility.yul\":2374:2375   */\n      dup2\n        /* \"#utility.yul\":2370:2379   */\n      add\n        /* \"#utility.yul\":2365:2379   */\n      swap1\n      pop\n        /* \"#utility.yul\":2330:2756   */\n      jump(tag_115)\n    tag_117:\n        /* \"#utility.yul\":2334:2348   */\n      pop\n        /* \"#utility.yul\":2772:2776   */\n      dup3\n        /* \"#utility.yul\":2765:2776   */\n      swap8\n      pop\n        /* \"#utility.yul\":2792:2795   */\n      dup8\n        /* \"#utility.yul\":2785:2795   */\n      swap6\n      pop\n        /* \"#utility.yul\":1894:2801   */\n      pop\n      pop\n      pop\n      pop\n      pop\n        /* \"#utility.yul\":1730:2801   */\n      swap3\n      swap2\n      pop\n      pop\n      jump\t// out\n        /* \"#utility.yul\":2807:2906   */\n    tag_121:\n        /* \"#utility.yul\":2878:2899   */\n      tag_123\n        /* \"#utility.yul\":2893:2898   */\n      dup2\n        /* \"#utility.yul\":2878:2899   */\n      tag_124\n      jump\t// in\n    tag_123:\n        /* \"#utility.yul\":2873:2876   */\n      dup3\n        /* \"#utility.yul\":2866:2900   */\n      mstore\n        /* \"#utility.yul\":2807:2906   */\n      pop\n      pop\n      jump\t// out\n        /* \"#utility.yul\":2912:3256   */\n    tag_125:\n        /* \"#utility.yul\":2990:2993   */\n      0x00\n        /* \"#utility.yul\":3018:3057   */\n      tag_127\n        /* \"#utility.yul\":3051:3056   */\n      dup3\n        /* \"#utility.yul\":3018:3057   */\n      tag_128\n      jump\t// in\n    tag_127:\n        /* \"#utility.yul\":3073:3134   */\n      tag_129\n        /* \"#utility.yul\":3127:3133   */\n      dup2\n        /* \"#utility.yul\":3122:3125   */\n      dup6\n        /* \"#utility.yul\":3073:3134   */\n      tag_130\n      jump\t// in\n    tag_129:\n        /* \"#utility.yul\":3066:3134   */\n      swap4\n      pop\n        /* \"#utility.yul\":3143:3195   */\n      tag_131\n        /* \"#utility.yul\":3188:3194   */\n      dup2\n        /* \"#utility.yul\":3183:3186   */\n      dup6\n        /* \"#utility.yul\":3176:3180   */\n      0x20\n        /* \"#utility.yul\":3169:3174   */\n      dup7\n        /* \"#utility.yul\":3165:3181   */\n      add\n        /* \"#utility.yul\":3143:3195   */\n      tag_132\n      jump\t// in\n    tag_131:\n        /* \"#utility.yul\":3220:3249   */\n      tag_133\n        /* \"#utility.yul\":3242:3248   */\n      dup2\n        /* \"#utility.yul\":3220:3249   */\n      tag_134\n      jump\t// in\n    tag_133:\n        /* \"#utility.yul\":3215:3218   */\n      dup5\n        /* \"#utility.yul\":3211:3250   */\n      add\n        /* \"#utility.yul\":3204:3250   */\n      swap2\n      pop\n        /* \"#utility.yul\":2994:3256   */\n      pop\n        /* \"#utility.yul\":2912:3256   */\n      swap3\n      swap2\n      pop\n      pop\n      jump\t// out\n        /* \"#utility.yul\":3322:4255   */\n    tag_102:\n        /* \"#utility.yul\":3421:3424   */\n      0x00\n        /* \"#utility.yul\":3457:3461   */\n      0x80\n        /* \"#utility.yul\":3452:3455   */\n      dup4\n        /* \"#utility.yul\":3448:3462   */\n      add\n        /* \"#utility.yul\":3542:3546   */\n      0x00\n        /* \"#utility.yul\":3535:3540   */\n      dup4\n        /* \"#utility.yul\":3531:3547   */\n      add\n        /* \"#utility.yul\":3525:3548   */\n      mload\n        /* \"#utility.yul\":3561:3624   */\n      tag_136\n        /* \"#utility.yul\":3618:3622   */\n      0x00\n        /* \"#utility.yul\":3613:3616   */\n      dup7\n        /* \"#utility.yul\":3609:3623   */\n      add\n        /* \"#utility.yul\":3595:3607   */\n      dup3\n        /* \"#utility.yul\":3561:3624   */\n      tag_137\n      jump\t// in\n    tag_136:\n        /* \"#utility.yul\":3472:3634   */\n      pop\n        /* \"#utility.yul\":3720:3724   */\n      0x20\n        /* \"#utility.yul\":3713:3718   */\n      dup4\n        /* \"#utility.yul\":3709:3725   */\n      add\n        /* \"#utility.yul\":3703:3726   */\n      mload\n        /* \"#utility.yul\":3773:3776   */\n      dup5\n        /* \"#utility.yul\":3767:3771   */\n      dup3\n        /* \"#utility.yul\":3763:3777   */\n      sub\n        /* \"#utility.yul\":3756:3760   */\n      0x20\n        /* \"#utility.yul\":3751:3754   */\n      dup7\n        /* \"#utility.yul\":3747:3761   */\n      add\n        /* \"#utility.yul\":3740:3778   */\n      mstore\n        /* \"#utility.yul\":3799:3872   */\n      tag_138\n        /* \"#utility.yul\":3867:3871   */\n      dup3\n        /* \"#utility.yul\":3853:3865   */\n      dup3\n        /* \"#utility.yul\":3799:3872   */\n      tag_125\n      jump\t// in\n    tag_138:\n        /* \"#utility.yul\":3791:3872   */\n      swap2\n      pop\n        /* \"#utility.yul\":3644:3883   */\n      pop\n        /* \"#utility.yul\":3972:3976   */\n      0x40\n        /* \"#utility.yul\":3965:3970   */\n      dup4\n        /* \"#utility.yul\":3961:3977   */\n      add\n        /* \"#utility.yul\":3955:3978   */\n      mload\n        /* \"#utility.yul\":3991:4048   */\n      tag_139\n        /* \"#utility.yul\":4042:4046   */\n      0x40\n        /* \"#utility.yul\":4037:4040   */\n      dup7\n        /* \"#utility.yul\":4033:4047   */\n      add\n        /* \"#utility.yul\":4019:4031   */\n      dup3\n        /* \"#utility.yul\":3991:4048   */\n      tag_121\n      jump\t// in\n    tag_139:\n        /* \"#utility.yul\":3893:4058   */\n      pop\n        /* \"#utility.yul\":4142:4146   */\n      0x60\n        /* \"#utility.yul\":4135:4140   */\n      dup4\n        /* \"#utility.yul\":4131:4147   */\n      add\n        /* \"#utility.yul\":4125:4148   */\n      mload\n        /* \"#utility.yul\":4161:4218   */\n      tag_140\n        /* \"#utility.yul\":4212:4216   */\n      0x60\n        /* \"#utility.yul\":4207:4210   */\n      dup7\n        /* \"#utility.yul\":4203:4217   */\n      add\n        /* \"#utility.yul\":4189:4201   */\n      dup3\n        /* \"#utility.yul\":4161:4218   */\n      tag_121\n      jump\t// in\n    tag_140:\n        /* \"#utility.yul\":4068:4228   */\n      pop\n        /* \"#utility.yul\":4245:4249   */\n      dup1\n        /* \"#utility.yul\":4238:4249   */\n      swap2\n      pop\n        /* \"#utility.yul\":3426:4255   */\n      pop\n        /* \"#utility.yul\":3322:4255   */\n      swap3\n      swap2\n      pop\n      pop\n      jump\t// out\n        /* \"#utility.yul\":4261:4369   */\n    tag_137:\n        /* \"#utility.yul\":4338:4362   */\n      tag_142\n        /* \"#utility.yul\":4356:4361   */\n      dup2\n        /* \"#utility.yul\":4338:4362   */\n      tag_143\n      jump\t// in\n    tag_142:\n        /* \"#utility.yul\":4333:4336   */\n      dup3\n        /* \"#utility.yul\":4326:4363   */\n      mstore\n        /* \"#utility.yul\":4261:4369   */\n      pop\n      pop\n      jump\t// out\n        /* \"#utility.yul\":4375:4493   */\n    tag_144:\n        /* \"#utility.yul\":4462:4486   */\n      tag_146\n        /* \"#utility.yul\":4480:4485   */\n      dup2\n        /* \"#utility.yul\":4462:4486   */\n      tag_143\n      jump\t// in\n    tag_146:\n        /* \"#utility.yul\":4457:4460   */\n      dup3\n        /* \"#utility.yul\":4450:4487   */\n      mstore\n        /* \"#utility.yul\":4375:4493   */\n      pop\n      pop\n      jump\t// out\n        /* \"#utility.yul\":4499:4831   */\n    tag_18:\n        /* \"#utility.yul\":4620:4624   */\n      0x00\n        /* \"#utility.yul\":4658:4660   */\n      0x40\n        /* \"#utility.yul\":4647:4656   */\n      dup3\n        /* \"#utility.yul\":4643:4661   */\n      add\n        /* \"#utility.yul\":4635:4661   */\n      swap1\n      pop\n        /* \"#utility.yul\":4671:4742   */\n      tag_148\n        /* \"#utility.yul\":4739:4740   */\n      0x00\n        /* \"#utility.yul\":4728:4737   */\n      dup4\n        /* \"#utility.yul\":4724:4741   */\n      add\n        /* \"#utility.yul\":4715:4721   */\n      dup6\n        /* \"#utility.yul\":4671:4742   */\n      tag_103\n      jump\t// in\n    tag_148:\n        /* \"#utility.yul\":4752:4824   */\n      tag_149\n        /* \"#utility.yul\":4820:4822   */\n      0x20\n        /* \"#utility.yul\":4809:4818   */\n      dup4\n        /* \"#utility.yul\":4805:4823   */\n      add\n        /* \"#utility.yul\":4796:4802   */\n      dup5\n        /* \"#utility.yul\":4752:4824   */\n      tag_144\n      jump\t// in\n    tag_149:\n        /* \"#utility.yul\":4499:4831   */\n      swap4\n      swap3\n      pop\n      pop\n      pop\n      jump\t// out\n        /* \"#utility.yul\":4837:5290   */\n    tag_12:\n        /* \"#utility.yul\":5020:5024   */\n      0x00\n        /* \"#utility.yul\":5058:5060   */\n      0x20\n        /* \"#utility.yul\":5047:5056   */\n      dup3\n        /* \"#utility.yul\":5043:5061   */\n      add\n        /* \"#utility.yul\":5035:5061   */\n      swap1\n      pop\n        /* \"#utility.yul\":5107:5116   */\n      dup2\n        /* \"#utility.yul\":5101:5105   */\n      dup2\n        /* \"#utility.yul\":5097:5117   */\n      sub\n        /* \"#utility.yul\":5093:5094   */\n      0x00\n        /* \"#utility.yul\":5082:5091   */\n      dup4\n        /* \"#utility.yul\":5078:5095   */\n      add\n        /* \"#utility.yul\":5071:5118   */\n      mstore\n        /* \"#utility.yul\":5135:5283   */\n      tag_151\n        /* \"#utility.yul\":5278:5282   */\n      dup2\n        /* \"#utility.yul\":5269:5275   */\n      dup5\n        /* \"#utility.yul\":5135:5283   */\n      tag_107\n      jump\t// in\n    tag_151:\n        /* \"#utility.yul\":5127:5283   */\n      swap1\n      pop\n        /* \"#utility.yul\":4837:5290   */\n      swap3\n      swap2\n      pop\n      pop\n      jump\t// out\n        /* \"#utility.yul\":5296:5425   */\n    tag_79:\n        /* \"#utility.yul\":5330:5336   */\n      0x00\n        /* \"#utility.yul\":5357:5377   */\n      tag_153\n      tag_154\n      jump\t// in\n    tag_153:\n        /* \"#utility.yul\":5347:5377   */\n      swap1\n      pop\n        /* \"#utility.yul\":5386:5419   */\n      tag_155\n        /* \"#utility.yul\":5414:5418   */\n      dup3\n        /* \"#utility.yul\":5406:5412   */\n      dup3\n        /* \"#utility.yul\":5386:5419   */\n      tag_156\n      jump\t// in\n    tag_155:\n        /* \"#utility.yul\":5296:5425   */\n      swap2\n      swap1\n      pop\n      jump\t// out\n        /* \"#utility.yul\":5431:5506   */\n    tag_154:\n        /* \"#utility.yul\":5464:5470   */\n      0x00\n        /* \"#utility.yul\":5497:5499   */\n      0x40\n        /* \"#utility.yul\":5491:5500   */\n      mload\n        /* \"#utility.yul\":5481:5500   */\n      swap1\n      pop\n        /* \"#utility.yul\":5431:5506   */\n      swap1\n      jump\t// out\n        /* \"#utility.yul\":5512:5820   */\n    tag_78:\n        /* \"#utility.yul\":5574:5578   */\n      0x00\n        /* \"#utility.yul\":5664:5682   */\n      0xffffffffffffffff\n        /* \"#utility.yul\":5656:5662   */\n      dup3\n        /* \"#utility.yul\":5653:5683   */\n      gt\n        /* \"#utility.yul\":5650:5706   */\n      iszero\n      tag_159\n      jumpi\n        /* \"#utility.yul\":5686:5704   */\n      tag_160\n      tag_22\n      jump\t// in\n    tag_160:\n        /* \"#utility.yul\":5650:5706   */\n    tag_159:\n        /* \"#utility.yul\":5724:5753   */\n      tag_161\n        /* \"#utility.yul\":5746:5752   */\n      dup3\n        /* \"#utility.yul\":5724:5753   */\n      tag_134\n      jump\t// in\n    tag_161:\n        /* \"#utility.yul\":5716:5753   */\n      swap1\n      pop\n        /* \"#utility.yul\":5808:5812   */\n      0x20\n        /* \"#utility.yul\":5802:5806   */\n      dup2\n        /* \"#utility.yul\":5798:5813   */\n      add\n        /* \"#utility.yul\":5790:5813   */\n      swap1\n      pop\n        /* \"#utility.yul\":5512:5820   */\n      swap2\n      swap1\n      pop\n      jump\t// out\n        /* \"#utility.yul\":5826:5978   */\n    tag_114:\n        /* \"#utility.yul\":5913:5917   */\n      0x00\n        /* \"#utility.yul\":5936:5939   */\n      dup2\n        /* \"#utility.yul\":5928:5939   */\n      swap1\n      pop\n        /* \"#utility.yul\":5966:5970   */\n      0x20\n        /* \"#utility.yul\":5961:5964   */\n      dup3\n        /* \"#utility.yul\":5957:5971   */\n      add\n        /* \"#utility.yul\":5949:5971   */\n      swap1\n      pop\n        /* \"#utility.yul\":5826:5978   */\n      swap2\n      swap1\n      pop\n      jump\t// out\n        /* \"#utility.yul\":5984:6118   */\n    tag_110:\n        /* \"#utility.yul\":6071:6077   */\n      0x00\n        /* \"#utility.yul\":6105:6110   */\n      dup2\n        /* \"#utility.yul\":6099:6111   */\n      mload\n        /* \"#utility.yul\":6089:6111   */\n      swap1\n      pop\n        /* \"#utility.yul\":5984:6118   */\n      swap2\n      swap1\n      pop\n      jump\t// out\n        /* \"#utility.yul\":6124:6223   */\n    tag_128:\n        /* \"#utility.yul\":6176:6182   */\n      0x00\n        /* \"#utility.yul\":6210:6215   */\n      dup2\n        /* \"#utility.yul\":6204:6216   */\n      mload\n        /* \"#utility.yul\":6194:6216   */\n      swap1\n      pop\n        /* \"#utility.yul\":6124:6223   */\n      swap2\n      swap1\n      pop\n      jump\t// out\n        /* \"#utility.yul\":6229:6362   */\n    tag_120:\n        /* \"#utility.yul\":6319:6323   */\n      0x00\n        /* \"#utility.yul\":6351:6355   */\n      0x20\n        /* \"#utility.yul\":6346:6349   */\n      dup3\n        /* \"#utility.yul\":6342:6356   */\n      add\n        /* \"#utility.yul\":6334:6356   */\n      swap1\n      pop\n        /* \"#utility.yul\":6229:6362   */\n      swap2\n      swap1\n      pop\n      jump\t// out\n        /* \"#utility.yul\":6368:6572   */\n    tag_112:\n        /* \"#utility.yul\":6487:6498   */\n      0x00\n        /* \"#utility.yul\":6521:6527   */\n      dup3\n        /* \"#utility.yul\":6516:6519   */\n      dup3\n        /* \"#utility.yul\":6509:6528   */\n      mstore\n        /* \"#utility.yul\":6561:6565   */\n      0x20\n        /* \"#utility.yul\":6556:6559   */\n      dup3\n        /* \"#utility.yul\":6552:6566   */\n      add\n        /* \"#utility.yul\":6537:6566   */\n      swap1\n      pop\n        /* \"#utility.yul\":6368:6572   */\n      swap3\n      swap2\n      pop\n      pop\n      jump\t// out\n        /* \"#utility.yul\":6578:6737   */\n    tag_130:\n        /* \"#utility.yul\":6652:6663   */\n      0x00\n        /* \"#utility.yul\":6686:6692   */\n      dup3\n        /* \"#utility.yul\":6681:6684   */\n      dup3\n        /* \"#utility.yul\":6674:6693   */\n      mstore\n        /* \"#utility.yul\":6726:6730   */\n      0x20\n        /* \"#utility.yul\":6721:6724   */\n      dup3\n        /* \"#utility.yul\":6717:6731   */\n      add\n        /* \"#utility.yul\":6702:6731   */\n      swap1\n      pop\n        /* \"#utility.yul\":6578:6737   */\n      swap3\n      swap2\n      pop\n      pop\n      jump\t// out\n        /* \"#utility.yul\":6743:6839   */\n    tag_106:\n        /* \"#utility.yul\":6780:6787   */\n      0x00\n        /* \"#utility.yul\":6809:6833   */\n      tag_169\n        /* \"#utility.yul\":6827:6832   */\n      dup3\n        /* \"#utility.yul\":6809:6833   */\n      tag_170\n      jump\t// in\n    tag_169:\n        /* \"#utility.yul\":6798:6833   */\n      swap1\n      pop\n        /* \"#utility.yul\":6743:6839   */\n      swap2\n      swap1\n      pop\n      jump\t// out\n        /* \"#utility.yul\":6845:6935   */\n    tag_124:\n        /* \"#utility.yul\":6879:6886   */\n      0x00\n        /* \"#utility.yul\":6922:6927   */\n      dup2\n        /* \"#utility.yul\":6915:6928   */\n      iszero\n        /* \"#utility.yul\":6908:6929   */\n      iszero\n        /* \"#utility.yul\":6897:6929   */\n      swap1\n      pop\n        /* \"#utility.yul\":6845:6935   */\n      swap2\n      swap1\n      pop\n      jump\t// out\n        /* \"#utility.yul\":6941:7067   */\n    tag_170:\n        /* \"#utility.yul\":6978:6985   */\n      0x00\n        /* \"#utility.yul\":7018:7060   */\n      0xffffffffffffffffffffffffffffffffffffffff\n        /* \"#utility.yul\":7011:7016   */\n      dup3\n        /* \"#utility.yul\":7007:7061   */\n      and\n        /* \"#utility.yul\":6996:7061   */\n      swap1\n      pop\n        /* \"#utility.yul\":6941:7067   */\n      swap2\n      swap1\n      pop\n      jump\t// out\n        /* \"#utility.yul\":7073:7150   */\n    tag_143:\n        /* \"#utility.yul\":7110:7117   */\n      0x00\n        /* \"#utility.yul\":7139:7144   */\n      dup2\n        /* \"#utility.yul\":7128:7144   */\n      swap1\n      pop\n        /* \"#utility.yul\":7073:7150   */\n      swap2\n      swap1\n      pop\n      jump\t// out\n        /* \"#utility.yul\":7156:7310   */\n    tag_84:\n        /* \"#utility.yul\":7240:7246   */\n      dup3\n        /* \"#utility.yul\":7235:7238   */\n      dup2\n        /* \"#utility.yul\":7230:7233   */\n      dup4\n        /* \"#utility.yul\":7217:7247   */\n      calldatacopy\n        /* \"#utility.yul\":7302:7303   */\n      0x00\n        /* \"#utility.yul\":7293:7299   */\n      dup4\n        /* \"#utility.yul\":7288:7291   */\n      dup4\n        /* \"#utility.yul\":7284:7300   */\n      add\n        /* \"#utility.yul\":7277:7304   */\n      mstore\n        /* \"#utility.yul\":7156:7310   */\n      pop\n      pop\n      pop\n      jump\t// out\n        /* \"#utility.yul\":7316:7623   */\n    tag_132:\n        /* \"#utility.yul\":7384:7385   */\n      0x00\n        /* \"#utility.yul\":7394:7507   */\n    tag_176:\n        /* \"#utility.yul\":7408:7414   */\n      dup4\n        /* \"#utility.yul\":7405:7406   */\n      dup2\n        /* \"#utility.yul\":7402:7415   */\n      lt\n        /* \"#utility.yul\":7394:7507   */\n      iszero\n      tag_178\n      jumpi\n        /* \"#utility.yul\":7493:7494   */\n      dup1\n        /* \"#utility.yul\":7488:7491   */\n      dup3\n        /* \"#utility.yul\":7484:7495   */\n      add\n        /* \"#utility.yul\":7478:7496   */\n      mload\n        /* \"#utility.yul\":7474:7475   */\n      dup2\n        /* \"#utility.yul\":7469:7472   */\n      dup5\n        /* \"#utility.yul\":7465:7476   */\n      add\n        /* \"#utility.yul\":7458:7497   */\n      mstore\n        /* \"#utility.yul\":7430:7432   */\n      0x20\n        /* \"#utility.yul\":7427:7428   */\n      dup2\n        /* \"#utility.yul\":7423:7433   */\n      add\n        /* \"#utility.yul\":7418:7433   */\n      swap1\n      pop\n        /* \"#utility.yul\":7394:7507   */\n      jump(tag_176)\n    tag_178:\n        /* \"#utility.yul\":7525:7531   */\n      dup4\n        /* \"#utility.yul\":7522:7523   */\n      dup2\n        /* \"#utility.yul\":7519:7532   */\n      gt\n        /* \"#utility.yul\":7516:7617   */\n      iszero\n      tag_179\n      jumpi\n        /* \"#utility.yul\":7605:7606   */\n      0x00\n        /* \"#utility.yul\":7596:7602   */\n      dup5\n        /* \"#utility.yul\":7591:7594   */\n      dup5\n        /* \"#utility.yul\":7587:7603   */\n      add\n        /* \"#utility.yul\":7580:7607   */\n      mstore\n        /* \"#utility.yul\":7516:7617   */\n    tag_179:\n        /* \"#utility.yul\":7365:7623   */\n      pop\n        /* \"#utility.yul\":7316:7623   */\n      pop\n      pop\n      pop\n      jump\t// out\n        /* \"#utility.yul\":7629:7949   */\n    tag_40:\n        /* \"#utility.yul\":7673:7679   */\n      0x00\n        /* \"#utility.yul\":7710:7711   */\n      0x02\n        /* \"#utility.yul\":7704:7708   */\n      dup3\n        /* \"#utility.yul\":7700:7712   */\n      div\n        /* \"#utility.yul\":7690:7712   */\n      swap1\n      pop\n        /* \"#utility.yul\":7757:7758   */\n      0x01\n        /* \"#utility.yul\":7751:7755   */\n      dup3\n        /* \"#utility.yul\":7747:7759   */\n      and\n        /* \"#utility.yul\":7778:7796   */\n      dup1\n        /* \"#utility.yul\":7768:7849   */\n      tag_181\n      jumpi\n        /* \"#utility.yul\":7834:7838   */\n      0x7f\n        /* \"#utility.yul\":7826:7832   */\n      dup3\n        /* \"#utility.yul\":7822:7839   */\n      and\n        /* \"#utility.yul\":7812:7839   */\n      swap2\n      pop\n        /* \"#utility.yul\":7768:7849   */\n    tag_181:\n        /* \"#utility.yul\":7896:7898   */\n      0x20\n        /* \"#utility.yul\":7888:7894   */\n      dup3\n        /* \"#utility.yul\":7885:7899   */\n      lt\n        /* \"#utility.yul\":7865:7883   */\n      dup2\n        /* \"#utility.yul\":7862:7900   */\n      eq\n        /* \"#utility.yul\":7859:7943   */\n      iszero\n      tag_182\n      jumpi\n        /* \"#utility.yul\":7915:7933   */\n      tag_183\n      tag_184\n      jump\t// in\n    tag_183:\n        /* \"#utility.yul\":7859:7943   */\n    tag_182:\n        /* \"#utility.yul\":7680:7949   */\n      pop\n        /* \"#utility.yul\":7629:7949   */\n      swap2\n      swap1\n      pop\n      jump\t// out\n        /* \"#utility.yul\":7955:8236   */\n    tag_156:\n        /* \"#utility.yul\":8038:8065   */\n      tag_186\n        /* \"#utility.yul\":8060:8064   */\n      dup3\n        /* \"#utility.yul\":8038:8065   */\n      tag_134\n      jump\t// in\n    tag_186:\n        /* \"#utility.yul\":8030:8036   */\n      dup2\n        /* \"#utility.yul\":8026:8066   */\n      add\n        /* \"#utility.yul\":8168:8174   */\n      dup2\n        /* \"#utility.yul\":8156:8166   */\n      dup2\n        /* \"#utility.yul\":8153:8175   */\n      lt\n        /* \"#utility.yul\":8132:8150   */\n      0xffffffffffffffff\n        /* \"#utility.yul\":8120:8130   */\n      dup3\n        /* \"#utility.yul\":8117:8151   */\n      gt\n        /* \"#utility.yul\":8114:8176   */\n      or\n        /* \"#utility.yul\":8111:8199   */\n      iszero\n      tag_187\n      jumpi\n        /* \"#utility.yul\":8179:8197   */\n      tag_188\n      tag_22\n      jump\t// in\n    tag_188:\n        /* \"#utility.yul\":8111:8199   */\n    tag_187:\n        /* \"#utility.yul\":8219:8229   */\n      dup1\n        /* \"#utility.yul\":8215:8217   */\n      0x40\n        /* \"#utility.yul\":8208:8230   */\n      mstore\n        /* \"#utility.yul\":7998:8236   */\n      pop\n        /* \"#utility.yul\":7955:8236   */\n      pop\n      pop\n      jump\t// out\n        /* \"#utility.yul\":8242:8475   */\n    tag_48:\n        /* \"#utility.yul\":8281:8284   */\n      0x00\n        /* \"#utility.yul\":8304:8328   */\n      tag_190\n        /* \"#utility.yul\":8322:8327   */\n      dup3\n        /* \"#utility.yul\":8304:8328   */\n      tag_143\n      jump\t// in\n    tag_190:\n        /* \"#utility.yul\":8295:8328   */\n      swap2\n      pop\n        /* \"#utility.yul\":8350:8416   */\n      0xffffffffffffffffffffffffffffffffffffffffffffffffffffffffffffffff\n        /* \"#utility.yul\":8343:8348   */\n      dup3\n        /* \"#utility.yul\":8340:8417   */\n      eq\n        /* \"#utility.yul\":8337:8440   */\n      iszero\n      tag_191\n      jumpi\n        /* \"#utility.yul\":8420:8438   */\n      tag_192\n      tag_193\n      jump\t// in\n    tag_192:\n        /* \"#utility.yul\":8337:8440   */\n    tag_191:\n        /* \"#utility.yul\":8467:8468   */\n      0x01\n        /* \"#utility.yul\":8460:8465   */\n      dup3\n        /* \"#utility.yul\":8456:8469   */\n      add\n        /* \"#utility.yul\":8449:8469   */\n      swap1\n      pop\n        /* \"#utility.yul\":8242:8475   */\n      swap2\n      swap1\n      pop\n      jump\t// out\n        /* \"#utility.yul\":8481:8661   */\n    tag_193:\n        /* \"#utility.yul\":8529:8606   */\n      0x4e487b7100000000000000000000000000000000000000000000000000000000\n        /* \"#utility.yul\":8526:8527   */\n      0x00\n        /* \"#utility.yul\":8519:8607   */\n      mstore\n        /* \"#utility.yul\":8626:8630   */\n      0x11\n        /* \"#utility.yul\":8623:8624   */\n      0x04\n        /* \"#utility.yul\":8616:8631   */\n      mstore\n        /* \"#utility.yul\":8650:8654   */\n      0x24\n        /* \"#utility.yul\":8647:8648   */\n      0x00\n        /* \"#utility.yul\":8640:8655   */\n      revert\n        /* \"#utility.yul\":8667:8847   */\n    tag_184:\n        /* \"#utility.yul\":8715:8792   */\n      0x4e487b7100000000000000000000000000000000000000000000000000000000\n        /* \"#utility.yul\":8712:8713   */\n      0x00\n        /* \"#utility.yul\":8705:8793   */\n      mstore\n        /* \"#utility.yul\":8812:8816   */\n      0x22\n        /* \"#utility.yul\":8809:8810   */\n      0x04\n        /* \"#utility.yul\":8802:8817   */\n      mstore\n        /* \"#utility.yul\":8836:8840   */\n      0x24\n        /* \"#utility.yul\":8833:8834   */\n      0x00\n        /* \"#utility.yul\":8826:8841   */\n      revert\n        /* \"#utility.yul\":8853:9033   */\n    tag_33:\n        /* \"#utility.yul\":8901:8978   */\n      0x4e487b7100000000000000000000000000000000000000000000000000000000\n        /* \"#utility.yul\":8898:8899   */\n      0x00\n        /* \"#utility.yul\":8891:8979   */\n      mstore\n        /* \"#utility.yul\":8998:9002   */\n      0x32\n        /* \"#utility.yul\":8995:8996   */\n      0x04\n        /* \"#utility.yul\":8988:9003   */\n      mstore\n        /* \"#utility.yul\":9022:9026   */\n      0x24\n        /* \"#utility.yul\":9019:9020   */\n      0x00\n        /* \"#utility.yul\":9012:9027   */\n      revert\n        /* \"#utility.yul\":9039:9219   */\n    tag_22:\n        /* \"#utility.yul\":9087:9164   */\n      0x4e487b7100000000000000000000000000000000000000000000000000000000\n        /* \"#utility.yul\":9084:9085   */\n      0x00\n        /* \"#utility.yul\":9077:9165   */\n      mstore\n        /* \"#utility.yul\":9184:9188   */\n      0x41\n        /* \"#utility.yul\":9181:9182   */\n      0x04\n        /* \"#utility.yul\":9174:9189   */\n      mstore\n        /* \"#utility.yul\":9208:9212   */\n      0x24\n        /* \"#utility.yul\":9205:9206   */\n      0x00\n        /* \"#utility.yul\":9198:9213   */\n      revert\n        /* \"#utility.yul\":9225:9342   */\n    tag_89:\n        /* \"#utility.yul\":9334:9335   */\n      0x00\n        /* \"#utility.yul\":9331:9332   */\n      dup1\n        /* \"#utility.yul\":9324:9336   */\n      revert\n        /* \"#utility.yul\":9348:9465   */\n    tag_82:\n        /* \"#utility.yul\":9457:9458   */\n      0x00\n        /* \"#utility.yul\":9454:9455   */\n      dup1\n        /* \"#utility.yul\":9447:9459   */\n      revert\n        /* \"#utility.yul\":9471:9588   */\n    tag_97:\n        /* \"#utility.yul\":9580:9581   */\n      0x00\n        /* \"#utility.yul\":9577:9578   */\n      dup1\n        /* \"#utility.yul\":9570:9582   */\n      revert\n        /* \"#utility.yul\":9594:9711   */\n    tag_94:\n        /* \"#utility.yul\":9703:9704   */\n      0x00\n        /* \"#utility.yul\":9700:9701   */\n      dup1\n        /* \"#utility.yul\":9693:9705   */\n      revert\n        /* \"#utility.yul\":9717:9819   */\n    tag_134:\n        /* \"#utility.yul\":9758:9764   */\n      0x00\n        /* \"#utility.yul\":9809:9811   */\n      0x1f\n        /* \"#utility.yul\":9805:9812   */\n      not\n        /* \"#utility.yul\":9800:9802   */\n      0x1f\n        /* \"#utility.yul\":9793:9798   */\n      dup4\n        /* \"#utility.yul\":9789:9803   */\n      add\n        /* \"#utility.yul\":9785:9813   */\n      and\n        /* \"#utility.yul\":9775:9813   */\n      swap1\n      pop\n        /* \"#utility.yul\":9717:9819   */\n      swap2\n      swap1\n      pop\n      jump\t// out\n\n    auxdata: 0xa26469706673582212206f620680ea9c23e0d0dffedaee8b0f608c96d71e24b05ddc29d1cd20ea1db05e64736f6c63430008070033\n}\n",
				"bytecode": {
					"linkReferences": {},
					"object": "608060405234801561001057600080fd5b50610b05806100206000396000f3fe608060405234801561001057600080fd5b50600436106100365760003560e01c8063672385621461003b5780636e13f81814610057575b600080fd5b61005560048036038101906100509190610618565b610075565b005b61005f6101c8565b60405161006c91906107eb565b60405180910390f35b600080805490509050600060405180608001604052808381526020018481526020016000151581526020016000151581525090806001815401808255809150506001900390600052602060002090600302016000909190919091506000820151816000015560208201518160010190805190602001906100f69291906104d9565b5060408201518160020160006101000a81548160ff02191690831515021790555060608201518160020160016101000a81548160ff0219169083151502179055505050336001600083815260200190815260200160002060006101000a81548173ffffffffffffffffffffffffffffffffffffffff021916908373ffffffffffffffffffffffffffffffffffffffff1602179055507f1f54e1ba1832d428fbd7e7792beaf62b1fc5a382c207ffd614209c1413e94fda33826040516101bc9291906107c2565b60405180910390a15050565b60606000808054905067ffffffffffffffff8111156101ea576101e9610a7b565b5b60405190808252806020026020018201604052801561022357816020015b61021061055f565b8152602001906001900390816102085790505b5090506000805b60008054905081101561041f573373ffffffffffffffffffffffffffffffffffffffff166001600083815260200190815260200160002060009054906101000a900473ffffffffffffffffffffffffffffffffffffffff1673ffffffffffffffffffffffffffffffffffffffff161480156102db575060001515600082815481106102b8576102b7610a4c565b5b906000526020600020906003020160020160019054906101000a900460ff161515145b1561040c57600081815481106102f4576102f3610a4c565b5b90600052602060002090600302016040518060800160405290816000820154815260200160018201805461032790610942565b80601f016020809104026020016040519081016040528092919081815260200182805461035390610942565b80156103a05780601f10610375576101008083540402835291602001916103a0565b820191906000526020600020905b81548152906001019060200180831161038357829003601f168201915b505050505081526020016002820160009054906101000a900460ff161515151581526020016002820160019054906101000a900460ff1615151515815250508383815181106103f2576103f1610a4c565b5b60200260200101819052508180610408906109a5565b9250505b8080610417906109a5565b91505061022a565b5060008167ffffffffffffffff81111561043c5761043b610a7b565b5b60405190808252806020026020018201604052801561047557816020015b61046261055f565b81526020019060019003908161045a5790505b50905060005b828110156104cf5783818151811061049657610495610a4c565b5b60200260200101518282815181106104b1576104b0610a4c565b5b602002602001018190525080806104c7906109a5565b91505061047b565b5080935050505090565b8280546104e590610942565b90600052602060002090601f016020900481019282610507576000855561054e565b82601f1061052057805160ff191683800117855561054e565b8280016001018555821561054e579182015b8281111561054d578251825591602001919060010190610532565b5b50905061055b919061058b565b5090565b604051806080016040528060008152602001606081526020016000151581526020016000151581525090565b5b808211156105a457600081600090555060010161058c565b5090565b60006105bb6105b684610832565b61080d565b9050828152602081018484840111156105d7576105d6610aaf565b5b6105e2848285610900565b509392505050565b600082601f8301126105ff576105fe610aaa565b5b813561060f8482602086016105a8565b91505092915050565b60006020828403121561062e5761062d610ab9565b5b600082013567ffffffffffffffff81111561064c5761064b610ab4565b5b610658848285016105ea565b91505092915050565b600061066d8383610741565b905092915050565b61067e816108b8565b82525050565b600061068f82610873565b6106998185610896565b9350836020820285016106ab85610863565b8060005b858110156106e757848403895281516106c88582610661565b94506106d383610889565b925060208a019950506001810190506106af565b50829750879550505050505092915050565b610702816108ca565b82525050565b60006107138261087e565b61071d81856108a7565b935061072d81856020860161090f565b61073681610abe565b840191505092915050565b600060808301600083015161075960008601826107a4565b50602083015184820360208601526107718282610708565b915050604083015161078660408601826106f9565b50606083015161079960608601826106f9565b508091505092915050565b6107ad816108f6565b82525050565b6107bc816108f6565b82525050565b60006040820190506107d76000830185610675565b6107e460208301846107b3565b9392505050565b600060208201905081810360008301526108058184610684565b905092915050565b6000610817610828565b90506108238282610974565b919050565b6000604051905090565b600067ffffffffffffffff82111561084d5761084c610a7b565b5b61085682610abe565b9050602081019050919050565b6000819050602082019050919050565b600081519050919050565b600081519050919050565b6000602082019050919050565b600082825260208201905092915050565b600082825260208201905092915050565b60006108c3826108d6565b9050919050565b60008115159050919050565b600073ffffffffffffffffffffffffffffffffffffffff82169050919050565b6000819050919050565b82818337600083830152505050565b60005b8381101561092d578082015181840152602081019050610912565b8381111561093c576000848401525b50505050565b6000600282049050600182168061095a57607f821691505b6020821081141561096e5761096d610a1d565b5b50919050565b61097d82610abe565b810181811067ffffffffffffffff8211171561099c5761099b610a7b565b5b80604052505050565b60006109b0826108f6565b91507fffffffffffffffffffffffffffffffffffffffffffffffffffffffffffffffff8214156109e3576109e26109ee565b5b600182019050919050565b7f4e487b7100000000000000000000000000000000000000000000000000000000600052601160045260246000fd5b7f4e487b7100000000000000000000000000000000000000000000000000000000600052602260045260246000fd5b7f4e487b7100000000000000000000000000000000000000000000000000000000600052603260045260246000fd5b7f4e487b7100000000000000000000000000000000000000000000000000000000600052604160045260246000fd5b600080fd5b600080fd5b600080fd5b600080fd5b6000601f19601f830116905091905056fea26469706673582212206f620680ea9c23e0d0dffedaee8b0f608c96d71e24b05ddc29d1cd20ea1db05e64736f6c63430008070033",
					"opcodes": "PUSH1 0x80 PUSH1 0x40 MSTORE CALLVALUE DUP1 ISZERO PUSH2 0x10 JUMPI PUSH1 0x0 DUP1 REVERT JUMPDEST POP PUSH2 0xB05 DUP1 PUSH2 0x20 PUSH1 0x0 CODECOPY PUSH1 0x0 RETURN INVALID PUSH1 0x80 PUSH1 0x40 MSTORE CALLVALUE DUP1 ISZERO PUSH2 0x10 JUMPI PUSH1 0x0 DUP1 REVERT JUMPDEST POP PUSH1 0x4 CALLDATASIZE LT PUSH2 0x36 JUMPI PUSH1 0x0 CALLDATALOAD PUSH1 0xE0 SHR DUP1 PUSH4 0x67238562 EQ PUSH2 0x3B JUMPI DUP1 PUSH4 0x6E13F818 EQ PUSH2 0x57 JUMPI JUMPDEST PUSH1 0x0 DUP1 REVERT JUMPDEST PUSH2 0x55 PUSH1 0x4 DUP1 CALLDATASIZE SUB DUP2 ADD SWAP1 PUSH2 0x50 SWAP2 SWAP1 PUSH2 0x618 JUMP JUMPDEST PUSH2 0x75 JUMP JUMPDEST STOP JUMPDEST PUSH2 0x5F PUSH2 0x1C8 JUMP JUMPDEST PUSH1 0x40 MLOAD PUSH2 0x6C SWAP2 SWAP1 PUSH2 0x7EB JUMP JUMPDEST PUSH1 0x40 MLOAD DUP1 SWAP2 SUB SWAP1 RETURN JUMPDEST PUSH1 0x0 DUP1 DUP1 SLOAD SWAP1 POP SWAP1 POP PUSH1 0x0 PUSH1 0x40 MLOAD DUP1 PUSH1 0x80 ADD PUSH1 0x40 MSTORE DUP1 DUP4 DUP2 MSTORE PUSH1 0x20 ADD DUP5 DUP2 MSTORE PUSH1 0x20 ADD PUSH1 0x0 ISZERO ISZERO DUP2 MSTORE PUSH1 0x20 ADD PUSH1 0x0 ISZERO ISZERO DUP2 MSTORE POP SWAP1 DUP1 PUSH1 0x1 DUP2 SLOAD ADD DUP1 DUP3 SSTORE DUP1 SWAP2 POP POP PUSH1 0x1 SWAP1 SUB SWAP1 PUSH1 0x0 MSTORE PUSH1 0x20 PUSH1 0x0 KECCAK256 SWAP1 PUSH1 0x3 MUL ADD PUSH1 0x0 SWAP1 SWAP2 SWAP1 SWAP2 SWAP1 SWAP2 POP PUSH1 0x0 DUP3 ADD MLOAD DUP2 PUSH1 0x0 ADD SSTORE PUSH1 0x20 DUP3 ADD MLOAD DUP2 PUSH1 0x1 ADD SWAP1 DUP1 MLOAD SWAP1 PUSH1 0x20 ADD SWAP1 PUSH2 0xF6 SWAP3 SWAP2 SWAP1 PUSH2 0x4D9 JUMP JUMPDEST POP PUSH1 0x40 DUP3 ADD MLOAD DUP2 PUSH1 0x2 ADD PUSH1 0x0 PUSH2 0x100 EXP DUP2 SLOAD DUP2 PUSH1 0xFF MUL NOT AND SWAP1 DUP4 ISZERO ISZERO MUL OR SWAP1 SSTORE POP PUSH1 0x60 DUP3 ADD MLOAD DUP2 PUSH1 0x2 ADD PUSH1 0x1 PUSH2 0x100 EXP DUP2 SLOAD DUP2 PUSH1 0xFF MUL NOT AND SWAP1 DUP4 ISZERO ISZERO MUL OR SWAP1 SSTORE POP POP POP CALLER PUSH1 0x1 PUSH1 0x0 DUP4 DUP2 MSTORE PUSH1 0x20 ADD SWAP1 DUP2 MSTORE PUSH1 0x20 ADD PUSH1 0x0 KECCAK256 PUSH1 0x0 PUSH2 0x100 EXP DUP2 SLOAD DUP2 PUSH20 0xFFFFFFFFFFFFFFFFFFFFFFFFFFFFFFFFFFFFFFFF MUL NOT AND SWAP1 DUP4 PUSH20 0xFFFFFFFFFFFFFFFFFFFFFFFFFFFFFFFFFFFFFFFF AND MUL OR SWAP1 SSTORE POP PUSH32 0x1F54E1BA1832D428FBD7E7792BEAF62B1FC5A382C207FFD614209C1413E94FDA CALLER DUP3 PUSH1 0x40 MLOAD PUSH2 0x1BC SWAP3 SWAP2 SWAP1 PUSH2 0x7C2 JUMP JUMPDEST PUSH1 0x40 MLOAD DUP1 SWAP2 SUB SWAP1 LOG1 POP POP JUMP JUMPDEST PUSH1 0x60 PUSH1 0x0 DUP1 DUP1 SLOAD SWAP1 POP PUSH8 0xFFFFFFFFFFFFFFFF DUP2 GT ISZERO PUSH2 0x1EA JUMPI PUSH2 0x1E9 PUSH2 0xA7B JUMP JUMPDEST JUMPDEST PUSH1 0x40 MLOAD SWAP1 DUP1 DUP3 MSTORE DUP1 PUSH1 0x20 MUL PUSH1 0x20 ADD DUP3 ADD PUSH1 0x40 MSTORE DUP1 ISZERO PUSH2 0x223 JUMPI DUP2 PUSH1 0x20 ADD JUMPDEST PUSH2 0x210 PUSH2 0x55F JUMP JUMPDEST DUP2 MSTORE PUSH1 0x20 ADD SWAP1 PUSH1 0x1 SWAP1 SUB SWAP1 DUP2 PUSH2 0x208 JUMPI SWAP1 POP JUMPDEST POP SWAP1 POP PUSH1 0x0 DUP1 JUMPDEST PUSH1 0x0 DUP1 SLOAD SWAP1 POP DUP2 LT ISZERO PUSH2 0x41F JUMPI CALLER PUSH20 0xFFFFFFFFFFFFFFFFFFFFFFFFFFFFFFFFFFFFFFFF AND PUSH1 0x1 PUSH1 0x0 DUP4 DUP2 MSTORE PUSH1 0x20 ADD SWAP1 DUP2 MSTORE PUSH1 0x20 ADD PUSH1 0x0 KECCAK256 PUSH1 0x0 SWAP1 SLOAD SWAP1 PUSH2 0x100 EXP SWAP1 DIV PUSH20 0xFFFFFFFFFFFFFFFFFFFFFFFFFFFFFFFFFFFFFFFF AND PUSH20 0xFFFFFFFFFFFFFFFFFFFFFFFFFFFFFFFFFFFFFFFF AND EQ DUP1 ISZERO PUSH2 0x2DB JUMPI POP PUSH1 0x0 ISZERO ISZERO PUSH1 0x0 DUP3 DUP2 SLOAD DUP2 LT PUSH2 0x2B8 JUMPI PUSH2 0x2B7 PUSH2 0xA4C JUMP JUMPDEST JUMPDEST SWAP1 PUSH1 0x0 MSTORE PUSH1 0x20 PUSH1 0x0 KECCAK256 SWAP1 PUSH1 0x3 MUL ADD PUSH1 0x2 ADD PUSH1 0x1 SWAP1 SLOAD SWAP1 PUSH2 0x100 EXP SWAP1 DIV PUSH1 0xFF AND ISZERO ISZERO EQ JUMPDEST ISZERO PUSH2 0x40C JUMPI PUSH1 0x0 DUP2 DUP2 SLOAD DUP2 LT PUSH2 0x2F4 JUMPI PUSH2 0x2F3 PUSH2 0xA4C JUMP JUMPDEST JUMPDEST SWAP1 PUSH1 0x0 MSTORE PUSH1 0x20 PUSH1 0x0 KECCAK256 SWAP1 PUSH1 0x3 MUL ADD PUSH1 0x40 MLOAD DUP1 PUSH1 0x80 ADD PUSH1 0x40 MSTORE SWAP1 DUP2 PUSH1 0x0 DUP3 ADD SLOAD DUP2 MSTORE PUSH1 0x20 ADD PUSH1 0x1 DUP3 ADD DUP1 SLOAD PUSH2 0x327 SWAP1 PUSH2 0x942 JUMP JUMPDEST DUP1 PUSH1 0x1F ADD PUSH1 0x20 DUP1 SWAP2 DIV MUL PUSH1 0x20 ADD PUSH1 0x40 MLOAD SWAP1 DUP2 ADD PUSH1 0x40 MSTORE DUP1 SWAP3 SWAP2 SWAP1 DUP2 DUP2 MSTORE PUSH1 0x20 ADD DUP3 DUP1 SLOAD PUSH2 0x353 SWAP1 PUSH2 0x942 JUMP JUMPDEST DUP1 ISZERO PUSH2 0x3A0 JUMPI DUP1 PUSH1 0x1F LT PUSH2 0x375 JUMPI PUSH2 0x100 DUP1 DUP4 SLOAD DIV MUL DUP4 MSTORE SWAP2 PUSH1 0x20 ADD SWAP2 PUSH2 0x3A0 JUMP JUMPDEST DUP3 ADD SWAP2 SWAP1 PUSH1 0x0 MSTORE PUSH1 0x20 PUSH1 0x0 KECCAK256 SWAP1 JUMPDEST DUP2 SLOAD DUP2 MSTORE SWAP1 PUSH1 0x1 ADD SWAP1 PUSH1 0x20 ADD DUP1 DUP4 GT PUSH2 0x383 JUMPI DUP3 SWAP1 SUB PUSH1 0x1F AND DUP3 ADD SWAP2 JUMPDEST POP POP POP POP POP DUP2 MSTORE PUSH1 0x20 ADD PUSH1 0x2 DUP3 ADD PUSH1 0x0 SWAP1 SLOAD SWAP1 PUSH2 0x100 EXP SWAP1 DIV PUSH1 0xFF AND ISZERO ISZERO ISZERO ISZERO DUP2 MSTORE PUSH1 0x20 ADD PUSH1 0x2 DUP3 ADD PUSH1 0x1 SWAP1 SLOAD SWAP1 PUSH2 0x100 EXP SWAP1 DIV PUSH1 0xFF AND ISZERO ISZERO ISZERO ISZERO DUP2 MSTORE POP POP DUP4 DUP4 DUP2 MLOAD DUP2 LT PUSH2 0x3F2 JUMPI PUSH2 0x3F1 PUSH2 0xA4C JUMP JUMPDEST JUMPDEST PUSH1 0x20 MUL PUSH1 0x20 ADD ADD DUP2 SWAP1 MSTORE POP DUP2 DUP1 PUSH2 0x408 SWAP1 PUSH2 0x9A5 JUMP JUMPDEST SWAP3 POP POP JUMPDEST DUP1 DUP1 PUSH2 0x417 SWAP1 PUSH2 0x9A5 JUMP JUMPDEST SWAP2 POP POP PUSH2 0x22A JUMP JUMPDEST POP PUSH1 0x0 DUP2 PUSH8 0xFFFFFFFFFFFFFFFF DUP2 GT ISZERO PUSH2 0x43C JUMPI PUSH2 0x43B PUSH2 0xA7B JUMP JUMPDEST JUMPDEST PUSH1 0x40 MLOAD SWAP1 DUP1 DUP3 MSTORE DUP1 PUSH1 0x20 MUL PUSH1 0x20 ADD DUP3 ADD PUSH1 0x40 MSTORE DUP1 ISZERO PUSH2 0x475 JUMPI DUP2 PUSH1 0x20 ADD JUMPDEST PUSH2 0x462 PUSH2 0x55F JUMP JUMPDEST DUP2 MSTORE PUSH1 0x20 ADD SWAP1 PUSH1 0x1 SWAP1 SUB SWAP1 DUP2 PUSH2 0x45A JUMPI SWAP1 POP JUMPDEST POP SWAP1 POP PUSH1 0x0 JUMPDEST DUP3 DUP2 LT ISZERO PUSH2 0x4CF JUMPI DUP4 DUP2 DUP2 MLOAD DUP2 LT PUSH2 0x496 JUMPI PUSH2 0x495 PUSH2 0xA4C JUMP JUMPDEST JUMPDEST PUSH1 0x20 MUL PUSH1 0x20 ADD ADD MLOAD DUP3 DUP3 DUP2 MLOAD DUP2 LT PUSH2 0x4B1 JUMPI PUSH2 0x4B0 PUSH2 0xA4C JUMP JUMPDEST JUMPDEST PUSH1 0x20 MUL PUSH1 0x20 ADD ADD DUP2 SWAP1 MSTORE POP DUP1 DUP1 PUSH2 0x4C7 SWAP1 PUSH2 0x9A5 JUMP JUMPDEST SWAP2 POP POP PUSH2 0x47B JUMP JUMPDEST POP DUP1 SWAP4 POP POP POP POP SWAP1 JUMP JUMPDEST DUP3 DUP1 SLOAD PUSH2 0x4E5 SWAP1 PUSH2 0x942 JUMP JUMPDEST SWAP1 PUSH1 0x0 MSTORE PUSH1 0x20 PUSH1 0x0 KECCAK256 SWAP1 PUSH1 0x1F ADD PUSH1 0x20 SWAP1 DIV DUP2 ADD SWAP3 DUP3 PUSH2 0x507 JUMPI PUSH1 0x0 DUP6 SSTORE PUSH2 0x54E JUMP JUMPDEST DUP3 PUSH1 0x1F LT PUSH2 0x520 JUMPI DUP1 MLOAD PUSH1 0xFF NOT AND DUP4 DUP1 ADD OR DUP6 SSTORE PUSH2 0x54E JUMP JUMPDEST DUP3 DUP1 ADD PUSH1 0x1 ADD DUP6 SSTORE DUP3 ISZERO PUSH2 0x54E JUMPI SWAP2 DUP3 ADD JUMPDEST DUP3 DUP2 GT ISZERO PUSH2 0x54D JUMPI DUP3 MLOAD DUP3 SSTORE SWAP2 PUSH1 0x20 ADD SWAP2 SWAP1 PUSH1 0x1 ADD SWAP1 PUSH2 0x532 JUMP JUMPDEST JUMPDEST POP SWAP1 POP PUSH2 0x55B SWAP2 SWAP1 PUSH2 0x58B JUMP JUMPDEST POP SWAP1 JUMP JUMPDEST PUSH1 0x40 MLOAD DUP1 PUSH1 0x80 ADD PUSH1 0x40 MSTORE DUP1 PUSH1 0x0 DUP2 MSTORE PUSH1 0x20 ADD PUSH1 0x60 DUP2 MSTORE PUSH1 0x20 ADD PUSH1 0x0 ISZERO ISZERO DUP2 MSTORE PUSH1 0x20 ADD PUSH1 0x0 ISZERO ISZERO DUP2 MSTORE POP SWAP1 JUMP JUMPDEST JUMPDEST DUP1 DUP3 GT ISZERO PUSH2 0x5A4 JUMPI PUSH1 0x0 DUP2 PUSH1 0x0 SWAP1 SSTORE POP PUSH1 0x1 ADD PUSH2 0x58C JUMP JUMPDEST POP SWAP1 JUMP JUMPDEST PUSH1 0x0 PUSH2 0x5BB PUSH2 0x5B6 DUP5 PUSH2 0x832 JUMP JUMPDEST PUSH2 0x80D JUMP JUMPDEST SWAP1 POP DUP3 DUP2 MSTORE PUSH1 0x20 DUP2 ADD DUP5 DUP5 DUP5 ADD GT ISZERO PUSH2 0x5D7 JUMPI PUSH2 0x5D6 PUSH2 0xAAF JUMP JUMPDEST JUMPDEST PUSH2 0x5E2 DUP5 DUP3 DUP6 PUSH2 0x900 JUMP JUMPDEST POP SWAP4 SWAP3 POP POP POP JUMP JUMPDEST PUSH1 0x0 DUP3 PUSH1 0x1F DUP4 ADD SLT PUSH2 0x5FF JUMPI PUSH2 0x5FE PUSH2 0xAAA JUMP JUMPDEST JUMPDEST DUP2 CALLDATALOAD PUSH2 0x60F DUP5 DUP3 PUSH1 0x20 DUP7 ADD PUSH2 0x5A8 JUMP JUMPDEST SWAP2 POP POP SWAP3 SWAP2 POP POP JUMP JUMPDEST PUSH1 0x0 PUSH1 0x20 DUP3 DUP5 SUB SLT ISZERO PUSH2 0x62E JUMPI PUSH2 0x62D PUSH2 0xAB9 JUMP JUMPDEST JUMPDEST PUSH1 0x0 DUP3 ADD CALLDATALOAD PUSH8 0xFFFFFFFFFFFFFFFF DUP2 GT ISZERO PUSH2 0x64C JUMPI PUSH2 0x64B PUSH2 0xAB4 JUMP JUMPDEST JUMPDEST PUSH2 0x658 DUP5 DUP3 DUP6 ADD PUSH2 0x5EA JUMP JUMPDEST SWAP2 POP POP SWAP3 SWAP2 POP POP JUMP JUMPDEST PUSH1 0x0 PUSH2 0x66D DUP4 DUP4 PUSH2 0x741 JUMP JUMPDEST SWAP1 POP SWAP3 SWAP2 POP POP JUMP JUMPDEST PUSH2 0x67E DUP2 PUSH2 0x8B8 JUMP JUMPDEST DUP3 MSTORE POP POP JUMP JUMPDEST PUSH1 0x0 PUSH2 0x68F DUP3 PUSH2 0x873 JUMP JUMPDEST PUSH2 0x699 DUP2 DUP6 PUSH2 0x896 JUMP JUMPDEST SWAP4 POP DUP4 PUSH1 0x20 DUP3 MUL DUP6 ADD PUSH2 0x6AB DUP6 PUSH2 0x863 JUMP JUMPDEST DUP1 PUSH1 0x0 JUMPDEST DUP6 DUP2 LT ISZERO PUSH2 0x6E7 JUMPI DUP5 DUP5 SUB DUP10 MSTORE DUP2 MLOAD PUSH2 0x6C8 DUP6 DUP3 PUSH2 0x661 JUMP JUMPDEST SWAP5 POP PUSH2 0x6D3 DUP4 PUSH2 0x889 JUMP JUMPDEST SWAP3 POP PUSH1 0x20 DUP11 ADD SWAP10 POP POP PUSH1 0x1 DUP2 ADD SWAP1 POP PUSH2 0x6AF JUMP JUMPDEST POP DUP3 SWAP8 POP DUP8 SWAP6 POP POP POP POP POP POP SWAP3 SWAP2 POP POP JUMP JUMPDEST PUSH2 0x702 DUP2 PUSH2 0x8CA JUMP JUMPDEST DUP3 MSTORE POP POP JUMP JUMPDEST PUSH1 0x0 PUSH2 0x713 DUP3 PUSH2 0x87E JUMP JUMPDEST PUSH2 0x71D DUP2 DUP6 PUSH2 0x8A7 JUMP JUMPDEST SWAP4 POP PUSH2 0x72D DUP2 DUP6 PUSH1 0x20 DUP7 ADD PUSH2 0x90F JUMP JUMPDEST PUSH2 0x736 DUP2 PUSH2 0xABE JUMP JUMPDEST DUP5 ADD SWAP2 POP POP SWAP3 SWAP2 POP POP JUMP JUMPDEST PUSH1 0x0 PUSH1 0x80 DUP4 ADD PUSH1 0x0 DUP4 ADD MLOAD PUSH2 0x759 PUSH1 0x0 DUP7 ADD DUP3 PUSH2 0x7A4 JUMP JUMPDEST POP PUSH1 0x20 DUP4 ADD MLOAD DUP5 DUP3 SUB PUSH1 0x20 DUP7 ADD MSTORE PUSH2 0x771 DUP3 DUP3 PUSH2 0x708 JUMP JUMPDEST SWAP2 POP POP PUSH1 0x40 DUP4 ADD MLOAD PUSH2 0x786 PUSH1 0x40 DUP7 ADD DUP3 PUSH2 0x6F9 JUMP JUMPDEST POP PUSH1 0x60 DUP4 ADD MLOAD PUSH2 0x799 PUSH1 0x60 DUP7 ADD DUP3 PUSH2 0x6F9 JUMP JUMPDEST POP DUP1 SWAP2 POP POP SWAP3 SWAP2 POP POP JUMP JUMPDEST PUSH2 0x7AD DUP2 PUSH2 0x8F6 JUMP JUMPDEST DUP3 MSTORE POP POP JUMP JUMPDEST PUSH2 0x7BC DUP2 PUSH2 0x8F6 JUMP JUMPDEST DUP3 MSTORE POP POP JUMP JUMPDEST PUSH1 0x0 PUSH1 0x40 DUP3 ADD SWAP1 POP PUSH2 0x7D7 PUSH1 0x0 DUP4 ADD DUP6 PUSH2 0x675 JUMP JUMPDEST PUSH2 0x7E4 PUSH1 0x20 DUP4 ADD DUP5 PUSH2 0x7B3 JUMP JUMPDEST SWAP4 SWAP3 POP POP POP JUMP JUMPDEST PUSH1 0x0 PUSH1 0x20 DUP3 ADD SWAP1 POP DUP2 DUP2 SUB PUSH1 0x0 DUP4 ADD MSTORE PUSH2 0x805 DUP2 DUP5 PUSH2 0x684 JUMP JUMPDEST SWAP1 POP SWAP3 SWAP2 POP POP JUMP JUMPDEST PUSH1 0x0 PUSH2 0x817 PUSH2 0x828 JUMP JUMPDEST SWAP1 POP PUSH2 0x823 DUP3 DUP3 PUSH2 0x974 JUMP JUMPDEST SWAP2 SWAP1 POP JUMP JUMPDEST PUSH1 0x0 PUSH1 0x40 MLOAD SWAP1 POP SWAP1 JUMP JUMPDEST PUSH1 0x0 PUSH8 0xFFFFFFFFFFFFFFFF DUP3 GT ISZERO PUSH2 0x84D JUMPI PUSH2 0x84C PUSH2 0xA7B JUMP JUMPDEST JUMPDEST PUSH2 0x856 DUP3 PUSH2 0xABE JUMP JUMPDEST SWAP1 POP PUSH1 0x20 DUP2 ADD SWAP1 POP SWAP2 SWAP1 POP JUMP JUMPDEST PUSH1 0x0 DUP2 SWAP1 POP PUSH1 0x20 DUP3 ADD SWAP1 POP SWAP2 SWAP1 POP JUMP JUMPDEST PUSH1 0x0 DUP2 MLOAD SWAP1 POP SWAP2 SWAP1 POP JUMP JUMPDEST PUSH1 0x0 DUP2 MLOAD SWAP1 POP SWAP2 SWAP1 POP JUMP JUMPDEST PUSH1 0x0 PUSH1 0x20 DUP3 ADD SWAP1 POP SWAP2 SWAP1 POP JUMP JUMPDEST PUSH1 0x0 DUP3 DUP3 MSTORE PUSH1 0x20 DUP3 ADD SWAP1 POP SWAP3 SWAP2 POP POP JUMP JUMPDEST PUSH1 0x0 DUP3 DUP3 MSTORE PUSH1 0x20 DUP3 ADD SWAP1 POP SWAP3 SWAP2 POP POP JUMP JUMPDEST PUSH1 0x0 PUSH2 0x8C3 DUP3 PUSH2 0x8D6 JUMP JUMPDEST SWAP1 POP SWAP2 SWAP1 POP JUMP JUMPDEST PUSH1 0x0 DUP2 ISZERO ISZERO SWAP1 POP SWAP2 SWAP1 POP JUMP JUMPDEST PUSH1 0x0 PUSH20 0xFFFFFFFFFFFFFFFFFFFFFFFFFFFFFFFFFFFFFFFF DUP3 AND SWAP1 POP SWAP2 SWAP1 POP JUMP JUMPDEST PUSH1 0x0 DUP2 SWAP1 POP SWAP2 SWAP1 POP JUMP JUMPDEST DUP3 DUP2 DUP4 CALLDATACOPY PUSH1 0x0 DUP4 DUP4 ADD MSTORE POP POP POP JUMP JUMPDEST PUSH1 0x0 JUMPDEST DUP4 DUP2 LT ISZERO PUSH2 0x92D JUMPI DUP1 DUP3 ADD MLOAD DUP2 DUP5 ADD MSTORE PUSH1 0x20 DUP2 ADD SWAP1 POP PUSH2 0x912 JUMP JUMPDEST DUP4 DUP2 GT ISZERO PUSH2 0x93C JUMPI PUSH1 0x0 DUP5 DUP5 ADD MSTORE JUMPDEST POP POP POP POP JUMP JUMPDEST PUSH1 0x0 PUSH1 0x2 DUP3 DIV SWAP1 POP PUSH1 0x1 DUP3 AND DUP1 PUSH2 0x95A JUMPI PUSH1 0x7F DUP3 AND SWAP2 POP JUMPDEST PUSH1 0x20 DUP3 LT DUP2 EQ ISZERO PUSH2 0x96E JUMPI PUSH2 0x96D PUSH2 0xA1D JUMP JUMPDEST JUMPDEST POP SWAP2 SWAP1 POP JUMP JUMPDEST PUSH2 0x97D DUP3 PUSH2 0xABE JUMP JUMPDEST DUP2 ADD DUP2 DUP2 LT PUSH8 0xFFFFFFFFFFFFFFFF DUP3 GT OR ISZERO PUSH2 0x99C JUMPI PUSH2 0x99B PUSH2 0xA7B JUMP JUMPDEST JUMPDEST DUP1 PUSH1 0x40 MSTORE POP POP POP JUMP JUMPDEST PUSH1 0x0 PUSH2 0x9B0 DUP3 PUSH2 0x8F6 JUMP JUMPDEST SWAP2 POP PUSH32 0xFFFFFFFFFFFFFFFFFFFFFFFFFFFFFFFFFFFFFFFFFFFFFFFFFFFFFFFFFFFFFFFF DUP3 EQ ISZERO PUSH2 0x9E3 JUMPI PUSH2 0x9E2 PUSH2 0x9EE JUMP JUMPDEST JUMPDEST PUSH1 0x1 DUP3 ADD SWAP1 POP SWAP2 SWAP1 POP JUMP JUMPDEST PUSH32 0x4E487B7100000000000000000000000000000000000000000000000000000000 PUSH1 0x0 MSTORE PUSH1 0x11 PUSH1 0x4 MSTORE PUSH1 0x24 PUSH1 0x0 REVERT JUMPDEST PUSH32 0x4E487B7100000000000000000000000000000000000000000000000000000000 PUSH1 0x0 MSTORE PUSH1 0x22 PUSH1 0x4 MSTORE PUSH1 0x24 PUSH1 0x0 REVERT JUMPDEST PUSH32 0x4E487B7100000000000000000000000000000000000000000000000000000000 PUSH1 0x0 MSTORE PUSH1 0x32 PUSH1 0x4 MSTORE PUSH1 0x24 PUSH1 0x0 REVERT JUMPDEST PUSH32 0x4E487B7100000000000000000000000000000000000000000000000000000000 PUSH1 0x0 MSTORE PUSH1 0x41 PUSH1 0x4 MSTORE PUSH1 0x24 PUSH1 0x0 REVERT JUMPDEST PUSH1 0x0 DUP1 REVERT JUMPDEST PUSH1 0x0 DUP1 REVERT JUMPDEST PUSH1 0x0 DUP1 REVERT JUMPDEST PUSH1 0x0 DUP1 REVERT JUMPDEST PUSH1 0x0 PUSH1 0x1F NOT PUSH1 0x1F DUP4 ADD AND SWAP1 POP SWAP2 SWAP1 POP JUMP INVALID LOG2 PUSH5 0x6970667358 0x22 SLT KECCAK256 PUSH16 0x620680EA9C23E0D0DFFEDAEE8B0F608C SWAP7 0xD7 0x1E 0x24 0xB0 0x5D 0xDC 0x29 0xD1 0xCD KECCAK256 0xEA SAR 0xB0 0x5E PUSH5 0x736F6C6343 STOP ADDMOD SMOD STOP CALLER "
				},
				"gasEstimates": {
					"creation": {
						"codeDepositCost": "564200",
						"executionCost": "600",
						"totalCost": "564800"
					},
					"external": {
						"addTask(string)": "infinite",
						"getMyTasks()": "infinite"
					}
				},
				"methodIdentifiers": {
					"addTask(string)": "67238562",
					"getMyTasks()": "6e13f818"
				}
			},
			"storageLayout": {
				"storage": [
					{
						"astId": 26,
						"contract": "contracts/TaskContract.sol:TaskContract",
						"label": "tasks",
						"offset": 0,
						"slot": "0",
						"type": "t_array(t_struct(Task)22_storage)dyn_storage"
					},
					{
						"astId": 30,
						"contract": "contracts/TaskContract.sol:TaskContract",
						"label": "taskToOwner",
						"offset": 0,
						"slot": "1",
						"type": "t_mapping(t_uint256,t_address)"
					}
				],
				"types": {
					"t_address": {
						"encoding": "inplace",
						"label": "address",
						"numberOfBytes": "20"
					},
					"t_array(t_struct(Task)22_storage)dyn_storage": {
						"base": "t_struct(Task)22_storage",
						"encoding": "dynamic_array",
						"label": "struct TaskContract.Task[]",
						"numberOfBytes": "32"
					},
					"t_bool": {
						"encoding": "inplace",
						"label": "bool",
						"numberOfBytes": "1"
					},
					"t_mapping(t_uint256,t_address)": {
						"encoding": "mapping",
						"key": "t_uint256",
						"label": "mapping(uint256 => address)",
						"numberOfBytes": "32",
						"value": "t_address"
					},
					"t_string_storage": {
						"encoding": "bytes",
						"label": "string",
						"numberOfBytes": "32"
					},
					"t_struct(Task)22_storage": {
						"encoding": "inplace",
						"label": "struct TaskContract.Task",
						"members": [
							{
								"astId": 15,
								"contract": "contracts/TaskContract.sol:TaskContract",
								"label": "id",
								"offset": 0,
								"slot": "0",
								"type": "t_uint256"
							},
							{
								"astId": 17,
								"contract": "contracts/TaskContract.sol:TaskContract",
								"label": "taskText",
								"offset": 0,
								"slot": "1",
								"type": "t_string_storage"
							},
							{
								"astId": 19,
								"contract": "contracts/TaskContract.sol:TaskContract",
								"label": "isImportant",
								"offset": 0,
								"slot": "2",
								"type": "t_bool"
							},
							{
								"astId": 21,
								"contract": "contracts/TaskContract.sol:TaskContract",
								"label": "isDone",
								"offset": 1,
								"slot": "2",
								"type": "t_bool"
							}
						],
						"numberOfBytes": "96"
					},
					"t_uint256": {
						"encoding": "inplace",
						"label": "uint256",
						"numberOfBytes": "32"
					}
				}
			},
			"userdoc": {
				"kind": "user",
				"methods": {},
				"version": 1
			}
		}
	}
}