{
	"Users/kacperkondracki/Desktop/PORTFOLIO/web3-todo/backend/contracts/TaskContract.sol": {
		"TaskContract": {
			"abi": [
				{
					"anonymous": false,
					"inputs": [
						{
							"indexed": false,
							"internalType": "address",
							"name": "recipient",
							"type": "address"
						},
						{
							"indexed": false,
							"internalType": "uint256",
							"name": "taskId",
							"type": "uint256"
						}
					],
					"name": "AddTask",
					"type": "event"
				},
				{
					"anonymous": false,
					"inputs": [
						{
							"indexed": false,
							"internalType": "uint256",
							"name": "taskId",
							"type": "uint256"
						},
						{
							"indexed": false,
							"internalType": "bool",
							"name": "isDone",
							"type": "bool"
						}
					],
					"name": "DeleteTask",
					"type": "event"
				},
				{
					"inputs": [
						{
							"internalType": "string",
							"name": "taskText",
							"type": "string"
						}
					],
					"name": "addTask",
					"outputs": [],
					"stateMutability": "nonpayable",
					"type": "function"
				}
			],
			"devdoc": {
				"kind": "dev",
				"methods": {},
				"version": 1
			},
			"evm": {
				"assembly": "    /* \"Users/kacperkondracki/Desktop/PORTFOLIO/web3-todo/backend/contracts/TaskContract.sol\":66:494  contract TaskContract {... */\n  mstore(0x40, 0x80)\n  callvalue\n  dup1\n  iszero\n  tag_1\n  jumpi\n  0x00\n  dup1\n  revert\ntag_1:\n  pop\n  dataSize(sub_0)\n  dup1\n  dataOffset(sub_0)\n  0x00\n  codecopy\n  0x00\n  return\nstop\n\nsub_0: assembly {\n        /* \"Users/kacperkondracki/Desktop/PORTFOLIO/web3-todo/backend/contracts/TaskContract.sol\":66:494  contract TaskContract {... */\n      mstore(0x40, 0x80)\n      callvalue\n      dup1\n      iszero\n      tag_1\n      jumpi\n      0x00\n      dup1\n      revert\n    tag_1:\n      pop\n      jumpi(tag_2, lt(calldatasize, 0x04))\n      shr(0xe0, calldataload(0x00))\n      dup1\n      0x67238562\n      eq\n      tag_3\n      jumpi\n    tag_2:\n      0x00\n      dup1\n      revert\n        /* \"Users/kacperkondracki/Desktop/PORTFOLIO/web3-todo/backend/contracts/TaskContract.sol\":351:492  function addTask(string memory taskText) external {... */\n    tag_3:\n      tag_4\n      0x04\n      dup1\n      calldatasize\n      sub\n      dup2\n      add\n      swap1\n      tag_5\n      swap2\n      swap1\n      tag_6\n      jump\t// in\n    tag_5:\n      tag_7\n      jump\t// in\n    tag_4:\n      stop\n    tag_7:\n        /* \"Users/kacperkondracki/Desktop/PORTFOLIO/web3-todo/backend/contracts/TaskContract.sol\":407:418  uint taskId */\n      0x00\n        /* \"Users/kacperkondracki/Desktop/PORTFOLIO/web3-todo/backend/contracts/TaskContract.sol\":421:426  tasks */\n      dup1\n        /* \"Users/kacperkondracki/Desktop/PORTFOLIO/web3-todo/backend/contracts/TaskContract.sol\":421:433  tasks.length */\n      dup1\n      sload\n      swap1\n      pop\n        /* \"Users/kacperkondracki/Desktop/PORTFOLIO/web3-todo/backend/contracts/TaskContract.sol\":407:433  uint taskId = tasks.length */\n      swap1\n      pop\n        /* \"Users/kacperkondracki/Desktop/PORTFOLIO/web3-todo/backend/contracts/TaskContract.sol\":439:444  tasks */\n      0x00\n        /* \"Users/kacperkondracki/Desktop/PORTFOLIO/web3-todo/backend/contracts/TaskContract.sol\":450:486  Task(taskId, taskText, false, false) */\n      mload(0x40)\n      dup1\n      0x80\n      add\n      0x40\n      mstore\n      dup1\n        /* \"Users/kacperkondracki/Desktop/PORTFOLIO/web3-todo/backend/contracts/TaskContract.sol\":455:461  taskId */\n      dup4\n        /* \"Users/kacperkondracki/Desktop/PORTFOLIO/web3-todo/backend/contracts/TaskContract.sol\":450:486  Task(taskId, taskText, false, false) */\n      dup2\n      mstore\n      0x20\n      add\n        /* \"Users/kacperkondracki/Desktop/PORTFOLIO/web3-todo/backend/contracts/TaskContract.sol\":463:471  taskText */\n      dup5\n        /* \"Users/kacperkondracki/Desktop/PORTFOLIO/web3-todo/backend/contracts/TaskContract.sol\":450:486  Task(taskId, taskText, false, false) */\n      dup2\n      mstore\n      0x20\n      add\n        /* \"Users/kacperkondracki/Desktop/PORTFOLIO/web3-todo/backend/contracts/TaskContract.sol\":473:478  false */\n      0x00\n        /* \"Users/kacperkondracki/Desktop/PORTFOLIO/web3-todo/backend/contracts/TaskContract.sol\":450:486  Task(taskId, taskText, false, false) */\n      iszero\n      iszero\n      dup2\n      mstore\n      0x20\n      add\n        /* \"Users/kacperkondracki/Desktop/PORTFOLIO/web3-todo/backend/contracts/TaskContract.sol\":480:485  false */\n      0x00\n        /* \"Users/kacperkondracki/Desktop/PORTFOLIO/web3-todo/backend/contracts/TaskContract.sol\":450:486  Task(taskId, taskText, false, false) */\n      iszero\n      iszero\n      dup2\n      mstore\n      pop\n        /* \"Users/kacperkondracki/Desktop/PORTFOLIO/web3-todo/backend/contracts/TaskContract.sol\":439:487  tasks.push(Task(taskId, taskText, false, false)) */\n      swap1\n      dup1\n      0x01\n      dup2\n      sload\n      add\n      dup1\n      dup3\n      sstore\n      dup1\n      swap2\n      pop\n      pop\n      0x01\n      swap1\n      sub\n      swap1\n      0x00\n      mstore\n      keccak256(0x00, 0x20)\n      swap1\n      0x03\n      mul\n      add\n      0x00\n      swap1\n      swap2\n      swap1\n      swap2\n      swap1\n      swap2\n      pop\n      0x00\n      dup3\n      add\n      mload\n      dup2\n      0x00\n      add\n      sstore\n      0x20\n      dup3\n      add\n      mload\n      dup2\n      0x01\n      add\n      swap1\n      dup1\n      mload\n      swap1\n      0x20\n      add\n      swap1\n      tag_10\n      swap3\n      swap2\n      swap1\n      tag_11\n      jump\t// in\n    tag_10:\n      pop\n      0x40\n      dup3\n      add\n      mload\n      dup2\n      0x02\n      add\n      exp(0x0100, 0x00)\n      dup2\n      sload\n      dup2\n      0xff\n      mul\n      not\n      and\n      swap1\n      dup4\n      iszero\n      iszero\n      mul\n      or\n      swap1\n      sstore\n      pop\n      0x60\n      dup3\n      add\n      mload\n      dup2\n      0x02\n      add\n      exp(0x0100, 0x01)\n      dup2\n      sload\n      dup2\n      0xff\n      mul\n      not\n      and\n      swap1\n      dup4\n      iszero\n      iszero\n      mul\n      or\n      swap1\n      sstore\n      pop\n      pop\n      pop\n        /* \"Users/kacperkondracki/Desktop/PORTFOLIO/web3-todo/backend/contracts/TaskContract.sol\":401:492  {... */\n      pop\n        /* \"Users/kacperkondracki/Desktop/PORTFOLIO/web3-todo/backend/contracts/TaskContract.sol\":351:492  function addTask(string memory taskText) external {... */\n      pop\n      jump\t// out\n    tag_11:\n      dup3\n      dup1\n      sload\n      tag_12\n      swap1\n      tag_13\n      jump\t// in\n    tag_12:\n      swap1\n      0x00\n      mstore\n      keccak256(0x00, 0x20)\n      swap1\n      0x1f\n      add\n      0x20\n      swap1\n      div\n      dup2\n      add\n      swap3\n      dup3\n      tag_15\n      jumpi\n      0x00\n      dup6\n      sstore\n      jump(tag_14)\n    tag_15:\n      dup3\n      0x1f\n      lt\n      tag_16\n      jumpi\n      dup1\n      mload\n      not(0xff)\n      and\n      dup4\n      dup1\n      add\n      or\n      dup6\n      sstore\n      jump(tag_14)\n    tag_16:\n      dup3\n      dup1\n      add\n      0x01\n      add\n      dup6\n      sstore\n      dup3\n      iszero\n      tag_14\n      jumpi\n      swap2\n      dup3\n      add\n    tag_17:\n      dup3\n      dup2\n      gt\n      iszero\n      tag_18\n      jumpi\n      dup3\n      mload\n      dup3\n      sstore\n      swap2\n      0x20\n      add\n      swap2\n      swap1\n      0x01\n      add\n      swap1\n      jump(tag_17)\n    tag_18:\n    tag_14:\n      pop\n      swap1\n      pop\n      tag_19\n      swap2\n      swap1\n      tag_20\n      jump\t// in\n    tag_19:\n      pop\n      swap1\n      jump\t// out\n    tag_20:\n    tag_21:\n      dup1\n      dup3\n      gt\n      iszero\n      tag_22\n      jumpi\n      0x00\n      dup2\n      0x00\n      swap1\n      sstore\n      pop\n      0x01\n      add\n      jump(tag_21)\n    tag_22:\n      pop\n      swap1\n      jump\t// out\n        /* \"#utility.yul\":7:419   */\n    tag_24:\n        /* \"#utility.yul\":85:90   */\n      0x00\n        /* \"#utility.yul\":110:176   */\n      tag_26\n        /* \"#utility.yul\":126:175   */\n      tag_27\n        /* \"#utility.yul\":168:174   */\n      dup5\n        /* \"#utility.yul\":126:175   */\n      tag_28\n      jump\t// in\n    tag_27:\n        /* \"#utility.yul\":110:176   */\n      tag_29\n      jump\t// in\n    tag_26:\n        /* \"#utility.yul\":101:176   */\n      swap1\n      pop\n        /* \"#utility.yul\":199:205   */\n      dup3\n        /* \"#utility.yul\":192:197   */\n      dup2\n        /* \"#utility.yul\":185:206   */\n      mstore\n        /* \"#utility.yul\":237:241   */\n      0x20\n        /* \"#utility.yul\":230:235   */\n      dup2\n        /* \"#utility.yul\":226:242   */\n      add\n        /* \"#utility.yul\":275:278   */\n      dup5\n        /* \"#utility.yul\":266:272   */\n      dup5\n        /* \"#utility.yul\":261:264   */\n      dup5\n        /* \"#utility.yul\":257:273   */\n      add\n        /* \"#utility.yul\":254:279   */\n      gt\n        /* \"#utility.yul\":251:363   */\n      iszero\n      tag_30\n      jumpi\n        /* \"#utility.yul\":282:361   */\n      tag_31\n      tag_32\n      jump\t// in\n    tag_31:\n        /* \"#utility.yul\":251:363   */\n    tag_30:\n        /* \"#utility.yul\":372:413   */\n      tag_33\n        /* \"#utility.yul\":406:412   */\n      dup5\n        /* \"#utility.yul\":401:404   */\n      dup3\n        /* \"#utility.yul\":396:399   */\n      dup6\n        /* \"#utility.yul\":372:413   */\n      tag_34\n      jump\t// in\n    tag_33:\n        /* \"#utility.yul\":91:419   */\n      pop\n        /* \"#utility.yul\":7:419   */\n      swap4\n      swap3\n      pop\n      pop\n      pop\n      jump\t// out\n        /* \"#utility.yul\":439:779   */\n    tag_35:\n        /* \"#utility.yul\":495:500   */\n      0x00\n        /* \"#utility.yul\":544:547   */\n      dup3\n        /* \"#utility.yul\":537:541   */\n      0x1f\n        /* \"#utility.yul\":529:535   */\n      dup4\n        /* \"#utility.yul\":525:542   */\n      add\n        /* \"#utility.yul\":521:548   */\n      slt\n        /* \"#utility.yul\":511:633   */\n      tag_37\n      jumpi\n        /* \"#utility.yul\":552:631   */\n      tag_38\n      tag_39\n      jump\t// in\n    tag_38:\n        /* \"#utility.yul\":511:633   */\n    tag_37:\n        /* \"#utility.yul\":669:675   */\n      dup2\n        /* \"#utility.yul\":656:676   */\n      calldataload\n        /* \"#utility.yul\":694:773   */\n      tag_40\n        /* \"#utility.yul\":769:772   */\n      dup5\n        /* \"#utility.yul\":761:767   */\n      dup3\n        /* \"#utility.yul\":754:758   */\n      0x20\n        /* \"#utility.yul\":746:752   */\n      dup7\n        /* \"#utility.yul\":742:759   */\n      add\n        /* \"#utility.yul\":694:773   */\n      tag_24\n      jump\t// in\n    tag_40:\n        /* \"#utility.yul\":685:773   */\n      swap2\n      pop\n        /* \"#utility.yul\":501:779   */\n      pop\n        /* \"#utility.yul\":439:779   */\n      swap3\n      swap2\n      pop\n      pop\n      jump\t// out\n        /* \"#utility.yul\":785:1294   */\n    tag_6:\n        /* \"#utility.yul\":854:860   */\n      0x00\n        /* \"#utility.yul\":903:905   */\n      0x20\n        /* \"#utility.yul\":891:900   */\n      dup3\n        /* \"#utility.yul\":882:889   */\n      dup5\n        /* \"#utility.yul\":878:901   */\n      sub\n        /* \"#utility.yul\":874:906   */\n      slt\n        /* \"#utility.yul\":871:990   */\n      iszero\n      tag_42\n      jumpi\n        /* \"#utility.yul\":909:988   */\n      tag_43\n      tag_44\n      jump\t// in\n    tag_43:\n        /* \"#utility.yul\":871:990   */\n    tag_42:\n        /* \"#utility.yul\":1057:1058   */\n      0x00\n        /* \"#utility.yul\":1046:1055   */\n      dup3\n        /* \"#utility.yul\":1042:1059   */\n      add\n        /* \"#utility.yul\":1029:1060   */\n      calldataload\n        /* \"#utility.yul\":1087:1105   */\n      0xffffffffffffffff\n        /* \"#utility.yul\":1079:1085   */\n      dup2\n        /* \"#utility.yul\":1076:1106   */\n      gt\n        /* \"#utility.yul\":1073:1190   */\n      iszero\n      tag_45\n      jumpi\n        /* \"#utility.yul\":1109:1188   */\n      tag_46\n      tag_47\n      jump\t// in\n    tag_46:\n        /* \"#utility.yul\":1073:1190   */\n    tag_45:\n        /* \"#utility.yul\":1214:1277   */\n      tag_48\n        /* \"#utility.yul\":1269:1276   */\n      dup5\n        /* \"#utility.yul\":1260:1266   */\n      dup3\n        /* \"#utility.yul\":1249:1258   */\n      dup6\n        /* \"#utility.yul\":1245:1267   */\n      add\n        /* \"#utility.yul\":1214:1277   */\n      tag_35\n      jump\t// in\n    tag_48:\n        /* \"#utility.yul\":1204:1277   */\n      swap2\n      pop\n        /* \"#utility.yul\":1000:1287   */\n      pop\n        /* \"#utility.yul\":785:1294   */\n      swap3\n      swap2\n      pop\n      pop\n      jump\t// out\n        /* \"#utility.yul\":1300:1429   */\n    tag_29:\n        /* \"#utility.yul\":1334:1340   */\n      0x00\n        /* \"#utility.yul\":1361:1381   */\n      tag_50\n      tag_51\n      jump\t// in\n    tag_50:\n        /* \"#utility.yul\":1351:1381   */\n      swap1\n      pop\n        /* \"#utility.yul\":1390:1423   */\n      tag_52\n        /* \"#utility.yul\":1418:1422   */\n      dup3\n        /* \"#utility.yul\":1410:1416   */\n      dup3\n        /* \"#utility.yul\":1390:1423   */\n      tag_53\n      jump\t// in\n    tag_52:\n        /* \"#utility.yul\":1300:1429   */\n      swap2\n      swap1\n      pop\n      jump\t// out\n        /* \"#utility.yul\":1435:1510   */\n    tag_51:\n        /* \"#utility.yul\":1468:1474   */\n      0x00\n        /* \"#utility.yul\":1501:1503   */\n      0x40\n        /* \"#utility.yul\":1495:1504   */\n      mload\n        /* \"#utility.yul\":1485:1504   */\n      swap1\n      pop\n        /* \"#utility.yul\":1435:1510   */\n      swap1\n      jump\t// out\n        /* \"#utility.yul\":1516:1824   */\n    tag_28:\n        /* \"#utility.yul\":1578:1582   */\n      0x00\n        /* \"#utility.yul\":1668:1686   */\n      0xffffffffffffffff\n        /* \"#utility.yul\":1660:1666   */\n      dup3\n        /* \"#utility.yul\":1657:1687   */\n      gt\n        /* \"#utility.yul\":1654:1710   */\n      iszero\n      tag_56\n      jumpi\n        /* \"#utility.yul\":1690:1708   */\n      tag_57\n      tag_58\n      jump\t// in\n    tag_57:\n        /* \"#utility.yul\":1654:1710   */\n    tag_56:\n        /* \"#utility.yul\":1728:1757   */\n      tag_59\n        /* \"#utility.yul\":1750:1756   */\n      dup3\n        /* \"#utility.yul\":1728:1757   */\n      tag_60\n      jump\t// in\n    tag_59:\n        /* \"#utility.yul\":1720:1757   */\n      swap1\n      pop\n        /* \"#utility.yul\":1812:1816   */\n      0x20\n        /* \"#utility.yul\":1806:1810   */\n      dup2\n        /* \"#utility.yul\":1802:1817   */\n      add\n        /* \"#utility.yul\":1794:1817   */\n      swap1\n      pop\n        /* \"#utility.yul\":1516:1824   */\n      swap2\n      swap1\n      pop\n      jump\t// out\n        /* \"#utility.yul\":1830:1984   */\n    tag_34:\n        /* \"#utility.yul\":1914:1920   */\n      dup3\n        /* \"#utility.yul\":1909:1912   */\n      dup2\n        /* \"#utility.yul\":1904:1907   */\n      dup4\n        /* \"#utility.yul\":1891:1921   */\n      calldatacopy\n        /* \"#utility.yul\":1976:1977   */\n      0x00\n        /* \"#utility.yul\":1967:1973   */\n      dup4\n        /* \"#utility.yul\":1962:1965   */\n      dup4\n        /* \"#utility.yul\":1958:1974   */\n      add\n        /* \"#utility.yul\":1951:1978   */\n      mstore\n        /* \"#utility.yul\":1830:1984   */\n      pop\n      pop\n      pop\n      jump\t// out\n        /* \"#utility.yul\":1990:2310   */\n    tag_13:\n        /* \"#utility.yul\":2034:2040   */\n      0x00\n        /* \"#utility.yul\":2071:2072   */\n      0x02\n        /* \"#utility.yul\":2065:2069   */\n      dup3\n        /* \"#utility.yul\":2061:2073   */\n      div\n        /* \"#utility.yul\":2051:2073   */\n      swap1\n      pop\n        /* \"#utility.yul\":2118:2119   */\n      0x01\n        /* \"#utility.yul\":2112:2116   */\n      dup3\n        /* \"#utility.yul\":2108:2120   */\n      and\n        /* \"#utility.yul\":2139:2157   */\n      dup1\n        /* \"#utility.yul\":2129:2210   */\n      tag_63\n      jumpi\n        /* \"#utility.yul\":2195:2199   */\n      0x7f\n        /* \"#utility.yul\":2187:2193   */\n      dup3\n        /* \"#utility.yul\":2183:2200   */\n      and\n        /* \"#utility.yul\":2173:2200   */\n      swap2\n      pop\n        /* \"#utility.yul\":2129:2210   */\n    tag_63:\n        /* \"#utility.yul\":2257:2259   */\n      0x20\n        /* \"#utility.yul\":2249:2255   */\n      dup3\n        /* \"#utility.yul\":2246:2260   */\n      lt\n        /* \"#utility.yul\":2226:2244   */\n      dup2\n        /* \"#utility.yul\":2223:2261   */\n      eq\n        /* \"#utility.yul\":2220:2304   */\n      iszero\n      tag_64\n      jumpi\n        /* \"#utility.yul\":2276:2294   */\n      tag_65\n      tag_66\n      jump\t// in\n    tag_65:\n        /* \"#utility.yul\":2220:2304   */\n    tag_64:\n        /* \"#utility.yul\":2041:2310   */\n      pop\n        /* \"#utility.yul\":1990:2310   */\n      swap2\n      swap1\n      pop\n      jump\t// out\n        /* \"#utility.yul\":2316:2597   */\n    tag_53:\n        /* \"#utility.yul\":2399:2426   */\n      tag_68\n        /* \"#utility.yul\":2421:2425   */\n      dup3\n        /* \"#utility.yul\":2399:2426   */\n      tag_60\n      jump\t// in\n    tag_68:\n        /* \"#utility.yul\":2391:2397   */\n      dup2\n        /* \"#utility.yul\":2387:2427   */\n      add\n        /* \"#utility.yul\":2529:2535   */\n      dup2\n        /* \"#utility.yul\":2517:2527   */\n      dup2\n        /* \"#utility.yul\":2514:2536   */\n      lt\n        /* \"#utility.yul\":2493:2511   */\n      0xffffffffffffffff\n        /* \"#utility.yul\":2481:2491   */\n      dup3\n        /* \"#utility.yul\":2478:2512   */\n      gt\n        /* \"#utility.yul\":2475:2537   */\n      or\n        /* \"#utility.yul\":2472:2560   */\n      iszero\n      tag_69\n      jumpi\n        /* \"#utility.yul\":2540:2558   */\n      tag_70\n      tag_58\n      jump\t// in\n    tag_70:\n        /* \"#utility.yul\":2472:2560   */\n    tag_69:\n        /* \"#utility.yul\":2580:2590   */\n      dup1\n        /* \"#utility.yul\":2576:2578   */\n      0x40\n        /* \"#utility.yul\":2569:2591   */\n      mstore\n        /* \"#utility.yul\":2359:2597   */\n      pop\n        /* \"#utility.yul\":2316:2597   */\n      pop\n      pop\n      jump\t// out\n        /* \"#utility.yul\":2603:2783   */\n    tag_66:\n        /* \"#utility.yul\":2651:2728   */\n      0x4e487b7100000000000000000000000000000000000000000000000000000000\n        /* \"#utility.yul\":2648:2649   */\n      0x00\n        /* \"#utility.yul\":2641:2729   */\n      mstore\n        /* \"#utility.yul\":2748:2752   */\n      0x22\n        /* \"#utility.yul\":2745:2746   */\n      0x04\n        /* \"#utility.yul\":2738:2753   */\n      mstore\n        /* \"#utility.yul\":2772:2776   */\n      0x24\n        /* \"#utility.yul\":2769:2770   */\n      0x00\n        /* \"#utility.yul\":2762:2777   */\n      revert\n        /* \"#utility.yul\":2789:2969   */\n    tag_58:\n        /* \"#utility.yul\":2837:2914   */\n      0x4e487b7100000000000000000000000000000000000000000000000000000000\n        /* \"#utility.yul\":2834:2835   */\n      0x00\n        /* \"#utility.yul\":2827:2915   */\n      mstore\n        /* \"#utility.yul\":2934:2938   */\n      0x41\n        /* \"#utility.yul\":2931:2932   */\n      0x04\n        /* \"#utility.yul\":2924:2939   */\n      mstore\n        /* \"#utility.yul\":2958:2962   */\n      0x24\n        /* \"#utility.yul\":2955:2956   */\n      0x00\n        /* \"#utility.yul\":2948:2963   */\n      revert\n        /* \"#utility.yul\":2975:3092   */\n    tag_39:\n        /* \"#utility.yul\":3084:3085   */\n      0x00\n        /* \"#utility.yul\":3081:3082   */\n      dup1\n        /* \"#utility.yul\":3074:3086   */\n      revert\n        /* \"#utility.yul\":3098:3215   */\n    tag_32:\n        /* \"#utility.yul\":3207:3208   */\n      0x00\n        /* \"#utility.yul\":3204:3205   */\n      dup1\n        /* \"#utility.yul\":3197:3209   */\n      revert\n        /* \"#utility.yul\":3221:3338   */\n    tag_47:\n        /* \"#utility.yul\":3330:3331   */\n      0x00\n        /* \"#utility.yul\":3327:3328   */\n      dup1\n        /* \"#utility.yul\":3320:3332   */\n      revert\n        /* \"#utility.yul\":3344:3461   */\n    tag_44:\n        /* \"#utility.yul\":3453:3454   */\n      0x00\n        /* \"#utility.yul\":3450:3451   */\n      dup1\n        /* \"#utility.yul\":3443:3455   */\n      revert\n        /* \"#utility.yul\":3467:3569   */\n    tag_60:\n        /* \"#utility.yul\":3508:3514   */\n      0x00\n        /* \"#utility.yul\":3559:3561   */\n      0x1f\n        /* \"#utility.yul\":3555:3562   */\n      not\n        /* \"#utility.yul\":3550:3552   */\n      0x1f\n        /* \"#utility.yul\":3543:3548   */\n      dup4\n        /* \"#utility.yul\":3539:3553   */\n      add\n        /* \"#utility.yul\":3535:3563   */\n      and\n        /* \"#utility.yul\":3525:3563   */\n      swap1\n      pop\n        /* \"#utility.yul\":3467:3569   */\n      swap2\n      swap1\n      pop\n      jump\t// out\n\n    auxdata: 0xa2646970667358221220f0bc85607dcc9d7d74b7e490e4af74b2689418e8eabd3e6f039cae94cf322e0264736f6c63430008070033\n}\n",
				"bytecode": {
					"linkReferences": {},
					"object": "608060405234801561001057600080fd5b506103f1806100206000396000f3fe608060405234801561001057600080fd5b506004361061002b5760003560e01c80636723856214610030575b600080fd5b61004a60048036038101906100459190610227565b61004c565b005b600080805490509050600060405180608001604052808381526020018481526020016000151581526020016000151581525090806001815401808255809150506001900390600052602060002090600302016000909190919091506000820151816000015560208201518160010190805190602001906100cd929190610114565b5060408201518160020160006101000a81548160ff02191690831515021790555060608201518160020160016101000a81548160ff02191690831515021790555050505050565b828054610120906102d5565b90600052602060002090601f0160209004810192826101425760008555610189565b82601f1061015b57805160ff1916838001178555610189565b82800160010185558215610189579182015b8281111561018857825182559160200191906001019061016d565b5b509050610196919061019a565b5090565b5b808211156101b357600081600090555060010161019b565b5090565b60006101ca6101c584610295565b610270565b9050828152602081018484840111156101e6576101e561039b565b5b6101f18482856102c6565b509392505050565b600082601f83011261020e5761020d610396565b5b813561021e8482602086016101b7565b91505092915050565b60006020828403121561023d5761023c6103a5565b5b600082013567ffffffffffffffff81111561025b5761025a6103a0565b5b610267848285016101f9565b91505092915050565b600061027a61028b565b90506102868282610307565b919050565b6000604051905090565b600067ffffffffffffffff8211156102b0576102af610367565b5b6102b9826103aa565b9050602081019050919050565b82818337600083830152505050565b600060028204905060018216806102ed57607f821691505b6020821081141561030157610300610338565b5b50919050565b610310826103aa565b810181811067ffffffffffffffff8211171561032f5761032e610367565b5b80604052505050565b7f4e487b7100000000000000000000000000000000000000000000000000000000600052602260045260246000fd5b7f4e487b7100000000000000000000000000000000000000000000000000000000600052604160045260246000fd5b600080fd5b600080fd5b600080fd5b600080fd5b6000601f19601f830116905091905056fea2646970667358221220f0bc85607dcc9d7d74b7e490e4af74b2689418e8eabd3e6f039cae94cf322e0264736f6c63430008070033",
					"opcodes": "PUSH1 0x80 PUSH1 0x40 MSTORE CALLVALUE DUP1 ISZERO PUSH2 0x10 JUMPI PUSH1 0x0 DUP1 REVERT JUMPDEST POP PUSH2 0x3F1 DUP1 PUSH2 0x20 PUSH1 0x0 CODECOPY PUSH1 0x0 RETURN INVALID PUSH1 0x80 PUSH1 0x40 MSTORE CALLVALUE DUP1 ISZERO PUSH2 0x10 JUMPI PUSH1 0x0 DUP1 REVERT JUMPDEST POP PUSH1 0x4 CALLDATASIZE LT PUSH2 0x2B JUMPI PUSH1 0x0 CALLDATALOAD PUSH1 0xE0 SHR DUP1 PUSH4 0x67238562 EQ PUSH2 0x30 JUMPI JUMPDEST PUSH1 0x0 DUP1 REVERT JUMPDEST PUSH2 0x4A PUSH1 0x4 DUP1 CALLDATASIZE SUB DUP2 ADD SWAP1 PUSH2 0x45 SWAP2 SWAP1 PUSH2 0x227 JUMP JUMPDEST PUSH2 0x4C JUMP JUMPDEST STOP JUMPDEST PUSH1 0x0 DUP1 DUP1 SLOAD SWAP1 POP SWAP1 POP PUSH1 0x0 PUSH1 0x40 MLOAD DUP1 PUSH1 0x80 ADD PUSH1 0x40 MSTORE DUP1 DUP4 DUP2 MSTORE PUSH1 0x20 ADD DUP5 DUP2 MSTORE PUSH1 0x20 ADD PUSH1 0x0 ISZERO ISZERO DUP2 MSTORE PUSH1 0x20 ADD PUSH1 0x0 ISZERO ISZERO DUP2 MSTORE POP SWAP1 DUP1 PUSH1 0x1 DUP2 SLOAD ADD DUP1 DUP3 SSTORE DUP1 SWAP2 POP POP PUSH1 0x1 SWAP1 SUB SWAP1 PUSH1 0x0 MSTORE PUSH1 0x20 PUSH1 0x0 KECCAK256 SWAP1 PUSH1 0x3 MUL ADD PUSH1 0x0 SWAP1 SWAP2 SWAP1 SWAP2 SWAP1 SWAP2 POP PUSH1 0x0 DUP3 ADD MLOAD DUP2 PUSH1 0x0 ADD SSTORE PUSH1 0x20 DUP3 ADD MLOAD DUP2 PUSH1 0x1 ADD SWAP1 DUP1 MLOAD SWAP1 PUSH1 0x20 ADD SWAP1 PUSH2 0xCD SWAP3 SWAP2 SWAP1 PUSH2 0x114 JUMP JUMPDEST POP PUSH1 0x40 DUP3 ADD MLOAD DUP2 PUSH1 0x2 ADD PUSH1 0x0 PUSH2 0x100 EXP DUP2 SLOAD DUP2 PUSH1 0xFF MUL NOT AND SWAP1 DUP4 ISZERO ISZERO MUL OR SWAP1 SSTORE POP PUSH1 0x60 DUP3 ADD MLOAD DUP2 PUSH1 0x2 ADD PUSH1 0x1 PUSH2 0x100 EXP DUP2 SLOAD DUP2 PUSH1 0xFF MUL NOT AND SWAP1 DUP4 ISZERO ISZERO MUL OR SWAP1 SSTORE POP POP POP POP POP JUMP JUMPDEST DUP3 DUP1 SLOAD PUSH2 0x120 SWAP1 PUSH2 0x2D5 JUMP JUMPDEST SWAP1 PUSH1 0x0 MSTORE PUSH1 0x20 PUSH1 0x0 KECCAK256 SWAP1 PUSH1 0x1F ADD PUSH1 0x20 SWAP1 DIV DUP2 ADD SWAP3 DUP3 PUSH2 0x142 JUMPI PUSH1 0x0 DUP6 SSTORE PUSH2 0x189 JUMP JUMPDEST DUP3 PUSH1 0x1F LT PUSH2 0x15B JUMPI DUP1 MLOAD PUSH1 0xFF NOT AND DUP4 DUP1 ADD OR DUP6 SSTORE PUSH2 0x189 JUMP JUMPDEST DUP3 DUP1 ADD PUSH1 0x1 ADD DUP6 SSTORE DUP3 ISZERO PUSH2 0x189 JUMPI SWAP2 DUP3 ADD JUMPDEST DUP3 DUP2 GT ISZERO PUSH2 0x188 JUMPI DUP3 MLOAD DUP3 SSTORE SWAP2 PUSH1 0x20 ADD SWAP2 SWAP1 PUSH1 0x1 ADD SWAP1 PUSH2 0x16D JUMP JUMPDEST JUMPDEST POP SWAP1 POP PUSH2 0x196 SWAP2 SWAP1 PUSH2 0x19A JUMP JUMPDEST POP SWAP1 JUMP JUMPDEST JUMPDEST DUP1 DUP3 GT ISZERO PUSH2 0x1B3 JUMPI PUSH1 0x0 DUP2 PUSH1 0x0 SWAP1 SSTORE POP PUSH1 0x1 ADD PUSH2 0x19B JUMP JUMPDEST POP SWAP1 JUMP JUMPDEST PUSH1 0x0 PUSH2 0x1CA PUSH2 0x1C5 DUP5 PUSH2 0x295 JUMP JUMPDEST PUSH2 0x270 JUMP JUMPDEST SWAP1 POP DUP3 DUP2 MSTORE PUSH1 0x20 DUP2 ADD DUP5 DUP5 DUP5 ADD GT ISZERO PUSH2 0x1E6 JUMPI PUSH2 0x1E5 PUSH2 0x39B JUMP JUMPDEST JUMPDEST PUSH2 0x1F1 DUP5 DUP3 DUP6 PUSH2 0x2C6 JUMP JUMPDEST POP SWAP4 SWAP3 POP POP POP JUMP JUMPDEST PUSH1 0x0 DUP3 PUSH1 0x1F DUP4 ADD SLT PUSH2 0x20E JUMPI PUSH2 0x20D PUSH2 0x396 JUMP JUMPDEST JUMPDEST DUP2 CALLDATALOAD PUSH2 0x21E DUP5 DUP3 PUSH1 0x20 DUP7 ADD PUSH2 0x1B7 JUMP JUMPDEST SWAP2 POP POP SWAP3 SWAP2 POP POP JUMP JUMPDEST PUSH1 0x0 PUSH1 0x20 DUP3 DUP5 SUB SLT ISZERO PUSH2 0x23D JUMPI PUSH2 0x23C PUSH2 0x3A5 JUMP JUMPDEST JUMPDEST PUSH1 0x0 DUP3 ADD CALLDATALOAD PUSH8 0xFFFFFFFFFFFFFFFF DUP2 GT ISZERO PUSH2 0x25B JUMPI PUSH2 0x25A PUSH2 0x3A0 JUMP JUMPDEST JUMPDEST PUSH2 0x267 DUP5 DUP3 DUP6 ADD PUSH2 0x1F9 JUMP JUMPDEST SWAP2 POP POP SWAP3 SWAP2 POP POP JUMP JUMPDEST PUSH1 0x0 PUSH2 0x27A PUSH2 0x28B JUMP JUMPDEST SWAP1 POP PUSH2 0x286 DUP3 DUP3 PUSH2 0x307 JUMP JUMPDEST SWAP2 SWAP1 POP JUMP JUMPDEST PUSH1 0x0 PUSH1 0x40 MLOAD SWAP1 POP SWAP1 JUMP JUMPDEST PUSH1 0x0 PUSH8 0xFFFFFFFFFFFFFFFF DUP3 GT ISZERO PUSH2 0x2B0 JUMPI PUSH2 0x2AF PUSH2 0x367 JUMP JUMPDEST JUMPDEST PUSH2 0x2B9 DUP3 PUSH2 0x3AA JUMP JUMPDEST SWAP1 POP PUSH1 0x20 DUP2 ADD SWAP1 POP SWAP2 SWAP1 POP JUMP JUMPDEST DUP3 DUP2 DUP4 CALLDATACOPY PUSH1 0x0 DUP4 DUP4 ADD MSTORE POP POP POP JUMP JUMPDEST PUSH1 0x0 PUSH1 0x2 DUP3 DIV SWAP1 POP PUSH1 0x1 DUP3 AND DUP1 PUSH2 0x2ED JUMPI PUSH1 0x7F DUP3 AND SWAP2 POP JUMPDEST PUSH1 0x20 DUP3 LT DUP2 EQ ISZERO PUSH2 0x301 JUMPI PUSH2 0x300 PUSH2 0x338 JUMP JUMPDEST JUMPDEST POP SWAP2 SWAP1 POP JUMP JUMPDEST PUSH2 0x310 DUP3 PUSH2 0x3AA JUMP JUMPDEST DUP2 ADD DUP2 DUP2 LT PUSH8 0xFFFFFFFFFFFFFFFF DUP3 GT OR ISZERO PUSH2 0x32F JUMPI PUSH2 0x32E PUSH2 0x367 JUMP JUMPDEST JUMPDEST DUP1 PUSH1 0x40 MSTORE POP POP POP JUMP JUMPDEST PUSH32 0x4E487B7100000000000000000000000000000000000000000000000000000000 PUSH1 0x0 MSTORE PUSH1 0x22 PUSH1 0x4 MSTORE PUSH1 0x24 PUSH1 0x0 REVERT JUMPDEST PUSH32 0x4E487B7100000000000000000000000000000000000000000000000000000000 PUSH1 0x0 MSTORE PUSH1 0x41 PUSH1 0x4 MSTORE PUSH1 0x24 PUSH1 0x0 REVERT JUMPDEST PUSH1 0x0 DUP1 REVERT JUMPDEST PUSH1 0x0 DUP1 REVERT JUMPDEST PUSH1 0x0 DUP1 REVERT JUMPDEST PUSH1 0x0 DUP1 REVERT JUMPDEST PUSH1 0x0 PUSH1 0x1F NOT PUSH1 0x1F DUP4 ADD AND SWAP1 POP SWAP2 SWAP1 POP JUMP INVALID LOG2 PUSH5 0x6970667358 0x22 SLT KECCAK256 CREATE 0xBC DUP6 PUSH1 0x7D 0xCC SWAP14 PUSH30 0x74B7E490E4AF74B2689418E8EABD3E6F039CAE94CF322E0264736F6C6343 STOP ADDMOD SMOD STOP CALLER "
				},
				"gasEstimates": {
					"creation": {
						"codeDepositCost": "201800",
						"executionCost": "245",
						"totalCost": "202045"
					},
					"external": {
						"addTask(string)": "infinite"
					}
				},
				"methodIdentifiers": {
					"addTask(string)": "67238562"
				}
			},
			"storageLayout": {
				"storage": [
					{
						"astId": 26,
						"contract": "Users/kacperkondracki/Desktop/PORTFOLIO/web3-todo/backend/contracts/TaskContract.sol:TaskContract",
						"label": "tasks",
						"offset": 0,
						"slot": "0",
						"type": "t_array(t_struct(Task)22_storage)dyn_storage"
					},
					{
						"astId": 30,
						"contract": "Users/kacperkondracki/Desktop/PORTFOLIO/web3-todo/backend/contracts/TaskContract.sol:TaskContract",
						"label": "taskToOwner",
						"offset": 0,
						"slot": "1",
						"type": "t_mapping(t_uint256,t_address)"
					}
				],
				"types": {
					"t_address": {
						"encoding": "inplace",
						"label": "address",
						"numberOfBytes": "20"
					},
					"t_array(t_struct(Task)22_storage)dyn_storage": {
						"base": "t_struct(Task)22_storage",
						"encoding": "dynamic_array",
						"label": "struct TaskContract.Task[]",
						"numberOfBytes": "32"
					},
					"t_bool": {
						"encoding": "inplace",
						"label": "bool",
						"numberOfBytes": "1"
					},
					"t_mapping(t_uint256,t_address)": {
						"encoding": "mapping",
						"key": "t_uint256",
						"label": "mapping(uint256 => address)",
						"numberOfBytes": "32",
						"value": "t_address"
					},
					"t_string_storage": {
						"encoding": "bytes",
						"label": "string",
						"numberOfBytes": "32"
					},
					"t_struct(Task)22_storage": {
						"encoding": "inplace",
						"label": "struct TaskContract.Task",
						"members": [
							{
								"astId": 15,
								"contract": "Users/kacperkondracki/Desktop/PORTFOLIO/web3-todo/backend/contracts/TaskContract.sol:TaskContract",
								"label": "id",
								"offset": 0,
								"slot": "0",
								"type": "t_uint256"
							},
							{
								"astId": 17,
								"contract": "Users/kacperkondracki/Desktop/PORTFOLIO/web3-todo/backend/contracts/TaskContract.sol:TaskContract",
								"label": "taskText",
								"offset": 0,
								"slot": "1",
								"type": "t_string_storage"
							},
							{
								"astId": 19,
								"contract": "Users/kacperkondracki/Desktop/PORTFOLIO/web3-todo/backend/contracts/TaskContract.sol:TaskContract",
								"label": "isImportant",
								"offset": 0,
								"slot": "2",
								"type": "t_bool"
							},
							{
								"astId": 21,
								"contract": "Users/kacperkondracki/Desktop/PORTFOLIO/web3-todo/backend/contracts/TaskContract.sol:TaskContract",
								"label": "isDone",
								"offset": 1,
								"slot": "2",
								"type": "t_bool"
							}
						],
						"numberOfBytes": "96"
					},
					"t_uint256": {
						"encoding": "inplace",
						"label": "uint256",
						"numberOfBytes": "32"
					}
				}
			},
			"userdoc": {
				"kind": "user",
				"methods": {},
				"version": 1
			}
		}
	}
}